:100000000C94AF050C94CC050C94CC050C94CC0549
:100010000C94CC050C94CC050C94CC050C94CC051C
:100020000C94CC050C94CC050C94CC050C94CC050C
:100030000C94CC050C94CC050C94CC050C94CC05FC
:100040000C94EE080C94CC050C94CC050C94CC05C7
:100050000C94EC140C94CC050C94CC050C94CC05AD
:100060000C94CC050C94CC050C94CC050C94CC05CC
:100070000C94CC050C94CC050C94CC056E616E00F0
:10008000696E660000407A10F35A00A0724E18099B
:100090000010A5D4E80000E87648170000E40B54EF
:1000A000020000CA9A3B000000E1F50500008096BE
:1000B0009800000040420F000000A08601000000F0
:1000C000102700000000E8030000000064000000AA
:1000D00000000A00000000000100000000002C7673
:1000E000D888DC674F0823DFC1DFAE59E1B1B7968E
:1000F000E5E3E453C63AE651997696E8E6C28426EB
:10010000EB898C9B62ED407C6FFCEFBC9C9F40F2C6
:10011000BAA56FA5F490055A2AF75C936B6CF96742
:100120006DC11BFCE0E40D47FEF520E6B500D0ED07
:10013000902E0300943577050080841E080000206F
:100140004E0A000000C80C333333330F986E12830D
:100150001141EF8D2114893BE65516CFFEE6DB18E1
:10016000D1844B381BF77C1D901DA4BBE4242032A6
:1001700084725E228100C9F124ECA1E53D2763640D
:10018000696E6F70737578585B00550141011540B9
:100190001500000050550522020202222022000014
:1001A0000020220A55054101155015000018505530
:1001B0000D0088808008080000000880880A050477
:1001C0004141515000000016505507220202022002
:1001D000200000000A20A20A4505414151501000AC
:1001E000801550D50D8080808080000800800A80B6
:1001F000A80A4501454140501000000000F00702E8
:1002000002222020202200000000A00205055551F6
:1002100040411500180000D001000008008080084F
:1002200000080000A0000000000000000000160010
:1002300000700000000000000000000A0000200024
:100240000000000000000080150000100000000009
:100250000000000080AA0AA00A00000000000000C0
:100260000060FF1FF0070000000000000000A0BABF
:100270001BA0020000000000000000C0FD1FD00114
:100280000000000000000000A0AE0EA00000000072
:100290000000000000E0FF1F7000000000000000F0
:1002A0000000A0BB1B20000000000000000000C0F8
:1002B000FF1F10000000000000003E5B4F5B3E3E51
:1002C0006B4F6B3E1C3E7C3E1C183C7E3C181C5702
:1002D0007D571C1C5E7F5E1C00183C1800FFE7C3A6
:1002E000E7FF0018241800FFE7DBE7FF30483A0675
:1002F0000E2629792926407F050507407F05253FE1
:100300005A3CE73C5A7F3E1C1C08081C1C3E7F14CC
:10031000227F22145F5F005F5F06097F017F006616
:1003200089956A606060606094A2FFA29408047E70
:10033000040810207E201008082A1C08081C2A081F
:10034000081E101010100C1E0C1E0C30383E3830D9
:10035000060E3E0E06000000000000005F000000D8
:1003600007000700147F147F14242A7F2A12231306
:1003700008646236495620500008070300001C221A
:1003800041000041221C002A1C7F1C2A08083E084C
:10039000080080703000080808080800006060004D
:1003A00020100804023E5149453E00427F40007241
:1003B000494949462141494D331814127F102745B8
:1003C0004545393C4A4949314121110907364949D6
:1003D0004936464949291E000014000000403400F7
:1003E00000000814224114141414140041221408AB
:1003F00002015909063E415D594E7C1211127C7F63
:10040000494949363E414141227F4141413E7F4970
:100410004949417F090909013E414151737F08085B
:10042000087F00417F41002040413F017F081422A6
:10043000417F404040407F021C027F7F0408107FC4
:100440003E4141413E7F090909063E4151215E7FFF
:1004500009192946264949493203017F01033F40D2
:1004600040403F1F2040201F3F4038403F6314085A
:10047000146303047804036159494D43007F4141EB
:10048000410204081020004141417F04020102049E
:100490004040404040000307080020545478407F0B
:1004A000284444383844444428384444287F385445
:1004B00054541800087E090218A4A49C787F0804EC
:1004C000047800447D40002040403D007F102844D7
:1004D0000000417F40007C047804787C08040478A4
:1004E0003844444438FC1824241818242418FC7C6C
:1004F00008040408485454542404043F44243C4051
:1005000040207C1C2040201C3C4030403C442810B3
:1005100028444C9090907C4464544C4400083641EC
:1005200000000077000000413608000201020402CA
:100530003C2623263C1EA1A161123A4040207A3875
:1005400054545559215555794122545478422155D6
:1005500054784020545579400C1E5272123955552A
:100560005559395454545939555454580000457C00
:10057000410002457D420001457C407D1211127D03
:10058000F0282528F07C545545002054547C547C98
:100590000A097F4932494949323A4444443A324A85
:1005A0004848303A4141217A3A42402078009DA0A3
:1005B000A07D3D4242423D3D4040403D3C24FF2421
:1005C00024487E4943662B2FFC2F2BFF0929F62058
:1005D000C0887E090320545479410000447D413095
:1005E00048484A32384040227A007A0A0A727D0D21
:1005F00019317D2629292F28262929292630484DD9
:100600004020380808080808080808382F10C8AC27
:10061000BA2F102834FA00007B000008142A142294
:1006200022142A1408AA005500AAAA55AA55AA00FD
:100630000000FF00101010FF00141414FF00101031
:10064000FF00FF1010F010F0141414FC001414F745
:1006500000FF0000FF00FF1414F404FC1414171032
:100660001F10101F101F1414141F00101010F00082
:100670000000001F101010101F10101010F01000BC
:100680000000FF101010101010101010FF100000CC
:1006900000FF140000FF00FF00001F10170000FC07
:1006A00004F414141710171414F404F40000FF00D9
:1006B000F714141414141414F700F7141414171462
:1006C00010101F101F141414F4141010F010F00068
:1006D000001F101F0000001F14000000FC14000089
:1006E000F010F01010FF10FF141414FF141010106D
:1006F0001F00000000F010FFFFFFFFFFF0F0F0F020
:10070000F0FFFFFF0000000000FFFF0F0F0F0F0FB3
:100710003844443844FC4A4A4A347E0202060602FF
:100720007E027E0263554941633844443C04407E66
:10073000201E2006027E020299A5E7A5991C2A49DF
:100740002A1C4C7201724C304A4D4D30304878486A
:1007500030BC625A463D3E494949007E0101017E56
:100760002A2A2A2A2A44445F444440514A444040A9
:10077000444A51400000FF0103E080FF00000808E8
:100780006B6B083612362436060F090F0600001868
:10079000180000001010003040FF0101001F01018F
:1007A0001E00191D1712003C3C3C3C0000000000DC
:1007B0007D1D0100632C001E9601A01E5A01001F22
:1007C0000806101F0606201F0806301F0806401FD7
:1007D0000606511F0700591F521F5B1F541F5D1F44
:1007E000561F5F1F601F0806701F0E00BA1FBB1F39
:1007F000C81FC91FCA1FCB1FDA1FDB1FF81FF91F35
:10080000EA1FEB1FFA1FFB1F801F0806901F080638
:10081000A01F0806B01F0400B81FB91FB21FBC1FDD
:10082000CC1F0100C31FD01F0206E01F0206E51FF8
:100830000100EC1FF21F0100FC1F4E2101003221BC
:1008400070211002842101008321D0241A05302C4C
:100850002F04602C0201672C0601752C0201802CEC
:100860006401002D260841FF1A03000061001A03ED
:10087000E0001703F8000703FF0001007801000102
:10088000300132010601390110014A012E017901BE
:10089000060180014D004302810182018201840131
:1008A000840186018701870189018A018B018B01FF
:1008B0008D018E018F0190019101910193019401AD
:1008C000F60196019701980198013D029B019C0158
:1008D0009D0120029F01A001A001A201A201A4018B
:1008E000A401A601A701A701A901AA01AB01AC01BE
:1008F000AC01AE01AF01AF01B101B201B301B3016F
:10090000B501B501B701B801B801BA01BB01BC011D
:10091000BC01BE01F701C001C101C201C301C40194
:10092000C501C401C701C801C701CA01CB01CA0181
:10093000CD011001DD0101008E01DE011201F30184
:100940000300F101F401F401F8012801220212016F
:100950003A020900652C3B023B023D02662C3F0235
:1009600040024102410246020A0153024000810155
:100970008601550289018A0158028F015A029001AD
:100980005C025D025E025F029301610262029401F9
:100990006402650266026702970196016A02622C90
:1009A0006C026D026E029C01700271029D01730265
:1009B00074029F0176027702780279027A027B0242
:1009C0007C02642C7E027F02A60181028202A901C0
:1009D0008402850286028702AE014402B101B2019F
:1009E00045028D028E028F0290029102B7017B03B5
:1009F0000300FD03FE03FF03AC030400860388032A
:100A000089038A03B1031103C2030200A303A303F2
:100A1000C4030803CC0303008C038E038F03D803A5
:100A20001801F2030A00F903F303F403F503F603D4
:100A3000F703F703F903FA03FA0330042003500421
:100A40001007600422018A043601C1040E01CF049C
:100A50000100C004D0044401610526040000C70061
:100A6000FC00E900E200E400E000E500E700EA0045
:100A7000EB00E800EF00EE00EC00C400C500C90088
:100A8000E600C600F400F600F200FB00F900FF00EB
:100A9000D600DC00A200A300A500A7209201E1007F
:100AA000ED00F300FA00F100D100AA00BA00BF0087
:100AB0001023AC00BD00BC00A100AB00BB00912521
:100AC0009225932502252425612562255625552545
:100AD0006325512557255D255C255B2510251425AB
:100AE00034252C251C2500253C255E255F255A250F
:100AF000542569256625602550256C2567256825C0
:100B00006425652559255825522553256B256A25C9
:100B100018250C25882584258C2590258025B10352
:100B2000DF009303C003A303C303B500C403A603FC
:100B30009803A903B4031E22C603B5032922612228
:100B4000B1006522642220232123F7004822B0004F
:100B50001922B7001A227F20B200A025A00011247C
:100B60001FBECFEFD0E1DEBFCDBF13E0A0E0B1E00C
:100B7000E8ECF4EC02C005900D92A235B107D9F76C
:100B800027E0A2E5B3E001C01D92A83FB207E1F75C
:100B90000E94B6540C9452620C94000088E10E94AA
:100BA000ED1483E28093B00081E08093B10008955A
:100BB0002F923F924F925F926F927F928F929F926D
:100BC000AF92BF92CF92DF92EF92FF920F931F935B
:100BD000CF93DF9300D000D000D0CDB7DEB76C014B
:100BE00063E070E00E94115A6A567F4F70936B0366
:100BF00060936A032FEF81EE94E021508040904093
:100C0000E1F700C0000083E00E94FD148C01009712
:100C100049F02DE1289F1001299F300C11242AEA68
:100C2000220E311C84E00E94FD1480916A0380939F
:100C3000B4008FEF93EC29E0815090402040E1F721
:100C400000C000009FE0892E912C28EE422E23E068
:100C5000522E612C712C8AE0A82EB12C19821A8296
:100C600084E00E94FD147C01892BC1F089819A8166
:100C70000D969E838D839701A0E8BCE00E94885A60
:100C800069837A838B839C83A30192010E945B5AC0
:100C90008D819E81820F931F9A83898391E0A91A87
:100CA000B108F1F689819A816AE070E00E94115AD8
:100CB000CB0101968C159D0548F480916A039091B3
:100CC0006B03019690936B0380936A03CB010197AA
:100CD000C816D90648F480916A0390916B03019776
:100CE00090936B0380936A0380916A038093B400AE
:100CF0002FEF83EC99E0215080409040E1F700C055
:100D0000000080B11F928F9380916B038F9380912D
:100D10006A038F937F936F933F922F92FF92EF928C
:100D20001F930F938CE391E09F938F9385E292E062
:100D30009F938F930E94275D81E0881A91080FB6D8
:100D4000F894DEBF0FBECDBF09F085CF83E00E94CF
:100D5000FD14009749F04DE1489F9001499F300DE7
:100D60001124C90186559F4F10926B0310926A039C
:100D700026960FB6F894DEBF0FBECDBFDF91CF91A0
:100D80001F910F91FF90EF90DF90CF90BF90AF90A9
:100D90009F908F907F906F905F904F903F902F909B
:100DA00008951F93CF93DF93CDB7DEB7C055D10918
:100DB0000FB6F894DEBF0FBECDBF6F961FAD6F9715
:100DC0006A966EAD7FAD6A9768968EAD9FAD689757
:100DD0000E9462136E966EAD7FAD6E976C968EAD6F
:100DE0009FAD6C970E946B13812F0E9474139E011C
:100DF0002E593F4FA2964EAD5FADA29760E570E0D1
:100E0000CE0101960E94775D6EE071E0CE01019601
:100E10000E94FD5CC05BDF4F0FB6F894DEBF0FBED3
:100E2000CDBFDF91CF911F9108952F923F924F92A6
:100E30005F926F927F928F929F92AF92BF92CF926A
:100E4000DF92EF92FF920F931F93CF93DF93CDB773
:100E5000DEB728970FB6F894DEBF0FBECDBF4C01AA
:100E60002B014F83588739015801EA94EF2809F084
:100E700045C08EE997EF9A8389834EE8242E43E795
:100E8000342E0AE812E5C501880F991F9301281B2B
:100E9000390B4F815885481B590BB501640D751DE1
:100EA000C501880D991D0E94430C10E000E0C301AC
:100EB000840D951D9C838B838F819885880D991D4A
:100EC0009E838D83A016B10624F528960FB6F8945C
:100ED000DEBF0FBECDBFDF91CF911F910F91FF906D
:100EE000EF90DF90CF90BF90AF909F908F907F90CA
:100EF0006F905F904F903F902F9008958EE893E70A
:100F00009A8389833EE9232E37EF332E00E114E8DC
:100F1000BACF7201E00EF11E6401C00ED11E910124
:100F20004F815885B701C6010E94070C6B817C81F7
:100F3000601B710B29813A814F815885C6010E943F
:100F4000070C9101A301B701C6010E94CD0B2981B5
:100F50003A81A301B7018D819E81801B910B0E9474
:100F6000CD0B0F5F1F4F8F819885029798878F83D6
:100F700092E0691A7108A6CF4F925F926F927F92AA
:100F80008F929F92AF92BF92CF92DF92EF92FF9299
:100F90000F931F93CF93DF935C01EB01290148016D
:100FA0000E941507EA94EF28D9F120E134E880E0A7
:100FB00090E0DF92CF921F9241E04F933F932F93A7
:100FC0009F938F93C80DD91DC20157FC019695952B
:100FD0008795C80FD91F2497DF93CF93A80CB91C0E
:100FE0009FE0A90EB11CBF92AF920E94D1068DB7AF
:100FF0009EB70C960FB6F8949EBF0FBE8DBFDF91C3
:10100000CF911F910F91FF90EF90DF90CF90BF9005
:10101000AF909F908F907F906F905F904F900895CA
:101020002AE832E58FEF9FEFC4CF4F925F926F9225
:101030007F928F929F92AF92BF92CF92DF92EF9268
:10104000FF920F931F93CF93DF93CDB7DEB728970F
:101050000FB6F894DEBF0FBECDBF69837A838B8352
:101060009C8329013A01ED82FE820F8318878A2C26
:101070009B2C560129813A814B815C8124193509C9
:10108000460957098B8D9C8DAD8DBE8D7C018D01E0
:10109000E818F9080A091B09C801B7010E94015A9A
:1010A0002D813E814F8158852419350946095709FC
:1010B0000E945B5ADA01C901880D991DAA1DBB1D4A
:1010C000BC01CD0128960FB6F894DEBF0FBECDBF90
:1010D000DF91CF911F910F91FF90EF90DF90CF9014
:1010E000BF90AF909F908F907F906F905F904F9048
:1010F00008952F923F924F925F926F927F928F92BC
:101100009F92AF92BF92CF92DF92EF92FF920F9396
:101110001F93CF93DF9300D000D000D0CDB7DEB7C0
:101120003C015B014A0169010D831E8317014D805B
:101130005E80440C551CF12CE12C0D811E81C301F5
:101140000E94150794012419350926503109D1014F
:101150000E94805A24E630E040E050E00E945B5A52
:101160008901912C812CC418D50886E0C81AD108B1
:1011700093E0A90EB11C8D819E81A80EB91E860D2B
:10118000971D03969A8389838C149D04CCF0269630
:101190000FB6F894DEBF0FBECDBFDF91CF911F9188
:1011A0000F91FF90EF90DF90CF90BF90AF909F9006
:1011B0008F907F906F905F904F903F902F90089509
:1011C000B501680D791D20E030EFA80189819A8171
:1011D0000E94070C9FEF891A990AD6CF1F920F928F
:1011E0000FB60F9211242F933F934F935F936F93FA
:1011F0007F938F939F93AF93BF93EF93FF938091D0
:10120000520390915303019690935303809352039A
:101210000E94AA4EFF91EF91BF91AF919F918F9144
:101220007F916F915F914F913F912F910F900FBEE2
:101230000F901F9018952F923F924F925F926F924E
:101240007F928F929F92AF92BF92CF92DF92EF9256
:10125000FF920F931F93CF93DF93CDB7DEB7C65C9A
:10126000D2400FB6F894DEBF0FBECDBF41E06DE5B2
:1012700072E08E010F5F1F4FC8010E948B31180171
:10128000892B09F091C06E0121ECC21A2DEFD20A10
:101290008E0101571D4F7E0139E4E31A3DEFF30A39
:1012A00083E3A82E81E0B82E95E7892E92E0992E4F
:1012B000702E612E5E2C4F2CA10160E570E0C601FE
:1012C0000E944C4B892BF9F4C1010E94F23F90E03F
:1012D00080E0CA53DD4F0FB6F894DEBF0FBECDBF1E
:1012E000DF91CF911F910F91FF90EF90DF90CF9002
:1012F000BF90AF909F908F907F906F905F904F9036
:101300003F902F900895F60180818332A9F21F93B8
:101310000F93FF92EF9228E632E03F932F93DF92F4
:10132000CF920E945E5D1F930F93FF92EF92BF9248
:10133000AF929F928F920E94275D61E872E0852DA7
:10134000942D0E94AA5C0FB6F894DEBF0FBECDBFED
:10135000892B41F4872D962D0E948F5B9093670314
:101360008093660366E872E0852D942D0E94AA5C46
:10137000892B41F4872D962D0E948F5B90936303F8
:10138000809362036BE872E0852D942D0E94AA5C25
:10139000892B09F091CF872D962D0E94905C909318
:1013A00061038093600388CF8FEF9FEF92CF8FEF21
:1013B0008AB95F9A8AB184618AB9089584B1806BD1
:1013C00084B9269880E58CBD8DB581608DBD5A9A13
:1013D00008958EBD0DB407FEFDCF08959BB19B7E91
:1013E0009BB98EBD0DB407FEFDCF5A9A08955C9A45
:1013F0005A988EBD0DB407FEFDCF5A9A0895BF923C
:10140000CF92DF92EF92FF920F931F93F82E192F36
:10141000B62EC72EE42E052FD22E8AE20E94EE09A8
:10142000812F0E94F7098F2D0E94F709802F0E94BB
:10143000F7098E2D0E94F7098BE20E94EE098C2D90
:101440000E94F7098B2D0E94F7098D2D0E94F70944
:101450008D2D0E94F7098CE20E94EE091F910F91D9
:10146000FF90EF90DF90CF90BF9008955F9A80ED4E
:1014700097E020E931E0F9013197F1F70197D9F7C9
:101480005F9880ED97E020E931E0F9013197F1F7BD
:101490000197D9F75F9A80ED97E020E931E0F901F3
:1014A0003197F1F70197D9F708958FEF8AB95F9ACD
:1014B0008AB184618AB90E94DE0981E00E94EE0946
:1014C00080E197E220E931E0F9013197F1F70197E6
:1014D000D9F78BEC0E94EE0989E30E94F7098CE2B0
:1014E0000E94F70980E00E94F70984E30E94F7094F
:1014F00082E00E94F7098FEC0E94EE0980E00E94D2
:10150000F70981EC0E94F70980E30E94F70988EE51
:101510000E94EE0985E80E94F70980E00E94F70921
:1015200088E70E94F7098AEE0E94EE0980E00E9497
:10153000F70980E00E94F7098DEE0E94EE0984E62B
:101540000E94F70983E00E94F70982E10E94F709EF
:1015500081E80E94F70987EF0E94EE0980E20E946D
:10156000F70980EC0E94EE0983E20E94F70981EC02
:101570000E94EE0980E10E94F70985EC0E94EE09C5
:101580008EE30E94F70988E20E94F70987EC0E9427
:10159000EE0986E80E94F70986E30E94EE0988E4D6
:1015A0000E94F7098AE30E94EE0985E00E94F7098C
:1015B00081EB0E94EE0980E00E94F70988E10E9419
:1015C000F70986EB0E94EE0988E00E94F70982E89D
:1015D0000E94F70987E20E94F70982EF0E94EE0954
:1015E00080E00E94F70986E20E94EE0981E00E94F5
:1015F000F70980EE0E94EE098FE00E94F70981E36F
:101600000E94F7098BE20E94F7098CE00E94F7091B
:101610008EE00E94F70988E00E94F7098EE40E949C
:10162000F70981EF0E94F70987E30E94F70987E035
:101630000E94F70980E10E94F70983E00E94F70900
:101640008EE00E94F70989E00E94F70980E00E947D
:10165000F70981EE0E94EE0980E00E94F7098EE012
:101660000E94F70984E10E94F70983E00E94F709CC
:1016700081E10E94F70987E00E94F70981E30E9457
:10168000F70981EC0E94F70988E40E94F70988E0D5
:101690000E94F7098FE00E94F7098CE00E94F70989
:1016A00081E30E94F70986E30E94F7098FE00E9418
:1016B000F70981E10E94EE0980EB94E020E931E036
:1016C000F9013197F1F70197D9F789E20E94EE0904
:1016D00008951F93182F892F0E94F709812F0E94C8
:1016E000F7091F910895EF92FF920F931F93CF93E5
:1016F000DF937C0140911C0150911D0120911E013E
:1017000030911F01415050402150304080E090E026
:1017100060E070E00E94FF0900E010E00DC0C7012A
:101720000E94690B219680911E0190911F01C8179C
:10173000D907A8F30F5F1F4F80911C0190911D01E5
:101740000817190718F4C0E0D0E0EDCFDF91CF9172
:101750001F910F91FF90EF900895CF93DF93FC01BD
:101760009B01EA0180911C0190911D01E817F90786
:1017700088F480911E0190911F016817790750F439
:10178000CF013196AF012F5F3F4F0E94FF09CE017D
:101790000E94690BDF91CF9108950F931F93CF9310
:1017A000DF93DC01EA01890180911C0190911D0108
:1017B000A817B90738F580911E0190911F0168178D
:1017C000790700F5FB01319720911E0130911F012F
:1017D000CF01840F951F8217930730F0C0911E012F
:1017E000D0911F01C61BD70BEC0FFD1FCD01AD0122
:1017F0009F010E94FF0904C0C8010E94690B219744
:101800002097D1F7DF91CF911F910F9108950F93FA
:101810001F93CF93DF93FC01DB01EA0189018091E3
:101820001C0190911D01E817F90740F580911E01F8
:1018300090911F016817790708F5AF01415050409A
:1018400020911C0130911D01CA018C0F9D1F821730
:10185000930730F0C0911C01D0911D01CE1BDF0B0E
:101860004C0F5D1FCF01BD019D010E94FF0904C007
:10187000C8010E94690B21972097D1F7DF91CF9182
:101880001F910F910895CF92DF92EF92FF920F93E5
:101890001F93CF93DF93DC017A01E9016801809106
:1018A0001C0190911D01A817B90708F043C0809151
:1018B0001E0190911F0168177907E0F5AD014150B5
:1018C000504020911C0130911D01CA018E0D9F1DB9
:1018D0008217930730F0E0901C01F0901D01EA1A86
:1018E000FB0AFB01319720911E0130911F01CF01AE
:1018F0008C0F9D1F8217930730F0C0911E01D0916D
:101900001F01C61BD70B4E0D5F1DEC0FFD1FCD0138
:101910009F010E94FF098E0108C0C6010E94690B49
:1019200021972097D1F7015010400115110511F0B2
:10193000E701F7CFDF91CF911F910F91FF90EF90CB
:10194000DF90CF9008951F93182F86E30E94EE0931
:101950001370113049F0113028F0123039F0133083
:1019600001F510C088E403C088E20DC088E80E9439
:10197000F70980EF90E090931D0180931C0180E4B3
:1019800091E00BC088EE0E94F70980E491E090930B
:101990001D0180931C0180EF90E090931F018093C4
:1019A0001E011F9108952F923F924F925F926F9266
:1019B0007F928F929F92AF92BF92CF92DF92EF92DF
:1019C000FF920F931F93DF93CF9300D000D000D0EE
:1019D000CDB7DEB72C013B018A013E832D8331E078
:1019E000232E312C241A350ACA01880F991F222769
:1019F0003327281B390B3A832983BA01660D771DDB
:101A0000C2014D815E810E94AD0BB301601B710B61
:101A1000C2014D815E810E94AD0BC801840D951DF0
:101A2000B3014D815E810E94AD0BC201801B910B01
:101A3000B3014D815E810E94AD0B480181E090E0D1
:101A40009C838B83AA24BB245FC037FC0AC0089404
:101A500081089108E981FA813296FA83E9832E0E92
:101A60003F1E0894A11CB11C2B813C812E5F3F4F6F
:101A70003C832B83220E331E6501C40CD51C8401CC
:101A8000060D171DC601B8014D815E810E94AD0B88
:101A90007201EA18FB08C701B8014D815E810E94FE
:101AA000AD0B830108191909C601B8014D815E818A
:101AB0000E94AD0BC701B8014D815E810E94AD0B44
:101AC0006401C40CD51C8501060D171DC601B801A3
:101AD0004D815E810E94AD0B7201E818F908C701C3
:101AE000B8014D815E810E94AD0B83010A191B096B
:101AF000C601B8014D815E810E94AD0BC701B801DE
:101B00004D815E810E94AD0BA814B9040CF49DCFE9
:101B100026960FB6F894DEBF0FBECDBFCF91DF91F2
:101B20001F910F91FF90EF90DF90CF90BF90AF90FB
:101B30009F908F907F906F905F904F903F902F90ED
:101B400008952F923F924F925F926F927F928F9261
:101B50009F92AF92BF92CF92DF92EF92FF920F933C
:101B60001F93DF93CF93CDB7DEB760970FB6F8948E
:101B7000DEBF0FBECDBF5C016B0171E0E72EF12C23
:101B8000E41AF50ACA01880F991F66277727681B90
:101B9000790B7C836B831601089421083108250199
:101BA00008944108510836010894611C711C4501D4
:101BB0000894811C911C588B4F8781E090E09E8394
:101BC0008D831A82198230E0F901E470F070F88791
:101BD000EF83B901627070707A876987C901887074
:101BE00090709C878B87F901E170F070FE87ED871C
:101BF0007CC0F7FC0EC02F85388921503040388BCF
:101C00002F876B817C816E5F7F4F7C836B83E60EB9
:101C1000F71E89819A8101969A838983ED81FE81DD
:101C20003296FE83ED83EE0EFF1E2F813885232B27
:101C300081F06F8578896C0D7D1DC401A8010E941B
:101C4000AD0B8F8598898A0D9B1DB301A8010E9459
:101C5000AD0B69857A85672B89F0B6018F859889E8
:101C6000681B790BC401A8010E94AD0B8F85988970
:101C70008A0D9B1DB101A8010E94AD0BEB85FC856F
:101C8000EF2B89F0C5012F853889821B930BB30197
:101C9000A8010E94AD0B6F8578896C0D7D1DC20176
:101CA000A8010E94AD0B6D857E85672B91F0C50163
:101CB000EF85F8898E1B9F0BB101A8010E94AD0B27
:101CC000B6012F853889621B730BC201A8010E94DF
:101CD000AD0B089421083108089441085108089474
:101CE000611C711C0894811C911C69817A818F850B
:101CF0009889681779070CF47CCF60960FB6F89432
:101D0000DEBF0FBECDBFCF91DF911F910F91FF902E
:101D1000EF90DF90CF90BF90AF909F908F907F908B
:101D20006F905F904F903F902F900895FA01AB0114
:101D3000415050404E0F5F1F0E94CD0B08952F92CF
:101D40003F924F925F926F927F928F929F92AF924B
:101D5000BF92CF92DF92EF92FF920F931F93DF9388
:101D6000CF93CDB7DEB72A970FB6F894DEBF0FBE7C
:101D7000CDBF2C017C836B83370161E0E62EF12C13
:101D8000E41AF50ACA01880F991F66277727681B8E
:101D9000790B7A8369838B809C80089481089108F1
:101DA000B3E0AB2EB12CA00EB11E5A874987A1E03B
:101DB0002A2E312CCC24DD2430E0C90181709070B2
:101DC0009E838D830F5F1F4FF901E270F070F887DB
:101DD000EF835DC0F7FC0EC029853A852150304065
:101DE0003A87298769817A816E5F7F4F7A83698319
:101DF000E60EF71E0894C11CD11C82E090E0280E6C
:101E0000391EE20CF31CED81FE81EF2BD1F06B81CA
:101E10007C8129853A85621B730BA901440F551FEC
:101E2000400F511FC601840D951D93010E94960E0F
:101E300089859A85840D951DB401A50193010E94A1
:101E4000960E6F817885672BD9F06B817C818985AF
:101E50009A85681B790BAC01440F551F400F511F29
:101E6000C2018C199D0993010E94960EC201E98559
:101E7000FA858E1B9F0BB401A50193010E94960E5B
:101E800008948108910822E030E0A20EB31E698513
:101E90007A85C616D7060CF49DCF2A960FB6F8940D
:101EA000DEBF0FBECDBFCF91DF911F910F91FF908D
:101EB000EF90DF90CF90BF90AF909F908F907F90EA
:101EC0006F905F904F903F902F900895AF92BF9288
:101ED000CF92DF92EF92FF920F931F936C015B0101
:101EE0008A017901641B750B440F551F4F5F5F4FCB
:101EF0000E94CD0BC601B501A80123E000E010E06F
:101F00000E949F0E1F910F91FF90EF90DF90CF9056
:101F1000BF90AF900895FA01AC01415050404E0F70
:101F20005F1F0E94070C08952F923F924F925F927D
:101F30006F927F928F929F92AF92BF92CF92DF92D9
:101F4000EF92FF920F931F93CF93DF937C016B016E
:101F50005A01A901180144245524261B370B37FFC9
:101F600003C0309521953F4FC5018E199F0997FFFA
:101F700003C0909581959F4F821793074CF4A1E081
:101F80004A2E512CCA01A5015C01C70176016C01E2
:101F9000AE14BF0434F4CA01A6016C01C701750177
:101FA0005C0135016E187F088A010C191D0917FFA5
:101FB00003C0109501951F4FC416D50624F0882440
:101FC0008A94982C03C0F1E08F2E912CC30162E01B
:101FD00070E00E94255AEB0116C04114510419F01B
:101FE000C601B70102C0C701B601A1010E94AD0B35
:101FF000C01BD10BD7FF04C0C80CD91CC60DD71D00
:102000000894E11CF11CAE14BF043CF7DF91CF91A2
:102010001F910F91FF90EF90DF90CF90BF90AF9006
:102020009F908F907F906F905F904F903F902F90F8
:1020300008958F929F92AF92BF92CF92DF92EF92CC
:10204000FF920F931F937C016B015A014901980184
:102050000E948B0FB60161507040680D791DC70159
:10206000A50198010E948B0FC701B601A401980138
:102070000E94960E0894E108F108C7018A0D9B1D85
:10208000B601A40198010E94960E1F910F91FF9036
:10209000EF90DF90CF90BF90AF909F908F9008957A
:1020A000AF92BF92CF92DF92EF92FF920F931F9366
:1020B000CF93DF935B017A016901EC01E80EF91E11
:1020C00007C0CE01B501A60198010E94960E219687
:1020D000CE15DF05B4F3DF91CF911F910F91FF90E3
:1020E000EF90DF90CF90BF90AF9008952F923F92E6
:1020F0004F925F926F927F928F929F92AF92BF9218
:10210000CF92DF92EF92FF920F931F93DF93CF93C3
:1021100000D000D0CDB7DEB71C013B016A013A8385
:1021200029834801C801820D931D9C838B83000F76
:10213000111F109501951F4F2801440E551EA20135
:1021400097010E948B0FA980BA80A60CB71C089437
:10215000A108B1088B819C81B501A20197010E9461
:102160008B0F680C791CE981FA810E0F1F1FC101CA
:10217000B301A80197010E94960EC20CD31C0894CB
:10218000C108D108C601B301A80197010E94960EAB
:102190008B819C81B301A40121E087010E94A10DE4
:1021A000C818D908C601B301A40122E00E94A10DFC
:1021B000A818B908C601B501A40124E00E94A10D28
:1021C0008B819C81B501A40128E00E94A10D0F9094
:1021D0000F900F900F90CF91DF911F910F91FF9073
:1021E000EF90DF90CF90BF90AF909F908F907F90B7
:1021F0006F905F904F903F902F9008952F923F9255
:102200004F925F926F927F928F929F92AF92BF9206
:10221000CF92DF92EF92FF920F931F93CF93DF93B2
:102220005C012B011A01690148013701E801C80F5F
:10223000D91F7801EE0CFF1CF094E194F108F3949F
:10224000A701420D531DCE0183010E945010480C7E
:10225000591C0894C108D108CE0CDF1C0894A108B1
:10226000B108A20CB31CC50188199909B201A401D7
:1022700021E0860173010E949F0ECE01B201A401EC
:1022800022E00E949F0EDF91CF911F910F91FF904E
:10229000EF90DF90CF90BF90AF909F908F907F9006
:1022A0006F905F904F903F902F9008952F923F92A4
:1022B0004F925F926F927F928F929F92BF92CF9236
:1022C000DF92EF92FF920F931F93DF93CF93CDB7DF
:1022D000DEB728970FB6F894DEBF0FBECDBF9A8346
:1022E00089837C836B835E834D83390118012701C9
:1022F000C901079668E070E00E94255A8B01EE2420
:10230000FF24BB24CC24DD2431C08F8198858770C5
:102310009070892B11F0BB0C0EC0EF81F88583E023
:10232000F595E7958A95E1F7EC0DFD1D2D813E8130
:10233000E20FF31FB490B7FE0AC089819A81AF8182
:10234000B8858A0F9B1FB401A2010E94AD0BEF81DB
:10235000F8853196F887EF832F8138852615370564
:10236000A4F20894E11CF11CC00ED11EE214F30487
:102370003CF418861F828B809C808E0C9F1CECCFB7
:1023800028960FB6F894DEBF0FBECDBFCF91DF9178
:102390001F910F91FF90EF90DF90CF90BF909F9093
:1023A0008F907F906F905F904F903F902F90089507
:1023B0002F923F924F925F926F927F928F929F9255
:1023C000BF92CF92DF92EF92FF920F931F93DF9312
:1023D000CF93CDB7DEB728970FB6F894DEBF0FBE08
:1023E000CDBF9A8389837C836B835E834D83390160
:1023F00018012701C901079668E070E00E94255A7C
:102400008B01EE24FF24BB24CC24DD2431C08F813A
:10241000988587709070892B11F0B6940EC0EF816B
:10242000F88593E0F595E7959A95E1F7EC0DFD1D9C
:102430002D813E81E20FF31FB490B0FE0AC0898166
:102440009A81AF81B8858A0F9B1FB401A2010E94B7
:10245000AD0BEF81F8853196F887EF832F813885B2
:1024600026153705A4F20894E11CF11CC00ED11EFC
:10247000E214F3043CF418861F828B809C808E0C3F
:102480009F1CECCF28960FB6F894DEBF0FBECDBFD1
:10249000CF91DF911F910F91FF90EF90DF90CF9040
:1024A000BF909F908F907F906F905F904F903F90E4
:1024B0002F900895809183039091840390937B03E0
:1024C00080937A03809181039091820390937903A2
:1024D000809378030895809183039091840390936F
:1024E0007703809376038091810390918203909388
:1024F00075038093740308958091830390918403FE
:10250000909373038093720380918103909182036F
:102510009093710380937003089580918303909149
:10252000840390936F0380936E0380918103909155
:10253000820390936D0380936C0308952F923F92D2
:102540004F925F926F927F928F929F92AF92BF92C3
:10255000CF92DF92EF92FF920F931F93CF93DF936F
:10256000CDB7DEB72B970FB6F894DEBF0FBECDBF49
:102570006B01190109831A838A879B8780911C014B
:1025800090911D012A853B852817390708F069C0FD
:1025900080911E0190911F016817790708F061C0B2
:1025A000C90136E0E39E800D911D1124181619060D
:1025B0000CF057C08E2D90E09D838C83E8E0EE9E5A
:1025C000C0011124860F971F181619060CF049C078
:1025D000F5E04F9FA00111249A012B543D4F3F83FA
:1025E0002E836A847B841B82CB0108969987888717
:1025F0005C804D809B81F12C953019F0EE81FF813C
:10260000F49056014601F0FE45C0F1E0A1018101C0
:10261000EF124EC0B501C3010E94AD0BF6948C8140
:102620009D81880E991E9FEFA91AB90AE885F98540
:10263000EA15FB0541F7FB81FF5FFB832A853B859C
:102640008C819D81280F391F3B872A879FEF691A4C
:10265000790AEE81FF813196FF83EE83FB81F630AC
:1026600049F62B960FB6F894DEBF0FBECDBFDF91B3
:10267000CF911F910F91FF90EF90DF90CF90BF907F
:10268000AF909F908F907F906F905F904F903F9012
:102690002F90089529813A812215330509F4BECF80
:1026A00031E009811A81E31203C049815A81B2CF16
:1026B000252D342D452D542DB4018A859B850E94EE
:1026C000430CACCF90938403809383037093820375
:1026D0006093810308959093800380937F037093A8
:1026E0007E0360937D030895893028F4811101C031
:1026F00081E080937C030895EF920F931F93482FFE
:102700008A30C1F480917C0320918103309182034F
:1027100048E0849FC0011124820F931F909382038D
:102720008093810310928403109283031F910F9171
:10273000EF9008958D30D1F3E0907C0300917D03FC
:1027400010917E0320917F0330918003609181037B
:102750007091820380918303909184030E949E1262
:1027600020917C03809183039091840336E0239F22
:10277000800D911D11249093840380938303D6CF01
:102780000E947C1381E090E008951092C50083E3DD
:102790008093C40086E08093C20088E98093C100E2
:1027A0000895CF93C82F8A3019F48DE00E94D11379
:1027B0008091C00085FFFCCFC093C600CF910895E3
:1027C0000E94D11381E090E00895CF93C82F8295A5
:1027D0008F70C03A58F4805D0E94D1138C2F8F7097
:1027E0008A3030F4805DCF910C94D113895AF4CFA4
:1027F000895AF9CFCF93C82F892F0E94E5138C2FC8
:10280000CF910C94E513CF93DF93D62FC72F0E945F
:10281000FA138D2F9C2FDF91CF910C94FA13AF9266
:10282000BF92DF92EF92FF920F931F93CF93DF93AC
:102830008C0185E0E82EF12C20E0C0E1D7E29AE09F
:10284000A92EB12CC801BE010E94115AD62E262BEA
:1028500019F4C130D10529F480E38D0D0E94D11304
:1028600021E0DC9EC001DD9E900D1124081B190B98
:10287000CE01B5010E94115AEB0181E0E81AF1087E
:1028800009F7DF91CF911F910F91FF90EF90DF90AB
:10289000BF90AF9008958F929F92AF92BF92CF92C8
:1028A000DF92EF92FF920F931F93CF93DF93CDB7F9
:1028B000DEB729970FB6F894DEBF0FBECDBF698390
:1028C0007A838B839C830AE010E01986C12C8AEC02
:1028D000D82E8AE9E82E8BE3F82E9AE0892E912CE7
:1028E000A12CB12C69817A818B819C81A7019601F1
:1028F0000E94395A2D833985322B3987311106C010
:1029000041E0C416D104E104F10431F48D81805D0D
:102910000E94D11351E059878D81A82FB0E0A70103
:1029200096010E949E5A29813A814B815C81261B27
:10293000370B480B590B29833A834B835C83C701C0
:10294000B601A50194010E94395A69017A0101502A
:10295000110941F629960FB6F894DEBF0FBECDBF20
:10296000DF91CF911F910F91FF90EF90DF90CF906B
:10297000BF90AF909F908F900895CF93DF93EC011D
:102980008991811103C0DF91CF9108950E94D113E5
:10299000F7CFCF93DF93EC01FE018491219688233A
:1029A00019F00E94D113F8CFDF91CF9108959FB70E
:1029B00078948091C00087FF07C09FBF8091C600B8
:1029C0008D3009F48AE0089583B7816083BF8895CC
:1029D00083B78E7F83BFEDCF189580937E00EAE7A3
:1029E000F0E0808187608083ACE7B0E08C91806408
:1029F0008C938081806C8083089590917C00907F7F
:102A000090937C0090917C008770892B80937C0050
:102A100080917A00806480937A0080917A0086FDAC
:102A2000FCCF2091780030917900C9010895A4E08D
:102A3000B0E0EDE1F5E10C94185BFC0120813181FF
:102A400042815381CA01B9012496E2E00C94345BBF
:102A5000FC012081318142815381648175818681AD
:102A6000978108950F931F93FC01008311832283A4
:102A7000338344835583668377831F910F91089531
:102A80009C01480F591FF9012F5F3F4F60832417A6
:102A90003507C9F70895CF93DF939C01FB01480FD9
:102AA000591FE9012F5F3F4F888190813196891B23
:102AB000990B2417350711F0009799F3DF91CF9107
:102AC0000895A4E0B0E0E7E6F5E10C94185BFC01A2
:102AD0009A01AB01225031094109510987A190A502
:102AE000A1A5B2A50297A109B109281739074A077C
:102AF0005B0700F5A185B2850E949E5A69837A839F
:102B00008B839C8383AD94ADA5ADB6AD29813A810D
:102B10004B815C81280F391F4A1F5B1F29833A8331
:102B20004B835C8369817A818B819C812496E2E06E
:102B30000C94345B19821A821B821C82F3CF9C0195
:102B4000AC01455F5F4F80E080FB879587F9F90115
:102B50002F5F3F4F9081890F24173507A9F70895FC
:102B6000FC01218130E02F5F3F4F85E0220F331FB2
:102B70008A95E1F790E080E050E040E04230510576
:102B800081F080FB9795879597F9DF01A40FB51F1A
:102B90006C91860F911D4F5F5F4F4217530770F383
:102BA000089543E050E0F7CFCF93DF93DC01ED9140
:102BB000FC911197309771F0CF01EC0128810196BB
:102BC0002032A8F02A33C9F79F012E5F3F4F8217AA
:102BD000930719F08FEF9FEF07C020812033D1F7C3
:102BE0008D939C9390E080E0DF91CF910895809148
:102BF000E50790E0F9CF0F931F93CF93DF93EC019C
:102C00008B01892B61F489E090E030E020E0F8014D
:102C100031832083DF91CF911F910F910895E88137
:102C2000F981309781F38081882369F32A813B8180
:102C3000858196812817390731F781810E946F4E6F
:102C400080FDE1CF2881398190E080E0E0CF0F93D3
:102C50001F93CF93DF93EA01890145EB51E00E9476
:102C6000B84D9C018F3F910579F070F0023011054D
:102C700090F03827232732273983288382E0DF9199
:102C8000CF911F910F910895009729F0012B19F012
:102C9000888381E0F4CF80E0F2CFA6E0B0E0E3E506
:102CA000F6E10C94085B8C016D837E83DC018D90D2
:102CB0009C901197ED81FE81128E9E968D919D9133
:102CC0000D90BC91A02D892B8A2B8B2B09F44BC026
:102CD000D4018C91843009F09FC01D96CD90DC907A
:102CE000B12CA12C40E4E42EF12C10E000E0512C9A
:102CF000412C88248A94912CD60193968C918A1524
:102D00001B0409F0A0F54114510409F080C101151C
:102D1000110509F47CC1ED81FE81E00FF11F128ED7
:102D2000ED81FE811586D60114968C91848784FDF1
:102D30006AC0C601C8960E942815ED81FE812083D5
:102D40003183428353836483758386839783D6015B
:102D50001C968D919C911D97938782871E968D91CD
:102D60009C91918780872696E2E10C94245BB0E6E3
:102D7000EB16B2E0FB0608F04AC1C7018F71992734
:102D8000892B19F4E2E0EE0EF11CF601EE0DFF1DA9
:102D900080819181F2E0EF0EF11C2FEFA21AB20AAE
:102DA0004114510429F49C01385D2115384048F143
:102DB000A801465E5F4F6D817E81640F751F712C87
:102DC000612CA20133272227B0E0A0E0282B392B69
:102DD0004A2B5B2B29833A834B835C839401201B12
:102DE000310BAB0169817A818B819C810E9427160E
:102DF000282F30E0882309F40AC1020F131F80E056
:102E000090E02C0179CF20E030E040E050E060E03D
:102E100070E080E090E091CFF801E05CFF4F8081AE
:102E20009181A281B3818F3F9F4FAF4FBF4F09F078
:102E3000A6C0F80102A913A9F80190E080E030E0F3
:102E400020E07EE22F5F3F4F6191462F50E06032DD
:102E5000C1F04530510509F445EE2930310551F4F2
:102E60008C30910538F4AD81BE81A80FB91F1D9635
:102E70007C930196AD81BE81A80FB91F1D964C931E
:102E800001962B303105F1F6ED81FE81E80FF91F37
:102E90001586AD81BE815A962C915A9721118DC00D
:102EA000892B09F476C0FD013D9658E090E080E062
:102EB0004191442309F473C0242F042E000C330BDA
:102EC0004E3209F4A2C0B901615471096A31710529
:102ED00038F4D8011C964C91452311F0205E3F4FE9
:102EE00024870196E5CFC114D10429F49C01385DF3
:102EF0002115384048F1A701465E5F4F6D817E8104
:102F0000640F751F1601512C412CA1013327222774
:102F1000B0E0A0E0282B392B4A2B5B2B29833A8386
:102F20004B835C8393012E193F09AB0169817A8140
:102F30008B819C810E942716282F30E0882399F0EE
:102F4000E20EF31E80E090E032E0A30EB11C6C01B3
:102F5000D4011B96ED91FC91EA0DFB1D80819181BE
:102F6000009709F69701CD2811F030E020E02D8080
:102F70003E80220D331DD9015A961C925ACFB12C96
:102F8000A12CD12CC12CF12CE12C66246A94712C3B
:102F9000DFCF8FE3ED81FE81828F81E090E02D8095
:102FA0003E80820D931DDC015A961C92F8018485A7
:102FB000811103C0D1011D961C92F8018385AD815A
:102FC000BE811C968C93C8014C960E94171569838C
:102FD0007A838B839C834B015C01C12CD12C7601BD
:102FE000ED81FE81608391828283B3821482158297
:102FF00016821782D80156968D919C915797938788
:10300000828758968D919C91ACCE50E169CF8FE329
:10301000ED81FE81828F01E010E07DCEA6E0B0E080
:10302000E4E1F8E10C94165B8D839E83AD81BE8153
:103030000D911C91F80121918F01822F90E02223A4
:1030400031F065EB71E00E94E24D009799F09C0130
:1030500050E040E029833A834B835C83AD81BE819D
:103060000D931C9369817A818B819C812696E4E083
:103070000C94325B2FEF3FEFA90129833A834B83F6
:103080005C83F0CFA6E0B0E0E8E4F8E10C94165BD6
:1030900010E000E08D839E83ED81FE81819191910E
:1030A000FE83ED83009729F4C8012696E4E00C9492
:1030B000325B9C0150E040E029833A834B835C8380
:1030C000CA01B9010E94F94D462F572FC80180FB54
:1030D0009795879597F98A011127080F191F00FB0B
:1030E0001795079517F9452F5527040F151F8D8143
:1030F0009E81D0CF9B01FC01460F571FD9012F5F46
:103100003F4F8C91819324173507C1F70895B0E0A4
:10311000A0E0EDE8F8E10C940E5BEC018B818111ED
:1031200008C0F12CE12CC701CDB7DEB7ECE00C9460
:103130002A5B6E0147E4C40ED11C5E0153E4A50E68
:10314000B11CF501208131814281538101E010E001
:10315000B60189810E948E4E7C01892B59F51B8214
:10316000F50100811181228133818BA59CA5ADA53C
:10317000BEA58BA89CA8ADA8BEA8B901A8014819F6
:1031800059096A097B094A015B0188169906AA0652
:10319000BB0638F66A81623021F6A9019801280F32
:1031A000391F4A1F5B1F01E010E0B60189810E94B0
:1031B0008E4EB9CFEE24E394F12CB5CFB0E0A0E071
:1031C000E4EEF8E10C94105B5C016A017B01EC0118
:1031D000CD5BDF4F88819981AA81BB8130E020E0FF
:1031E0008C159D05AE05BF05F1F0C5010E9487183D
:1031F0009C01892BC1F4B501695B7F4F01E010E0B0
:10320000A7019601F50181810E947D4E9C01892BC9
:1032100031F021E030E0CC24CA94DC2C7601C88265
:10322000D982EA82FB82C901CDB7DEB7EAE00C940D
:103230002C5BAEE0B0E0EFE1F9E10C94085B89872C
:103240009A870D831E832F8338874A015B0122E012
:10325000821A9108A108B108E985FA8587A190A58D
:10326000A1A5B2A50297A109B10988169906AA06D7
:10327000BB0618F0812C912C540189829A82AB8272
:10328000BC8275016401412C512C320129843A849D
:10329000FFE32F0E311C11E0F10180819181A281A9
:1032A000B381B701A6013CE07695679557954795A0
:1032B0003A95D1F7480F591F6A1F7B1F89859A8558
:1032C0000E94DE18892B09F07AC0D701C60123E0DD
:1032D000B695A795979587952A95D1F79170960100
:1032E00027703327F12F01C0FF0F2A95EAF72F2F00
:1032F000A985BA8597964D915D916D917C919A972C
:1033000042505109610971094B875C876D877E873F
:10331000E985FA85E80FF91FE95BFF4F3081322319
:10332000BFEFCB1ADB0AEB0AFB0A4B855C856D8588
:103330007E85220FC416D506E606F70630F0C12CAE
:10334000D12C760180E092E020E0311122C05FEFC5
:10335000451A550A650A750A4D815E816F81788527
:103360004416550666067706D9F469817A818B8101
:103370009C816E5F7F4F8F4F9F4F69837A838B83D2
:103380009C8369817A818B819C812E96E2E10C94E9
:10339000245BC982DA82EB82FC82412C512C3201FF
:1033A0008C149D04AE04BF0491F02111B1CF01969D
:1033B000811572E0970708F06FCF21E0A9CF8FEF5A
:1033C0009FEFDC0189839A83AB83BC83DACF1982B8
:1033D0001A821B821C82D5CFB0E0A0E0E2EFF9E1B7
:1033E0000C94085B6C0148015901170142505109C6
:1033F00061097109FC01FF962A013B018CE076947A
:103400006794579447948A95D1F780819181A281DE
:10341000B381480E591E6A1E7B1EDB01CA0123E0E0
:10342000B695A795979587952A95D1F7917047708E
:103430005527C1E001C0CC0F4A95EAF7D1E0A201BF
:10344000B3018C012FEF421A520A620A720AC601B6
:103450000E94DE18009739F5A601400F511FFA01AE
:10346000E95BFF4F6081762F7C2321E030E009F497
:1034700020E022153305F1F0495B5F4F6C27FA011C
:103480006083F601D383F1E08F1A9108A108B10897
:1034900061F0CC0F09F70F5F1F4FC1E0011522E06B
:1034A0001207D1F6CCCF81E090E0CDB7DEB7E2E1F4
:1034B0000C94245B82E090E0F8CFA7E0B0E0E3E674
:1034C000FAE10C94085BFC016A017B0122E0C21660
:1034D000D104E104F104D8F0808191819E838D8331
:1034E000DC0197964D915D916D917C919A97C416F0
:1034F000D506E606F70658F48C91833009F4F3C03C
:1035000058F4813009F473C0823009F4C8C061E016
:1035100070E080E090E086C08430C9F73284438454
:1035200054846584768407851089B189BF83232DEF
:10353000342D452D562D672D702F812F9B2FA0E008
:1035400025800E94835B41F04681578160857185AB
:10355000452B462B472B11F42110D9CF468157819B
:103560006085718546015701841A950AA60AB70A33
:10357000AD81BE8119960D90BC91A02DBA83A9830F
:10358000B2E02B12DBC0232D342D452D562D672D97
:10359000702F812F9F81AFEF0E94655B09E00E9431
:1035A000415B722F632F942F852FE981FA819F0150
:1035B00050E040E079836A839B838C8369817A81C0
:1035C0008B819C810E94395A281539054A055B0573
:1035D00008F49DCF82169306A406B50609F4EEC042
:1035E000C701B6016F5F7F4F8F4F9F4F1BC0860192
:1035F000169507950C0D1D1DC801892F99278695D5
:10360000ED81FE8143A954A965A976A9480F591FE8
:10361000611D711DCF010E94DE18892B39F06FEFFB
:103620007FEFCB012796E2E10C94245B5801FFEF7A
:10363000AF1ABF0AF801F1708D819E81E80FF91F62
:10364000E95BFF4F1081C501892F99278695AD81D0
:10365000BE81D3964D915D916D917C91D697480F27
:10366000591F611D711DCD010E94DE18892BB9F60D
:10367000B1E0BB22ED81FE81EA0DFB1DE95BFF4F4E
:103680008081782F612FC0FE08C054E07695679541
:103690005A95E1F790E080E0C5CF7F70FBCF7727A8
:1036A0006F2D5E2D4D2DED81FE8183A994A9A5A9D5
:1036B000B6A9480F591F6A1F7B1FCF010E94DE1851
:1036C000892B09F0ACCFCC0CDD1CE894C0F8F1E0FC
:1036D000DF228D819E818C0D9D1D895B9F4FDC01BA
:1036E0006D917C91D7CFED81FE8183A994A9A5A985
:1036F000B6A9B701A60127E0769567955795479536
:103700002A95D1F7480F591F6A1F7B1FCF010E94CE
:10371000DE18892B09F083CF8D819E81895B9F4FB5
:10372000CC0CDD1CCC0CDD1CFCEFCF22F1E0DF2249
:103730008C0D9D1D0E9417159F7074CF23E02212DF
:103740000AC082899389A489B58988169906AA0630
:10375000BB0608F445CF86899789A08DB18D892B4A
:103760008A2B8B2B59F5ED81FE8183A994A9A5A9FC
:10377000B6A9B701A60137E07695679557954795A5
:103780003A95D1F7480F591F6A1F7B1FCF010E943E
:10379000DE18892B09F043CF8D819E81895B9F4F75
:1037A000CC0CDD1CCC0CDD1CFCEFCF22F1E0DF22C9
:1037B0008C0D9D1D0E9417159F7734CF6FEF7FEF03
:1037C0008FEF9FE72FCFB0E0A0E0E9EEFBE10C9494
:1037D0000A5BEC016A017B0108811981D8018C9197
:1037E00040E050E060E270E0843021F440E050E0DE
:1037F00060E070E1C416D506E606F70638F082E010
:1038000090E0CDB7DEB7E0E10C94265BB701A601EE
:103810004F71552766277727452B462B472B79F77E
:10382000CEA2DFA2E8A6F9A68E809F80A884B984E4
:1038300081149104A104B10409F056C0833008F04A
:1038400046C0F80187819085B0E0A0E0B701A601ED
:10385000E5E07695679557954795EA95D1F748172E
:1038600059076A077B0758F6F80187A990ADA1AD03
:10387000B2AD8EA79FA7A8ABB9AB8AA69BA6ACA6F4
:10388000BDA64EA55FA568A979A941155105610599
:10389000710509F4B4CFD701C60129E0B695A79503
:1038A000979587952A95D1F7840F951FA61FB71F67
:1038B0008EA79FA7A8ABB9AB095B1F4FF1E0DF2232
:1038C000C00ED11EDBAACAAA90E080E09ACFF80110
:1038D00087A990ADA1ADB2AD1D820097A105B1053C
:1038E00009F4AFCF4C015D01D80119964D905C9061
:1038F000712C612C39E0440C551C661C771C3A95E0
:10390000D1F7B501A401C414D504E604F70440F4CA
:10391000C8010E9461156EA77FA788AB99ABADCF98
:10392000CE010E945D1A4B015C01BFEF8B169B0616
:10393000AB06BB06B9F0E2E08E169104A104B10417
:1039400008F45DCFF80187A190A5A1A5B2A58816BE
:103950009906AA06BB0608F052CFC418D508E60897
:10396000F708CFCF81E090E04CCFEF92FF920F931A
:103970001F93CF93DF938C01FC011382ED5BFF4F0C
:103980008FEF9FEFDC0180839183A283B383C80113
:103990000E94DE18EC01892BC1F5F801EB5BFD4FAD
:1039A0008081918185359A4A99F5780127E4E20E64
:1039B000F11C4BE050E062E273E0C7010E944B153E
:1039C000892B49F1F70180818B3E19F0885E8230A6
:1039D00028F543E050E06EE273E0C80183589F4F42
:1039E0000E944B15892B59F045E050E062E373E0EB
:1039F000C80187569F4F0E944B15892B79F4CE0141
:103A0000CDB7DEB7E6E00C94305BC4E0D0E0F7CF92
:103A1000C3E0D0E0F4CFC1E0D0E0F1CFC2E0D0E02D
:103A2000EECFA6E0B0E0E7E1FDE10C94085B5C01BD
:103A30006A017B012801390122E0C216D104E104A8
:103A4000F10408F400C1FC0187A190A5A1A5B2A5CD
:103A5000C816D906EA06FB0638F48081823009F4DC
:103A600092C038F4813071F022E030E03E832D8343
:103A70007DC08350823008F4A7C042E050E05E83EE
:103A80004D8374C08A0116950795040F151FC80150
:103A9000892F99278695D501D3964D915D916D918A
:103AA0007C91D697480F591F611D711DC5010E9459
:103AB000DE188D839E83ED81FE81EF2B09F056C0C9
:103AC0001501F7E42F0E311C48012FEF821A920ADC
:103AD0001170F101E00FF11F842DA70196012170F3
:103AE00033274427552729833A834B835C83C0FEC1
:103AF00007C080818F7040E1449E90011124822B89
:103B0000808381E0D50113968C931397D3964D91C2
:103B10005D916D917C91D697C401892F99278695E7
:103B2000480F591F611D711DC5010E94DE188D834C
:103B30009E83ED81FE81EF2BC9F4F1E09F22F1011C
:103B4000E80DF91D29813A814B815C81232B242BBF
:103B5000252B91F054E076946794579447945A95A6
:103B6000D1F7408281E0D50113968C938D819E819F
:103B70002696E2E10C94245B8081807F352D3F7096
:103B8000432E482AEECF77276F2D5E2D4D2D83A92A
:103B900094A9A5A9B6A9480F591F6A1F7B1FC50183
:103BA0000E94DE188D839E832D813E81232BF1F6AA
:103BB000F601EE0FFF1FEE7FF170EA0DFB1DE95BD2
:103BC000FF4F11830083CECF83A994A9A5A9B6A9DD
:103BD00027E076956795579547952A95D1F7480F31
:103BE000591F6A1F7B1FC5010E94DE188D839E83AB
:103BF0002D813E81232B09F0B9CFCC0CDD1CCC0CE0
:103C0000DD1C3CEFC32231E0D322C501895B9F4F0D
:103C1000C80ED91ED5018C91843079F0C6010E945E
:103C20001715BFE07B22DC01CB0188279927AA2743
:103C3000B07F482A592A6A2A7B2AF601408251829B
:103C4000628273828FCFE2E0F0E0FE83ED838ECF5D
:103C5000B0E0A0E0EEE2FEE10C940A5BEC016A0148
:103C60007B01B02EA12E922E832E2A013B0182E0F1
:103C7000480E511C611C711C8FEFC81AD80AE80A43
:103C8000F80A8E899F89A88DB98D0097A105B10585
:103C900039F490E080E0CDB7DEB7E0E10C94265B2C
:103CA00081309105A105B105F1F093018201081B56
:103CB000190B2A0B3B0BB701A601481B590B6A0BCA
:103CC0007B0B888199810E94111D009721F78E89B5
:103CD0009F89A88DB98D0197A109B1098E8B9F8B02
:103CE000A88FB98FCECF0B2D1A2D292D382DE3CFCC
:103CF000A6E0B0E0EEE7FEE10C940A5B6C014983BC
:103D00005A836B837C83DC010D90BC91A02DBE8314
:103D1000AD8389819A81AB81BC81892B8A2B8B2BC6
:103D2000E9F4AD81BE811F964D905D906D907C90C1
:103D30005297411451046104710459F097968D9182
:103D40009D910D90BC91A02D481659066A067B06E0
:103D5000A0F1412C512C320143942FC049815A814A
:103D60006B817C81C6010E945D1A4B015C01B2E04F
:103D70008B169104A104B10450F4812C912C5401B0
:103D80008394C501B4012696E0E10C94265BEFEF25
:103D90008E169E06AE06BE0609F4A3C1ED81FE8115
:103DA00087A190A5A1A5B2A588169906AA06BB066B
:103DB00040F349805A806B807C80ED81FE8183894D
:103DC0009489A589B689892B8A2B8B2B21F4812C88
:103DD000912C5401D6CFAD81BE818C91843009F0F5
:103DE000C8C001E010E020E030E0B301A201CD0145
:103DF0000E9419194B015C01DC01CB010197A1095B
:103E0000B1098E3F9F4FAF4FBF4F08F0BACFEE249E
:103E1000E394F12C01E010E020E030E0B501A401D2
:103E20008D819E810E94EC199C018230910509F4DC
:103E3000A4CF019709F455C189819A81AB81BC81D6
:103E4000892B8A2B8B2B41F482E0D60115968C931B
:103E5000232B09F092CF63C0F60185818230C1F433
:103E6000D301C2010196A11DB11D88159905AA05AE
:103E7000BB0571F386819781A085B185481A590ADF
:103E80006A0A7B0A428A538A648A758A83E0858338
:103E9000F60186899789A08DB18D49815A816B8100
:103EA0007C814F5F5F4F6F4F7F4F481559056A0503
:103EB0007B0591F40097A105B10549F00196A11D7C
:103EC000B11DF601868B978BA08FB18FC1CF82E099
:103ED00090E0A0E0B0E0F5CF892B8A2B8B2B49F442
:103EE00081E090E0A0E0B0E0F601868B978BA08F98
:103EF000B18F9501840149815A816B817C81C60112
:103F00000E94281E9C01892B09F0E7C081E090E007
:103F1000A0E0B0E0F601868B978BA08FB18FAD81CA
:103F2000BE811F968D929D92AD92BC925297FD01DB
:103F300083899489A589B68947A150A561A572A5F1
:103F40004250510961097109481759076A077B07EF
:103F500038F00197A109B109838B948BA58BB68B9F
:103F6000AD81BE8114968C911497816014968C93C8
:103F700008CF89819A81AB81BC81481659066A06AF
:103F80007B0609F047C0530142019FEF891A990A45
:103F9000A90AB90AED81FE8187A190A5A1A5B2A5C4
:103FA00088169906AA06BB0628F022E0822E912CDC
:103FB000A12CB12CB501A401C6010E945D1A462FA7
:103FC000572FBC01413051056105710509F4D5CE6B
:103FD0004F3FFFEF5F076F077F0709F482C0452B54
:103FE000462B472B09F452C0ED81FE8187859089CD
:103FF000A189B28982309105A105B10558F047A188
:1040000050A561A572A584179507A607B70710F4F8
:104010002C013D0153014201FFEF8F1A9F0AAF0AA5
:10402000BF0AED81FE8187A190A5A1A5B2A5881642
:104030009906AA06BB0660F0F2E04F16510461042F
:10404000710408F4C4CE92E0892E912CA12CB12CDD
:10405000B501A401C6010E945D1A462F572FBC016D
:104060004115510561057105B9F0413051056105F2
:10407000710509F482CE4F3F5F4F6F4F7F4F89F13B
:1040800084149504A604B70439F6A1CE81149104D2
:10409000A104B10409F4BECF0FEF1FEF9801B501E1
:1040A000A4018D819E810E94111D9C01892BA9F480
:1040B00089819A81AB81BC810097A105B10509F482
:1040C0002ECF95018401AC01BD018D819E810E949E
:1040D000111D9C01892B09F422CF2130310509F0F3
:1040E0004CCE88248A94982C54014BCEAAE0B0E0A0
:1040F000ECE7F0E20C94085B8D839E834B01AD816D
:10410000BE81AD90BC90119796964D905D906D904C
:104110007C909997B0E24B0E511C611C711CF5010B
:104120008081843009F453C080E090E0A0E2B0E0E8
:10413000481659066A067B0640F0AD81BE819E9600
:104140001D921D921D921C92D197ED81FE8186A534
:1041500097A5A0A9B1A90097A105B105A9F1B3013F
:10416000A201517066277727452B462B472B09F074
:10417000E3C00196A11DB11D86A797A7A0ABB1AB67
:1041800042A553A564A575A5D50141155105610545
:10419000710511F517968D919C91B0E0A0E0B301E7
:1041A000A20135E076956795579547953A95D1F7F1
:1041B000481759076A077B0708F4BEC0ED81FE81E6
:1041C00016A617A610AA11AA84E090E02BC080E0E2
:1041D00090E0A0E0B0E1ACCF19968D919C91019751
:1041E000B0E0A0E07301620129E0F694E794D7946F
:1041F000C7942A95D1F78C219D21AE21BF21892B0F
:104200008A2B8B2B09F098C08D819E810E945D1AAC
:104210006B017C01B2E0CB16D104E104F10430F46F
:1042200082E090E02A96E2E10C94245BEFEFCE1658
:10423000DE06EE06FE0619F481E090E0F3CFF5010C
:1042400087A190A5A1A5B2A5C816D906EA06FB06C6
:1042500008F45FC08114910409F4B0CFAD81BE8130
:104260009A964D915D916D917C919D97CD010E94A3
:10427000781E6B017C0187E090E0C114D104E10459
:10428000F10481F2B1E0CB16D104E104F10441F272
:10429000EFEFCE16DE06EE06FE0671F2C5010E94B5
:1042A00087184C01892B41F6B701A601C5010E9470
:1042B000611569837A838B839C83F501ED5BFF4FE6
:1042C00089819A81AB81BC8180839183A283B383EE
:1042D000150197E4290E311C40E052E070E060E0E7
:1042E000C1010E944015F5018185928588169906C5
:1042F000C8F1D50119968D919C918816990609F0FF
:104300009BCFAD81BE8115968C91159784601596D3
:104310008C93ED81FE81C2A6D3A6E4A6F5A6B701D3
:10432000A601C5010E946115AD81BE819E966D9367
:104330007D938D939C93D197ED81FE8146A257A2E8
:1043400060A671A6F7E4AF0EB11C81E058224A0CBA
:104350005B1CAD81BE81D3965C924E92D29790E069
:1043600080E060CF01E010E029813A814B815C81DF
:10437000280D391D411D511DB10181810E948E4EB4
:10438000892B09F0B6CFAFEF8A1A9A0AACCFB0E00A
:10439000A0E0EDECF1E20C94105B8C01FC0180815B
:1043A0009181FC01C584D684F80146A557A560A972
:1043B00071A90E94DE18EC01892B09F09BC0F8015D
:1043C00062A973A9FB018081853809F091C040E2A0
:1043D00050E0C6010E947A18F601E180F12CFFEF4F
:1043E000EF1AFF0A25E0EE0CFF1C2A95E1F7C70142
:1043F000805691098130924008F07AC070E060E008
:10440000C8010E947620EC018430910509F470C047
:10441000892B09F06FC0F80146A557A560A971A9BD
:10442000808191810E94DE18EC01892B09F062C025
:10443000F80162A973A9FB018081803C09F058C092
:1044400040E250E0C60180960E947A18F60183A1EE
:1044500090E08C966FE070E00E94115A95E0660F34
:10446000771F9A95E1F7E616F70608F441C080E455
:10447000A82EB12C70E060E0C8010E947620EC010B
:1044800084309105A9F1892BA9F5F80146A557A516
:1044900060A971A9808191810E94DE18EC01892BAD
:1044A00049F5F80162A973A9FB018081813C01F5FE
:1044B000F0E6AF16F2E0BF0638F440E250E0C60185
:1044C0008A0D9B1D0E947A1820E2A20EB11CAE1428
:1044D000BF0480F281E6A81682E0B80658F4C6014F
:1044E0000E94B015F601228133818217930711F0E3
:1044F000C2E0D0E0CE01CDB7DEB7EAE00C942C5B91
:104500000F931F93CF93DF93EC01FB018081918187
:1045100099838883828D938DA48DB58D8E839F839F
:10452000A887B987068D178D20A131A10D8300279B
:104530000A871B872C873D871E861F86188A198A43
:104540001E8A1F8A188E198E42A153A164A175A1DB
:10455000FE01E05CFF4F4083518362837383CE0191
:104560000E94E31B9C01892B21F4CE010E94C721EC
:104570009C01C901DF91CF911F910F910895B0E087
:10458000A0E0E5ECF2E20C940A5BEC016B01E88040
:10459000F98088248A9455245A9404E010E0BDE000
:1045A0004B2E88E0682E82E0782E5E0180E4A80E13
:1045B000B11C4EA55FA568A979A9411551056105F2
:1045C000710521F401151105C1F0B6C0C7010E94A3
:1045D000DE188C01892B09F0AFC0EAA9FBA99080F5
:1045E000992009F4CAC0D7018C91843059F5C114BF
:1045F000D10459F0B3E89B1296C010E000E0C80166
:10460000CDB7DEB7E0E10C94265BE5E89E128BC0E7
:104610008EA19FA1A8A5B9A5FE01E05CFF4F8083F4
:104620009183A283B383CE010E94C7218C01892B81
:1046300009F082C0D7011D96ED91FC9184818F73A2
:104640008C83DDCF23852F732C83B5EE9B1609F465
:104650007BC08EE2981609F477C081E090E0322F9B
:104660003F71383009F080E08C159D0509F06CC071
:104670002F3009F070C096FE64C08584E89496F8E7
:104680004EA15FA168A579A5D5014D935D936D936A
:104690007C9313978585881157C0828D938D892BC4
:1046A00009F052C0D7011B964D915C9120812F7B60
:1046B0002150330B429EC001439E900D11240BEFFD
:1046C00011E021E030E0D8016D918D016E0F7F2F58
:1046D000711DDB016D917C9121153105C1F18F3F79
:1046E000910509F088F59C01220F331F240F351F17
:1046F000D9016D937C939B0101966016710619F7A1
:10470000608166FF0DC0232B59F08F3F910509F0A2
:10471000D8F4880F991F840F951FFC011182108215
:1047200055245A94590C60E070E0CE010E94762026
:104730008C01892B09F43DCF1EA61FA618AA19AA21
:104740005ECF591409F4A6CF55245A94ECCF6F3F8D
:104750007F4F99F2F9CF511006C0CF010E949F15EB
:10476000881509F44ACFC05CDF4F8FEF9FEFDC0163
:1047700088839983AA83BB8342CF04E010E0DCCF17
:10478000B0E0A0E0E6ECF3E20C94105B8C017B015E
:10479000DC01CD90DC9040E050E0BA010E94E31BC8
:1047A000EC01892BF1F4F80146A557A560A971A980
:1047B000C6010E94DE185C01009751F5D801D2961F
:1047C000ED91FC918081F60190819430B9F487FFDE
:1047D00019C061E070E0C8010E947620EC01892BCD
:1047E00059F0C430D10511F4C7E0D0E0CE01CDB707
:1047F000DEB7EAE00C942C5BE501D5CF853E11F0E5
:104800008111E7CF2196CE15DF0521F05E01E1CFC2
:10481000EC01E7CFD0E0C0E0E9CFB0E0A0E0E3E119
:10482000F4E20C94115B8C01DC01ED91FC91E584C8
:10483000F684C7010E94B015F70193838283C1807B
:10484000F801E05CFF4F4081518162817381C801B2
:104850000E94E31BEC01D12CBB24B394209751F0B0
:10486000CE01239710F082E090E0CDB7DEB7E9E00B
:104870000C942D5BD8019E964D915D916D917C912C
:10488000D1978D919C910E94DE18EC01892B41F704
:1048900040E250E0B701F80182A993A90E947A187A
:1048A000D801ED91FC91B382C114D104C9F2B0E2F8
:1048B000EB0EF11C70E060E0C8010E947620EC0174
:1048C000E1E0CE1AD108CACFAEE0B0E0EAE6F4E209
:1048D0000C94085B4C01DC010D90BC91A02DBE83B3
:1048E000AD8340E050E0BA010E94E31B1C01892B1C
:1048F000B9F4ED81FE818081843009F07BC083852D
:1049000094850E9442187C0170E060E0C4010E941E
:10491000BF228F839887AF81B885109731F01D0132
:10492000C1012E96E2E10C94245BAD81BE811D96FF
:10493000ED91FC9184A195A1E816F90629F7C3A091
:10494000D12C00E410E0AF80B884AA0CBB1C8F818E
:1049500098858C159D0569F4AD81BE811B968D915E
:104960009C91A80EB91EF50180819181892B61F679
:10497000D7CFC8018F719927892B11F40E5F1F4F74
:10498000AD81BE811D96ED91FC91E00FF11F8081FC
:1049900091819C0150E040E029833A834B835C8302
:1049A000CA01B9010E94F94D2B013C01AD81BE81C4
:1049B0001B968D919C91A80EB91EF5018081918165
:1049C0009C0150E040E0CA01B9010E94F94D6983A1
:1049D0007A838B839C83461657066806790609F00E
:1049E00093CF0E5F1F4F4F8158854F5F5F4F5887A2
:1049F0004F83A9CF8401005C1F4F8FEF9FEFDC0135
:104A0000F80180839183A283B383CC24CA94FFEFFF
:104A1000F98394012C5C3F4F3E872D87D4019E96ED
:104A20004D915D916D917C91D1978D819E810E9478
:104A3000DE189C01892B09F0C5C0F401E2A8F3A897
:104A4000D701DC90DD2009F401C11B969C91892FD0
:104A50008F738483B5EEDB1621F093FF0EC08F3089
:104A600079F02FEFF80120833FEF31834FEF42833E
:104A70005FEF53838FEF89839CC08F3009F0B2C002
:104A8000D401DF968C91DF9786FD93C0D6FE9CC043
:104A9000F701C584E894D6F896968D919D910D9076
:104AA000BC91A02DF80180839183A283B383D701A9
:104AB0001D968C911D978C11DDCF5A968D919C91EE
:104AC0005B97892B09F0B6C0ED81FE816384748405
:104AD0008C918F738150990B4DE0489F9001499FB5
:104AE000300D112438872F833BEF432E31E0532EB6
:104AF00081E090E0D2012D912D01F701E20FF11D2F
:104B0000A080B180009709F466C0EF81F885EF3F7F
:104B1000F10511F008F091C050E040E0CA01B50184
:104B20000E94F94D69837A838B839C834F815885DA
:104B30004F5F5F4F5C874B878F819885880F991FE8
:104B4000860D971DDC018D919C919C0150E040E009
:104B5000CA01B9010E94F94D6F83788789879A87C6
:104B600029813A814B815C8126173707480759070D
:104B700009F066C0C5014B855C8558874F83A8E066
:104B80004A16A2E05A0609F0B5CFF701208126FFA8
:104B90000EC0892B61F02F813885220F331F260D1F
:104BA000371DD9018D919C91892B09F04CC0DA9465
:104BB000D98270E060E0C4010E9476209C01892BBC
:104BC00009F42CCF1901ACCEF981FD1509F46FCF92
:104BD0005FEF5983EECF5FEFA516B50681F2EFEFD9
:104BE000E983E7CFB981B11106C0C7010E949F15C3
:104BF0008C1509F495CEF40187AD80FD0AC04BE019
:104C000050E06D857E85C7010E944B15892B09F404
:104C100087CEEFEFD801EC93FFEF1196FC9311973D
:104C20002FEF12962C9312973FEF13963C934FEF72
:104C30004983BFCF9FEF9983BCCFAFEFA983B9CF93
:104C4000BFEFB983B6CFFFEFF983B3CF84E0282E4F
:104C5000312C66CEB0E0A0E0E0E3F6E20C940E5B0F
:104C6000EC018D81833091F44E815F816885798577
:104C7000CA88DB88EC88FD88C40ED51EE61EF71EA8
:104C80004C155D056E057F0541F41D8290E080E0C6
:104C9000CDB7DEB7ECE00C942A5B4A015B018FEFE5
:104CA000881A980AA80AB80A95018401888199810E
:104CB0000E94111D009761F7B501A401E1CFAAE29E
:104CC000B0E0E5E6F6E20C94085B8C015B01942E03
:104CD0008DE0882E8F9282E48F9396E6C92E91E024
:104CE000D92EDF92CF9228E3E22E23E0F22EFF921C
:104CF000EF920E94275DD5011D921C92C8010E946F
:104D0000D4158C010F900F900F900F900F900F9073
:104D10008BE090E017FD31C0F801EE0FFF1FE85166
:104D2000F84F208031808CE090E02114310429F18B
:104D3000F501318220828F9280E58F93DF92CF92AE
:104D4000FF92EF920E94275DE89490F80F900F90E9
:104D50000F900F900F900F90D1018C91882389F0C4
:104D600011968C910E946F4E80FD0BC0992009F422
:104D700045C382FF43C38AE090E0AA96E2E10C9427
:104D8000245BEDE0BE2EBF928BE58F93F6E6CF2E2F
:104D9000F1E0DF2EDF92CF92A8E3EA2EA3E0FA2E15
:104DA000FF92EF920E94275DF10110820183802F14
:104DB0000E94764E182F0F900F900F900F900F902B
:104DC0000F9083E090E010FDD8CFBF9286E68F93DE
:104DD000DF92CF92FF92EF920E94275D0F900F908B
:104DE0000F900F900F900F90992011F012FDC3CFEC
:104DF0006DE0D62EDF928AE68F9376E6E72E71E09D
:104E0000F72EFF92EF9208E313E01F930F930E9497
:104E1000275DDF928FE68F93FF92EF921F930F93A0
:104E20000E94275D40E050E0BA01C1010E94B51C1C
:104E30008C010FB6F894DEBF0FBECDBF8230910556
:104E400009F0E5C18101035F1D4FAE014F5F5F4F68
:104E50007A01510153EBA51A5DEFB50A6701C8014C
:104E60000E941715D6016D937D938D939D936D01CF
:104E7000005F1F4F0A151B0591F76701B0E1CB0ECC
:104E8000D11CF70141915191619171917F0103E032
:104E900010E0411551056105710509F4B0C1C1016A
:104EA0000E94B51C8C01029708F0A9C1F101ED5BCD
:104EB000FF4F2081318142815381298B3A8B4B8B6B
:104EC0005C8B3DE0932E9F9287E78F9346E6A42E5E
:104ED00041E0B42EBF92AF9258E3C52E53E0D52ED9
:104EE000DF92CF920E94275D0F900F900F900F904E
:104EF0000F900F90A1014E5A5F4F7A0101301105BA
:104F000009F07FC29F928FE78F93BF92AF92DF929B
:104F1000CF920E94275DF701910129573F4F0F90D3
:104F20000F900F900F900F900F908191811178C189
:104F3000E217F307D1F7F101E155FF4F808191812D
:104F40008115914009F06CC1F101ED54FF4F808152
:104F5000893009F065C15DE05F9389E88F9366E66B
:104F600071E07F936F93A8E3B3E0BF93AF930E9488
:104F7000275DC10181579F4F0E942815F22FE32F13
:104F80006A017B018C0129893A894B895C89812CD2
:104F9000912C540160E070E080E090E0AF2EBE2ED6
:104FA0000E945C5B722E632E542E452E69A37DA356
:104FB00089A79AA70F900F900F900F900F900F90C6
:104FC0002F3F3F4F4F4F5F4F6105710581059105A1
:104FD00011F008F025C1C10185569F4F0E94171599
:104FE000F10163A774A785A796A7EB54FF4F8081B3
:104FF000D10112968C93813009F012C131978081D2
:1050000001E010E002C0000F111F8A95E2F7F101E4
:10501000128701870115110509F402C1C1018D55DF
:105020009F4F0E9417154B015C01FEEF8F16FFEF9B
:105030009F06AF06FFE7BF0608F0F2C0DC01CB0118
:105040000296A11DB11DF10187A390A7A1A7B2A748
:1050500029893A894B895C8927A730AB41AB52AB90
:10506000C10181569F4F0E9417156B017C01298950
:105070003A894B895C89C20ED31EE41EF51ED1010C
:10508000DB96CD92DD92ED92FC92DE97C1018956BE
:105090009F4F0E941715AB01BC0189899A89AB8982
:1050A000BC89480F591F6A1F7B1FD101D3964D93AE
:1050B0005D936D937C93D697D801A50194010E94CE
:1050C0009E5A9B01AC0160E070E0CB01298B3A8BCA
:1050D0004B8B5C8B6D8B7E8B8F8B988FA701960192
:1050E00060E070E0CB01C98E3A8FEB8E5C8F6D8FE4
:1050F0007E8F8F8F98A329893A894B895C8960E0DC
:1051000070E080E090E0A98CBA8CCB8CDC8CE12C38
:10511000F12C00E010E00E945C5BA72CB62CC52CA3
:10512000D42CE9A0FDA009A51AA50E947A5B11F074
:1051300008F076C0C10189559F4F0E941715D10113
:10514000D7966D937D938D939C93DA97BDE0BF9333
:1051500082EA8F93E6E6F1E0FF93EF9348E353E0B2
:105160005F934F930E94275D0F900F900F900F90C9
:105170000F900F90C12CD12C7601812C912C5401D1
:10518000C114D104E104F10441F5D10119968D91C6
:105190009C91B0E0A0E088169906AA06BB0608F02C
:1051A0003FC0F10147A950AD61AD72ADC1010E9490
:1051B0006115698B7A8B8B8B9C8BAB01BC01480D85
:1051C000591D6A1D7B1DC1010E94DE18892B11F536
:1051D000FFEF8F1A9F0AAF0ABF0AF101EC0DFD1D08
:1051E000E95BFF4F80818138F1F020E2C20ED11CD3
:1051F000E11CF11C31E0D322EE24FF24C1CFEC14DA
:10520000FD0409F03ECE0430110551F403C0843092
:10521000910519F481E090E0B0CD029708F446CEF4
:105220008DE090E0AACD8DE08F938CEA8F9386E697
:1052300091E09F938F9388E393E09F938F930E94D5
:10524000275D8101095B1F4FC6014496800F911FA6
:105250000E9417154B015C010F900F900F900F905B
:105260000F900F9042E084169104A104B104C0F2A3
:10527000F10187A190A5A1A5B2A588169906AA0655
:10528000BB0670F67101FFE3EF0EF11CF101A18581
:10529000B285A501940122503109410951090E94AA
:1052A0009E5A698B7A8B8B8B9C8B83AD94ADA5AD0D
:1052B000B6AD29893A894B895C89820F931FA41F57
:1052C000B51FF70180839183A283B383F10183A982
:1052D00094A9A5A9B6A9B501A40127E0769567957B
:1052E000579547952A95D1F7480F591F6A1F7B1F7D
:1052F000C1010E94DE18892B09F08CCFC4018F7781
:105300009927880F991F880F991F800F911F0E945E
:1053100017156B017C01FFEFCF16DF06EF06FF06C6
:1053200059F02FEF821A920AA20AB20AC814D904BD
:10533000EA04FB0459F274CF8DE08F9386EB8F93D0
:1053400086E691E09F938F9388E393E09F938F93FA
:105350000E94275DD1015396CD92DD92ED92FC9291
:105360005697F101C786D08AE18AF28A0F900F9092
:105370000F900F900F900F9004E010E01EE01F932D
:1053800081E18F9386E6C82E81E0D82EDF92CF92FE
:1053900098E3E92E93E0F92EFF92EF920E94275DA9
:1053A000D1010C938091E6079091E70701969093C5
:1053B000E7078093E60716969C938E93159785E8EA
:1053C00093E01C969C938E931B9785E895E01E9620
:1053D0009C938E931D97F101178A108E118E128E59
:1053E0001F9381E28F93DF92CF92FF92EF920E9400
:1053F000275D0FB6F894DEBF0FBECDBF90E080E012
:10540000BCCC9F928FEB8F93BF92AF92DF92CF92E3
:105410000E94275D0F900F900F900F900F900F90AC
:10542000D7018D919C918115924009F0F9CEF1013F
:10543000E35AFF4F808191812C01712C612C892BC3
:1054400039F4C10185599F4F0E9417152B013C016A
:10545000F10143A654A665A676A6E95AFF4FF0804F
:10546000D1011296FC928FEF8F0D823008F0D8CECA
:105470008DE08F9389EC8F9386E691E09F938F93D5
:1054800088E393E09F938F930E94275DF101EC5A8C
:10549000FF4FE0808E2D90E0F101928781870F9081
:1054A0000F900F900F900F900F90009709F4B8CEC7
:1054B0009C012150310982239323892B09F0B0CE1E
:1054C000E85AFF4F00811181D10118961C930E9369
:1054D0001797C8018F709927892B09F0A1CE3296B2
:1054E000808191814C01B12CA12C892B39F4C1010F
:1054F00089599F4F0E9417154B015C01F101EB5A2E
:10550000FF4FC080D180C114D10409F489CEAF2DE2
:10551000B0E0A30192010E949E5A6DA37EA38FA3C7
:1055200098A7960150E040E0298F3A8F4B8F5C8F0F
:10553000E4E016950795EA95E1F726013A01400E59
:10554000511E611C711C460E571E681E791E841464
:105550009504A604B70408F463CEB501A401441968
:1055600055096609770949A35AA36BA37CA38E2C1E
:10557000912CB12CA12CCB01BA01A50194010E9460
:10558000395A69017A0169A17AA18BA19CA1681598
:1055900079058A059B0508F443CE76EFC7167FEFA1
:1055A000D706E7067FE0F70608F03ACE03E010E002
:1055B00086EFC8168FEFD806E104F10458F401E035
:1055C00010E046EFC4164FE0D406E104F10410F0F9
:1055D00002E010E09DE09F9382EE8F9366E6A62E98
:1055E00061E0B62EBF92AF9278E3872E73E0972EDC
:1055F0009F928F920E94275DA2E0CA0ED11CE11CEF
:10560000F11CF101C7A2D0A6E1A6F2A629893A8928
:105610004B895C8927A730AB41AB52ABC98CDA8C84
:10562000EB8CFC8CC20ED31EE41EF51EC3AAD4AABA
:10563000E5AAF6AA420E531E641E751E43AE54AE72
:1056400065AE76AE0F900F900F900F900F900F9069
:10565000BDE00330110509F0C1C0BF9389EE8F93FF
:10566000BF92AF929F928F920E94275D0F900F90F2
:105670000F900F900F900F90F101EF58FF4F808126
:105680009181892B09F0CCCDF10187819085892BFF
:1056900009F0C6CDC1018D589F4F0E941715D10149
:1056A000D7966D937D938D939C93DA979796CD9033
:1056B000DD90ED90FC909A9752E0CC0CDD1CEE1C36
:1056C000FF1C5A95D1F78DE08F9385EF8F9386E677
:1056D00091E09F938F9388E393E09F938F930E9431
:1056E000275D2FEFC20E21E0D21EE11CF11C29E044
:1056F000F694E794D794C7942A95D1F70F900F901A
:105700000F900F900F900F90F10183A594A5A5A580
:10571000B6A58C159D05AE05BF0508F481CD8FEFAC
:105720009FEFDC01838B948BA58BB68B8787908B47
:10573000A18BB28B80E884830330110509F01ECE63
:10574000E958FF4F80819181019709F017CE49896F
:105750005A896B897C894F5F5F4F6F4F7F4FC101C3
:105760000E94DE18892B09F009CED10114961C92F3
:10577000F101EB5BFD4F8081918185359A4A09F0FB
:10578000FDCDC101895B9F4F0E941715623572459F
:105790008146914409F0F2CDC101855D9D4F0E9483
:1057A0001715623772478144914609F0E7CDC10170
:1057B000815D9D4F0E941715D10153966D937D9386
:1057C0008D939C935697C1018D5C9D4F0E94171538
:1057D000F1016787708B818B928BD0CDBF938FEE59
:1057E0008F93BF92AF929F928F920E94275D0F90EE
:1057F0000F900F900F900F900F90F101878190857F
:10580000892B09F40DCD83A994A9A5A9B6A92DA129
:105810003EA14FA158A5820F931FA41FB51F87ABB0
:1058200090AFA1AFB2AFC7A0D0A4E1A4F2A4023060
:10583000110529F4CC0CDD1CEE1CFF1C44CFA3E0A9
:10584000B0E0A70196010E949E5A698F7A8F8B8FD4
:105850009C8FDC01CB01B695A79597958795F1E0D4
:10586000CF22DD24EE24FF24C80ED91EEA1EFB1E23
:105870002ACFB0E0A0E0EFE3FCE20C94085B1C014F
:105880004A015B01FC01C081D181F2E08F169104D5
:10589000A104B10440F422E030E0C901CDB7DEB785
:1058A000E2E10C94245B8FA198A5A9A5BAA588165E
:1058B0009906AA06BB0678F72A013B017501640127
:1058C000B501A401C1010E945D1A4B015C01811464
:1058D0009104A104B10439F48881843009F467C0CB
:1058E00030E020E0DACF81E088169104A104B10411
:1058F00091F2EFEF8E169E06AE06BE0609F45AC070
:1059000088818430E1F58B899C89AD89BE894FA15E
:1059100058A569A57AA542505109610971098417F2
:105920009507A607B707C0F1FFEFCF1ADF0AEF0A06
:10593000FF0A8C149D04AE04BF04B1F0888184304A
:1059400089F4970186010419150926093709F12CF4
:10595000E12CB301A201CE010E94EC199C01892B1C
:1059600009F09BCF240135018FA198A5A9A5BAA55F
:1059700088169906AA06BB0608F4A0CFADCF00E0B2
:1059800010E09801B701A601CE010E94111D9C01F3
:10599000892B09F4B8CF81CF0196A11DB11D8B8B46
:1059A0009C8BAD8BBE8B8C8181608C83BDCFF101D4
:1059B000158296CF21E030E070CF0F931F93CF93E5
:1059C000DF938C01EB01C4960E9417156E837F83D1
:1059D00088879987C801C8960E9428152A873B871F
:1059E0004C875D876E877F87888B998BD8019196CE
:1059F0008C9182708D831E8A1F8A188E198EDF917A
:105A0000CF911F910F9108950F931F93282FFB01A2
:105A1000628D738D90E080E0233059F404891589FC
:105A200030E020E0980111270027602B712B822B9A
:105A3000932B1F910F910895A7E5B0E0E2E2FDE2FC
:105A40000C94085B8C012B01DC010D90BC91A02D06
:105A50002C96BFAFAEAF2C97FB0180818F3211F037
:105A60008C3581F492012901D9018C912F5F3F4F30
:105A70008F32C9F38C35B9F3F8011682178210867C
:105A800011860DC02C96EEADFFAD2C978789908DB9
:105A9000A18DB28DF80186839783A087B187D80145
:105AA00056961D921D921D921C9259972C96EEAD02
:105AB000FFAD2C978081843009F058C016968D91E7
:105AC0009D910D90BC91A02D892B8A2B8B2B09F4D5
:105AD0004DC0838D948DA58DB68DF801828F938FE7
