:100000000C943D030C945A030C945A030C945A0319
:100010000C945A030C945A030C945A030C945A03EC
:100020000C945A030C945A030C945A030C945A03DC
:100030000C945A030C945A030C945A030C945A03CC
:100040000C945A030C945A030C945A030C945A03BC
:100050000C9403130C945A030C945A030C945A03F3
:100060000C945A030C945A030C945A030C945A039C
:100070000C945A030C945A030C945A036E616E004C
:10008000696E660000407A10F35A00A0724E18099B
:100090000010A5D4E80000E87648170000E40B54EF
:1000A000020000CA9A3B000000E1F50500008096BE
:1000B0009800000040420F000000A08601000000F0
:1000C000102700000000E8030000000064000000AA
:1000D00000000A00000000000100000000002C7673
:1000E000D888DC674F0823DFC1DFAE59E1B1B7968E
:1000F000E5E3E453C63AE651997696E8E6C28426EB
:10010000EB898C9B62ED407C6FFCEFBC9C9F40F2C6
:10011000BAA56FA5F490055A2AF75C936B6CF96742
:100120006DC11BFCE0E40D47FEF520E6B500D0ED07
:10013000902E0300943577050080841E080000206F
:100140004E0A000000C80C333333330F986E12830D
:100150001141EF8D2114893BE65516CFFEE6DB18E1
:10016000D1844B381BF77C1D901DA4BBE4242032A6
:1001700084725E228100C9F124ECA1E53D270000D4
:100180000000003E5B4F5B3E3E6B4F6B3E1C3E7C77
:100190003E1C183C7E3C181C577D571C1C5E7F5E25
:1001A0001C00183C1800FFE7C3E7FF0018241800E4
:1001B000FFE7DBE7FF30483A060E2629792926407B
:1001C0007F050507407F05253F5A3CE73C5A7F3EA7
:1001D0001C1C08081C1C3E7F14227F22145F5F0039
:1001E0005F5F06097F017F006689956A60606060D5
:1001F0006094A2FFA29408047E040810207E2010C0
:1002000008082A1C08081C2A08081E101010100CC8
:100210001E0C1E0C30383E3830060E3E0E06000016
:1002200000000000005F00000007000700147F14BA
:100230007F14242A7F2A1223130864623649562029
:10024000500008070300001C2241000041221C004E
:100250002A1C7F1C2A08083E08080080703000080D
:1002600008080808000060600020100804023E51E1
:1002700049453E00427F4000724949494621414973
:100280004D331814127F1027454545393C4A4949DA
:100290003141211109073649494936464949291E44
:1002A0000000140000004034000000081422411433
:1002B00014141414004122140802015909063E4185
:1002C0005D594E7C1211127C7F494949363E4141AD
:1002D00041227F4141413E7F494949417F09090906
:1002E000013E414151737F0808087F00417F410072
:1002F0002040413F017F081422417F404040407F21
:10030000021C027F7F0408107F3E4141413E7F096D
:100310000909063E4151215E7F09192946264949AE
:10032000493203017F01033F4040403F1F204020EE
:100330001F3F4038403F63140814630304780403EC
:100340006159494D43007F4141410204081020009A
:100350004141417F0402010204404040404000030B
:1003600007080020545478407F28444438384444D7
:100370004428384444287F385454541800087E09CF
:100380000218A4A49C787F0804047800447D4000EF
:100390002040403D007F1028440000417F40007C09
:1003A000047804787C080404783844444438FC1801
:1003B00024241818242418FC7C08040408485454E5
:1003C000542404043F44243C4040207C1C20402012
:1003D0001C3C4030403C44281028444C9090907C79
:1003E0004464544C4400083641000000770000008B
:1003F0004136080002010204023C2623263C1EA1CD
:10040000A161123A4040207A38545455592155552B
:1004100079412254547842215554784020545579DA
:10042000400C1E527212395555555939545454596D
:1004300039555454580000457C410002457D420026
:1004400001457C407D1211127DF0282528F07C5456
:100450005545002054547C547C0A097F493249494F
:1004600049323A4444443A324A4848303A414121B8
:100470007A3A42402078009DA0A07D3D4242423D14
:100480003D4040403D3C24FF2424487E4943662BA8
:100490002FFC2F2BFF0929F620C0887E090320544A
:1004A0005479410000447D413048484A3238404048
:1004B000227A007A0A0A727D0D19317D2629292FA8
:1004C00028262929292630484D40203808080808C0
:1004D00008080808382F10C8ACBA2F102834FA00C2
:1004E000007B000008142A142222142A1408AA00EF
:1004F0005500AAAA55AA55AA000000FF0010101026
:10050000FF00141414FF001010FF00FF1010F01073
:10051000F0141414FC001414F700FF0000FF00FF97
:100520001414F404FC141417101F10101F101F14BF
:1005300014141F00101010F0000000001F10101005
:10054000101F10101010F010000000FF10101010FD
:100550001010101010FF10000000FF140000FF002A
:10056000FF00001F10170000FC04F41414171017EC
:100570001414F404F40000FF00F7141414141414F9
:1005800014F700F7141414171410101F101F14146C
:1005900014F4141010F010F000001F101F000000E1
:1005A0001F14000000FC140000F010F01010FF10E9
:1005B000FF141414FF141010101F00000000F0109E
:1005C000FFFFFFFFFFF0F0F0F0F0FFFFFF00000083
:1005D0000000FFFF0F0F0F0F0F3844443844FC4A50
:1005E0004A4A347E02020606027E027E02635549B2
:1005F00041633844443C04407E201E2006027E02B3
:100600000299A5E7A5991C2A492A1C4C7201724C33
:10061000304A4D4D303048784830BC625A463D3EF5
:10062000494949007E0101017E2A2A2A2A2A444496
:100630005F444440514A444040444A51400000FF16
:100640000103E080FF000008086B6B0836123624B7
:1006500036060F090F0600001818000000101000E1
:100660003040FF0101001F01011E00191D1712007B
:100670003C3C3C3C00000000000011241FBECFEFBA
:10068000D0E1DEBFCDBF11E0A0E0B1E0ECECF4E3DF
:1006900002C005900D92A63DB107D9F723E0A6ED63
:1006A000B1E001C01D92AF3FB207E1F70E94041311
:1006B0000C94641A0C9400000F931F93CF93DF9354
:1006C000CDB7DEB7C055D1090FB6F894DEBF0FBE67
:1006D000CDBFA0961FADA0976B966EAD7FAD6B970B
:1006E00069968EAD9FAD69970E946C0F6F966EAD47
:1006F0007FAD6F976D968EAD9FAD6D970E94750F14
:10070000812F0E947E0F9E012D593F4FA3964EAD23
:100710005FADA39760E570E08E010F5F1F4FC801CA
:100720000E94C5191F930F938BE491E09F938F93C1
:100730000E9485190F900F900F900F90C05BDF4FB4
:100740000FB6F894DEBF0FBECDBFDF91CF911F91E2
:100750000F9108952F923F924F925F926F927F92E6
:100760008F929F92AF92BF92CF92DF92EF92FF92C1
:100770000F931F93CF93DF93CDB7DEB728970FB6B4
:10078000F894DEBF0FBECDBF4C012B014F835887BD
:1007900039015801EA94EF2809F045C08EE997EF36
:1007A0009A8389834EE8242E43E7342E0AE812E523
:1007B000C501880F991F9301281B390B4F8158855C
:1007C000481B590BB501640D751DC501880D991D98
:1007D0000E94200810E000E0C301840D951D9C8359
:1007E0008B838F819885880D991D9E838D83A0169C
:1007F000B10624F528960FB6F894DEBF0FBECDBF24
:10080000DF91CF911F910F91FF90EF90DF90CF90EC
:10081000BF90AF909F908F907F906F905F904F9020
:100820003F902F9008958EE893E79A8389833EE95D
:10083000232E37EF332E00E114E8BACF7201E00E19
:10084000F11E6401C00ED11E91014F815885B70180
:10085000C6010E94E3076B817C81601B710B2981BB
:100860003A814F815885C6010E94E3079101A30197
:10087000B701C6010E94A60729813A81A301B701E9
:100880008D819E81801B910B0E94A6070F5F1F4FD9
:100890008F819885029798878F8392E0691A7108F3
:1008A000A6CF4F925F926F927F928F929F92AF925C
:1008B000BF92CF92DF92EF92FF920F931F93CF934D
:1008C000DF935C01EB01290148010E94AA03EA942D
:1008D000EF28D9F120E134E880E090E0DF92CF9278
:1008E0001F9241E04F933F932F939F938F93C80D97
:1008F000D91DC20157FC019695958795C80FD91F40
:100900002497DF93CF93A80CB91C9FE0A90EB11CCC
:10091000BF92AF920E945C038DB79EB70C960FB644
:10092000F8949EBF0FBE8DBFDF91CF911F910F91A5
:10093000FF90EF90DF90CF90BF90AF909F908F90FF
:100940007F906F905F904F9008952AE832E58FEF87
:100950009FEFC4CF4F925F926F927F928F929F9240
:10096000AF92BF92CF92DF92EF92FF920F931F93BD
:10097000CF93DF93CDB7DEB728970FB6F894DEBFDD
:100980000FBECDBF69837A838B839C8329013A0193
:10099000ED82FE820F8318878A2C9B2C56012981B9
:1009A0003A814B815C8124193509460957098B8DA1
:1009B0009C8DAD8DBE8D7C018D01E818F9080A096A
:1009C0001B09C801B7010E94A2172D813E814F81EA
:1009D000588524193509460957090E94E817DA0194
:1009E000C901880D991DAA1DBB1DBC01CD0128960A
:1009F0000FB6F894DEBF0FBECDBFDF91CF911F9130
:100A00000F91FF90EF90DF90CF90BF90AF909F90AD
:100A10008F907F906F905F904F9008952F923F92AC
:100A20004F925F926F927F928F929F92AF92BF92FE
:100A3000CF92DF92EF92FF920F931F93CF93DF93AA
:100A400000D000D000D0CDB7DEB73C015B014A0139
:100A500069010D831E8317014D805E80440C551C77
:100A6000F12CE12C0D811E81C3010E94AA03940187
:100A70002419350926503109D1010E94071824E6AE
:100A800030E040E050E00E94E8178901912C812C71
:100A9000C418D50886E0C81AD10893E0A90EB11C85
:100AA0008D819E81A80EB91E860D971D03969A838F
:100AB00089838C149D04CCF026960FB6F894DEBF83
:100AC0000FBECDBFDF91CF911F910F91FF90EF909F
:100AD000DF90CF90BF90AF909F908F907F906F905E
:100AE0005F904F903F902F900895B501680D791D4C
:100AF00020E030EFA80189819A810E94E3079FEFEF
:100B0000891A990AD6CF26B191E0822F807124FDEF
:100B100090E02091DF03822B19F481E08093DC03C5
:100B20009093DF03089526B191E0822F807225FD16
:100B300090E02091DE03822B19F481E08093DB03A7
:100B40009093DE03089526B191E0822F887023FDF3
:100B500090E02091DD03822B19F481E08093DA0389
:100B60009093DD0308958FEF8AB95F9A8AB184610B
:100B70008AB9089584B1806B84B9269880E58CBDCC
:100B80008DB581608DBD5A9A08958EBD0DB407FE56
:100B9000FDCF08959BB19B7E9BB90E94C5055A9AD3
:100BA00008955C9A5A980E94C5055A9A0895DF9252
:100BB000EF92FF920F931F93CF93DF93E82ED92EDE
:100BC000D62F172F042FF52EC22F8AE20E94CA05B6
:100BD0008D2D0E94D1058E2D0E94D1058F2D0E9452
:100BE000D105802F0E94D1058BE20E94CA05812F7A
:100BF0000E94D1058D2F0E94D1058C2F0E94D10516
:100C00008C2F0E94D1058CE2DF91CF911F910F9123
:100C1000FF90EF90DF900C94CA055F9A2FEF83EC62
:100C200099E0215080409040E1F700C000005F98BB
:100C30002FEF83EC99E0215080409040E1F700C015
:100C400000005F9A2FEF83EC99E0215080409040A4
:100C5000E1F700C0000008950E94B3050E94BA05A4
:100C600081E00E94CA052FEF83ED90E32150804080
:100C70009040E1F700C000008BEC0E94CA0589E3B8
:100C80000E94D1058CE20E94D10580E00E94D1052E
:100C900084E30E94D10582E00E94D1058FEC0E947E
:100CA000CA0580E00E94D10581EC0E94D10580E355
:100CB0000E94D10588EE0E94CA0585E80E94D105F0
:100CC00080E00E94D10588E70E94D1058AEE0E944B
:100CD000CA0580E00E94D10580E00E94D1058DEE1A
:100CE0000E94CA0584E60E94D10583E00E94D105D6
:100CF00082E10E94D10581E80E94D10587EF0E9420
:100D0000CA0580E20E94D10580EC0E94CA0583E2F8
:100D10000E94D10581EC0E94CA0580E10E94D105A4
:100D200085EC0E94CA058EE30E94D10588E20E94EC
:100D3000D10587EC0E94CA0586E80E94D10586E3AA
:100D40000E94CA0588E40E94D1058AE30E94CA0570
:100D500085E00E94D10581EB0E94CA0580E00E94D7
:100D6000D10588E10E94D10586EB0E94CA0588E082
:100D70000E94D10582E80E94D10587E20E94D10538
:100D800082EF0E94CA0580E00E94D10586E20E949F
:100D9000CA0581E00E94D10580EE0E94CA058FE05D
:100DA0000E94D10581E30E94D1058BE20E94D1050A
:100DB0008CE00E94D1058EE00E94D10588E00E945F
:100DC000D1058EE40E94D10581EF0E94D10587E311
:100DD0000E94D10587E00E94D10580E10E94D105E3
:100DE00083E00E94D1058EE00E94D10589E00E9437
:100DF000D10580E00E94D10581EE0E94CA0580E005
:100E00000E94D1058EE00E94D10584E10E94D105A7
:100E100083E00E94D10581E10E94D10587E00E9414
:100E2000D10581E30E94D10581EC0E94D10588E4BF
:100E30000E94D10588E00E94D1058FE00E94D10573
:100E40008CE00E94D10581E30E94D10586E30E94D7
:100E5000D1058FE00E94D10581E10E94CA052FEFE4
:100E60008BED95E0215080409040E1F700C00000FC
:100E700089E20C94CA05CF93C82F892F0E94D1050F
:100E80008C2FCF910C94D105EF92FF920F931F936B
:100E9000CF93DF93182F092F20912F01309130012C
:100EA0004091310150913201215031094150510995
:100EB00070E060E090E080E00E94D705D0E0C0E004
:100EC0008091310190913201C817D907B8F0DF91B4
:100ED000CF911F910F91FF90EF900895812F902F48
:100EE0000E943B078FEFE81AF80A80912F0190913A
:100EF0003001E816F90690F32196E2CFF12CE12CAF
:100F0000F4CFCF93DF93FC01D42FC52F8091310113
:100F100090913201E817F907B0F480912F01909178
:100F200030016817790778F49B012F5F3F4FAF01BD
:100F30004F5F5F4FCF010E94D7058D2F9C2FDF9110
:100F4000CF910C943B07DF91CF9108950F931F939E
:100F5000CF93DF93FC01EA01122F032F809131011F
:100F600090913201E817F90718F580912F019091BF
:100F7000300168177907E0F420912F01309130019A
:100F8000CA010197860F971F8217930730F0C0910F
:100F90002F01D0913001C61BD70B9B012150310985
:100FA0002C0F3D1FAF01CF010E94D705209729F4D8
:100FB000DF91CF911F910F910895812F902F0E9463
:100FC0003B072197F3CF0F931F93CF93DF93FC0140
:100FD000EA01122F032F8091310190913201E8171D
:100FE000F90718F580912F01909130016817790762
:100FF000E0F42091310130913201CA0101978E0F46
:101000009F1F8217930730F0C0913101D0913201B8
:10101000CE1BDF0BAF01415051094C0F5D1F9B01EF
:10102000CF010E94D705209729F4DF91CF911F911E
:101030000F910895812F902F0E943B072197F3CFA6
:10104000CF92DF92EF92FF920F931F93CF93DF9394
:10105000FC017A01E9018091310190913201E81798
:10106000F907C0F580912F01909130016817790739
:1010700088F52091310130913201CA0101978E0F1C
:101080009F1F8217930730F0E0903101F0903201FA
:10109000EE1AFF0A20912F0130913001CE01019705
:1010A000860F971F8217930730F0C0912F01D091C0
:1010B0003001C61BD70B9B01215031092C0F3D1F5E
:1010C000AF01415051094E0D5F1DCF010E94D70560
:1010D0002097A1F4DF91CF911F910F91FF90EF9096
:1010E000DF90CF900895C8010E943B0781E0C81AA5
:1010F000D108C114D104B9F72197EACF6701F9CF1C
:10110000CF93C82F86E30E94CA05C370C23089F00E
:10111000C33001F188E4C13069F488E20E94D1054E
:1011200080E491E0909332018093310180EF90E070
:101130000BC088E80E94D10580EF90E090933201C7
:101140008093310180E491E09093300180932F01EE
:10115000CF91089588EEE2CF2F923F924F925F9207
:101160006F927F928F929F92AF92BF92CF92DF92B7
:10117000EF92FF920F931F93CF93DF9300D000D095
:1011800000D0CDB7DEB78C017B014D835E83522E3C
:10119000432E81E090E05C012D813E81A21AB30ACA
:1011A000C9019195819591099C01220F331F3C83C0
:1011B0002B836D817E816E0D7F1D452D542DC801C1
:1011C0000E948107B7018D819E81681B790B452D97
:1011D000542DC8010E948107452D542DB7018D81E2
:1011E0009E81800F911F0E948107452D542DB701CC
:1011F000C8012D813E81821B930B0E948107D12C57
:10120000C12C81E090E09A8389838D819E81C816EC
:10121000D906CCF026960FB6F894DEBF0FBECDBF30
:10122000DF91CF911F910F91FF90EF90DF90CF90C2
:10123000BF90AF909F908F907F906F905F904F90F6
:101240003F902F900895B7FC0DC02D813E81215015
:1012500031093E832D838B819C8102969C838B83F5
:10126000A80EB91E9FEFC91AD90A29813A812E5FAB
:101270003F4F3A832983A20EB31E38016C0C7D1CAC
:10128000452D542D8D809E808E0C9F1CB401C30172
:101290000E94810718012C183D08452D542DB401DA
:1012A000C1010E948107452D542D47018D819E81EA
:1012B000881A990AB401C3010E948107452D542D53
:1012C000B401C1010E94810747018C0C9D1C452D72
:1012D000542DB4016D807E80600E711EC3010E948A
:1012E0008107452D542DB40118012D813E81221A0C
:1012F000330AC1010E94810747018C189D08452DC2
:10130000542DB401C3010E948107452D542DB40111
:10131000C1010E94810779CF2F923F924F925F9235
:101320006F927F928F929F92AF92BF92CF92DF92F5
:10133000EF92FF920F931F93CF93DF9300D000D0D3
:10134000CDB7DEB76C015B014B835C83502E412E21
:1013500081E090E04C014B815C81841A950A3A014E
:10136000719461947108660C771CF12CE12C01E0FA
:1013700010E0522F54705983822F82708A83922FEB
:101380009870292E2170322E2B813C81E216F306B3
:10139000BCF00F900F900F900F90DF91CF911F91A5
:1013A0000F91FF90EF90DF90CF90BF90AF909F9004
:1013B0008F907F906F905F904F903F902F90089507
:1013C00097FC0BC02B813C81215031093C832B833E
:1013D00032E0630E711C860C971C4FEFE41AF40A7E
:1013E0000E5F1F4F800E911E59815523B1F0452D80
:1013F000542D6B817C816A0D7B1DC6018E0D9F1D56
:101400000E948107452D542DB5016E0D7F1D8B81E6
:101410009C818C0D9D1D0E9481078A818823B9F0D3
:10142000452D542DB5012B813C81621B730BC601E8
:101430008E0D9F1D0E948107452D542DB5016E19FB
:101440007F098B819C818C0D9D1D0E94810722202C
:10145000B9F0452D542DB5016E0D7F1DC6012B81B0
:101460003C81821B930B0E948107452D542D6B817B
:101470007C816A0D7B1DC6018E199F090E94810720
:10148000332009F481CF452D542DB5016E197F0904
:10149000C6012B813C81821B930B0E948107452D45
:1014A000542DB5018B819C81681B790BC6018E1967
:1014B0009F090E94810768CF460F571F415051096D
:1014C0000C94A6072F923F924F925F926F927F9259
:1014D0008F929F92AF92BF92CF92DF92EF92FF9244
:1014E0000F931F93CF93DF9300D000D0CDB7DEB71B
:1014F0002C015B014B835C83480181E090E06C012F
:101500004B815C81C41AD50A1A01319421943108A7
:10151000220C331C10E000E066246394712C522FDF
:101520005170598322702A834B815C8104171507FF
:10153000BCF00F900F900F900F90DF91CF911F9103
:101540000F91FF90EF90DF90CF90BF90AF909F9062
:101550008F907F906F905F904F903F902F90089565
:10156000D7FC0AC08B819C8101979C838B8392E07E
:10157000290E311CC20CD31C0F5F1F4FE2E06E0E10
:10158000711CC60CD71CF981FF2301F14B815C81D2
:10159000440F551F4F5F5F4F480D591D9701B5010F
:1015A0008B819C81681B790BC201800F911F0E9467
:1015B0005C0A9701A401460D571DB501601B710B14
:1015C0008B819C81840D951D0E945C0A9A819923D0
:1015D00009F4AACF4B815C81440F551F4F5F5F4FC9
:1015E000480D591D9701B501EB81FC816E1B7F0BE6
:1015F000C201801B910B0E945C0A9701A301480D58
:10160000591DB501601B710BC201EB81FC818E1B62
:101610009F0B0E945C0A88CFAF92BF92CF92DF925D
:10162000EF92FF920F931F93CF93DF936C015B01B7
:10163000EA017901440F551F4F5F5F4F6C1B7D0B13
:10164000C6010E94A60710E000E023E0AE01B5014C
:10165000C6010E94620ADF91CF911F910F91FF9006
:10166000EF90DF90CF90BF90AF900895480F591F33
:10167000415051090C94E3072F923F924F925F9291
:101680006F927F928F929F92AF92BF92CF92DF9292
:10169000EF92FF920F931F93CF93DF9300D000D070
:1016A000CDB7DEB78B839C837B016A01C9010983B7
:1016B0001A838901061B170B17FF03C011950195AB
:1016C000110946012B813C81821A930A97FE03C0BF
:1016D000919481949108801691065CF43C2D2D2DF7
:1016E0006C01832F922F3B812C81FC82EB82E32EB5
:1016F000F22E2B813C81C216D3065CF43E2D2F2D99
:101700007C01832F922F3B812C81DC82CB82C32EE4
:10171000D22E16012B813C81221A330A2C014E183D
:101720005F0857FE03C0519441945108310137FEC0
:1017300003C03FEF631A730A75946794E816F906BD
:10174000D4F1AA24AA94BA2C2B813C81C216D306C8
:10175000BCF40F900F900F900F90DF91CF911F91DD
:101760000F91FF90EF90DF90CF90BF90AF909F9040
:101770008F907F906F905F904F903F902F90089543
:1017800049815A816B817C81C701801691061CF0CA
:10179000B7018B819C810E9481076418750877FED0
:1017A00004C0EA0CFB1C620C731C8B819C810196AB
:1017B0009C838B83C9CFAA24A394B12CC5CFAF92AD
:1017C000BF92CF92DF92EF92FF920F931F93CF932E
:1017D000DF93EC017B015A01690198010E94360BED
:1017E000B7016C0D7D1D615071099801A501CE01F5
:1017F0000E94360B9801A601B701CE010E945C0A37
:10180000CE018A0D9B1D9801A601B7010197DF91BA
:10181000CF911F910F91FF90EF90DF90CF90BF90ED
:10182000AF900C945C0AAF92BF92CF92DF92EF928E
:10183000FF920F931F93CF93DF93D62EC72EB22E16
:10184000A32EEC017C01E40EF51ECE15DF055CF045
:10185000DF91CF911F910F91FF90EF90DF90CF908C
:10186000BF90AF90089598014B2D5A2D6D2D7C2D72
:10187000CE010E945C0A2196E8CF2F923F924F92B0
:101880005F926F927F928F929F92AF92BF92CF9210
:10189000DF92EF92FF920F931F93CF93DF9300D0CD
:1018A00000D000D0CDB7DEB75C016B0149835A830D
:1018B00019010D831E836D807E80660C771C498024
:1018C0005A80461857088D809E808A0C9B1C970171
:1018D000A201C4010E94360BC601820D931D9C8398
:1018E0008B83BC01615071099701A201C4010E9460
:1018F000360B261837088D819E81C80ED91E970198
:10190000A101B601C5010E945C0A89819A81A80ED5
:10191000B91E9701A101B601C50101970E945C0A99
:10192000870121E04D815E81B601C4010E948C09CE
:101930008D819E81A81AB90A91E0A91AB10822E006
:101940004D815E81B601C5010E948C09CB80DC808F
:101950008D819E81C81AD90A91E0C91AD10824E064
:101960004D815E81B601C5010E948C0928E04D8140
:101970005E81B601C4010E948C0926960FB6F894C8
:10198000DEBF0FBECDBFDF91CF911F910F91FF90B2
:10199000EF90DF90CF90BF90AF909F908F907F900F
:1019A0006F905F904F903F902F9008952F923F92AD
:1019B0004F925F926F927F928F929F92AF92BF925F
:1019C000CF92DF92EF92FF920F931F93CF93DF930B
:1019D0001C015B012A01E901680137017801EE0C65
:1019E000FF1C4801820C931C4E195F098301C4013E
:1019F0000E94130CCE19DF092197AC0CBD1CC2014B
:101A0000820D931D8C199D0973018E0121E0A601A1
:101A1000B50101970E94620A22E0A601B501C40146
:101A20000E94620ADF91CF911F910F91FF90EF907A
:101A3000DF90CF90BF90AF909F908F907F906F90EE
:101A40005F904F903F902F9008952F923F924F922A
:101A50005F926F927F928F929F92AF92BF92CF923E
:101A6000DF92EF92FF920F931F93CF93DF9300D0FB
:101A700000D000D00F92CDB7DEB72C013B015A0148
:101A800069010A831B83EC82FD82190187E0280E1D
:101A9000311C37FE04C019019EE0290E311C93E071
:101AA000359427949A95E1F7F12CE12C10E000E0B1
:101AB0008A819B81081719070CF44BC027960FB633
:101AC000F894DEBF0FBECDBFDF91CF911F910F9174
:101AD000FF90EF90DF90CF90BF90AF909F908F904E
:101AE0007F906F905F904F903F902F9008958E81E0
:101AF0009F8187709927892BF1F08981880F8983CD
:101B0000898187FF09C04C815D81B4018E819F81ED
:101B1000840D951D0E9481078E819F8101969F8370
:101B20008E838E819F818C159D050CF30F5F1F4F57
:101B3000E20CF31CBDCFEE81FF8183E0F595E795C4
:101B40008A95E1F7EE0DFF1DEA0DFB1D9491998337
:101B5000D7CF1F821E824301800E911EE2CF2F92AB
:101B60003F924F925F926F927F928F929F92AF922D
:101B7000BF92CF92DF92EF92FF920F931F93CF937A
:101B8000DF9300D000D000D00F92CDB7DEB72C018C
:101B90003B015A0169010A831B83EC82FD82190112
:101BA00087E0280E311C37FE04C019019EE0290E83
:101BB000311C93E0359427949A95E1F7F12CE12CB0
:101BC00010E000E08A819B81081719070CF44BC0D4
:101BD00027960FB6F894DEBF0FBECDBFDF91CF9131
:101BE0001F910F91FF90EF90DF90CF90BF90AF903B
:101BF0009F908F907F906F905F904F903F902F902D
:101C000008958E819F8187709927892BF1F08981B2
:101C100086958983898180FF09C04C815D81B401EB
:101C20008E819F81840D951D0E9481078E819F81E9
:101C300001969F838E838E819F818C159D050CF369
:101C40000F5F1F4FE20CF31CBDCFEE81FF8183E0DD
:101C5000F595E7958A95E1F7EE0DFF1DEA0DFB1D61
:101C600094919983D7CF1F821E824301800E911ECB
:101C7000E2CF8091F7039091F8039093EF03809364
:101C8000EE038091F5039091F6039093ED0380931A
:101C9000EC0308958091F7039091F8039093EB0380
:101CA0008093EA038091F5039091F6039093E90302
:101CB0008093E80308958091F7039091F80390933F
:101CC000E7038093E6038091F5039091F6039093E8
:101CD000E5038093E40308958091F7039091F8035E
:101CE0009093E3038093E2038091F5039091F603D0
:101CF0009093E1038093E00308952F923F924F92D7
:101D00005F926F927F928F929F92AF92BF92CF928B
:101D1000DF92EF92FF920F931F93CF93DF93CDB794
:101D2000DEB72B970FB6F894DEBF0FBECDBF6B01A9
:101D3000190109831A838A879B87809131019091C9
:101D400032012A853B852817390708F069C0809140
:101D50002F01909130016817790708F061C0C9011F
:101D600036E0E39E800D911D1124181619060CF023
:101D700057C08E2D90E09D838C83E8E0EE9EC001DD
:101D80001124860F971F181619060CF049C0F5E0AC
:101D90004F9FA00111249A0122583E4F3F832E836A
:101DA0006A847B841B82CB010896998788875C8034
:101DB0004D809B81F12C953019F0EE81FF81F490DC
:101DC00056014601F0FE45C0F1E0A1018101EF128C
:101DD0004EC0B501C3010E948107F6948C819D819C
:101DE000880E991E9FEFA91AB90AE885F985EA15A8
:101DF000FB0541F7FB81FF5FFB832A853B858C81D7
:101E00009D81280F391F3B872A879FEF691A790A1E
:101E1000EE81FF813196FF83EE83FB81F63049F638
:101E20002B960FB6F894DEBF0FBECDBFDF91CF91DA
:101E30001F910F91FF90EF90DF90CF90BF90AF90E8
:101E40009F908F907F906F905F904F903F902F90DA
:101E5000089529813A812215330509F4BECF31E076
:101E600009811A81E31203C049815A81B2CF252D1D
:101E7000342D452D542DB4018A859B850E94200860
:101E8000ACCFEF920F931F93482FE090F003009197
:101E9000F1031091F2032091F3033091F403609168
:101EA000F5037091F6038091F7039091F8030E9477
:101EB0007D0E2091F0038091F7039091F80336E0B6
:101EC000239F800D911D11249093F8038093F703B5
:101ED0001F910F91EF9008959093F8038093F7036B
:101EE0007093F6036093F50308959093F403809341
:101EF000F3037093F2036093F1030895893028F49B
:101F0000811101C081E08093F00308958A30A9F423
:101F10008091F0032091F5033091F60348E0849F0F
:101F2000C0011124820F931F9093F6038093F50351
:101F30001092F8031092F70308958D3011F00C946D
:101F4000410F08950E94860F81E090E008958F92DE
:101F50009F92AF92BF92DF92EF92FF920F931F93E7
:101F6000CF93DF9383E391E09093FC038093FB0393
:101F700004E010E01093F8030093F7031093F603C6
:101F80000093F5038FE39FE10197F1F700C0000094
:101F900080EE97E09093F4038093F3031092F203A2
:101FA0001092F1038FE39FE10197F1F700C0000069
:101FB000C2E0C093F0038FE39FE10197F1F700C007
:101FC000000086E991E09F938F930E9485198FE32B
:101FD0009FE10197F1F700C0000080E098EF909337
:101FE000F4038093F3031092F2031092F1038FE352
:101FF0009FE10197F1F700C00000C093F0038FE369
:102000009FE10197F1F700C000008EE991E09F93F6
:102010008F930E9485198FE39FE10197F1F700C02C
:1020200000001093F8030093F70388E2A82EB12C68
:10203000B092F603A092F5038FE39FE10197F1F7C9
:1020400000C000008FEF97E09093F4038093F303B8
:102050001092F2031092F1038FE39FE10197F1F7E1
:1020600000C00000D4E0D093F0038FE39FE101971C
:10207000F1F700C0000086E50E94410F8FE39FE169
:102080000197F1F700C000008091F5039091F603ED
:1020900006969093F6038093F503C3E0C093F00394
:1020A0008FE39FE10197F1F700C000008FEA91E014
:1020B0000E9499198FE39FE10197F1F700C000009A
:1020C0008091F5039091F6030C969093F60380931C
:1020D000F5030E94390E83EB91E09F938F930E944A
:1020E00085198FE39FE10197F1F700C0000010937D
:1020F000F8030093F70398E7892E912C9092F6034A
:102100008092F5038FE39FE10197F1F700C0000093
:10211000D093F0038FE39FE10197F1F700C0000037
:1021200086E50E94410F8FE39FE10197F1F700C020
:1021300000008091F5039091F60306969093F603C4
:102140008093F503C093F0038FE39FE10197F1F7CC
:1021500000C000008AEB91E00E9499198FE39FE193
:102160000197F1F700C000000E944A0E25E0D22E30
:10217000D092F00302EC11E01F930F930E94851997
:102180008FE39FE10197F1F700C0000034EAE32EEE
:10219000F12CF092F803E092F703B092F603A092CC
:1021A000F5038FE39FE10197F1F700C0000080EE97
:1021B0009FEF9093F4038093F3031092F203109235
:1021C000F1038FE39FE10197F1F700C00000D09386
:1021D000F0038FE39FE10197F1F700C0000089E46D
:1021E0000E94410F8FE39FE10197F1F700C00000CB
:1021F0008091F5039091F60306969093F6038093F1
:10220000F503C093F0038FE39FE10197F1F700C05E
:1022100000008FEA91E09F938F930E9485198FE3CE
:102220009FE10197F1F700C00000F092F803E092FF
:10223000F7038091F5039091F60384969093F6034B
:102240008093F5030E945B0EC093F00388EC91E04D
:102250009F938F930E9485198FE39FE10197F1F778
:1022600000C00000F092F803E092F7039092F603AA
:102270008092F5038FE39FE10197F1F700C0000022
:10228000D093F0038FE39FE10197F1F700C00000C6
:1022900089E40E94410F8FE39FE10197F1F700C0AD
:1022A00000008091F5039091F60306969093F60353
:1022B0008093F503C093F0038FE39FE10197F1F75B
:1022C00000C000008FEC91E09F938F930E948519CE
:1022D0008FE39FE10197F1F700C00000F092F8034F
:1022E000E092F7030E946C0E8091F5039091F60343
:1022F000C0969093F6038093F503D092F0031F935A
:102300000F930E9485199FEF27EA81E691502040A4
:102310008040E1F700C000008DB79EB740960FB631
:10232000F8949EBF0FBE8DBFDF91CF911F910F918B
:10233000FF90EF90DF90BF90AF909F908F900895A7
:1023400021E030E001C0220F8A95EAF72262209353
:102350007C0084EC80937A0080917A0086FDFCCF2B
:1023600080917900089584EA8093BC008091BC003C
:1023700087FFFCCF089584E98093BC000895809383
:10238000BB0084E88093BC008091BC0087FFFCCF39
:1023900008958091B900887F089584EC8093BC00F3
:1023A0008091BC0087FFFCCF8091BB00089584E83A
:1023B0008093BC008091BC0087FFFCCF8091BB0064
:1023C00008951092C50087E68093C40086E080934C
:1023D000C20088E98093C1000895CF93C82F8A3046
:1023E00019F48DE00E94ED118091C00085FFFCCFB3
:1023F000C093C600CF910895CF93C82F82958F7058
:10240000C03A58F4805D0E94ED118C2F8F708A3095
:1024100030F4805DCF910C94ED11895AF4CF895A34
:10242000F9CFCF93C82F892F0E94FC118C2FCF9109
:102430000C94FC11CF93DF93D62FC72F0E9411125B
:102440008D2F9C2FDF91CF910C941112AF92BF92E0
:10245000DF92EF92FF920F931F93CF93DF938C0144
:1024600085E0E82EF12C20E0C0E1D7E29AE0A92E29
:10247000B12CC801BE010E94B217D62E262B19F42A
:10248000C130D10529F480E38D0D0E94ED1121E0CA
:10249000DC9EC001DD9E900D1124081B190BCE019E
:1024A000B5010E94B217EB0181E0E81AF10809F7C3
:1024B000DF91CF911F910F91FF90EF90DF90BF9030
:1024C000AF9008958F929F92AF92BF92CF92DF927A
:1024D000EF92FF920F931F93CF93DF93CDB7DEB7A9
:1024E00029970FB6F894DEBF0FBECDBF69837A83FC
:1024F0008B839C830AE010E01986C12C8AECD82ECD
:102500008AE9E82E8BE3F82E9AE0892E912CA12CF3
:10251000B12C69817A818B819C81A70196010E94EF
:10252000C6172D833985322B3987311106C041E01A
:10253000C416D104E104F10431F48D81805D0E9460
:10254000ED1151E059878D81A82FB0E0A7019601C8
:102550000E94251829813A814B815C81261B370B0B
:10256000480B590B29833A834B835C83C701B6011F
:10257000A50194010E94C61769017A010150110951
:1025800041F629960FB6F894DEBF0FBECDBFDF919E
:10259000CF911F910F91FF90EF90DF90CF90BF9060
:1025A000AF909F908F900895CF93DF93EC01899126
:1025B000811103C0DF91CF9108950E94ED11F7CFF3
:1025C000CF93DF93EC01FE0184912196882319F0CB
:1025D0000E94ED11F8CFDF91CF9108959FB77894C5
:1025E0008091C00087FF07C09FBF8091C6008D30DB
:1025F00009F48AE0089583B7816083BF889583B723
:102600008E7F83BFEDCF1895CDB7DEB760970FB63D
:10261000F894DEBF0FBECDBF559A5D9A249A2C98D0
:10262000509A5898229A2A98239A2B983F9A47981A
:102630003E9A46983C98449A3B98439A3D98459ACE
:102640000A98129809981198549A5C9880E091E041
:102650009093FC038093FB030E942C0690E080E0A3
:102660000E9444072FEF83ED90E32150804090407B
:10267000E1F700C0000083E00E9480088FE39FE143
:102680000197F1F700C00000479884E090E00E94B5
:102690004E1A8093A603DD24D394D092CC03D0921B
:1026A000A20362E870E180EE9FEF0E94750F82E066
:1026B0000E947E0F20912B0130912C0140912D0121
:1026C00050912E0110E000E070E060E090E080E0CA
:1026D0000E94130C60EA70E082E890E00E946C0FA8
:1026E0008EE491E09F938F930E94851964EB70E0D4
:1026F00082E890E00E946C0F8AE591E09F938F93AF
:102700000E9485199FEF27EA81E691502040804082
:10271000E1F700C000000E9483050E9493050E941B
:10272000A3058FEF97E09A8789871C861B861E86F4
:102730001D86188A1F8688E0E1E4F1E0DE0111962B
:1027400001900D928A95E1F788E090E00E944E1A80
:102750008093B3039093B403E091A803F0E09F93B8
:102760008F938AE691E09F938F931F92DF92EE0FF3
:10277000FF1F81E090E08C0F9D1FE80FF91F818102
:102780008F9380818F9381858F9380858F931F9204
:102790001CED1F931F928AE08F930E945C038CE0D4
:1027A00090E00E944E1A8093AD039093AE03E091A7
:1027B000A803F0E09F938F9383E791E09F938F931B
:1027C0001F9282E08F93EE0FFF1F81E090E08C0F4D
:1027D0009D1FE80FF91F81818F9380818F938185E1
:1027E0008F9380858F931F921F931F928DEC8F93F1
:1027F0000E945C030FB6F894DEBF0FBECDBF2CE77E
:10280000C22E21E0D22EF12CE12C02E010E028E2D1
:1028100030E046E950E06AE070E08AE090E00E9433
:10282000510439E8C32E31E0D32EEE24E394F12C89
:1028300028E230E046E950E06CE370E08AE090E0A6
:102840000E945104D12CC12C760102E010E028E254
:1028500030E046E950E06EE670E08AE090E00E94E9
:102860000E059FEFC91AD90A24E6C216D10461F7F2
:10287000FFCFA3E1B0E0EFE3F4E10C9430187C016A
:102880001B015A01DC0117961C921E921697139693
:102890008C9181FF4DC3FE0131964F01D7011396F4
:1028A0009C91F10193FD859193FF81911F018823F4
:1028B00009F4F1C2853239F493FD859193FF81913A
:1028C0001F01853239F4B70190E00E945519650166
:1028D0005601E4CF10E0712C612CBFE1B61538F041
:1028E0008B3211F190F4803209F1833229F167FCC7
:1028F0003CC020ED280F2A3050F566FE20C0EAE0EB
:102900001E9F200D1124122F06C08D3291F08033AE
:1029100071F7689460F8F10193FD859193FF8191BF
:102920001F018111DACF21C0689461F8689462F8C0
:10293000F2CF689463F8EFCF689464F8ECCFFAE0D4
:102940007F9E200D1124722E689465F8E4CF8E329C
:1029500029F466FCA0C2689466F8DDCF8C3619F4C1
:10296000689467F8D8CF8836B1F29BEB980F933014
:1029700008F06FC0689464F8805E66FE16E0262D4D
:102980002F73622E853609F06CC0689466F867FE76
:1029900072C0812F1C3308F08BE344244394480E0B
:1029A00027E0D5014D915D916D917D916D014C8731
:1029B0005D876E877F87042DA4016C857D858E855C
:1029C0009F850E9467185C01B981BC87B0FF03C076
:1029D0000DE2B3FF07C00BE261FC04C0062D0470DA
:1029E00062FC00E2EC85EC705E2E09F454C001112B
:1029F000A2C2F3E0512CF715A0F483E0572C581A2B
:102A000063FC08C0B70180E290E00E9455195A9417
:102A10005110F8CF002329F0B701802F90E00E94D9
:102A20005519FC850CE710E0F3FD02C000E810E04A
:102A3000262D2071622EF8018491811123C055202A
:102A400009F446CFB70180E290E00E9455195A94EC
:102A5000F6CF9BE9980F933008F02DC1E89464F805
:102A60008CCF863619F4689467F891CF112309F456
:102A70008ECF11508CCF212F183010F027E017E0A7
:102A8000412C8FCF61108052B70190E00E94551900
:102A90000F5F1F4FD0CF67FE7AC04A0CFC85F4FF52
:102AA00004C08A81813309F44A9414140CF092C052
:102AB00028E0241510F488E0482E85E090E067FEB9
:102AC00006C0C501B7FE02C080E090E0019601118A
:102AD0000196112331F0212F30E02F5F3F4F820FFD
:102AE000931F7816190619F014F0572C581A862DD2
:102AF000897011F4511073C0002329F0B701802FA1
:102B000090E00E94551963FC02C051106FC067FE2F
:102B100088C03501B7FE02C0712C612CC501861931
:102B20009709A401480F591F598B488BB5016419A7
:102B300071097B8B6A8B012F10E0119501951109AA
:102B4000A614B7040CF459C0AA89BB89A615B70509
:102B50000CF053C0E889F9898181F1E06F1A71089E
:102B6000601671060CF44BC0B70190E00E94551935
:102B70002FEF6216720629F4B7018EE290E00E94F0
:102B80005519888999890196998B888BD9CF66FCCC
:102B900094CFE12FF0E0EA15FB053CF03CEFA316E3
:102BA0003FEFB30614F0689467F83296E80DF91D0C
:102BB00001C01150112319F082918033D1F367FEC7
:102BC0007CCF44244394410E1A151B0431F02CF0A1
:102BD0001A1973CF4424439470CF10E06ECFB7011D
:102BE00080E290E00E9455195A9484CFB70180E3A7
:102BF00090E00E9455195A9488CF80E3AECFA61476
:102C0000B70441F49A81963350F4953319F43C8516
:102C100034FF05C0B70190E00E94551910CF81E341
:102C2000F9CF8A81813319F04C854F7E4C87B701EB
:102C300090E00E945519112399F0B7018EE290E0BF
:102C40000E9455191E5F02E0802F0F5FF401E80F0C
:102C5000F11D8081B70190E00E9455191013F4CF47
:102C600085E664FC85E490E0B7010E945519B7FC45
:102C700006C0A114B104C1F45C8554FF15C0B19421
:102C8000A194B1088DE2B70190E00E94551980E34C
:102C90007AE0A716B10454F4B70190E00E945519E8
:102CA000B701C501C096B8CF8BE2EDCF8F5F6AE068
:102CB000A61AB108EDCF8336B9F0833709F43AC0CC
:102CC000833509F04DC0D501AD90BD906D01612FE8
:102CD00070E066FC02C06FEF7FEFC5010E943F19F4
:102CE0008C01689467F80CC0650182E0C80ED11CA5
:102CF000D5018C91898301E010E05401E89467F8D4
:102D000063FC04C07016110609F018F5572C011564
:102D1000110509F494CEF50167FC859167FE819158
:102D20005F01B70190E00E94551951105A9401506B
:102D30001109EDCFF501A190B1906F01612F70E005
:102D400066FC02C06FEF7FEFC5010E944A198C013B
:102D5000D5CFB70180E290E00E9455197A94D2CF86
:102D6000843619F0893609F06FC067FE64C0F5013A
:102D700061917191819191916F01B62DBF766B2E0A
:102D800097FF09C090958095709561957F4F8F4F03
:102D90009F4F689467F82AE030E0A4010E94F01980
:102DA000A82EA818BA2C062D66FE0AC00E7FA11602
:102DB00038F464FE04C062FC02C0062D0E7EB12E03
:102DC00004FF8EC0FE01EA0DF11D8081803309F001
:102DD00080C0097E502F5870552E03FD90C000FF13
:102DE0008AC01A2DB71410F4170D1B1904FF8DC0DB
:102DF000B70180E390E00E94551902FF07C088E701
:102E000001FD88E590E0B7010E945519A11608F46C
:102E100088C0AA940A2D10E00F5F1F4F080D191DDE
:102E2000D8018E918D01B70190E00E9455190815C7
:102E30001905B1F704CED5016D917D916D01072E75
:102E4000000C880B990B99CF062D8537E1F40F7E86
:102E50002AE030E007FF35C0D5014D915D916D91BD
:102E60007D916D014C875D876E877F87A4016C859E
:102E70007D858E859F850E94F019A82EA818602E4A
:102E8000E89467F88FCF097F803791F058F4883540
:102E900089F08F36A1F0F701868197816396E2E190
:102EA0000C944C188837B9F704FD046020E1D1CFA9
:102EB0000061FACF64FC066020E132E0CBCF28E06D
:102EC000C8CFF501819191916F01AC0170E060E094
:102ED000C9CF02FD02C0B3947DCFB394B3947ACF2F
:102EE000802F867809F476CFF6CFB70180E290E0A4
:102EF0000E945519B394B714C0F3512C77CF572CB7
:102F00005B18B71408F472CFF8CF802F867809F4D5
:102F10007DCF8BE201FF80E207FD8DE2B70190E0FB
:102F200073CFB70180E390E00E94551911506ECF26
:102F30008FEF9FEFB3CF24E0512C271508F06CCD15
:102F400084E05CCDDB018F939F930E942518BF9195
:102F5000AF91A29F800D911DA39F900DB29F900DE8
:102F600011240895AA1BBB1B51E107C0AA1FBB1F58
:102F7000A617B70710F0A61BB70B881F991F5A9505
:102F8000A9F780959095BC01CD010895A1E21A2E74
:102F9000AA1BBB1BFD010DC0AA1FBB1FEE1FFF1FFD
:102FA000A217B307E407F50720F0A21BB30BE40B4D
:102FB000F50B661F771F881F991F1A9469F7609594
:102FC0007095809590959B01AC01BD01CF0108954E
:102FD000052E97FB1EF400940E94FF1757FD07D0A3
:102FE0000E94C61707FC03D04EF40C94FF175095AF
:102FF0004095309521953F4F4F4F5F4F08959095E5
:103000008095709561957F4F8F4F9F4F08950E94D7
:103010000F18332312F48A1B9B0B0C942018A29FC9
:10302000B001B39FC001A39F700D811D1124911D9C
:10303000B29F700D811D1124911D08950E940F18DB
:10304000B7FF0895821B930B08950E940F18A59F48
:10305000900DB49F900DA49F800D911D1124089593
:103060002F923F924F925F926F927F928F929F9298
:10307000AF92BF92CF92DF92EF92FF920F931F9386
:10308000CF93DF93CDB7DEB7CA1BDB0B0FB6F89437
:10309000DEBF0FBECDBF09942A88398848885F8477
:1030A0006E847D848C849B84AA84B984C884DF80E8
:1030B000EE80FD800C811B81AA81B981CE0FD11DCC
:1030C0000FB6F894DEBF0FBECDBFED0108952830D6
:1030D00008F027E03327DA01990F311D87FD916051
:1030E00000966105710539F432602E5F3D9330E33F
:1030F0002A95E1F708959F3F30F08038710561050A
:1031000009F03C5F3C5F3D93913008F08068911D71
:10311000DF93CF931F930F93FF92EF92192F987F16
:103120009695E92F96959695E90FFF27E252FF4F66
:1031300099273327EE24FF24A701E701059008947F
:10314000079428F4360FE71EF81E491F511D660F1D
:10315000771F881F991F0694A1F70590079428F4FC
:10316000E70EF81E491F561FC11D770F881F991FB4
:10317000661F0694A1F70590079428F4F80E491FDE
:10318000561FC71FD11D880F991F661F771F0694F2
:10319000A1F70590079420F4490F561FC71FD81FA9
:1031A000990F661F771F881F0694A9F784911095C1
:1031B000177041F0D695C79557954795F794E794C2
:1031C0001A95C1F7E4E8F0E06894159015913591EF
:1031D0006591959105907FE27395E118F10A430B93
:1031E000560BC90BD009C0F7E10CF11E431F561F47
:1031F000C91FD01D7EF4703311F48A95E6CFE89490
:10320000015030F0080F0AF40027021708F4202FAD
:103210002395022F7A3328F079E37D932A95E9F7F5
:1032200010C07D932A9589F60694979567953795F2
:1032300017951794E118F10A430B560BC90BD009E7
:1032400098F023957E9173957A3308F070E37C9320
:103250002013B8F77E9170617D9330F0839571E310
:103260007D9370E32A95E1F71124EF90FF900F9181
:103270001F91CF91DF91992787FD90950895FC01CB
:103280000590615070400110D8F7809590958E0F91
:103290009F1F0895FC016150704001900110D8F704
:1032A000809590958E0F9F1F08950F931F93CF9336
:1032B000DF93182F092FEB018B8181FD09C01FEFD0
:1032C0000FEF812F902FDF91CF911F910F910895D4
:1032D00082FF14C02E813F818C819D812817390780
:1032E0003CF4E881F981CF010196998388831083AA
:1032F0008E819F8101969F838E83E3CFE885F98538
:10330000812F0995892BA1F3DACFB0E0A0E0EBE89B
:10331000F9E10C944018FE01359661917191AF016D
:103320008091FB039091FC030E943914E2E00C941D
:103330005C180F931F93CF93DF93E091FB03F09101
:10334000FC03238100E010E021FD0EC00FEF1FEF12
:10335000C801DF91CF911F910F9108950995892B95
:1033600011F00FEF1FEFCE01EC0189916091FB038B
:103370007091FC03DB011896ED91FC918111EECF69
:103380008AE00995892B21F3E1CFAEE0B0E0EBECC8
:10339000F9E10C943E188C01CB01BA01A90126E099
:1033A0002C831A83098397FF02C080E090E801977D
:1033B0009E838D83CE0101960E9439144D815E81DA
:1033C00057FD0AC02F813885421753070CF49A0124
:1033D000020F131FF80110822E96E4E00C945A1885
:1033E000FA01AA27283051F1203181F1E8946F9336
:1033F0006E7F6E5F7F4F8F4F9F4FAF4FB1E03ED0DC
:10340000B4E03CD0670F781F891F9A1FA11D680F79
:10341000791F8A1F911DA11D6A0F711D811D911DAC
:10342000A11D20D009F468943F912AE0269F112421
:103430003019305D3193DEF6CF010895462F477085
:10344000405D4193B3E00FD0C9F7F6CF462F4F70E0
:10345000405D4A3318F0495D31FD4052419302D03E
:10346000A9F7EACFB4E0A6959795879577956795E4
:10347000BA95C9F700976105710508959B01AC01E4
:103480000A2E06945795479537952795BA95C9F70B
:10349000620F731F841F951FA01D0895A8E1B0E05F
:1034A00042E050E00C94561ADC01CB01FC01F99982
:1034B000FECF06C0F2BDE1BDF89A319600B40D9280
:0C34C00041505040B8F70895F894FFCF39
:1034CC000000000200000000A20F000000004100FC
:1034DC007300010101010101410001010102010A16
:1034EC00E803012D2B1A1B6E14E803F0004001F0C9
:1034FC000040010000000200000000A20F000000CC
:10350C00000000E00700F8FF07E307257300637273
:10351C0065617465642062793A00525541472053C5
:10352C0063687765697A204147004B5725642025ED
:10353C00640A004A6168723A25640A0048616C6C3E
:10354C006F204C756361732000576173206D656942
:10355C006E73743F20006D6F6465202D2000636FC7
:10356C006E7374616E7420766F6C74616765007332
:10357C0065740030302E3030760061637475616C88
:10358C000A0030302E30300030302E303061006187
:06359C00637475616C0010
:040000050080038AEA
:00000001FF
