:100000000C94A8060C94C5060C94C5060C94C50661
:100010000C94C5060C94C5060C94C5060C94C50634
:100020000C94C5060C94C5060C94C5060C94C50624
:100030000C94C5060C94C5060C94C5060C94C50614
:100040000C94520A0C94C5060C94C5060C94C50673
:100050000C94D6110C94C5060C94C5060C94C506D8
:100060000C94C5060C94C5060C94C5060C94C506E4
:100070000C94C5060C94C5060C94C5066E616E0002
:10008000696E660000407A10F35A00A0724E18099B
:100090000010A5D4E80000E87648170000E40B54EF
:1000A000020000CA9A3B000000E1F50500008096BE
:1000B0009800000040420F000000A08601000000F0
:1000C000102700000000E8030000000064000000AA
:1000D00000000A00000000000100000000002C7673
:1000E000D888DC674F0823DFC1DFAE59E1B1B7968E
:1000F000E5E3E453C63AE651997696E8E6C28426EB
:10010000EB898C9B62ED407C6FFCEFBC9C9F40F2C6
:10011000BAA56FA5F490055A2AF75C936B6CF96742
:100120006DC11BFCE0E40D47FEF520E6B500D0ED07
:10013000902E0300943577050080841E080000206F
:100140004E0A000000C80C333333330F986E12830D
:100150001141EF8D2114893BE65516CFFEE6DB18E1
:10016000D1844B381BF77C1D901DA4BBE4242032A6
:1001700084725E228100C9F124ECA1E53D2763640D
:10018000696E6F70737578585B00550141011540B9
:100190001500000050550522020202222022000014
:1001A0000020220A55054101155015000018505530
:1001B0000D0088808008080000000880880A050477
:1001C0004141515000000016505507220202022002
:1001D000200000000A20A20A4505414151501000AC
:1001E000801550D50D8080808080000800800A80B6
:1001F000A80A4501454140501000000000F00702E8
:1002000002222020202200000000A00205055551F6
:1002100040411500180000D001000008008080084F
:1002200000080000A0000000000000000000160010
:1002300000700000000000000000000A0000200024
:100240000000000000000080150000100000000009
:100250000000000080AA0AA00A00000000000000C0
:100260000060FF1FF0070000000000000000A0BABF
:100270001BA0020000000000000000C0FD1FD00114
:100280000000000000000000A0AE0EA00000000072
:100290000000000000E0FF1F7000000000000000F0
:1002A0000000A0BB1B20000000000000000000C0F8
:1002B000FF1F10000000F0030000F0030000F00337
:1002C00000E0F8C701F0FFFF03F8FFFF07F8FFFFAA
:1002D00007F8FFFF07F0FFFF03F01FFE03F007F82A
:1002E00003F803F007FF03F03FFF01E03FFF01E0E9
:1002F0003FFF01E03FFF01E03FFF03F03FF803F065
:1003000007F007F803F01FFE03F0FFFF03F8FFFFFD
:1003100007F8FFFF07F8FFFF07F0FFFF03E0F8C74C
:100320000100F0030000F0030000F00300000000F3
:100330000000000000E0FFFF01F8FFFF07080000D9
:10034000040C00000C0CF8070C0CCF3C0C8CC7788C
:100350000C6C04880D6C00800DCC00C00C0C1000DF
:100360000C0C10000C0C10000C0C20000C0C2000CD
:100370000C0C60000C0CE0010C0C18060CFC0FFCC3
:100380000FFC07F80F0CC0000C0CC0000C0C000098
:100390000C08000004F8FFFF07E0FFFF0100000069
:1003A00000000000000000000000C0000000E001AC
:1003B0000000E0010000F0030000F0030000380737
:1003C0000000380700001C0E00001C0E00000E1C70
:1003D00000000E1C00000738000007380080037082
:1003E0000080037000C001E000C001E000E000C038
:1003F00001E000C00170008003700080033800003D
:1004000007380000071C00000E1C00000E1EA94447
:100410001EFEFFFF1FFEFFFF1FFCFFFF0F0000007F
:100420000000FE1F00000120008000400040E0802E
:100430000020A00101103C070208240D0404270538
:100440000802250D10022505100225CD118225E593
:10045000100225AD1182B495100205DC108201480E
:1004600010020142108201211002812010020110AD
:1004700010044110080883080410060C02209C0296
:100480000140F08100800040000001200000FE1FBC
:10049000000000000000000000003E5B4F5B3E3E9D
:1004A0006B4F6B3E1C3E7C3E1C183C7E3C181C5720
:1004B0007D571C1C5E7F5E1C00183C1800FFE7C3C4
:1004C000E7FF0018241800FFE7DBE7FF30483A0693
:1004D0000E2629792926407F050507407F05253FFF
:1004E0005A3CE73C5A7F3E1C1C08081C1C3E7F14EB
:1004F000227F22145F5F005F5F06097F017F006635
:1005000089956A606060606094A2FFA29408047E8E
:10051000040810207E201008082A1C08081C2A083D
:10052000081E101010100C1E0C1E0C30383E3830F7
:10053000060E3E0E06000000000000005F000000F6
:1005400007000700147F147F14242A7F2A12231324
:1005500008646236495620500008070300001C2238
:1005600041000041221C002A1C7F1C2A08083E086A
:10057000080080703000080808080800006060006B
:1005800020100804023E5149453E00427F4000725F
:10059000494949462141494D331814127F102745D6
:1005A0004545393C4A4949314121110907364949F4
:1005B0004936464949291E00001400000040340015
:1005C00000000814224114141414140041221408C9
:1005D00002015909063E415D594E7C1211127C7F81
:1005E000494949363E414141227F4141413E7F498F
:1005F0004949417F090909013E414151737F08087A
:10060000087F00417F41002040413F017F081422C4
:10061000417F404040407F021C027F7F0408107FE2
:100620003E4141413E7F090909063E4151215E7F1D
:1006300009192946264949493203017F01033F40F0
:1006400040403F1F2040201F3F4038403F63140878
:10065000146303047804036159494D43007F414109
:10066000410204081020004141417F0402010204BC
:100670004040404040000307080020545478407F29
:10068000284444383844444428384444287F385463
:1006900054541800087E090218A4A49C787F08040A
:1006A000047800447D40002040403D007F102844F5
:1006B0000000417F40007C047804787C08040478C2
:1006C0003844444438FC1824241818242418FC7C8A
:1006D00008040408485454542404043F44243C406F
:1006E00040207C1C2040201C3C4030403C442810D2
:1006F00028444C9090907C4464544C44000836410B
:1007000000000077000000413608000201020402E8
:100710003C2623263C1EA1A161123A4040207A3893
:1007200054545559215555794122545478422155F4
:1007300054784020545579400C1E52721239555548
:100740005559395454545939555454580000457C1E
:10075000410002457D420001457C407D1211127D21
:10076000F0282528F07C545545002054547C547CB6
:100770000A097F4932494949323A4444443A324AA3
:100780004848303A4141217A3A42402078009DA0C1
:10079000A07D3D4242423D3D4040403D3C24FF243F
:1007A00024487E4943662B2FFC2F2BFF0929F62076
:1007B000C0887E090320545479410000447D4130B3
:1007C00048484A32384040227A007A0A0A727D0D3F
:1007D00019317D2629292F28262929292630484DF7
:1007E0004020380808080808080808382F10C8AC46
:1007F000BA2F102834FA00007B000008142A1422B3
:1008000022142A1408AA005500AAAA55AA55AA001B
:100810000000FF00101010FF00141414FF0010104F
:10082000FF00FF1010F010F0141414FC001414F763
:1008300000FF0000FF00FF1414F404FC1414171050
:100840001F10101F101F1414141F00101010F000A0
:100850000000001F101010101F10101010F01000DA
:100860000000FF101010101010101010FF100000EA
:1008700000FF140000FF00FF00001F10170000FC25
:1008800004F414141710171414F404F40000FF00F7
:10089000F714141414141414F700F7141414171480
:1008A00010101F101F141414F4141010F010F00086
:1008B000001F101F0000001F14000000FC140000A7
:1008C000F010F01010FF10FF141414FF141010108B
:1008D0001F00000000F010FFFFFFFFFFF0F0F0F03E
:1008E000F0FFFFFF0000000000FFFF0F0F0F0F0FD2
:1008F0003844443844FC4A4A4A347E02020606021E
:100900007E027E0263554941633844443C04407E84
:10091000201E2006027E020299A5E7A5991C2A49FD
:100920002A1C4C7201724C304A4D4D303048784888
:1009300030BC625A463D3E494949007E0101017E74
:100940002A2A2A2A2A44445F444440514A444040C7
:10095000444A51400000FF0103E080FF0000080806
:100960006B6B083612362436060F090F0600001886
:10097000180000001010003040FF0101001F0101AD
:100980001E00191D1712003C3C3C3C0000000000FA
:100990007D1D0100632C001E9601A01E5A01001F40
:1009A0000806101F0606201F0806301F0806401FF5
:1009B0000606511F0700591F521F5B1F541F5D1F62
:1009C000561F5F1F601F0806701F0E00BA1FBB1F57
:1009D000C81FC91FCA1FCB1FDA1FDB1FF81FF91F53
:1009E000EA1FEB1FFA1FFB1F801F0806901F080657
:1009F000A01F0806B01F0400B81FB91FB21FBC1FFC
:100A0000CC1F0100C31FD01F0206E01F0206E51F16
:100A10000100EC1FF21F0100FC1F4E2101003221DA
:100A200070211002842101008321D0241A05302C6A
:100A30002F04602C0201672C0601752C0201802C0A
:100A40006401002D260841FF1A03000061001A030B
:100A5000E0001703F8000703FF0001007801000120
:100A6000300132010601390110014A012E017901DC
:100A7000060180014D00430281018201820184014F
:100A8000840186018701870189018A018B018B011D
:100A90008D018E018F0190019101910193019401CB
:100AA000F60196019701980198013D029B019C0176
:100AB0009D0120029F01A001A001A201A201A401A9
:100AC000A401A601A701A701A901AA01AB01AC01DC
:100AD000AC01AE01AF01AF01B101B201B301B3018D
:100AE000B501B501B701B801B801BA01BB01BC013C
:100AF000BC01BE01F701C001C101C201C301C401B3
:100B0000C501C401C701C801C701CA01CB01CA019F
:100B1000CD011001DD0101008E01DE011201F301A2
:100B20000300F101F401F401F8012801220212018D
:100B30003A020900652C3B023B023D02662C3F0253
:100B400040024102410246020A0153024000810173
:100B50008601550289018A0158028F015A029001CB
:100B60005C025D025E025F02930161026202940117
:100B70006402650266026702970196016A02622CAE
:100B80006C026D026E029C01700271029D01730283
:100B900074029F0176027702780279027A027B0260
:100BA0007C02642C7E027F02A60181028202A901DE
:100BB0008402850286028702AE014402B101B201BD
:100BC00045028D028E028F0290029102B7017B03D3
:100BD0000300FD03FE03FF03AC0304008603880348
:100BE00089038A03B1031103C2030200A303A30311
:100BF000C4030803CC0303008C038E038F03D803C4
:100C00001801F2030A00F903F303F403F503F603F2
:100C1000F703F703F903FA03FA033004200350043F
:100C20001007600422018A043601C1040E01CF04BA
:100C30000100C004D0044401610526040000C7007F
:100C4000FC00E900E200E400E000E500E700EA0063
:100C5000EB00E800EF00EE00EC00C400C500C900A6
:100C6000E600C600F400F600F200FB00F900FF0009
:100C7000D600DC00A200A300A500A7209201E1009D
:100C8000ED00F300FA00F100D100AA00BA00BF00A5
:100C90001023AC00BD00BC00A100AB00BB0091253F
:100CA0009225932502252425612562255625552563
:100CB0006325512557255D255C255B2510251425C9
:100CC00034252C251C2500253C255E255F255A252D
:100CD000542569256625602550256C2567256825DE
:100CE0006425652559255825522553256B256A25E8
:100CF00018250C25882584258C2590258025B10371
:100D0000DF009303C003A303C303B500C403A6031A
:100D10009803A903B4031E22C603B5032922612246
:100D2000B1006522642220232123F7004822B0006D
:100D30001922B7001A227F20B200A025A0002D4A58
:100D4000454A4D4A4F4A514A534A554A574A5A4AC8
:100D500011241FBECFEFD0E1DEBFCDBF14E0A0E075
:100D6000B1E0EAEEFFEA02C005900D92A039B107AA
:100D7000D9F726E0A0E9B4E001C01D92AC32B20779
:100D8000E1F70E94654A0C94F3570C94000088E147
:100D90000E94D71183E28093B00081E08093B1007C
:100DA00008952F923F924F925F926F927F928F920F
:100DB0009F92AF92BF92CF92DF92EF92FF920F93EA
:100DC0001F93CF93DF935C0163E070E00E94CD4FEF
:100DD0008091210190912201680F791F70939B04EB
:100DE00060939A042FEF81EE94E021508040904070
:100DF000E1F700C0000083E00E94E7118C01892B1D
:100E000051F02DE1209FC001219F900D11241C0164
:100E10002AEA220E311C84E00E94E71180919A0494
:100E20008093B4008FEF93EC29E0815090402040F4
:100E3000E1F700C000009FE0C92ED12C28EE422E21
:100E400023E0522E612C712C8AE0882E912CC0E078
:100E5000D0E084E00E94E7117C01009761F02D96BC
:100E60009C01A0E8BCE00E943050A30192010E94C6
:100E70000350C20FD31F81E0881A910851F7CE01A9
:100E80006AE070E00E94CD4FCB0101968A159B0568
:100E900048F480919A0490919B04019690939B044E
:100EA00080939A04CB010197A816B90648F4809163
:100EB0009A0490919B04019790939B0480939A04C9
:100EC00080919A048093B4009FEF23EC89E09150C5
:100ED00020408040E1F700C0000080911C01882381
:100EE00019F180B11F928F9380919B048F93809111
:100EF0009A048F937F936F933F922F92FF92EF927A
:100F00001F930F938DE491E09F938F9386E492E07B
:100F10009F938F930E94DC528DB79EB740960FB679
:100F2000F8949EBF0FBE8DBF91E0C91AD10809F099
:100F30008BCF83E00E94E711009751F04DE1489F6D
:100F40009001499F300D1124C90186559F4F02C061
:100F500080E090E010929B0410929A041092B400EA
:100F6000DF91CF911F910F91FF90EF90DF90CF9085
:100F7000BF90AF909F908F907F906F905F904F90B9
:100F80003F902F9008951F93CF93DF93CDB7DEB797
:100F9000C055D1090FB6F894DEBF0FBECDBF6F9616
:100FA0001FAD6F976A966EAD7FAD6A9768968EADEE
:100FB0009FAD68970E9453116E966EAD7FAD6E9790
:100FC0006C968EAD9FAD6C970E945C11812F0E9434
:100FD00065119E012E593F4FA2964EAD5FADA2976F
:100FE00060E570E0CE0101960E942D536EE071E045
:100FF000CE0101960E94B252C05BDF4F0FB6F8944B
:10100000DEBF0FBECDBFDF91CF911F9108952F920C
:101010003F924F925F926F927F928F929F92AF9288
:10102000BF92CF92DF92EF92FF920F931F93CF93D5
:10103000DF93CDB7DEB72A970FB6F894DEBF0FBEA9
:10104000CDBF2C013B015A87498759016801EA94B9
:10105000EF2859F04EE8242E43E7342E8EE997EF1F
:101060009A83898300E114E80AC03EE9232E37EF12
:10107000332E2EE833E73A8329830AE812E5C601C6
:10108000880F991F9501281B390B49855A85481BE4
:10109000590BB601660D771DC601840D951D0E9482
:1010A000D00E00E010E0C3018A0D9B1D9C838B8352
:1010B000950189859A85281B390B3E832D83840DE4
:1010C000951D98878F83C016D106B4F17801E60C80
:1010D000F71C5201A00EB11E29813A8149855A851B
:1010E000B701C5010E94930E6B817C81601B710B5F
:1010F000910149855A85C5010E94930E8D809E807D
:1011000029853A85820E931E29813A81A401B7016F
:10111000C5010E94560E9101A401B7018F819885E7
:10112000801B910B0E94560E0F5F1F4F89859A8579
:1011300002979A878987C7CF2A960FB6F894DEBFA1
:101140000FBECDBFDF91CF911F910F91FF90EF9018
:10115000DF90CF90BF90AF909F908F907F906F90D7
:101160005F904F903F902F9008954F925F926F92B3
:101170007F928F929F92AF92BF92CF92DF92EF9227
:10118000FF920F931F93CF93DF935C014B012901D3
:10119000E8010E940708EA94EF2829F42AE832E5DA
:1011A0008FEF9FEF04C020E134E880E090E0DF9211
:1011B000CF921F9241E04F933F932F939F938F9332
:1011C0008C0E9D1E920157FE02C02F5F3F4F35953A
:1011D0002795280D391D245031093F932F93CA0DAF
:1011E000DB1D2F96DF93CF930E94C3078DB79EB769
:1011F0000C960FB6F8949EBF0FBE8DBFDF91CF91B6
:101200001F910F91FF90EF90DF90CF90BF90AF9024
:101210009F908F907F906F905F904F9008953F9236
:101220004F925F926F927F928F929F92AF92BF92F6
:10123000CF92DF92EF92FF920F931F93CF93DF93A2
:101240005C012B01322ED32F480124E0E216F10479
:1012500040F4F701EE0FFF1FEE5CFE4F60807180DF
:1012600004C095EA692E93E0792E740103E010E042
:10127000232D3D2FB201C5010E940708832D9D2F0C
:1012800097FD0196EC01D595C7952F97C40DD51DF7
:1012900081E090E021E08216910411F080E090E07E
:1012A000EE24FF24E81AF90A0EE110E02EE130E006
:1012B000A301BE01C5010A960E94C60F8A9489281F
:1012C00029F020E134E880E090E004C02AE832E52B
:1012D0008FEF9FEFDF92CF921F9241E04F933F93AA
:1012E0002F939F938F93DF93CF938DE2A80EB11C22
:1012F000BF92AF920E94C3078DB79EB70C960FB6F0
:10130000F8949EBF0FBE8DBFDF91CF911F910F91BB
:10131000FF90EF90DF90CF90BF90AF909F908F9015
:101320007F906F905F904F903F9008954F925F92A3
:101330006F927F92AF92BF92CF92DF92EF92FF9225
:101340000F931F93CF93DF93CDB7DEB729013A01F7
:101350009B01AC01241935094609570989899A89E5
:10136000AB89BC89BC01CD016A197B098C099D0937
:101370000E94BD4FA8019701241935094609570954
:101380000E940350CA01B9016A0D7B1D8C1D9D1D71
:10139000DF91CF911F910F91FF90EF90DF90CF9051
:1013A000BF90AF907F906F905F904F9008952F9275
:1013B0003F924F925F926F927F928F929F92AF92E5
:1013C000BF92CF92DF92EF92FF920F931F93CF9332
:1013D000DF935C016B01E90127011801220C331C2A
:1013E0004A018218930886E0881A9108E12CF12CB2
:1013F000C5010E9407089401D2010E94285024E6EA
:1014000030E040E050E00E9403502901812C912CF3
:10141000C219D309269783E0C80ED11CC00ED11E75
:10142000A00EB11E83E0A80EB11C8C169D066CF4B4
:10143000B601680D791D20E030EFA201C5010E94C0
:10144000930E8FEF881A980AF0CFDF91CF911F91FA
:101450000F91FF90EF90DF90CF90BF90AF909F9053
:101460008F907F906F905F904F903F902F90089556
:10147000EF92FF920F931F930E94F40DEE24EA94D3
:10148000FE2C07E110E024E630E04AE851E064E198
:1014900070E088EC90E00E94C60F1F910F91FF90C2
:1014A000EF9008951F920F920FB60F9211242F9371
:1014B0003F934F935F936F937F938F939F93AF93DC
:1014C000BF93EF93FF9380912006909121060196A0
:1014D00090932106809320060E943C12FF91EF9189
:1014E000BF91AF919F918F917F916F915F914F913C
:1014F0003F912F910F900FBE0F901F9018952F9234
:101500003F924F925F926F927F928F929F92AF9293
:10151000BF92CF92DF92EF92FF920F931F93CF93E0
:10152000DF93CDB7DEB7C65CD2400FB6F894DEBF0E
:101530000FBECDBF41E06EE772E0CE0101960E9482
:10154000E7318C011F938F9384E491E09F938F93F5
:1015500089E892E09F938F930E94DC520F900F9046
:101560000F900F900F900F90012B09F0D0C0C12C5D
:10157000D12C5E0181ECA81A8DEFB80A8E010157BB
:101580001D4F7E0199E4E91A9DEFF90A8EE9282E94
:1015900082E0382E94E4492E91E0592E2BEA622EF7
:1015A00022E0722EAE014F5F5F4F60E570E0C50133
:1015B0000E944247892B09F49FC0F501808188234E
:1015C00089F3833279F31F930F93FF92EF923F9247
:1015D0002F92BF92AF920E9414534C019F928F930F
:1015E0001F930F93FF92EF925F924F927F926F92B1
:1015F0000E94DC520FB6F894DEBF0FBECDBF92E062
:101600008916910409F086C060EC72E0C7010E945F
:101610005352892B49F4C8010E9438519093960483
:10162000809395046894C0F865EC72E0C7010E944D
:101630005352892B49F4C8010E9438519093920467
:10164000809391046894C1F86AEC72E0C7010E942B
:101650005352892B49F4C8010E94395290931F06B6
:1016600080931E066894C2F86FEC72E0C7010E9476
:101670005352892B39F4C8010E94385190932201AA
:10168000809321016AED72E0C7010E945352892BB9
:1016900029F4C8010E9438518093990460EE72E0E9
:1016A000C7010E945352892B29F4C8010E94385166
:1016B00080931C0166EE72E0C7010E945352892B91
:1016C00049F4C8010E9438519093200180931F0172
:1016D0006894C3F86EEE72E0C7010E945352892BE2
:1016E00009F060CFC8010E94385190931E01809389
:1016F0001D016894C4F856CFCE0101960E94DD3ECC
:10170000EFE1CE16D10449F480E090E008C08FEFFD
:101710009FEF05C08EEF9FEF02C08DEF9FEFCA5382
:10172000DD4F0FB6F894DEBF0FBECDBFDF91CF9176
:101730001F910F91FF90EF90DF90CF90BF90AF90EF
:101740009F908F907F906F905F904F903F902F90E1
:1017500008958F929F92AF92BF92CF92DF92EF92B5
:10176000FF920F931F93CF93DF93CDB7DEB7C0598E
:10177000D2400FB6F894DEBF0FBECDBF7C01D62E8F
:10178000C72EB42EA52E922E832E1F921F920AE3EF
:1017900011E01F930F9386EF92E09F938F930E9427
:1017A000DC5242E3B701CE0101960E94E7317C0191
:1017B000FF928F931F930F938EE093E09F938F93ED
:1017C0000E94DC520FB6F894DEBF0FBECDBFEF28EB
:1017D00009F063C08F929F92AF92BF92CF92DF9237
:1017E000809196048F93809195048F9380919204B9
:1017F0008F93809191048F9380911F068F93809196
:101800001E068F9386E293E09F938F937E0191EC67
:10181000E91A9DEFF90AFF92EF920E94F252F70146
:1018200001900020E9F73197AF014E195F099E0141
:1018300021573D4FB701CE0101960E94EA3A1F920F
:101840001F921F930F9389E393E09F938F930E94BE
:10185000DC52CE0101960E949A3D1F921F921F9367
:101860000F9381E593E09F938F930E94DC52CE010A
:1018700001960E94DD3E1F921F921F930F9389E6EF
:1018800093E09F938F930E94DC520FB6F894DEBFD3
:101890000FBECDBF80E090E002C08FEF9FEFC0573A
:1018A000DD4F0FB6F894DEBF0FBECDBFDF91CF91F5
:1018B0001F910F91FF90EF90DF90CF90BF90AF906E
:1018C0009F908F9008958FEF8AB95F9A8AB1846153
:1018D0008AB9089584B1806B84B9269880E58CBD5F
:1018E0008DB581608DBD5A9A08958EBD0DB407FEE9
:1018F000FDCF08959BB19B7E9BB90E94750C5A9AAF
:1019000008955C9A5A980E94750C5A9A0895DF922D
:10191000EF92FF920F931F93CF93DF93E82ED92E70
:10192000D62F172F042FF52EC22F8AE20E947A0C91
:101930008D2D0E94810C8E2D0E94810C8F2D0E9476
:10194000810C802F0E94810C8BE20E947A0C812FE7
:101950000E94810C8D2F0E94810C8C2F0E94810C83
:101960008C2F0E94810C8CE2DF91CF911F910F91FF
:10197000FF90EF90DF900C947A0C5F9A2FEF83EC3E
:1019800099E0215080409040E1F700C000005F984E
:101990002FEF83EC99E0215080409040E1F700C0A8
:1019A00000005F9A2FEF83EC99E021508040904037
:1019B000E1F700C0000008950E94630C0E946A0CC9
:1019C00081E00E947A0C2FEF83ED90E3215080405C
:1019D0009040E1F700C000008BEC0E947A0C89E394
:1019E0000E94810C8CE20E94810C80E00E94810C9C
:1019F00084E30E94810C82E00E94810C8FEC0E94A3
:101A00007A0C80E00E94810C81EC0E94810C80E3C2
:101A10000E94810C88EE0E947A0C85E80E94810C5D
:101A200080E00E94810C88E70E94810C8AEE0E946F
:101A30007A0C80E00E94810C80E00E94810C8DEE87
:101A40000E947A0C84E60E94810C83E00E94810C43
:101A500082E10E94810C81E80E94810C87EF0E9444
:101A60007A0C80E20E94810C80EC0E947A0C83E266
:101A70000E94810C81EC0E947A0C80E10E94810C12
:101A800085EC0E947A0C8EE30E94810C88E20E9411
:101A9000810C87EC0E947A0C86E80E94810C86E318
:101AA0000E947A0C88E40E94810C8AE30E947A0CDE
:101AB00085E00E94810C81EB0E947A0C80E00E94FC
:101AC000810C88E10E94810C86EB0E947A0C88E0F0
:101AD0000E94810C82E80E94810C87E20E94810CA6
:101AE00082EF0E947A0C80E00E94810C86E20E94C4
:101AF0007A0C81E00E94810C80EE0E947A0C8FE0CB
:101B00000E94810C81E30E94810C8BE20E94810C77
:101B10008CE00E94810C8EE00E94810C88E00E9483
:101B2000810C8EE40E94810C81EF0E94810C87E37E
:101B30000E94810C87E00E94810C80E10E94810C50
:101B400083E00E94810C8EE00E94810C89E00E945B
:101B5000810C80E00E94810C81EE0E947A0C80E072
:101B60000E94810C8EE00E94810C84E10E94810C15
:101B700083E00E94810C81E10E94810C87E00E9439
:101B8000810C81E30E94810C81EC0E94810C88E42D
:101B90000E94810C88E00E94810C8FE00E94810CE1
:101BA0008CE00E94810C81E30E94810C86E30E94FC
:101BB000810C8FE00E94810C81E10E947A0C2FEF52
:101BC0008BED95E0215080409040E1F700C000008F
:101BD00089E20C947A0CCF93C82F892F0E94810C34
:101BE0008C2FCF910C94810CEF92FF920F931F9347
:101BF000CF93DF93182F092F2091270130912801CF
:101C00004091290150912A01215031094150510937
:101C100070E060E090E080E00E94870CD0E0C0E0DF
:101C20008091290190912A01C817D907B8F0DF9156
:101C3000CF911F910F91FF90EF900895812F902FDA
:101C40000E94EB0D8FEFE81AF80A8091270190911E
:101C50002801E816F90690F32196E2CFF12CE12C49
:101C6000F4CFCF93DF93FC01D42FC52F80912901AE
:101C700090912A01E817F907B0F48091270190911B
:101C800028016817790778F49B012F5F3F4FAF0158
:101C90004F5F5F4FCF010E94870C8D2F9C2FDF91EC
:101CA000CF910C94EB0DDF91CF9108950F931F937B
:101CB000CF93DF93FC01EA01122F032F80912901BA
:101CC00090912A01E817F90718F580912701909162
:101CD000280168177907E0F4209127013091280145
:101CE000CA010197860F971F8217930730F0C091A2
:101CF0002701D0912801C61BD70B9B012150310928
:101D00002C0F3D1FAF01CF010E94870C209729F4B3
:101D1000DF91CF911F910F910895812F902F0E94F5
:101D2000EB0D2197F3CF0F931F93CF93DF93FC011C
:101D3000EA01122F032F8091290190912A01E817BF
:101D4000F90718F580912701909128016817790704
:101D5000E0F42091290130912A01CA0101978E0FE8
:101D60009F1F8217930730F0C0912901D0912A015B
:101D7000CE1BDF0BAF01415051094C0F5D1F9B0182
:101D8000CF010E94870C209729F4DF91CF911F91FA
:101D90000F910895812F902F0E94EB0D2197F3CF83
:101DA000CF92DF92EF92FF920F931F93CF93DF9327
:101DB000FC017A01E9018091290190912A01E8173B
:101DC000F907C0F5809127019091280168177907DC
:101DD00088F52091290130912A01CA0101978E0FBF
:101DE0009F1F8217930730F0E0902901F0902A019D
:101DF000EE1AFF0A2091270130912801CE010197A8
:101E0000860F971F8217930730F0C0912701D0915A
:101E10002801C61BD70B9B01215031092C0F3D1FF8
:101E2000AF01415051094E0D5F1DCF010E94870C3B
:101E30002097A1F4DF91CF911F910F91FF90EF9028
:101E4000DF90CF900895C8010E94EB0D81E0C81A81
:101E5000D108C114D104B9F72197EACF6701F9CFAE
:101E6000CF93C82F86E30E947A0CC370C23089F0EA
:101E7000C33001F188E4C13069F488E20E94810C2A
:101E800080E491E090932A018093290180EF90E013
:101E90000BC088E80E94810C80EF90E090932A01AB
:101EA0008093290180E491E0909328018093270199
:101EB000CF91089588EEE2CF460F571F4150510948
:101EC0000C94560E480F591F415051090C94930E13
:101ED000AF92BF92CF92DF92EF92FF920F931F9338
:101EE000CF93DF93EC017B015A01690198010E94B5
:101EF000620FB7016C0D7D1D615071099801A5013C
:101F0000CE010E94620F9801A601B701CE010E9486
:101F10005C0FCE018A0D9B1D9801A601B7010197A8
:101F2000DF91CF911F910F91FF90EF90DF90CF90B5
:101F3000BF90AF900C945C0FAF92BF92CF92DF92A4
:101F4000EF92FF920F931F93CF93DF93D62EC72E5E
:101F5000B22EA32EEC017C01E40EF51ECE15DF059A
:101F60005CF0DF91CF911F910F91FF90EF90DF9088
:101F7000CF90BF90AF90089598014B2D5A2D6D2DA5
:101F80007C2DCE010E945C0F2196E8CF2F923F92CC
:101F90004F925F926F927F928F929F92AF92BF9279
:101FA000CF92DF92EF92FF920F931F93CF93DF9325
:101FB00000D000D000D00F92CDB7DEB72C013B018E
:101FC0005A01690109831A83ED822F2CC9010796F2
:101FD00097FD07969C0193E0359527959A95E1F733
:101FE0003C832B83F12CE12C312C10E000E0298183
:101FF0003A81021713070CF448C027960FB6F894DD
:10200000DEBF0FBECDBFDF91CF911F910F91FF902B
:10201000EF90DF90CF90BF90AF909F908F907F9088
:102020006F905F904F903F902F9008958E819F8189
:10203000877099273694892B61F4EE81FF8183E0C4
:10204000F595E7958A95E1F7EE0DFF1DEA0DFB1D6D
:10205000349030FE09C04D81522DB4018E819F8194
:10206000840D951D0E94310E8E819F8101969F8364
:102070008E832E813F812C153D05C4F20F5F1F4FCB
:102080008B819C81E80EF91EB2CF1F821E82430114
:10209000800E911EEECF8091B3049091B404909382
:1020A000AB048093AA048091B1049091B204909300
:1020B000A9048093A80408958091B3049091B40476
:1020C0009093A7048093A6048091B1049091B204E8
:1020D0009093A5048093A40408958091B3049091F3
:1020E000B4049093A3048093A2048091B1049091CE
:1020F000B2049093A1048093A00408958091B30446
:102100009091B40490939F0480939E048091B104B5
:102110009091B20490939D0480939C0408952F9213
:102120003F924F925F926F927F928F929F92AF9267
:10213000BF92CF92DF92EF92FF920F931F93CF93B4
:10214000DF93CDB7DEB72B970FB6F894DEBF0FBE87
:10215000CDBF6B01190109831A838A879B87809100
:10216000290190912A012A853B852817390708F013
:1021700069C080912701909128016817790708F0BC
:1021800061C0C90136E0E39E800D911D112418162F
:1021900019060CF057C08E2D90E09D838C83E8E0EB
:1021A000EE9EC0011124860F971F181619060CF019
:1021B00049C0F5E04F9FA00111249A012B563B4FD7
:1021C0003F832E836A847B841B82CB010896998788
:1021D00088875C804D809B81F12C953019F0EE81D1
:1021E000FF81F49056014601F0FE45C0F1E0A101E7
:1021F0008101EF124EC0B501C3010E94310EF69469
:102200008C819D81880E991E9FEFA91AB90AE885D5
:10221000F985EA15FB0541F7FB81FF5FFB832A8502
:102220003B858C819D81280F391F3B872A879FEF33
:10223000691A790AEE81FF813196FF83EE83FB8173
:10224000F63049F62B960FB6F894DEBF0FBECDBF21
:10225000DF91CF911F910F91FF90EF90DF90CF9082
:10226000BF90AF909F908F907F906F905F904F90B6
:102270003F902F90089529813A812215330509F462
:10228000BECF31E009811A81E31203C049815A812E
:10229000B2CF252D342D452D542DB4018A859B8533
:1022A0000E94D00EACCF9093B4048093B30470938B
:1022B000B2046093B10408959093B0048093AF0486
:1022C0007093AE046093AD040895893028F48111B1
:1022D00001C081E08093AC040895EF920F931F93A7
:1022E000482F8A30C1F48091AC042091B104309120
:1022F000B20448E0849FC0011124820F931F909381
:10230000B2048093B1041092B4041092B3041F91EC
:102310000F91EF9008958D30D1F3E090AC040091CF
:10232000AD041091AE042091AF043091B0046091DF
:10233000B1047091B2048091B3049091B4040E94EE
:102340008F102091AC048091B3049091B40436E0D6
:10235000239F800D911D11249093B4048093B304A6
:10236000D6CF0E946D1181E090E008951092C500D3
:1023700083E38093C40086E08093C20088E9809361
:10238000C1000895CF93C82F8A3019F48DE00E94C0
:10239000C2118091C00085FFFCCFC093C600CF91D1
:1023A00008950E94C21181E090E0089518958093ED
:1023B0007E00EAE7F0E0808187608083ACE7B0E0F0
:1023C0008C9180648C938081806C8083089590913F
:1023D0007C00907F90937C0090917C008770892B8B
:1023E00080937C0080917A00806480937A00809151
:1023F0007A0086FDFCCF2091780030917900C901E8
:102400000895811103C00E942815089581E0089560
:10241000811103C00E94BB13089581E008950F93BA
:102420001F93E82FCB01BA01A9019801E11105C062
:102430000E942B151F910F91089584E090E0FACF30
:102440000F931F93E82FCB01BA01A9019801E11165
:1024500005C00E94DA151F910F91089584E090E065
:10246000FACF982F862FBA01911103C00E94A916A6
:10247000089584E090E008950E94061908958EBDA5
:102480000DB407FEFDCF8EB508952C9A8FEF0E94F4
:102490003F1208950F931F93CF93DF938C01EB01AD
:1024A00084E18093B8048FEF0E943F128F3F29F49C
:1024B0008091B8048111F7CF1DC08E3FD9F4F80187
:1024C0008FEF8EBD0DB407FEFDCF9EB590838EBD00
:1024D0000DB407FEFDCF9EB59183229732962097CB
:1024E00081F78FEF0E943F128FEF0E943F1281E031
:1024F00090E002C080E090E0DF91CF911F910F91BA
:102500000895F89482E390E09093B7048093B60422
:1025100078948FEF0E943F12282FF8948091B60490
:102520009091B70478942F3F11F0892B91F781E0B7
:1025300090E02F3F11F080E090E00895CF93DF937B
:102540002C988FEF0E943F120E948112EC01892B80
:1025500019F40E94451202C0C1E0D0E0CE01DF9123
:10256000CF910895FF920F931F93CF93DF93C82FBE
:10257000D42F152F062FF72E81E08F9382E28F93B1
:102580008AE891E09F938F938FE494E09F938F93D9
:102590000E94DC520F900F900F900F900F900F90B1
:1025A000C7FF0AC040E050E0BA0187E30E94B212C0
:1025B000823008F078C0CF7781E08F938AE28F93E2
:1025C0008AE891E09F938F938FE494E09F938F9399
:1025D0000E94DC520F900F900F900F900F900F9071
:1025E000CC3039F581E08F9380E38F938AE891E0D6
:1025F0009F938F938FE494E09F938F930E94DC527C
:102600008C2F80640E943F128F2D0E943F12802FDA
:102610000E943F12812F0E943F128D2F0E943F1275
:102620000F900F900F900F900F900F90CC23C9F147
:1026300008C00E9445120E949E12892B99F68FEFC6
:1026400032C0C83011F487E801C081E00E943F1217
:10265000CC3019F48FEF0E943F12D4E18FEF0E942B
:102660003F12C82F87FD1AC01F92CF9381E08F932E
:1026700082E48F938AE891E09F938F9389E594E0B9
:102680009F938F930E94DC528DB79EB708960FB62A
:10269000F8949EBF0FBE8DBF8C2F05C0D150F1F6B0
:1026A000E3CF85E9D8CFCDB7DEB7E5E00C94D950BC
:1026B0001F93CF93DF93182FD92FC62F81E08F93CD
:1026C00083E08F938EE591E09F938F938FE494E066
:1026D0009F938F930E94DC520E9481120F900F9063
:1026E0000F900F900F900F90009709F440C08C2F1F
:1026F0000E943F12CD3FC9F1E12FFD2FCF019E5F18
:1027000020812EBD0DB407FEFDCF21812EBD0DB45D
:1027100007FEFDCF3296E817F90791F78FEF0E9479
:102720003F128FEF0E943F128FEF0E943F12C82F7F
:1027300081E08F938DE08F938EE591E09F938F934F
:102740008FE494E09F938F930E94DC52CF7131E02D
:1027500020E00F900F900F900F900F900F90C530CA
:1027600009F030E0832F922F02C081E090E0DF91EA
:10277000CF911F910895A4E0B0E0E1ECF3E10C9457
:10278000B45081E08F938AE58F9383E991E09F9322
:102790008F938FE494E09F938F930E94DC528AE0A2
:1027A0008093B8040F900F900F900F900F900F90A0
:1027B0008091B8048111FCCF80912B0181FD42C131
:1027C0002FEF81EE94E0215080409040E1F700C06F
:1027D000000018E28FEF0E943F121150D9F794E0E9
:1027E000C92E7724739428E6622E33E9A32E31E0B4
:1027F000B32E4FE4842E44E0942E7F926F9283E9AF
:10280000E82E81E0F82EBF92AF920FE414E09F9281
:102810008F920E94DC5240E050E0BA0180E00E94BA
:10282000B212D82E0F900F900F900F900F900F9024
:10283000E1E08E13E4C084E68093B804DF928CE676
:102840008F93FF92EF921F930F930E94DC524AEAFC
:1028500051E060E070E088E00E94B2120F900F90AB
:102860000F900F900F900F90813009F06CC08E0187
:102870000F5F1F4F6E01F5E0CF0ED11C78018FEF77
:102880000E943F12F70181937F01CE16DF06B9F750
:102890008B81813009F0B1C09C819A3A09F0ADC0BA
:1028A0008F9380E78F9383E991E09F938F938FE4D9
:1028B00094E09F938F930E94DC520F900F900F90A3
:1028C0000F900F900F908091B804811106C08091F5
:1028D000B804882309F491C00AC040E050E060E0E9
:1028E00070E489EA0E94B2128111EDCFF0CF40E08E
:1028F00050E0BA018AE30E94B21281117EC08FEFCC
:102900000E943F12F80181938F01CE16DF06B9F7BE
:10291000898186FD02C014E001C01CE081E08F9334
:1029200085E78F9383E991E09F938F938FE494E001
:102930009F938F930E94DC520F900F900F900F90F7
:102940000F900F9060C0DF9289E78F93FF92EF9214
:102950001F930F930E94DC5240E050E0BA0189EAD5
:102960000E94B2120F900F900F900F900F900F9047
:10297000823090F0DF928DE78F93FF92EF921F935A
:102980000F930E94DC520F900F900F900F900F90BA
:102990000F9011E001E002C012E009EA81E08F939C
:1029A00080E88F9383E991E09F938F938FE494E085
:1029B0009F938F930E94DC520F900F900F900F9077
:1029C0000F900F908091B804811105C08091B804D8
:1029D000882399F009C040E050E0BA01802F0E949E
:1029E000B2128111EFCFF2CF40E052E060E070E030
:1029F00080E10E94B212882331F010E004C0CA9432
:102A0000C110FBCEFACF81E08F938AE88F9383E9E0
:102A100091E09F938F938FE494E09F938F930E9414
:102A2000DC521093B5040E9445120F900F900F9046
:102A30000F900F900F90112329F080912B018E7F22
:102A400080932B0180912B012496EEE00C94D050C2
:102A500080912B010895A0E0B0E0E1E3F5E10C9452
:102A6000B5506C014A015B01E901772473947F92B0
:102A700083EB8F939CE7E92E91E0F92EFF92EF9282
:102A80000FE414E01F930F930E94DC520F900F90FD
:102A90000F900F900F900F90209709F482C08091B3
:102AA0002B0180FD80C07F9286EB8F93FF92EF9287
:102AB0001F930F930E94DC528091B5040F900F90EA
:102AC0000F900F900F900F9083FD07C089E0880C46
:102AD000991CAA1CBB1C8A95D1F7C230D10510F4F1
:102AE00011E101C012E181E08F938BEB8F938CE7B2
:102AF00091E09F938F938FE494E09F938F930E9434
:102B0000DC52B501A401812F0E94B2120F900F90E8
:102B10000F900F900F900F90811127C060E072E02E
:102B2000C6010E944A12892B21F08EEFD81A2197F4
:102B3000A9F781E08F9381EC8F938CE791E09F93CD
:102B40008F938FE494E09F938F930E94DC520F90B9
:102B50000F900F900F900F900F90123131F440E0D2
:102B600050E0BA018CE00E94B2120E94451281E04E
:102B70008F9385EC8F938CE791E09F938F938FE4F5
:102B800094E09F938F930E94DC5281E090E00F903D
:102B90000F900F900F900F900F90CD2B31F480E09D
:102BA00004C084E001C083E090E0CDB7DEB7EDE083
:102BB0000C94D150A0E0B0E0E0EEF5E10C94B550FB
:102BC0008C014A015B01E901772473947F9289EDBE
:102BD0008F939DE6C92E91E0D92EDF92CF922FE4FC
:102BE000E22E24E0F22EFF92EF920E94DC520F9030
:102BF0000F900F900F900F900F90209709F49EC0A8
:102C000080912B0180FD9CC080912B0182FD9AC098
:102C10007F928EED8F93DF92CF92FF92EF920E9480
:102C2000DC528091B5040F900F900F900F900F9091
:102C30000F9083FD07C089E0880C991CAA1CBB1C5F
:102C40008A95D1F781E0C130D10531F58F9383EEBC
:102C50008F938DE691E09F938F938FE494E09F9301
:102C60008F930E94DC52B501A40188E10E94B21248
:102C70000F900F900F900F900F900F90811140C008
:102C80006EEFC8010E94581331E020E0892B09F053
:102C900030E0C32FD22F36C08F938AEE8F938DE60C
:102CA00091E09F938F938FE494E09F938F930E9482
:102CB000DC528091B50486700F900F900F900F90AA
:102CC0000F900F9031F0AE0160E070E087E90E9454
:102CD000B212B501A40189E10E94B212811112C0A1
:102CE0006CEFC8010E945813892B19F01E5F2197C1
:102CF000B9F76DEF80E090E00E945813892B11F432
:102D0000C1E0D0E00E94451281E08F9385EF8F9360
:102D10008DE691E09F938F938FE494E09F938F9340
:102D20000E94DC5281E090E00F900F900F900F9086
:102D30000F900F90CD2B41F480E006C084E003C0DB
:102D400083E001C082E090E0CDB7DEB7EDE00C9407
:102D5000D150A0E1B0E0EFEAF6E10C94BA509091C6
:102D60002B0190FD4AC28B01833309F40AC1A0F400
:102D7000833009F488C028F4882311F1813019F1D7
:102D80003EC2873009F439C1823309F038C28091DC
:102D9000B504FB01808336C1863309F418C138F4C9
:102DA000843309F4F3C0853309F4FBC028C28833A7
:102DB00009F487C108F428C1893309F4D4C11FC2BA
:102DC0000E949E1214C140E050E0BA0189E00E94C6
:102DD000B21281110DC260E170E0CE0101960E9435
:102DE0004A12892B09F404C2998192959695969579
:102DF000937029854A8588859130D9F430E0322F47
:102E00002227240F311D8F7390E0A0E0B0E0DC0199
:102E1000992788270196A11DB11D820F931FA11D1F
:102E2000B11DFAE0880F991FAA1FBB1FFA95D1F7B1
:102E3000A1C02295269526952370F4E08F9FC001AE
:102E40001124820F911D01962F81237030E0322FC3
:102E50002227330F330F820F931FA0E0B0E02E81A3
:102E6000322F3F702B85221F2227221F230F4370F2
:102E7000440F420F475004C0880F991FAA1FBB1F61
:102E80004A95D2F777C08091B50440E050E0BA018E
:102E900082FF28C08DE80E94B2128111A9C18FEF74
:102EA0000E943F1260E170E0CE0101960E944A123A
:102EB000892B09F49DC150E3F52E8FEF0E943F123C
:102EC000FA94F110FACF2B8522952F7080E190E0D3
:102ED000A0E0B0E004C0880F991FAA1FBB1F2A956D
:102EE000D2F748C089E00E94B212811181C160E12D
:102EF00070E0CE0101960E944A12892B09F478C134
:102F00009091B5042B858C8591FF16C02F73881F77
:102F10008827881F90E00196820F911D820F911DD6
:102F20002E852295269526952370215002C0880F64
:102F3000991F2A95E2F71CC0382F33708295869529
:102F4000877090E0F8E03F9F800D911D112401965D
:102F50002C7730E035952795359527952F5F3F4F96
:102F6000829FA001839F500D929F500D1124CA0192
:102F7000A0E0B0E0F80180839183A283B38300E0F6
:102F800038C140E050E0BA0189E004C040E050E0C0
:102F9000BA018AE00E94B21281112AC160E170E098
:102FA00023C040E050E0BA018AE30E94B2128111CE
:102FB0001FC17801F4E0EF0EF11C8FEF0E943F1269
:102FC000F80181938F01EE15FF05B9F7D8CF40E0E6
:102FD00050E0BA018DE80E94B212811109C18FEF51
:102FE0000E943F1260E470E0C8010E944A1201E0B2
:102FF00010E0892B09F4FEC0F9C080912B0181609B
:1030000080932B0100E0FCC0FB014381548165816A
:10301000768139E0440F551F661F771F3A95D1F727
:103020007068808190E0A0E0B0E02CE1880F991FEB
:10303000AA1FBB1F2A95D1F7482B592B6A2B7B2B34
:103040008181928101979170A0E0B0E0482B592BCB
:103050006A2B7B2B80E30E94B2128111C9C084E6E7
:103060008093B8048FEF0E943F128F3F29F4809124
:10307000B8048111F7CFBCC08E3F09F0B9C0F80188
:10308000E780F084C180D280CE0CDF1CCE14DF0438
:1030900039F08FEF0E943F12F70181937F01F6CF45
:1030A000F8018181928102E012E0081B190B0115E1
:1030B000110509F464CF8FEF0E943F1201501109EE
:1030C000F6CFFB01438154816581768139E0440F5D
:1030D000551F661F771F3A95D1F77068808190E081
:1030E000A0E0B0E02CE1880F991FAA1FBB1F2A9512
:1030F000D1F7482B592B6A2B7B2B81819281019729
:103100009170A0E0B0E0482B592B6A2B7B2B81E318
:103110000E94B21281116CC08FEF0E943F128EEF9D
:103120000E943F12F801E780F084C180D280CE0C6B
:10313000DF1CEC14FD0431F0F70181917F010E9446
:103140003F12F7CFF8018181928102E012E0081B63
:10315000190B8FEF0115110509F441C00E943F12B0
:1031600001501109F6CFFB014381548165817681BD
:1031700089E0440F551F661F771F8A95D1F7746841
:10318000808190E0A0E0B0E02CE1880F991FAA1F99
:10319000BB1F2A95D1F7482B592B6A2B7B2B828199
:1031A00090E0A0E0B0E0482B592B6A2B7B2B81E309
:1031B0000E94B21281111CC08FEF0E943F128EEF4D
:1031C0000E943F12F80181810E943F1201E012E04B
:1031D0008FEF0E943F1201501109D1F78FEF0E942B
:1031E0003F128F7101E010E0853021F400E002C051
:1031F00001E010E00E94451204C003E001C004E0B9
:1032000010E0C8016096E8E00C94D6508091B804B4
:10321000882319F081508093B8048091B60490916E
:10322000B704009729F001979093B7048093B604F0
:1032300080912B01897F80932B010895A4E0B0E059
:10324000E4E2F9E10C94C050FC012081318142811B
:103250005381CA01B9012496E2E00C94DC50FC01D0
:10326000208131814281538164817581868197817A
:1032700008950F931F93FC010083118322833383EE
:1032800044835583668377831F910F9108959C0132
:10329000480F591FF9012F5F3F4F608324173507EF
:1032A000C9F70895CF93DF939C01FB01480F591F85
:1032B000E9012F5F3F4F888190813196891B990BDF
:1032C0002417350711F0009799F3DF91CF910895F6
:1032D000A4E0B0E0EEE6F9E10C94C050FC019A01E4
:1032E000AB01225031094109510987A190A5A1A53F
:1032F000B2A50297A109B109281739074A075B0748
:1033000000F5A185B2850E94465069837A838B833C
:103310009C8383AD94ADA5ADB6AD29813A814B8137
:103320005C81280F391F4A1F5B1F29833A834B8317
:103330005C8369817A818B819C812496E2E00C9484
:10334000DC5019821A821B821C82F3CF9C01AC01D3
:10335000455F5F4F80E080FB879587F9F9012F5F1C
:103360003F4F9081890F24173507A9F70895FC0175
:10337000218130E02F5F3F4F85E0220F331F8A9578
:10338000E1F790E080E050E040E04230510581F00C
:1033900080FB9795879597F9DF01A40FB51F6C9176
:1033A000860F911D4F5F5F4F4217530770F30895CB
:1033B00043E050E0F7CFCF93DF93DC01ED91FC9138
:1033C0001197309771F0CF01EC01288101962032DE
:1033D000A8F02A33C9F79F012E5F3F4F821793074A
:1033E00019F08FEF9FEF07C020812033D1F78D9325
:1033F0009C9390E080E0DF91CF9108958091190631
:1034000090E0F9CF0F931F93CF93DF93EC018B01E3
:10341000892B61F489E090E030E020E0F80131830D
:103420002083DF91CF911F910F910895E881F98159
:10343000309781F38081882369F32A813B818581DC
:1034400096812817390731F781810E94011280FD8A
:10345000E1CF2881398190E080E0E0CF0F931F9386
:10346000CF93DF93EA01890145EB51E00E94AE4919
:103470009C018F3F910579F070F00230110590F0BA
:103480003827232732273983288382E0DF91CF91A1
:103490001F910F910895009729F0012B19F088834F
:1034A00081E0F4CF80E0F2CFA6E0B0E0EAE5FAE117
:1034B0000C94BE508D839E83AD81BE810D911C9175
:1034C000F80121918F01822F90E0222331F065EBEA
:1034D00071E00E94D849009799F09C0150E040E0CB
:1034E00029833A834B835C83AD81BE810D931C930A
:1034F00069817A818B819C812696E4E00C94DA5074
:103500002FEF3FEFA90129833A834B835C83F0CFF0
:10351000A6E0B0E0EEE8FAE10C94BE5010E000E066
:103520008D839E83ED81FE8181919191FE83ED8358
:10353000009729F4C8012696E4E00C94DA509C0127
:1035400050E040E029833A834B835C83CA01B90190
:103550000E94EF49462F572FC80180FB979587950A
:1035600097F98A011127080F191F00FB1795079576
:1035700017F9452F5527040F151F8D819E81D0CF38
:103580009B01FC01460F571FD9012F5F3F4F8C91C4
:10359000819324173507C1F70895B0E0A0E0E3ED6B
:1035A000FAE10C94B650EC018B81811108C0F12C2A
:1035B000E12CC701CDB7DEB7ECE00C94D2506E0120
:1035C00047E4C40ED11C5E0153E4A50EB11CF50105
:1035D000208131814281538101E010E0B60189816F
:1035E0000E9420127C01892B59F51B82F501008174
:1035F0001181228133818BA59CA5ADA5BEA58BA889
:103600009CA8ADA8BEA8B901A801481959096A0922
:103610007B094A015B0188169906AA06BB0638F6A3
:103620006A81623021F6A9019801280F391F4A1FCB
:103630005B1F01E010E0B60189810E942012B9CF22
:10364000EE24E394F12CB5CFB0E0A0E0EAE2FBE198
:103650000C94B8505C016A017B01EC01CD5BDF4F3B
:1036600088819981AA81BB8130E020E08C159D057D
:10367000AE05BF05F1F0C5010E94CD1A9C01892B52
:10368000C1F4B501695B7F4F01E010E0A70196012D
:10369000F50181810E940F129C01892B31F021E0FC
:1036A00030E0CC24CA94DC2C7601C882D982EA822C
:1036B000FB82C901CDB7DEB7EAE00C94D450AEE08E
:1036C000B0E0E5E6FBE10C94B05089879A870D8362
:1036D0001E832F8338874A015B0122E0821A9108FA
:1036E000A108B108E985FA8587A190A5A1A5B2A591
:1036F0000297A109B10988169906AA06BB0618F017
:10370000812C912C540189829A82AB82BC827501F2
:103710006401412C512C320129843A84FFE32F0E9D
:10372000311C11E0F10180819181A281B381B70147
:10373000A6013CE076956795579547953A95D1F760
:10374000480F591F6A1F7B1F89859A850E94241B79
:10375000892B09F07AC0D701C60123E0B695A79559
:10376000979587952A95D1F7917096012770332701
:10377000F12F01C0FF0F2A95EAF72F2FA985BA85EF
:1037800097964D915D916D917C919A974250510918
:10379000610971094B875C876D877E87E985FA85AA
:1037A000E80FF91FE95BFF4F30813223BFEFCB1ADF
:1037B000DB0AEB0AFB0A4B855C856D857E85220F53
:1037C000C416D506E606F70630F0C12CD12C7601DA
:1037D00080E092E020E0311122C05FEF451A550AE7
:1037E000650A750A4D815E816F817885441655069C
:1037F00066067706D9F469817A818B819C816E5F38
:103800007F4F8F4F9F4F69837A838B839C8369811E
:103810007A818B819C812E96E2E10C94CC50C982F6
:10382000DA82EB82FC82412C512C32018C149D04F3
:10383000AE04BF0491F02111B1CF0196811572E061
:10384000970708F06FCF21E0A9CF8FEF9FEFDC0142
:1038500089839A83AB83BC83DACF19821A821B8255
:103860001C82D5CFB0E0A0E0E8E3FCE10C94B050BE
:103870006C01480159011701425051096109710950
:10388000FC01FF962A013B018CE0769467945794E3
:1038900047948A95D1F780819181A281B381480EA6
:1038A000591E6A1E7B1EDB01CA0123E0B695A7954F
:1038B000979587952A95D1F7917047705527C1E064
:1038C00001C0CC0F4A95EAF7D1E0A201B3018C0107
:1038D0002FEF421A520A620A720AC6010E94241B82
:1038E000009739F5A601400F511FFA01E95BFF4F20
:1038F0006081762F7C2321E030E009F420E022155E
:103900003305F1F0495B5F4F6C27FA016083F601E4
:10391000D383F1E08F1A9108A108B10861F0CC0FB0
:1039200009F70F5F1F4FC1E0011522E01207D1F622
:10393000CCCF81E090E0CDB7DEB7E2E10C94CC5083
:1039400082E090E0F8CFA7E0B0E0E9EAFCE10C9477
:10395000B050FC016A017B0122E0C216D104E104EF
:10396000F104D8F0808191819E838D83DC0197964C
:103970004D915D916D917C919A97C416D506E6069E
:10398000F70658F48C91833009F4F3C058F4813071
:1039900009F473C0823009F4C8C061E070E080E0CF
:1039A00090E086C08430C9F73284438454846584AF
:1039B000768407851089B189BF83232D342D452D49
:1039C000562D672D702F812F9B2FA0E025800E9400
:1039D0002C5141F04681578160857185452B462BDE
:1039E000472B11F42110D9CF46815781608571850D
:1039F00046015701841A950AA60AB70AAD81BE810D
:103A000019960D90BC91A02DBA83A983B2E02B1218
:103A1000DBC0232D342D452D562D672D702F812F82
:103A20009F81AFEF0E940E5109E00E94E950722F72
:103A3000632F942F852FE981FA819F0150E040E0A8
:103A400079836A839B838C8369817A818B819C8152
:103A50000E94E14F281539054A055B0508F49DCF02
:103A600082169306A406B50609F4EEC0C701B60196
:103A70006F5F7F4F8F4F9F4F1BC086011695079535
:103A80000C0D1D1DC801892F99278695ED81FE819A
:103A900043A954A965A976A9480F591F611D711D35
:103AA000CF010E94241B892B39F06FEF7FEFCB01F0
:103AB0002796E2E10C94CC505801FFEFAF1ABF0AF1
:103AC000F801F1708D819E81E80FF91FE95BFF4FCE
:103AD0001081C501892F99278695AD81BE81D39626
:103AE0004D915D916D917C91D697480F591F611D45
:103AF000711DCD010E94241B892BB9F6B1E0BB22B8
:103B0000ED81FE81EA0DFB1DE95BFF4F8081782F7F
:103B1000612FC0FE08C054E0769567955A95E1F78D
:103B200090E080E0C5CF7F70FBCF77276F2D5E2DB3
:103B30004D2DED81FE8183A994A9A5A9B6A9480FB1
:103B4000591F6A1F7B1FCF010E94241B892B09F07C
:103B5000ACCFCC0CDD1CE894C0F8F1E0DF228D8105
:103B60009E818C0D9D1D895B9F4FDC016D917C9129
:103B7000D7CFED81FE8183A994A9A5A9B6A9B701E4
:103B8000A60127E076956795579547952A95D1F731
:103B9000480F591F6A1F7B1FCF010E94241B892BCE
:103BA00009F083CF8D819E81895B9F4FCC0CDD1CFA
:103BB000CC0CDD1CFCEFCF22F1E0DF228C0D9D1D33
:103BC0000E941E199F7074CF23E022120AC08289BE
:103BD0009389A489B58988169906AA06BB0608F4B4
:103BE00045CF86899789A08DB18D892B8A2B8B2B08
:103BF00059F5ED81FE8183A994A9A5A9B6A9B701BC
:103C0000A60137E076956795579547953A95D1F790
:103C1000480F591F6A1F7B1FCF010E94241B892B4D
:103C200009F043CF8D819E81895B9F4FCC0CDD1CB9
:103C3000CC0CDD1CFCEFCF22F1E0DF228C0D9D1DB2
:103C40000E941E199F7734CF6FEF7FEF8FEF9FE7B2
:103C50002FCFB0E0A0E0EFE2FEE10C94B250EC0117
:103C60006A017B0108811981D8018C9140E050E004
:103C700060E270E0843021F440E050E060E070E108
:103C8000C416D506E606F70638F082E090E0CDB718
:103C9000DEB7E0E10C94CE50B701A6014F71552775
:103CA00066277727452B462B472B79F7CEA2DFA235
:103CB000E8A6F9A68E809F80A884B9848114910417
:103CC000A104B10409F056C0833008F046C0F801E1
:103CD00087819085B0E0A0E0B701A601E5E0769588
:103CE000679557954795EA95D1F7481759076A0799
:103CF0007B0758F6F80187A990ADA1ADB2AD8EA7AC
:103D00009FA7A8ABB9AB8AA69BA6ACA6BDA64EA59D
:103D10005FA568A979A9411551056105710509F4E7
:103D2000B4CFD701C60129E0B695A7959795879599
:103D30002A95D1F7840F951FA61FB71F8EA79FA79F
:103D4000A8ABB9AB095B1F4FF1E0DF22C00ED11E5B
:103D5000DBAACAAA90E080E09ACFF80187A990ADCB
:103D6000A1ADB2AD1D820097A105B10509F4AFCF99
:103D70004C015D01D80119964D905C90712C612C1D
:103D800039E0440C551C661C771C3A95D1F7B501F7
:103D9000A401C414D504E604F70440F4C8010E9449
:103DA00068196EA77FA788AB99ABADCFCE010E94F3
:103DB000A31C4B015C01BFEF8B169B06AB06BB0639
:103DC000B9F0E2E08E169104A104B10408F45DCFCD
:103DD000F80187A190A5A1A5B2A588169906AA0603
:103DE000BB0608F052CFC418D508E608F708CFCFB5
:103DF00081E090E04CCFEF92FF920F931F93CF930F
:103E0000DF938C01FC011382ED5BFF4F8FEF9FEF7F
:103E1000DC0180839183A283B383C8010E94241BA9
:103E2000EC01892BC1F5F801EB5BFD4F808191819D
:103E300085359A4A99F5780127E4E20EF11C4BE0AA
:103E400050E069E674E0C7010E945219892B49F1DC
:103E5000F70180818B3E19F0885E823028F543E0BF
:103E600050E065E774E0C80183589F4F0E945219E3
:103E7000892B59F045E050E069E774E0C8018756A6
:103E80009F4F0E945219892B79F4CE01CDB7DEB72E
:103E9000E6E00C94D850C4E0D0E0F7CFC3E0D0E027
:103EA000F4CFC1E0D0E0F1CFC2E0D0E0EECFA6E0A9
:103EB000B0E0EDE5FFE10C94B0505C016A017B01DC
:103EC0002801390122E0C216D104E104F10408F40A
:103ED00000C1FC0187A190A5A1A5B2A5C816D9066D
:103EE000EA06FB0638F48081823009F492C038F487
:103EF000813071F022E030E03E832D837DC083501D
:103F0000823008F4A7C042E050E05E834D8374C065
:103F10008A0116950795040F151FC801892F992747
:103F20008695D501D3964D915D916D917C91D697F3
:103F3000480F591F611D711DC5010E94241B8D83EF
:103F40009E83ED81FE81EF2B09F056C01501F7E449
:103F50002F0E311C48012FEF821A920A1170F101C5
:103F6000E00FF11F842DA70196012170332744270C
:103F7000552729833A834B835C83C0FE07C0808129
:103F80008F7040E1449E90011124822B808381E058
:103F9000D50113968C931397D3964D915D916D91A6
:103FA0007C91D697C401892F99278695480F591F70
:103FB000611D711DC5010E94241B8D839E83ED81AF
:103FC000FE81EF2BC9F4F1E09F22F101E80DF91D0C
:103FD00029813A814B815C81232B242B252B91F065
:103FE00054E076946794579447945A95D1F7408259
:103FF00081E0D50113968C938D819E812696E2E116
:104000000C94CC508081807F352D3F70432E482A00
:10401000EECF77276F2D5E2D4D2D83A994A9A5A9ED
:10402000B6A9480F591F6A1F7B1FC5010E94241B98
:104030008D839E832D813E81232BF1F6F601EE0FB9
:10404000FF1FEE7FF170EA0DFB1DE95BFF4F11834F
:104050000083CECF83A994A9A5A9B6A927E0769518
:104060006795579547952A95D1F7480F591F6A1FAD
:104070007B1FC5010E94241B8D839E832D813E8161
:10408000232B09F0B9CFCC0CDD1CCC0CDD1C3CEF94
:10409000C32231E0D322C501895B9F4FC80ED91ED0
:1040A000D5018C91843079F0C6010E941E19BFE0C1
:1040B0007B22DC01CB0188279927AA27B07F482AD9
:1040C000592A6A2A7B2AF6014082518262827382CF
:1040D0008FCFE2E0F0E0FE83ED838ECFB0E0A0E092
:1040E000E4E7F0E20C94B250EC016A017B01B02EDF
:1040F000A12E922E832E2A013B0182E0480E511CF4
:10410000611C711C8FEFC81AD80AE80AF80A8E8958
:104110009F89A88DB98D0097A105B10539F490E06C
:1041200080E0CDB7DEB7E0E10C94CE508130910550
:10413000A105B105F1F093018201081B190B2A0BAF
:104140003B0BB701A601481B590B6A0B7B0B8881FF
:1041500099810E94571F009721F78E899F89A88D0A
:10416000B98D0197A109B1098E8B9F8BA88FB98F4B
:10417000CECF0B2D1A2D292D382DE3CFA6E0B0E0A0
:10418000E4ECF0E20C94B2506C0149835A836B83E7
:104190007C83DC010D90BC91A02DBE83AD83898111
:1041A0009A81AB81BC81892B8A2B8B2BE9F4AD8161
:1041B000BE811F964D905D906D907C9052974114FA
:1041C00051046104710459F097968D919D910D9061
:1041D000BC91A02D481659066A067B06A0F1412C19
:1041E000512C320143942FC049815A816B817C81CB
:1041F000C6010E94A31C4B015C01B2E08B16910426
:10420000A104B10450F4812C912C54018394C50174
:10421000B4012696E0E10C94CE50EFEF8E169E0688
:10422000AE06BE0609F4A3C1ED81FE8187A190A56B
:10423000A1A5B2A588169906AA06BB0640F3498037
:104240005A806B807C80ED81FE8183899489A58969
:10425000B689892B8A2B8B2B21F4812C912C54012C
:10426000D6CFAD81BE818C91843009F0C8C001E009
:1042700010E020E030E0B301A201CD010E945F1BFD
:104280004B015C01DC01CB010197A109B1098E3F13
:104290009F4FAF4FBF4F08F0BACFEE24E394F12CFD
:1042A00001E010E020E030E0B501A4018D819E81A5
:1042B0000E94321C9C018230910509F4A4CF019721
:1042C00009F455C189819A81AB81BC81892B8A2BE4
:1042D0008B2B41F482E0D60115968C93232B09F0A9
:1042E00092CF63C0F60185818230C1F4D301C2014F
:1042F0000196A11DB11D88159905AA05BB0571F38D
:1043000086819781A085B185481A590A6A0A7B0A75
:10431000428A538A648A758A83E08583F601868996
:104320009789A08DB18D49815A816B817C814F5FC6
:104330005F4F6F4F7F4F481559056A057B0591F414
:104340000097A105B10549F00196A11DB11DF60127
:10435000868B978BA08FB18FC1CF82E090E0A0E0D9
:10436000B0E0F5CF892B8A2B8B2B49F481E090E0CC
:10437000A0E0B0E0F601868B978BA08FB18F9501FE
:10438000840149815A816B817C81C6010E946E2023
:104390009C01892B09F0E7C081E090E0A0E0B0E04B
:1043A000F601868B978BA08FB18FAD81BE811F9652
:1043B0008D929D92AD92BC925297FD018389948912
:1043C000A589B68947A150A561A572A5425051099A
:1043D00061097109481759076A077B0738F0019787
:1043E000A109B109838B948BA58BB68BAD81BE815E
:1043F00014968C911497816014968C9308CF8981C0
:104400009A81AB81BC81481659066A067B0609F081
:1044100047C0530142019FEF891A990AA90AB90AB4
:10442000ED81FE8187A190A5A1A5B2A58816990668
:10443000AA06BB0628F022E0822E912CA12CB12CDA
:10444000B501A401C6010E94A31C462F572FBC0131
:10445000413051056105710509F4D5CE4F3FFFEF9D
:104460005F076F077F0709F482C0452B462B472B58
:1044700009F452C0ED81FE8187859089A189B289B6
:1044800082309105A105B10558F047A150A561A55D
:1044900072A584179507A607B70710F42C013D01F4
:1044A00053014201FFEF8F1A9F0AAF0ABF0AED8145
:1044B000FE8187A190A5A1A5B2A588169906AA0696
:1044C000BB0660F0F2E04F1651046104710408F479
:1044D000C4CE92E0892E912CA12CB12CB501A4015F
:1044E000C6010E94A31C462F572FBC014115510540
:1044F00061057105B9F0413051056105710509F497
:1045000082CE4F3F5F4F6F4F7F4F89F184149504E8
:10451000A604B70439F6A1CE81149104A104B10414
:1045200009F4BECF0FEF1FEF9801B501A4018D81F3
:104530009E810E94571F9C01892BA9F489819A8131
:10454000AB81BC810097A105B10509F42ECF95017F
:104550008401AC01BD018D819E810E94571F9C0189
:10456000892B09F422CF2130310509F04CCE882463
:104570008A94982C54014BCEAAE0B0E0E2ECF2E22F
:104580000C94B0508D839E834B01AD81BE81AD9064
:10459000BC90119796964D905D906D907C909997F8
:1045A000B0E24B0E511C611C711CF50180818430FE
:1045B00009F453C080E090E0A0E2B0E0481659064C
:1045C0006A067B0640F0AD81BE819E961D921D92CB
:1045D0001D921C92D197ED81FE8186A597A5A0A979
:1045E000B1A90097A105B105A9F1B301A2015170CC
:1045F00066277727452B462B472B09F0E3C001960A
:10460000A11DB11D86A797A7A0ABB1AB42A553A52D
:1046100064A575A5D501411551056105710511F513
:1046200017968D919C91B0E0A0E0B301A20135E016
:1046300076956795579547953A95D1F74817590755
:104640006A077B0708F4BEC0ED81FE8116A617A697
:1046500010AA11AA84E090E02BC080E090E0A0E0D6
:10466000B0E1ACCF19968D919C910197B0E0A0E09C
:104670007301620129E0F694E794D794C7942A95D0
:10468000D1F78C219D21AE21BF21892B8A2B8B2B29
:1046900009F098C08D819E810E94A31C6B017C0152
:1046A000B2E0CB16D104E104F10430F482E090E0F2
:1046B0002A96E2E10C94CC50EFEFCE16DE06EE0621
:1046C000FE0619F481E090E0F3CFF50187A190A5F3
:1046D000A1A5B2A5C816D906EA06FB0608F45FC074
:1046E0008114910409F4B0CFAD81BE819A964D91A9
:1046F0005D916D917C919D97CD010E94BE206B01D3
:104700007C0187E090E0C114D104E104F10481F25E
:10471000B1E0CB16D104E104F10441F2EFEFCE1683
:10472000DE06EE06FE0671F2C5010E94CD1A4C01AE
:10473000892B41F6B701A601C5010E94681969835A
:104740007A838B839C83F501ED5BFF4F89819A818E
:10475000AB81BC8180839183A283B383150197E4ED
:10476000290E311C40E052E070E060E0C1010E947F
:104770004719F5018185928588169906C8F1D501FA
:1047800019968D919C918816990609F09BCFAD8161
:10479000BE8115968C911597846015968C93ED814A
:1047A000FE81C2A6D3A6E4A6F5A6B701A601C5015F
:1047B0000E946819AD81BE819E966D937D938D9305
:1047C0009C93D197ED81FE8146A257A260A671A667
:1047D000F7E4AF0EB11C81E058224A0C5B1CAD819E
:1047E000BE81D3965C924E92D29790E080E060CFEB
:1047F00001E010E029813A814B815C81280D391D4F
:10480000411D511DB10181810E942012892B09F0A7
:10481000B6CFAFEF8A1A9A0AACCFB0E0A0E0E3E1DE
:10482000F4E20C94B8508C01FC0180819181FC0170
:10483000C584D684F80146A557A560A971A90E9430
:10484000241BEC01892B09F099C0F80162A973A916
:10485000FB018081853809F08FC040E250E0C6013D
:104860000E94C01AF601E180F12CFFEFEF1AFF0A57
:1048700025E0EE0CFF1C2A95E1F7C701805691094F
:104880008130924008F078C070E060E0C8010E947A
:10489000BC22EC018430910509F46EC0892B09F02B
:1048A0006DC0F80146A557A560A971A980819181C5
:1048B0000E94241BEC01892B09F060C0F80162A959
:1048C00073A9FB018081803C09F056C040E250E0B2
:1048D000C60180960E94C01AF60183A190E08C96D2
:1048E0006FE070E00E94CD4F95E0660F771F9A95BC
:1048F000E1F7E616F70608F43FC080E4A82EB12CD5
:1049000070E060E0C8010E94BC22EC018430910597
:1049100099F1892B99F5F80146A557A560A971A9C8
:10492000808191810E94241BEC01892B39F5F801CB
:1049300062A973A9FB018081813CF1F4F0EEAF160E
:10494000B10438F440E250E0C6018A0D9B1D0E947C
:10495000C01A20E2A20EB11CAE14BF0488F281EE90
:10496000A816B10458F4C6010E94B719F6012281B5
:1049700033818217930711F0C2E0D0E0CE01CDB7AA
:10498000DEB7EAE00C94D4500F931F93CF93DF93DC
:10499000EC01FB018081918199838883828D938DC5
:1049A000A48DB58D8E839F83A887B987068D178DBB
:1049B00020A131A10D8300270A871B872C873D8703
:1049C0001E861F86188A198A1E8A1F8A188E198EBB
:1049D00042A153A164A175A1FE01E05CFF4F408399
:1049E000518362837383CE010E94291E9C01892B0F
:1049F00021F4CE010E940D249C01C901DF91CF91C9
:104A00001F910F910895B0E0A0E0E9E0F5E20C9469
:104A1000B250EC016B01E880F98088248A94552417
:104A20005A9404E010E0BDE04B2E86E4682E82E04C
:104A3000782E5E0180E4A80EB11C4EA55FA568A982
:104A400079A9411551056105710521F4011511057B
:104A5000C1F0B4C0C7010E94241B8C01892B09F04E
:104A6000ADC0EAA9FBA99080992009F4C8C0D7017C
:104A70008C91843059F5C114D10459F0B3E89B12DC
:104A800094C010E000E0C801CDB7DEB7E0E10C94BF
:104A9000CE50E5E89E1289C08EA19FA1A8A5B9A518
:104AA000FE01E05CFF4F80839183A283B383CE013C
:104AB0000E940D248C01892B09F080C0D7011D961E
:104AC000ED91FC9184818F738C83DDCF23852F73CF
:104AD0002C83B5EE9B1609F479C08EE2981609F482
:104AE00075C081E090E0322F3F71383009F080E0EE
:104AF0008C159D0509F06AC02F3009F06EC096FE36
:104B000062C08584E89496F84EA15FA168A579A556
:104B1000D5014D935D936D937C9313978585881193
:104B200055C0828D938D892B09F050C0D7011B96FB
:104B30004D915C9120812F7B2150330B429EC0010F
:104B4000439E900D112409E312E021E030E0D801EA
:104B50006D918D016E0F7F2F711DDB016D917C9129
:104B600021153105B1F18034910580F59C01220FAA
:104B7000331F240F351FD9016D937C939B01019640
:104B80006016710621F7608166FF0CC0232B51F07F
:104B900080349105D8F4880F991F840F951FFC016C
:104BA0001182108255245A94590C60E070E0CE01B5
:104BB0000E94BC228C01892B09F43FCF1EA61FA6A0
:104BC00018AA19AA60CF591409F4A8CF55245A94E9
:104BD000ECCF6F3F7F4FA1F2F9CF511006C0CF014C
:104BE0000E94A619881509F44CCFC05CDF4F8FEFE7
:104BF0009FEFDC0188839983AA83BB8344CF04E0C1
:104C000010E0DCCFB0E0A0E0E8E0F6E20C94B850B1
:104C10008C017B01DC01CD90DC9040E050E0BA01DA
:104C20000E94291EEC01892BF1F4F80146A557A535
:104C300060A971A9C6010E94241B5C01009751F56F
:104C4000D801D296ED91FC918081F601908194304B
:104C5000B9F487FF19C061E070E0C8010E94BC226E
:104C6000EC01892B59F0C430D10511F4C7E0D0E034
:104C7000CE01CDB7DEB7EAE00C94D450E501D5CF34
:104C8000853E11F08111E7CF2196CE15DF0521F089
:104C90005E01E1CFEC01E7CFD0E0C0E0E9CFB0E0CA
:104CA000A0E0E5E5F6E20C94B9508C01DC01ED9151
:104CB000FC91E584F684C7010E94B719F70193833C
:104CC0008283C180F801E05CFF4F408151816281A5
:104CD0007381C8010E94291EEC01D12CBB24B3941E
:104CE000209751F0CE01239710F082E090E0CDB7ED
:104CF000DEB7E9E00C94D550D8019E964D915D91B8
:104D00006D917C91D1978D919C910E94241BEC0117
:104D1000892B41F740E250E0B701F80182A993A93D
:104D20000E94C01AD801ED91FC91B382C114D10444
:104D3000C9F2B0E2EB0EF11C70E060E0C8010E9425
:104D4000BC22EC01E1E0CE1AD108CACFAEE0B0E05F
:104D5000ECEAF6E20C94B0504C01DC010D90BC91F1
:104D6000A02DBE83AD8340E050E0BA010E94291E11
:104D70001C01892BB9F4ED81FE818081843009F01A
:104D80007EC0838594850E94881A6C0170E060E083
:104D9000C4010E9403258F839887AF81B88510973F
:104DA00031F01D01C1012E96E2E10C94CC50AD8191
:104DB000BE811D96ED91FC9183A1803438F724A12A
:104DC00035A1C216D30611F7E82EF12C00E410E04D
:104DD000AF80B884AA0CBB1C8F8198858E159F0567
:104DE00069F4AD81BE811B968D919C91A80EB91E70
:104DF000F50180819181892B49F6D4CFC8018F714B
:104E00009927892B11F40E5F1F4FAD81BE811D962E
:104E1000ED91FC91E00FF11F808191819C0150E0A8
:104E200040E029833A834B835C83CA01B9010E9425
:104E3000EF492B013C01AD81BE811B968D919C9168
:104E4000A80EB91EF501808191819C0150E040E0DF
:104E5000CA01B9010E94EF4969837A838B839C83DD
:104E6000461657066806790609F090CF0E5F1F4F69
:104E70004F8158854F5F5F4F58874F83A9CF84017B
:104E8000005C1F4F8FEF9FEFDC01F801808391835F
:104E9000A283B383CC24CA94FFEFF98394012C5CE2
:104EA0003F4F3E872D87D4019E964D915D916D9128
:104EB0007C91D1978D819E810E94241B9C01892B1E
:104EC00009F0C4C0F401E2A8F3A8D701DC90DD200A
:104ED00009F400C11B969C91892F8F738483B5EED2
:104EE000DB1621F093FF0EC08F3079F02FEFF80121
:104EF00020833FEF31834FEF42835FEF53838FEF88
:104F000089839BC08F3009F0B1C0D401DF968C91AA
:104F1000DF9786FD92C0D6FE9BC0F701C584E8945A
:104F2000D6F896968D919D910D90BC91A02DF8018B
:104F300080839183A283B383D7011D968C911D97A3
:104F40008C11DDCF5A968D919C915B97892B09F03E
:104F5000B5C0ED81FE81638474848C918F73815020
:104F6000990B4DE0489F9001499F300D11243887DF
:104F70002F8339E3432E32E0532E81E090E0D201BB
:104F80002D912D01F701E20FF11DA080B180009756
:104F900009F465C0EF81F885E034F10508F091C0AF
:104FA00050E040E0CA01B5010E94EF4969837A836D
:104FB0008B839C834F8158854F5F5F4F5C874B8706
:104FC0008F819885880F991F860D971DDC018D9123
:104FD0009C919C0150E040E0CA01B9010E94EF4958
:104FE0006F83788789879A8729813A814B815C8191
:104FF000261737074807590709F066C0C5014B85D2
:105000005C8558874F83A6E44A16A2E05A0609F049
:10501000B6CFF701208126FF0EC0892B61F02F81CA
:105020003885220F331F260D371DD9018D919C9194
:10503000892B09F04CC0DA94D98270E060E0C40199
:105040000E94BC229C01892B09F42DCF1901AACE04
:10505000F981FD1509F470CF5FEF5983EECF5FEF53
:10506000A516B50681F2EFEFE983E7CFB981B1115B
:1050700006C0C7010E94A6198C1509F493CEF4014D
:1050800087AD80FD0AC04BE050E06D857E85C7018D
:105090000E945219892B09F485CEEFEFD801EC93C9
:1050A000FFEF1196FC9311972FEF12962C93129706
:1050B0003FEF13963C934FEF4983BFCF9FEF998308
:1050C000BCCFAFEFA983B9CFBFEFB983B6CFFFEFA6
:1050D000F983B3CF84E0282E312C64CEB0E0A0E079
:1050E000E4E7F8E20C94B650EC018D81833091F442
:1050F0004E815F8168857985CA88DB88EC88FD8868
:10510000C40ED51EE61EF71E4C155D056E057F0507
:1051100041F41D8290E080E0CDB7DEB7ECE00C9466
:10512000D2504A015B018FEF881A980AA80AB80A80
:1051300095018401888199810E94571F009761F72A
:10514000B501A401E1CFAFE2B0E0E9EAF8E20C94E6
:10515000B0506B01142FDB011D921C920E94DB19D1
:105160007C018BE090E0F7FC21C0F701EE0FFF1F00
:10517000E45EF94F808091808CE090E0811491048E
:10518000A9F0F601918280821E7FD4018C91882340
:1051900089F011968C910E94011280FD0BC01123A1
:1051A00009F456C282FF54C28AE090E0AF96E2E171
:1051B0000C94CC50F4011082E1828E2D0E940812D2
:1051C00080FD11C4112311F082FDEECF40E050E0CC
:1051D000BA01C4010E94FB1E9C018230910509F0B6
:1051E00085C17401F3EFEF1AFDEFFF0A8E010F5F27
:1051F0001F4F540123EBA21A2DEFB20A6801C70119
:105200000E941E19D6016D937D938D939D936D0120
:10521000B0E1EB0EF11CEA14FB0489F77801E0E140
:10522000EE0EF11CD8014D915D916D917D918D0136
:1052300023E030E0411551056105710509F44EC1C7
:10524000C4010E94FB1E9C01029708F047C1F401B3
:10525000ED5BFF4F40805180628073803F9621302C
:10526000310509F0F8C1940129573F4F819181110F
:1052700046C1E217F307D1F7F401E155FF4F8081F2
:1052800091818115914009F03AC1F401ED54FF4F2D
:105290008081893009F033C1C40181579F4F0E943A
:1052A0002F1959016A017B018C01A301920160E071
:1052B00070E0CB01498A3A8B6B8A5C8B6D8B7E8B5D
:1052C0008F8B988F60E070E080E090E00E94055145
:1052D00029A33DA349A75DA7362E272E8EA79FA7FA
:1052E0002F3F3F4F4F4F5F4F61057105810591057E
:1052F00011F008F004C1C40185569F4F0E941E1989
:10530000F40163A774A785A796A7EB54FF4F80818C
:10531000D40112968C93813009F0F1C031978081CD
:1053200001E010E002C0000F111F8A95E2F7F401BE
:10533000128701870115110509F4E1C0C4018D55DB
:105340009F4F0E941E196B017C01FEEFCF16FFEFED
:10535000DF06EF06FFE7FF0608F0D1C0DC01CB0156
:105360000296A11DB11DF40187A390A7A1A7B2A722
:1053700047A650AA61AA72AAC40181569F4F0E94F3
:105380001E19640D751D861D971D698B7A8B8B8B7D
:105390009C8BF40163AF74AF85AF96AFC40189569F
:1053A0009F4F0E941E19460E571E681E791ED4017B
:1053B000D3964D925D926D927C92D697D801A701BB
:1053C00096010E9446509B01AC0160E070E0CB0169
:1053D000298F3A8F4B8F5C8F6D8F7E8F8F8F98A325
:1053E00049895A896B897C899A01AB0160E070E038
:1053F000CB01298B3A8B4B8B5C8B6D8B7E8B8F8B90
:10540000988F298D3A8D4B8D5C8D60E070E080E047
:1054100090E0A988BA88CB88DC88E12CF12C00E0E8
:1054200010E00E940551A9A0BDA0C9A4DDA4E32CF1
:10543000F22C0EA51FA50E94235111F008F05FC0A9
:10544000C40189559F4F0E941E19D401D7966D93B0
:105450007D938D939C93DA97C12CD12C7601412CAE
:10546000512C3201C114D104E104F10429F5F401F5
:1054700081859285B0E0A0E0481659066A067B0651
:10548000F0F547A950AD61AD72ADC4010E94681935
:10549000698B7A8B8B8B9C8BAB01BC01440D551DAA
:1054A000661D771DC4010E94241B892B11F5FFEF97
:1054B0004F1A5F0A6F0A7F0AF401EC0DFD1DE95BCC
:1054C000FF4F80818138F1F020E2C20ED11CE11C37
:1054D000F11C31E0D322EE24FF24C4CF0E151F05AA
:1054E00009F0A0CE2430310551F403C08430910579
:1054F00019F481E090E05ACE029708F4A8CE8DE02E
:1055000090E054CE8401095B1F4F44E1C40ED11CCE
:10551000C8018C0D9D1D0E941E196B017C0152E07B
:10552000C516D104E104F10450F3F40187A190A55C
:10553000A1A5B2A5C816D906EA06FB0600F75401D4
:10554000FFE3AF0EB11CF401A185B285A70196015E
:1055500022503109410951090E944650698B7A8BCA
:105560008B8B9C8B83AD94ADA5ADB6AD29893A8963
:105570004B895C89820F931FA41FB51FF50180839F
:105580009183A283B383F40183A994A9A5A9B6A9A1
:10559000B701A601E7E07695679557954795EA9597
:1055A000D1F7480F591F6A1F7B1FC4010E94241B9B
:1055B000892B09F09ECFC6018F779927880F991FF5
:1055C000880F991F800F911F0E941E19462F572F79
:1055D000BC014F3FFFEF5F076F077F0759F02FEFC9
:1055E000C21AD20AE20AF20A4C155D056E057F0561
:1055F00051F285CFD40153964D935D936D937C9377
:105600005697F4014787508B618B728B04E010E052
:10561000D4010C9380911A0690911B0601969093E9
:105620001B0680931A0616969C938E93159789EB0A
:1056300094E01C969C938E931B9789E395E01E96AD
:105640009C938E931D97F401178A108E118E128EE3
:1056500090E080E0ABCD808191818115924009F08E
:105660004ECFF401E35AFF4F808191819C0150E0BD
:1056700040E0298B3A8B4B8B5C8B892B49F4C4011E
:1056800085599F4F0E941E19698B7A8B8B8B9C8B3F
:1056900049895A896B897C89D4019B964D935D9386
:1056A0006D937C939E97F401E95AFF4F0081F401BA
:1056B00002838FEF800F823008F021CFEC5AFF4F2A
:1056C0001081812F90E01A969C938E9319970097E2
:1056D00009F415CF9C012150310982239323892B92
:1056E00009F00DCF349620803180F4013086278276
:1056F000C1018F709927892B09F001CFE65AFF4F1E
:10570000808191816C01F12CE12C892B39F4C40149
:1057100089599F4F0E941E196B017C01F401EB5ABD
:10572000FF4F0190F081E02D309709F4E8CEA02FD3
:10573000B0E029893A894B895C890E94465069A763
:105740007AA78BA79CA79F0150E040E029A33AA32A
:105750004BA35CA3C10164E0969587956A95E1F738
:10576000280F391F411D511DDA01C90149A55AA54C
:105770006BA57CA5480F591F6A1F7B1F498F5A8F45
:105780006B8F7C8FC416D506E606F70608F4B7CEF5
:10579000D701C601841B950BA60BB70B8DA39EA347
:1057A000AFA3B8A7C12ED12CF12CE12CBC01CD01A7
:1057B000A70196010E94E14F6DA17EA18FA198A53E
:1057C0006C157D058E059F0508F499CE263F7FEF69
:1057D000370747077FE0570708F091CE03E010E056
:1057E000263F8FEF38074105510550F401E010E0E6
:1057F000263F6FE036074105510510F002E010E04A
:1058000069017A0192E0C90ED11CE11CF11CD4019E
:105810009796CD92DD92ED92FC929A97F40147A66D
:1058200050AA61AA72AA89A19AA1ABA1BCA1840DB8
:10583000951DA61DB71D83AB94ABA5ABB6AB498D2B
:105840005A8D6B8D7C8D440D551D661D771D43AFA4
:1058500054AF65AF76AF0330110509F092C0EF5831
:10586000FF4F80819181282A392A2114310409F0BF
:1058700046CEC4018D589F4F0E941E19D401D79661
:105880006D937D938D939C93DA9742E0CC0CDD1C55
:10589000EE1CFF1C4A95D1F72FEFC20E21E0D21E5D
:1058A000E11CF11C89E0F694E794D794C7948A959B
:1058B000D1F749895A896B897C894C155D056E053C
:1058C0007F0508F41CCE8FEF9FEFDC01F401838B82
:1058D000948BA58BB68B8787908BA18BB28B80E83E
:1058E00084830330110509F093CEE958FF4F80817E
:1058F0009181019709F08CCEB301A2014F5F5F4FF8
:105900006F4F7F4FC4010E94241B892B09F080CE6A
:10591000D40114961C92F401EB5BFD4F80819181C0
:1059200085359A4A09F074CEC401895B9F4F0E9465
:105930001E19623572458146914409F069CEC40151
:10594000855D9D4F0E941E196237724781449146C2
:1059500009F05ECEC401815D9D4F0E941E19D401E5
:1059600053966D937D938D939C935697C4018D5C54
:105970009D4F0E941E19F4016787708B818B928B5B
:1059800047CE2114310409F4BACD29A53AA54BA577
:105990005CA5820F931FA41FB51F87AB90AFA1AF6B
:1059A000B2AF0230110529F4CC0CDD1CEE1CFF1C3B
:1059B00073CFA3E0B0E0A70196010E944650698F23
:1059C0007A8F8B8F9C8FDC01CB01B695A79597952D
:1059D0008795F1E0CF22DD24EE24FF24C80ED91EE6
:1059E000EA1EFB1E59CF83E090E0E0CBB0E0A0E0E0
:1059F000ECEFFCE20C94B0501C014A015B01FC018D
:105A0000C081D181F2E08F169104A104B10440F469
:105A100022E030E0C901CDB7DEB7E2E10C94CC5012
:105A20008FA198A5A9A5BAA588169906AA06BB06AE
:105A300078F72A013B0175016401B501A401C10198
:105A40000E94A31C4B015C0181149104A104B104C8
:105A500039F48881843009F467C030E020E0DACF7F
:105A600081E088169104A104B10491F2EFEF8E1643
:105A70009E06AE06BE0609F45AC088818430E1F560
:105A80008B899C89AD89BE894FA158A569A57AA546
:105A9000425051096109710984179507A607B70794
:105AA000C0F1FFEFCF1ADF0AEF0AFF0A8C149D0442
:105AB000AE04BF04B1F08881843089F49701860177
:105AC0000419150926093709F12CE12CB301A201AB
:105AD000CE010E94321C9C01892B09F09BCF24012E
