:100000000C949F060C94BC060C94BC060C94BC0685
:100010000C94BC060C94BC060C94BC060C94BC0658
:100020000C94BC060C94BC060C94BC060C94BC0648
:100030000C94BC060C94BC060C94BC060C94BC0638
:100040000C94880A0C94BC060C94BC060C94BC0658
:100050000C9436120C94BC060C94BC060C94BC0692
:100060000C94BC060C94BC060C94BC060C94BC0608
:100070000C94BC060C94BC060C94BC066E616E001D
:10008000696E660000407A10F35A00A0724E18099B
:100090000010A5D4E80000E87648170000E40B54EF
:1000A000020000CA9A3B000000E1F50500008096BE
:1000B0009800000040420F000000A08601000000F0
:1000C000102700000000E8030000000064000000AA
:1000D00000000A00000000000100000000002C7673
:1000E000D888DC674F0823DFC1DFAE59E1B1B7968E
:1000F000E5E3E453C63AE651997696E8E6C28426EB
:10010000EB898C9B62ED407C6FFCEFBC9C9F40F2C6
:10011000BAA56FA5F490055A2AF75C936B6CF96742
:100120006DC11BFCE0E40D47FEF520E6B500D0ED07
:10013000902E0300943577050080841E080000206F
:100140004E0A000000C80C333333330F986E12830D
:100150001141EF8D2114893BE65516CFFEE6DB18E1
:10016000D1844B381BF77C1D901DA4BBE4242032A6
:1001700084725E228100C9F124ECA1E53D2763640D
:10018000696E6F70737578585B00550141011540B9
:100190001500000050550522020202222022000014
:1001A0000020220A55054101155015000018505530
:1001B0000D0088808008080000000880880A050477
:1001C0004141515000000016505507220202022002
:1001D000200000000A20A20A4505414151501000AC
:1001E000801550D50D8080808080000800800A80B6
:1001F000A80A4501454140501000000000F00702E8
:1002000002222020202200000000A00205055551F6
:1002100040411500180000D001000008008080084F
:1002200000080000A0000000000000000000160010
:1002300000700000000000000000000A0000200024
:100240000000000000000080150000100000000009
:100250000000000080AA0AA00A00000000000000C0
:100260000060FF1FF0070000000000000000A0BABF
:100270001BA0020000000000000000C0FD1FD00114
:100280000000000000000000A0AE0EA00000000072
:100290000000000000E0FF1F7000000000000000F0
:1002A0000000A0BB1B20000000000000000000C0F8
:1002B000FF1F10000000F0030000F0030000F00337
:1002C00000E0F8C301F0FFFF03F8FFFF07F8FFFFAE
:1002D00007F8FFFF07F007F803F003F003F001E071
:1002E00003F000C007FF00C03FFF00C03FFF00C099
:1002F0003FFF00C03FFF00C03FFF00C03FF800C00D
:1003000003F001E003F003F003F007F803F8FFFF48
:1003100007F8FFFF07F8FFFF07F0FFFF03E0F0C358
:100320000100F0030000F0030000F00300000000F3
:100330000000000000E0FFFF01F8FFFF07080000D9
:10034000040C00000C0CF8070C0CCF3C0C8CC7788C
:100350000C6C04880D6C00800DCC00C00C0C1000DF
:100360000C0C10000C0C10000C0C20000C0C2000CD
:100370000C0C60000C0CE0010C0C18060CFC0FFCC3
:100380000FFC07F80F0CC0000C0CC0000C0C000098
:100390000C08000004F8FFFF07E0FFFF0100000069
:1003A00000000000000000000000C0000000E001AC
:1003B0000000E0010000F0030000F0030000380737
:1003C0000000380700001C0E00001C0E00000E1C70
:1003D00000000E1C00000738000007380080037082
:1003E0000080037000C001E000C001E000E000C038
:1003F00001E000C00170008003700080033800003D
:1004000007380000071C00000E1C00000E1EA94447
:100410001EFEFFFF1FFEFFFF1FFCFFFF0F0000007F
:100420000000FE1F00000120008000400040E0802E
:100430000020A00101103C070208240D0404270538
:100440000802250D10022505100225CD118225E593
:10045000100225AD1182B495100205DC108201480E
:1004600010020142108201211002812010020110AD
:1004700010044110080883080410060C02209C0296
:100480000140F08100800040000001200000FE1FBC
:10049000000000000000000000003E5B4F5B3E3E9D
:1004A0006B4F6B3E1C3E7C3E1C183C7E3C181C5720
:1004B0007D571C1C5E7F5E1C00183C1800FFE7C3C4
:1004C000E7FF0018241800FFE7DBE7FF30483A0693
:1004D0000E2629792926407F050507407F05253FFF
:1004E0005A3CE73C5A7F3E1C1C08081C1C3E7F14EB
:1004F000227F22145F5F005F5F06097F017F006635
:1005000089956A606060606094A2FFA29408047E8E
:10051000040810207E201008082A1C08081C2A083D
:10052000081E101010100C1E0C1E0C30383E3830F7
:10053000060E3E0E06000000000000005F000000F6
:1005400007000700147F147F14242A7F2A12231324
:1005500008646236495620500008070300001C2238
:1005600041000041221C002A1C7F1C2A08083E086A
:10057000080080703000080808080800006060006B
:1005800020100804023E5149453E00427F4000725F
:10059000494949462141494D331814127F102745D6
:1005A0004545393C4A4949314121110907364949F4
:1005B0004936464949291E00001400000040340015
:1005C00000000814224114141414140041221408C9
:1005D00002015909063E415D594E7C1211127C7F81
:1005E000494949363E414141227F4141413E7F498F
:1005F0004949417F090909013E414151737F08087A
:10060000087F00417F41002040413F017F081422C4
:10061000417F404040407F021C027F7F0408107FE2
:100620003E4141413E7F090909063E4151215E7F1D
:1006300009192946264949493203017F01033F40F0
:1006400040403F1F2040201F3F4038403F63140878
:10065000146303047804036159494D43007F414109
:10066000410204081020004141417F0402010204BC
:100670004040404040000307080020545478407F29
:10068000284444383844444428384444287F385463
:1006900054541800087E090218A4A49C787F08040A
:1006A000047800447D40002040403D007F102844F5
:1006B0000000417F40007C047804787C08040478C2
:1006C0003844444438FC1824241818242418FC7C8A
:1006D00008040408485454542404043F44243C406F
:1006E00040207C1C2040201C3C4030403C442810D2
:1006F00028444C9090907C4464544C44000836410B
:1007000000000077000000413608000201020402E8
:100710003C2623263C1EA1A161123A4040207A3893
:1007200054545559215555794122545478422155F4
:1007300054784020545579400C1E52721239555548
:100740005559395454545939555454580000457C1E
:10075000410002457D420001457C407D1211127D21
:10076000F0282528F07C545545002054547C547CB6
:100770000A097F4932494949323A4444443A324AA3
:100780004848303A4141217A3A42402078009DA0C1
:10079000A07D3D4242423D3D4040403D3C24FF243F
:1007A00024487E4943662B2FFC2F2BFF0929F62076
:1007B000C0887E090320545479410000447D4130B3
:1007C00048484A32384040227A007A0A0A727D0D3F
:1007D00019317D2629292F28262929292630484DF7
:1007E0004020380808080808080808382F10C8AC46
:1007F000BA2F102834FA00007B000008142A1422B3
:1008000022142A1408AA005500AAAA55AA55AA001B
:100810000000FF00101010FF00141414FF0010104F
:10082000FF00FF1010F010F0141414FC001414F763
:1008300000FF0000FF00FF1414F404FC1414171050
:100840001F10101F101F1414141F00101010F000A0
:100850000000001F101010101F10101010F01000DA
:100860000000FF101010101010101010FF100000EA
:1008700000FF140000FF00FF00001F10170000FC25
:1008800004F414141710171414F404F40000FF00F7
:10089000F714141414141414F700F7141414171480
:1008A00010101F101F141414F4141010F010F00086
:1008B000001F101F0000001F14000000FC140000A7
:1008C000F010F01010FF10FF141414FF141010108B
:1008D0001F00000000F010FFFFFFFFFFF0F0F0F03E
:1008E000F0FFFFFF0000000000FFFF0F0F0F0F0FD2
:1008F0003844443844FC4A4A4A347E02020606021E
:100900007E027E0263554941633844443C04407E84
:10091000201E2006027E020299A5E7A5991C2A49FD
:100920002A1C4C7201724C304A4D4D303048784888
:1009300030BC625A463D3E494949007E0101017E74
:100940002A2A2A2A2A44445F444440514A444040C7
:10095000444A51400000FF0103E080FF0000080806
:100960006B6B083612362436060F090F0600001886
:10097000180000001010003040FF0101001F0101AD
:100980001E00191D1712003C3C3C3C0000000000FA
:100990007D1D0100632C001E9601A01E5A01001F40
:1009A0000806101F0606201F0806301F0806401FF5
:1009B0000606511F0700591F521F5B1F541F5D1F62
:1009C000561F5F1F601F0806701F0E00BA1FBB1F57
:1009D000C81FC91FCA1FCB1FDA1FDB1FF81FF91F53
:1009E000EA1FEB1FFA1FFB1F801F0806901F080657
:1009F000A01F0806B01F0400B81FB91FB21FBC1FFC
:100A0000CC1F0100C31FD01F0206E01F0206E51F16
:100A10000100EC1FF21F0100FC1F4E2101003221DA
:100A200070211002842101008321D0241A05302C6A
:100A30002F04602C0201672C0601752C0201802C0A
:100A40006401002D260841FF1A03000061001A030B
:100A5000E0001703F8000703FF0001007801000120
:100A6000300132010601390110014A012E017901DC
:100A7000060180014D00430281018201820184014F
:100A8000840186018701870189018A018B018B011D
:100A90008D018E018F0190019101910193019401CB
:100AA000F60196019701980198013D029B019C0176
:100AB0009D0120029F01A001A001A201A201A401A9
:100AC000A401A601A701A701A901AA01AB01AC01DC
:100AD000AC01AE01AF01AF01B101B201B301B3018D
:100AE000B501B501B701B801B801BA01BB01BC013C
:100AF000BC01BE01F701C001C101C201C301C401B3
:100B0000C501C401C701C801C701CA01CB01CA019F
:100B1000CD011001DD0101008E01DE011201F301A2
:100B20000300F101F401F401F8012801220212018D
:100B30003A020900652C3B023B023D02662C3F0253
:100B400040024102410246020A0153024000810173
:100B50008601550289018A0158028F015A029001CB
:100B60005C025D025E025F02930161026202940117
:100B70006402650266026702970196016A02622CAE
:100B80006C026D026E029C01700271029D01730283
:100B900074029F0176027702780279027A027B0260
:100BA0007C02642C7E027F02A60181028202A901DE
:100BB0008402850286028702AE014402B101B201BD
:100BC00045028D028E028F0290029102B7017B03D3
:100BD0000300FD03FE03FF03AC0304008603880348
:100BE00089038A03B1031103C2030200A303A30311
:100BF000C4030803CC0303008C038E038F03D803C4
:100C00001801F2030A00F903F303F403F503F603F2
:100C1000F703F703F903FA03FA033004200350043F
:100C20001007600422018A043601C1040E01CF04BA
:100C30000100C004D0044401610526040000C7007F
:100C4000FC00E900E200E400E000E500E700EA0063
:100C5000EB00E800EF00EE00EC00C400C500C900A6
:100C6000E600C600F400F600F200FB00F900FF0009
:100C7000D600DC00A200A300A500A7209201E1009D
:100C8000ED00F300FA00F100D100AA00BA00BF00A5
:100C90001023AC00BD00BC00A100AB00BB0091253F
:100CA0009225932502252425612562255625552563
:100CB0006325512557255D255C255B2510251425C9
:100CC00034252C251C2500253C255E255F255A252D
:100CD000542569256625602550256C2567256825DE
:100CE0006425652559255825522553256B256A25E8
:100CF00018250C25882584258C2590258025B10371
:100D0000DF009303C003A303C303B500C403A6031A
:100D10009803A903B4031E22C603B5032922612246
:100D2000B1006522642220232123F7004822B0006D
:100D30001922B7001A227F20B200A025A00011249A
:100D40001FBECFEFD0E1DEBFCDBF14E0A0E0B1E029
:100D5000ECEAFEEA02C005900D92A237B107D9F77E
:100D600026E0A2E7B4E001C01D92AE30B207E1F781
:100D70000E94AC490C9444570C94000088E10E94F6
:100D8000371283E28093B00081E08093B100089530
:100D90002F923F924F925F926F927F928F929F928B
:100DA000AF92BF92CF92DF92EF92FF920F931F9379
:100DB000CF93DF9300D000D000D0CDB7DEB76C0169
:100DC00063E070E00E942D4F8091210190912201FB
:100DD000680F791F70938104609380042FEF81EE78
:100DE00094E0215080409040E1F700C0000083E093
:100DF0000E9447128C01009749F02DE1289F1001B5
:100E0000299F300C11242AEA220E311C84E00E9412
:100E10004712809180048093B4008FEF93EC29E017
:100E2000815090402040E1F700C000009FE0892EF3
:100E3000912C28EE422E23E0522E612C712C8AE058
:100E4000A82EB12C19821A8284E00E9447127C01DC
:100E5000892BC1F089819A810D969E838D8397019C
:100E6000A0E8BCE00E94904F69837A838B839C83C7
:100E7000A30192010E94634F8D819E81820F931F77
:100E80009A83898391E0A91AB108F1F689819A8140
:100E90006AE070E00E942D4FCB0101968C159D05F4
:100EA00048F480918004909181040196909381048C
:100EB00080938004CB010197C816D90648F480912D
:100EC0008004909181040197909381048093800421
:100ED000809180048093B4002FEF83EC99E021503F
:100EE00080409040E1F700C0000080911C01882301
:100EF00001F180B11F928F93809181048F93809133
:100F000080048F937F936F933F922F92FF92EF9283
:100F10001F930F938DE491E09F938F9389E292E06A
:100F20009F938F930E942F520FB6F894DEBF0FBE8F
:100F3000CDBF91E0891A910809F081CF83E00E942A
:100F40004712009749F04DE1489F9001499F300DAD
:100F50001124C90186559F4F10928104109280047C
:100F600026960FB6F894DEBF0FBECDBFDF91CF91AE
:100F70001F910F91FF90EF90DF90CF90BF90AF90B7
:100F80009F908F907F906F905F904F903F902F90A9
:100F900008951F93CF93DF93CDB7DEB7C055D10926
:100FA0000FB6F894DEBF0FBECDBF6F961FAD6F9723
:100FB0006A966EAD7FAD6A9768968EAD9FAD689765
:100FC0000E94B3116E966EAD7FAD6E976C968EAD2E
:100FD0009FAD6C970E94BC11812F0E94C5119E018C
:100FE0002E593F4FA2964EAD5FADA29760E570E0DF
:100FF000CE0101960E947F526EE071E0CE01019613
:101000000E940552C05BDF4F0FB6F894DEBF0FBEE3
:10101000CDBFDF91CF911F9108952F923F924F92B4
:101020005F926F927F928F929F92AF92BF92CF9278
:10103000DF92EF92FF920F931F93CF93DF93CDB781
:10104000DEB728970FB6F894DEBF0FBECDBF4C01B8
:101050002B014F83588739015801EA94EF2809F092
:1010600045C08EE997EF9A8389834EE8242E43E7A3
:10107000342E0AE812E5C501880F991F9301281B39
:10108000390B4F815885481B590BB501640D751DEF
:10109000C501880D991D0E94300F10E000E0C301CA
:1010A000840D951D9C838B838F819885880D991D58
:1010B0009E838D83A016B10624F528960FB6F8946A
:1010C000DEBF0FBECDBFDF91CF911F910F91FF907B
:1010D000EF90DF90CF90BF90AF909F908F907F90D8
:1010E0006F905F904F903F902F9008958EE893E718
:1010F0009A8389833EE9232E37EF332E00E114E8EB
:10110000BACF7201E00EF11E6401C00ED11E910132
:101110004F815885B701C6010E94F30E6B817C8117
:10112000601B710B29813A814F815885C6010E944D
:10113000F30E9101A301B701C6010E94B60E2981E9
:101140003A81A301B7018D819E81801B910B0E9482
:10115000B60E0F5F1F4F8F819885029798878F83F8
:1011600092E0691A7108A6CF4F925F926F927F92B8
:101170008F929F92AF92BF92CF92DF92EF92FF92A7
:101180000F931F93CF93DF935C01EB01290148017B
:101190000E940D08EA94EF28D9F120E134E880E0BC
:1011A00090E0DF92CF921F9241E04F933F932F93B5
:1011B0009F938F93C80DD91DC20157FC0196959539
:1011C0008795C80FD91F2497DF93CF93A80CB91C1C
:1011D0009FE0A90EB11CBF92AF920E94C9078DB7C4
:1011E0009EB70C960FB6F8949EBF0FBE8DBFDF91D1
:1011F000CF911F910F91FF90EF90DF90CF90BF9014
:10120000AF909F908F907F906F905F904F900895D8
:101210002AE832E58FEF9FEFC4CF3F924F925F9263
:101220006F927F928F929F92AF92BF92CF92DF92F6
:10123000EF92FF920F931F93CF93DF935C013B01DB
:10124000322ED32F4801C7018430910508F063C0C6
:10125000880F991FFC01EE5CFE4F408051807401A5
:1012600003E010E0232D3D2FB301C5010E940D08BE
:10127000832D9D2F97FD0196EC01D595C7952F974E
:10128000C60DD71D81E090E021E08216910411F097
:1012900090E080E0EE24FF24E81AF90A0EE110E065
:1012A0002EE130E0A201BE01C5010A960E9426107F
:1012B0008A948928A9F52AE832E58FEF9FEFDF921B
:1012C000CF921F9241E04F933F932F939F938F9321
:1012D000DF93CF938DE2A80EB11CBF92AF920E9414
:1012E000C9078DB79EB70C960FB6F8949EBF0FBE78
:1012F0008DBFDF91CF911F910F91FF90EF90DF9005
:10130000CF90BF90AF909F908F907F906F905F90A5
:101310004F903F90089595EA492E93E0592E9FCF24
:1013200020E134E880E090E0CACF4F925F926F9264
:101330007F928F929F92AF92BF92CF92DF92EF9265
:10134000FF920F931F93CF93DF93CDB7DEB728970C
:101350000FB6F894DEBF0FBECDBF69837A838B834F
:101360009C8329013A01ED82FE820F8318878A2C23
:101370009B2C560129813A814B815C8124193509C6
:10138000460957098B8D9C8DAD8DBE8D7C018D01DD
:10139000E818F9080A091B09C801B7010E941D4F86
:1013A0002D813E814F8158852419350946095709F9
:1013B0000E94634FDA01C901880D991DAA1DBB1D4A
:1013C000BC01CD0128960FB6F894DEBF0FBECDBF8D
:1013D000DF91CF911F910F91FF90EF90DF90CF9011
:1013E000BF90AF909F908F907F906F905F904F9045
:1013F00008952F923F924F925F926F927F928F92B9
:101400009F92AF92BF92CF92DF92EF92FF920F9393
:101410001F93CF93DF9300D000D000D0CDB7DEB7BD
:101420003C015B014A0169010D831E8317014D8058
:101430005E80440C551CF12CE12C0D811E81C301F2
:101440000E940D0894012419350926503109D10153
:101450000E94884F24E630E040E050E00E94634F55
:101460008901912C812CC418D50886E0C81AD108AE
:1014700093E0A90EB11C8D819E81A80EB91E860D28
:10148000971D03969A8389838C149D04CCF026962D
:101490000FB6F894DEBF0FBECDBFDF91CF911F9185
:1014A0000F91FF90EF90DF90CF90BF90AF909F9003
:1014B0008F907F906F905F904F903F902F90089506
:1014C000B501680D791D20E030EFA80189819A816E
:1014D0000E94F30E9FEF891A990AD6CFEF92FF92DE
:1014E0000F931F930E94540EEE24EA94FE2C07E102
:1014F00010E024E630E04AE851E065E070E08AED73
:1015000090E00E9426101F910F91FF90EF90089598
:101510001F920F920FB60F9211242F933F934F9368
:101520005F936F937F938F939F93AF93BF93EF934B
:10153000FF938091720490917304019690937304C9
:10154000809372040E949C12FF91EF91BF91AF9122
:101550009F918F917F916F915F914F913F912F91CB
:101560000F900FBE0F901F9018952F923F924F92A1
:101570005F926F927F928F929F92AF92BF92CF9223
:10158000DF92EF92FF920F931F93CF93DF93CDB72C
:10159000DEB7C85CD2400FB6F894DEBF0FBECDBF39
:1015A00041E061E672E08E010F5F1F4FC8010E94AB
:1015B0002E317C01FF928F9384E491E09F938F936F
:1015C0008CE692E09F938F930E942F520F900F9082
:1015D0000F900F900F900F90C953DD4F0883C75C99
:1015E000D240C853DD4F1883C85CD240E114F104E7
:1015F00009F0EBC010E000E03E0121EC621A2DEF93
:10160000720A6E0181E7C81A8DEFD80A5E0199E46B
:10161000A91A9DEFB90A5C2C4D2C3A2C2B2CC953DE
:10162000DD4F4881C75CD240C853DD4F5881C85C4C
:10163000D24060E570E0C3010E948946892BA9F47D
:10164000C953DD4F8881C75CD240C853DD4F9881B4
:10165000C85CD2400E94243E0F31110509F4B8C085
:101660008DEFE82EFF24FA94B3C0F3018081882324
:10167000B1F28332A1F2DF92CF92BF92AF9281E8B2
:1016800092E09F938F937F926F920E9466524C01DB
:101690009F928F93DF92CF92BF92AF9284E491E0BA
:1016A0009F938F938EE892E09F938F930E942F5287
:1016B0000FB6F894DEBF0FBECDBF92E0891691043D
:1016C00009F0A1C063EA72E0832D922D0E94B2510D
:1016D000892B49F4852D942D0E94975090937C047A
:1016E00080937B04016068EA72E0832D922D0E9452
:1016F000B251892B49F4852D942D0E9497509093D7
:1017000078048093770402606DEA72E0832D922D55
:101710000E94B251892B49F4852D942D0E94985135
:101720009093760480937504046062EB72E0832DDD
:10173000922D0E94B251892B41F4852D942D0E9447
:10174000975090932201809321016DEB72E0832DDD
:10175000922D0E94B251892B31F4852D942D0E9437
:10176000975080937F0463EC72E0832D922D0E944A
:10177000B251892B31F4852D942D0E94975080937E
:101780001C0169EC72E0832D922D0E94B251892BCD
:1017900049F4852D942D0E949750909320018093B9
:1017A0001F01086061ED72E0832D922D0E94B251FD
:1017B000892B09F034CF852D942D0E94975090935A
:1017C0001E0180931D0100612ACFEE24EA94FE2CB5
:1017D000C701C853DD4F0FB6F894DEBF0FBECDBFB3
:1017E000DF91CF911F910F91FF90EF90DF90CF90FD
:1017F000BF90AF909F908F907F906F905F904F9031
:101800003F902F9008959EEFE92EFF24FA94E0CFA9
:101810008F929F92AF92BF92CF92DF92EF92FF9200
:101820000F931F93CF93DF93CDB7DEB7C059D2404C
:101830000FB6F894DEBF0FBECDBF7C01D62EC72EEB
:10184000B42EA52E922E832E1F921F920AE311E032
:101850001F930F9389ED92E09F938F930E942F52D5
:1018600042E3B701CE0101960E942E317C01FF9226
:101870008F931F930F9381EF92E09F938F930E941A
:101880002F520FB6F894DEBF0FBECDBFE114F104A6
:1018900009F075C08F929F92AF92BF92CF92DF9264
:1018A00080917C048F9380917B048F938091780446
:1018B0008F93809177048F93809176048F9380919A
:1018C00075048F9389E093E09F938F936E0191EC61
:1018D000C91A9DEFD90ADF92CF920E944352F601B6
:1018E00001900020E9F73197AF014C195D099E0185
:1018F00021573D4FB601CE0101960E94313A1F9209
:101900001F921F930F938CE193E09F938F930E94FC
:101910002F52CE0101960E94E13C1F921F921F930D
:101920000F9384E393E09F938F930E942F52CE01F5
:1019300001960E94243E1F921F921F930F938CE4E6
:1019400093E09F938F930E942F520FB6F894DEBFBF
:101950000FBECDBFC701C057DD4F0FB6F894DEBF35
:101960000FBECDBFDF91CF911F910F91FF90EF90F0
:10197000DF90CF90BF90AF909F908F900895EE240E
:10198000EA94FE2CE7CF8FEF8AB95F9A8AB184611F
:101990008AB9089584B1806B84B9269880E58CBD9E
:1019A0008DB581608DBD5A9A08958EBD0DB407FE28
:1019B000FDCF08959BB19B7E9BB90E94D50C5A9A8E
:1019C00008955C9A5A980E94D50C5A9A0895DF920D
:1019D000EF92FF920F931F93CF93DF93E82ED92EB0
:1019E000D62F172F042FF52EC22F8AE20E94DA0C71
:1019F0008D2D0E94E10C8E2D0E94E10C8F2D0E94F6
:101A0000E10C802F0E94E10C8BE20E94DA0C812F06
:101A10000E94E10C8D2F0E94E10C8C2F0E94E10CA2
:101A20008C2F0E94E10C8CE2DF91CF911F910F91DE
:101A3000FF90EF90DF900C94DA0C5F9A2FEF83EC1D
:101A400099E0215080409040E1F700C000005F988D
:101A50002FEF83EC99E0215080409040E1F700C0E7
:101A600000005F9A2FEF83EC99E021508040904076
:101A7000E1F700C0000008950E94C30C0E94CA0C48
:101A800081E00E94DA0C2FEF83ED90E3215080403B
:101A90009040E1F700C000008BEC0E94DA0C89E373
:101AA0000E94E10C8CE20E94E10C80E00E94E10CBB
:101AB00084E30E94E10C82E00E94E10C8FEC0E9422
:101AC000DA0C80E00E94E10C81EC0E94E10C80E3E2
:101AD0000E94E10C88EE0E94DA0C85E80E94E10C7D
:101AE00080E00E94E10C88E70E94E10C8AEE0E94EF
:101AF000DA0C80E00E94E10C80E00E94E10C8DEEA7
:101B00000E94DA0C84E60E94E10C83E00E94E10C62
:101B100082E10E94E10C81E80E94E10C87EF0E94C3
:101B2000DA0C80E20E94E10C80EC0E94DA0C83E285
:101B30000E94E10C81EC0E94DA0C80E10E94E10C31
:101B400085EC0E94DA0C8EE30E94E10C88E20E9490
:101B5000E10C87EC0E94DA0C86E80E94E10C86E337
:101B60000E94DA0C88E40E94E10C8AE30E94DA0CFD
:101B700085E00E94E10C81EB0E94DA0C80E00E947B
:101B8000E10C88E10E94E10C86EB0E94DA0C88E00F
:101B90000E94E10C82E80E94E10C87E20E94E10CC5
:101BA00082EF0E94DA0C80E00E94E10C86E20E9443
:101BB000DA0C81E00E94E10C80EE0E94DA0C8FE0EA
:101BC0000E94E10C81E30E94E10C8BE20E94E10C97
:101BD0008CE00E94E10C8EE00E94E10C88E00E9403
:101BE000E10C8EE40E94E10C81EF0E94E10C87E39E
:101BF0000E94E10C87E00E94E10C80E10E94E10C70
:101C000083E00E94E10C8EE00E94E10C89E00E94DA
:101C1000E10C80E00E94E10C81EE0E94DA0C80E091
:101C20000E94E10C8EE00E94E10C84E10E94E10C34
:101C300083E00E94E10C81E10E94E10C87E00E94B8
:101C4000E10C81E30E94E10C81EC0E94E10C88E44C
:101C50000E94E10C88E00E94E10C8FE00E94E10C00
:101C60008CE00E94E10C81E30E94E10C86E30E947B
:101C7000E10C8FE00E94E10C81E10E94DA0C2FEF71
:101C80008BED95E0215080409040E1F700C00000CE
:101C900089E20C94DA0CCF93C82F892F0E94E10CB3
:101CA0008C2FCF910C94E10CEF92FF920F931F9326
:101CB000CF93DF93182F092F20912701309128010E
:101CC0004091290150912A01215031094150510977
:101CD00070E060E090E080E00E94E70CD0E0C0E0BF
:101CE0008091290190912A01C817D907B8F0DF9196
:101CF000CF911F910F91FF90EF900895812F902F1A
:101D00000E944B0E8FEFE81AF80A809127019091FC
:101D10002801E816F90690F32196E2CFF12CE12C88
:101D2000F4CFCF93DF93FC01D42FC52F80912901ED
:101D300090912A01E817F907B0F48091270190915A
:101D400028016817790778F49B012F5F3F4FAF0197
:101D50004F5F5F4FCF010E94E70C8D2F9C2FDF91CB
:101D6000CF910C944B0EDF91CF9108950F931F9359
:101D7000CF93DF93FC01EA01122F032F80912901F9
:101D800090912A01E817F90718F5809127019091A1
:101D9000280168177907E0F4209127013091280184
:101DA000CA010197860F971F8217930730F0C091E1
:101DB0002701D0912801C61BD70B9B012150310967
:101DC0002C0F3D1FAF01CF010E94E70C209729F493
:101DD000DF91CF911F910F910895812F902F0E9435
:101DE0004B0E2197F3CF0F931F93CF93DF93FC01FB
:101DF000EA01122F032F8091290190912A01E817FF
:101E0000F90718F580912701909128016817790743
:101E1000E0F42091290130912A01CA0101978E0F27
:101E20009F1F8217930730F0C0912901D0912A019A
:101E3000CE1BDF0BAF01415051094C0F5D1F9B01C1
:101E4000CF010E94E70C209729F4DF91CF911F91D9
:101E50000F910895812F902F0E944B0E2197F3CF61
:101E6000CF92DF92EF92FF920F931F93CF93DF9366
:101E7000FC017A01E9018091290190912A01E8177A
:101E8000F907C0F58091270190912801681779071B
:101E900088F52091290130912A01CA0101978E0FFE
:101EA0009F1F8217930730F0E0902901F0902A01DC
:101EB000EE1AFF0A2091270130912801CE010197E7
:101EC000860F971F8217930730F0C0912701D0919A
:101ED0002801C61BD70B9B01215031092C0F3D1F38
:101EE000AF01415051094E0D5F1DCF010E94E70C1B
:101EF0002097A1F4DF91CF911F910F91FF90EF9068
:101F0000DF90CF900895C8010E944B0E81E0C81A5F
:101F1000D108C114D104B9F72197EACF6701F9CFED
:101F2000CF93C82F86E30E94DA0CC370C23089F0C9
:101F3000C33001F188E4C13069F488E20E94E10C09
:101F400080E491E090932A018093290180EF90E052
:101F50000BC088E80E94E10C80EF90E090932A018A
:101F60008093290180E491E09093280180932701D8
:101F7000CF91089588EEE2CF460F571F4150510987
:101F80000C94B60E480F591F415051090C94F30E92
:101F9000AF92BF92CF92DF92EF92FF920F931F9377
:101FA000CF93DF93EC017B015A01690198010E94F4
:101FB000C20FB7016C0D7D1D615071099801A5011B
:101FC000CE010E94C20F9801A601B701CE010E9466
:101FD000BC0FCE018A0D9B1D9801A601B701019788
:101FE000DF91CF911F910F91FF90EF90DF90CF90F5
:101FF000BF90AF900C94BC0FAF92BF92CF92DF9284
:10200000EF92FF920F931F93CF93DF93D62EC72E9D
:10201000B22EA32EEC017C01E40EF51ECE15DF05D9
:102020005CF0DF91CF911F910F91FF90EF90DF90C7
:10203000CF90BF90AF90089598014B2D5A2D6D2DE4
:102040007C2DCE010E94BC0F2196E8CF2F923F92AB
:102050004F925F926F927F928F929F92AF92BF92B8
:10206000CF92DF92EF92FF920F931F93CF93DF9364
:1020700000D000D000D00F92CDB7DEB72C013B01CD
:102080005A01690109831A83ED822F2CC901079631
:1020900097FD07969C0193E0359527959A95E1F772
:1020A0003C832B83F12CE12C312C10E000E02981C2
:1020B0003A81021713070CF448C027960FB6F8941C
:1020C000DEBF0FBECDBFDF91CF911F910F91FF906B
:1020D000EF90DF90CF90BF90AF909F908F907F90C8
:1020E0006F905F904F903F902F9008958E819F81C9
:1020F000877099273694892B61F4EE81FF8183E004
:10210000F595E7958A95E1F7EE0DFF1DEA0DFB1DAC
:10211000349030FE09C04D81522DB4018E819F81D3
:10212000840D951D0E94910E8E819F8101969F8343
:102130008E832E813F812C153D05C4F20F5F1F4F0A
:102140008B819C81E80EF91EB2CF1F821E82430153
:10215000800E911EEECF8091990490919A049093F5
:1021600091048093900480919704909198049093A7
:102170008F0480938E0408958091990490919A041D
:1021800090938D0480938C0480919704909198048F
:1021900090938B0480938A04089580919904909180
:1021A0009A04909389048093880480919704909175
:1021B00098049093870480938604089580919904ED
:1021C00090919A049093850480938404809197045D
:1021D00090919804909383048093820408952F92A1
:1021E0003F924F925F926F927F928F929F92AF92A7
:1021F000BF92CF92DF92EF92FF920F931F93CF93F4
:10220000DF93CDB7DEB72B970FB6F894DEBF0FBEC6
:10221000CDBF6B01190109831A838A879B8780913F
:10222000290190912A012A853B852817390708F052
:1022300069C080912701909128016817790708F0FB
:1022400061C0C90136E0E39E800D911D112418166E
:1022500019060CF057C08E2D90E09D838C83E8E02A
:10226000EE9EC0011124860F971F181619060CF058
:1022700049C0F5E04F9FA00111249A012B563B4F16
:102280003F832E836A847B841B82CB0108969987C7
:1022900088875C804D809B81F12C953019F0EE8110
:1022A000FF81F49056014601F0FE45C0F1E0A10126
:1022B0008101EF124EC0B501C3010E94910EF69448
:1022C0008C819D81880E991E9FEFA91AB90AE88515
:1022D000F985EA15FB0541F7FB81FF5FFB832A8542
:1022E0003B858C819D81280F391F3B872A879FEF73
:1022F000691A790AEE81FF813196FF83EE83FB81B3
:10230000F63049F62B960FB6F894DEBF0FBECDBF60
:10231000DF91CF911F910F91FF90EF90DF90CF90C1
:10232000BF90AF909F908F907F906F905F904F90F5
:102330003F902F90089529813A812215330509F4A1
:10234000BECF31E009811A81E31203C049815A816D
:10235000B2CF252D342D452D542DB4018A859B8572
:102360000E94300FACCF90939A048093990470939D
:10237000980460939704089590939604809395042D
:1023800070939404609393040895893028F4811124
:1023900001C081E0809392040895EF920F931F9300
:1023A000482F8A30C1F48091920420919704309193
:1023B000980448E0849FC0011124820F931F9093DA
:1023C00098048093970410929A04109299041F9194
:1023D0000F91EF9008958D30D1F3E0909204009129
:1023E0009304109194042091950430919604609187
:1023F0009704709198048091990490919A040E9496
:10240000EF10209192048091990490919A0436E003
:10241000239F800D911D112490939A048093990419
:10242000D6CF0E94CD1181E090E008951092C500B2
:1024300083E38093C40086E08093C20088E98093A0
:10244000C1000895CF93C82F8A3019F48DE00E94FF
:1024500022128091C00085FFFCCFC093C600CF91AF
:1024600008950E94221281E090E0089518958093CB
:102470007E00EAE7F0E0808187608083ACE7B0E02F
:102480008C9180648C938081806C8083089590917E
:102490007C00907F90937C0090917C008770892BCA
:1024A00080937C0080917A00806480937A00809190
:1024B0007A0086FDFCCF2091780030917900C90127
:1024C0000895811103C00E946B14089581E008955E
:1024D000811103C00E94BC13089581E008950F93F9
:1024E0001F93E82FCB01BA01A9019801E11105C0A2
:1024F0000E946E141F910F91089584E090E0FACF2E
:102500000F931F93E82FCB01BA01A9019801E111A4
:1025100005C00E941E151F910F91089584E090E060
:10252000FACF982F862FBA01911103C00E94EE15A1
:10253000089584E090E008950E944D1808958EBD9E
:102540000DB407FEFDCF8EB508952C9A8FEF0E9433
:102550009F1208950F931F93CF93DF938C01EB018C
:1025600084E180939E048FEF0E949F128F3F39F485
:1025700080919E048111F7CF90E080E01CC08E3FD7
:10258000D9F7F8018FEF8EBD0DB407FEFDCF9EB5D4
:1025900090838EBD0DB407FEFDCF9EB5918322972B
:1025A0003296209781F78FEF0E949F128FEF0E9443
:1025B0009F1281E090E0DF91CF911F910F910895DC
:1025C000F89482E390E090939D0480939C04789427
:1025D0008FEF0E949F12F89420919C0430919D04EB
:1025E00078948F3F11F0232B99F721E030E08F3F53
:1025F00011F030E020E0C9010895CF93DF932C98CB
:102600008FEF0E949F120E94E012EC01892B31F49F
:102610000E94A512CE01DF91CF910895C1E0D0E0D4
:10262000F9CFFF920F931F93CF93DF93C82FD42F2F
:10263000152F062FF72E87FF09C040E050E0BA01A2
:1026400087E30E941113823048F5CF77CC3059F5DB
:102650008C2F80640E949F128F2D0E949F12802FCA
:102660000E949F12812F0E949F128D2F0E949F1205
:1026700085E9CC2321F087E8C83009F081E00E9489
:102680009F12CC3019F48FEF0E949F12CAE08FEF97
:102690000E949F1287FF02C0C150C9F7CDB7DEB7B5
:1026A000E5E00C9439500E94A5120E94FD12892B7E
:1026B00079F68FEFF3CF1F93CF93DF93182FD92F96
:1026C000C62F1F928BEF8F938EE591E09F938F9390
:1026D00081E494E09F938F930E942F520E94E01216
:1026E0009C010F900F900F900F900F900F90892BDF
:1026F000F1F18C2F0E949F1221E030E0CD3FB9F123
:10270000E12FFD2FCF019E5F20812EBD0DB407FE6E
:10271000FDCF21812EBD0DB407FEFDCF3296E81707
:10272000F90791F78FEF0E949F128FEF0E949F127F
:102730008FEF0E949F12C82F81E08F9385E08F93C7
:102740008EE591E09F938F9381E494E09F938F9324
:102750000E942F52CF7181E00F900F900F900F9039
:102760000F900F90C53009F080E0282F30E0C901AC
:10277000DF91CF911F910895A4E0B0E0E2ECF3E186
:102780000C941A508AE080939E0480919E048111DB
:10279000FCCF80912B0181FF06C080912B012496F4
:1027A000E8E00C9436508DB583608DBD1AE08FEF54
:1027B0000E949F121150D9F740E050E0BA0180E02A
:1027C0000E941113082F813009F071C084E68093B4
:1027D0009E044AEA51E060E070E088E00E94111334
:1027E000813009F041C08E010F5F1F4F6E0185E0FF
:1027F000C80ED11C78018FEF0E949F12F7018193C0
:102800007F01EC15FD05B9F78B81813009F04FC0D0
:102810008C818A3A09F04BC080919E04882349F04C
:1028200040E050E060E070E489EA0E9411138111F9
:10283000F3CF80919E048823D1F140E050E0BA01AB
:102840008AE30E941113811132C08FEF0E949F1200
:10285000F80181938F01EC15FD05B9F7898114E02A
:1028600086FF26C01CE024C040E050E0BA0189EA9F
:102870000E94111311E0823010F412E009EA8091F5
:102880009E04882341F040E050E0BA01802F0E946E
:1028900011138111F4CF80919E04882341F040E010
:1028A00052E060E070E080E10E941113811110E0BD
:1028B00010939B040E94A512112309F46ECF8091FE
:1028C0002B018E7F80932B018DB58C7F8DBD8DB5B7
:1028D00081608DBD62CF80912B010895B0E0A0E0B2
:1028E000E4E7F4E10C9415508C014A015B01E90125
:1028F000772473947F9289E98F933CE7C32E31E06C
:10290000D32EDF92CF9241E4E42E44E0F42EFF92E6
:10291000EF920E942F520F900F900F900F900F90F8
:102920000F9084E0209709F481C080912B0180FDF5
:1029300083C07F928CE98F93DF92CF92FF92EF92C8
:102940000E942F5280919B040F900F900F900F9038
:102950000F900F9083FD07C029E0880C991CAA1CDA
:10296000BB1C2A95D1F791E1F92EC130D10511F0A8
:1029700082E1F82E81E08F9381EA8F938CE791E0DA
:102980009F938F9381E494E09F938F930E942F52A3
:10299000B501A4018F2D0E9411130F900F900F907D
:1029A0000F900F900F90811127C060E072E0C80176
:1029B0000E94AA12892B19F01E5F2197B1F781E0BE
:1029C0008F9387EA8F938CE791E09F938F9381E4B5
:1029D00094E09F938F930E942F520F900F900F902F
:1029E0000F900F900F9082E1F81206C040E050E087
:1029F000BA018CE00E9411130E94A51281E08F930E
:102A00008BEA8F938CE791E09F938F9381E494E01E
:102A10009F938F930E942F5281E00F900F900F9001
:102A20000F900F900F90CD2B09F480E090E0CDB780
:102A3000DEB7EDE00C94315083E0F8CFB0E0A0E0D9
:102A4000E4E2F5E10C9415508C014A015B01E901C7
:102A5000772473947F928FEB8F939DE6C92E91E03C
:102A6000D92EDF92CF9221E4E22E24E0F22EFF92C3
:102A7000EF920E942F520F900F900F900F900F9097
:102A80000F9084E0209709F467C080912B0180FDAE
:102A9000A1C080912B0182FD9FC07F9284EC8F9317
:102AA000DF92CF92FF92EF920E942F5280919B046F
:102AB0000F900F900F900F900F900F9083FD07C015
:102AC00089E0880C991CAA1CBB1C8A95D1F781E06F
:102AD000C130D10509F046C08F9389EC8F938DE604
:102AE00091E09F938F9381E494E09F938F930E9452
:102AF0002F52B501A40188E10E9411130F900F908D
:102B00000F900F900F900F90811161C06EEFC80170
:102B10000E945B139C0191E0232B09F090E0C92FE8
:102B200080E0D82F0E94A51281E08F938BED8F93C8
:102B30008DE691E09F938F9381E494E09F938F9330
:102B40000E942F5281E00F900F900F900F900F90E6
:102B50000F90CD2B09F480E090E0CDB7DEB7EDE02B
:102B60000C9431508F9380ED8F938DE691E09F937D
:102B70008F9381E494E09F938F930E942F528091D2
:102B80009B0486700F900F900F900F900F900F90F6
:102B900031F0AE0170E060E087E90E941113B501E9
:102BA000A40189E10E9411138111BCCF6CEFC8010F
:102BB0000E945B13892B19F01E5F2197B9F76DEF07
:102BC00090E080E00E945B13892B09F0ABCFC1E05D
:102BD000D0E0A8CF83E0C0CF82E0BECFA0E1B0E0DC
:102BE000E4EFF5E10C941A50E82F8B0180912B0152
:102BF00080FD50C2EA3350F4E23358F4E33009F474
:102C000092C080F4EE23B1F0E130E9F004E010E08E
:102C100008C1E353E73008F0FEC0F0E0EA5BF84A91
:102C20000C94824FE73091F780912B018160809363
:102C30002B01F5C00E94FD129C0191E0232B09F4A9
:102C4000DCC190E0DAC140E050E0BA0189E00E94C6
:102C50001113882319F001E010E036C060E170E044
:102C6000CE0101960E94AA12892BA9F3998192950F
:102C700096959695937029856A858885913039F562
:102C800030E0322F2227260F311D90E0B0E0A0E087
:102C9000DC019927882788279927AF73BB270196DE
:102CA000A11DB11D820F931FA11DB11D2AE0880F28
:102CB000991FAA1FBB1F2A95D1F7F8018083918322
:102CC000A283B38310E000E00E94A512AAC022955F
:102CD000269526952370F4E08F9FC0011124820F62
:102CE000911D01964F8150E0542F4427550F550FE9
:102CF00044275C70840F951FB0E0A0E02E812F70F8
:102D00003B85331F3327331F230F2E5F660F6670FB
:102D1000260F2950330B04C0880F991FAA1FBB1F11
:102D20002A95D2F7CACFF0909B0440E050E0BA0158
:102D3000F2FE21C08DE80E94111381118CCF8FEF1C
:102D40000E949F1260E170E0CE0101960E94AA12DB
:102D5000892B09F480CF60E3F62E8FEF0E949F123B
:102D6000FA94F110FACF2B8522952F7080E190E034
:102D7000A0E0B0E0D0CF89E00E94111381116BCFA9
:102D800060E170E0CE0101960E94AA12892B09F43D
:102D900062CF8B8590E02C85F1FE19C0880F991FBA
:102DA0008E779927221F2227221F2F5F820F911DC6
:102DB0002E8522952695269523702150330B02C02F
:102DC000880F991F2A95E2F7B0E0A0E076CFF8E0EF
:102DD0002F9FA00111244871552722952695277011
:102DE000240F352F311D2F5F3F4F95958795959572
:102DF00087958F7199270196289FA001299F500DD3
:102E0000389F500D112470E060E0F8014083518339
:102E10006283738357CF80919B04FB01808310E012
:102E200000E0C8016096E8E00C94365040E050E0C5
:102E3000BA0189E00E94111360E170E081110BCFAB
:102E4000C8010E94AA12F8CE40E050E0BA018AE020
:102E5000F1CF40E050E0BA018AE30E9411138111E2
:102E6000FACE7801F4E0EF0EF11C68010F5F1F4FFE
:102E70008FEF0E949F12F6018083E016F106A9F7FA
:102E800021CF40E050E0BA018DE80E94111381117A
:102E9000E2CE8FEF0E949F1260E470E0D1CFFB0181
:102EA0004381548165817681A9E0440F551F661FD7
:102EB000771FAA95D1F78181928101979170B0E037
:102EC000A0E0482B592B6A2B7B2B808190E0B0E04F
:102ED000A0E02CE1880F991FAA1FBB1F2A95D1F7EC
:102EE000842B952BA62BB72BAC01BD01706880E31A
:102EF0000E9411138111AFCE84E680939E048FEF60
:102F00000E949F128F3F29F480919E048111F7CF78
:102F1000A2CE8E3F09F09FCEF801E780F084C180F9
:102F2000D280CE0CDF1CEC14FD0489F4F801818101
:102F3000928102E012E0081B190B0115110509F43A
:102F4000C3CE8FEF0E949F1201501109F6CF8FEF71
:102F50000E949F12F70181937F01E5CFFB0143811E
:102F600054816581768139E0440F551F661F771FB4
:102F70003A95D1F78181928101979170B0E0A0E0FC
:102F8000482B592B6A2B7B2B808190E0B0E0A0E08E
:102F9000ECE1880F991FAA1FBB1FEA95D1F7842B7C
:102FA000952BA62BB72BAC01BD01706881E30E9465
:102FB0001113811150CE8FEF0E949F128EEF0E944D
:102FC0009F12F801E780F084C180D280CE0CDF1C14
:102FD000EC14FD04A9F4F8018181928102E012E071
:102FE000081B190B8FEF0115110581F40E949F1228
:102FF0008F7191E0853009F424CE092F10E064CE62
:10300000F70181917F010E949F12E2CF0E949F12DF
:1030100001501109E7CFFB01408150E070E060E012
:103020008CE1440F551F661F771F8A95D1F7828167
:1030300090E0B0E0A0E0482B592B6A2B7B2B8381DA
:103040009481A581B68129E0880F991FAA1FBB1F13
:103050002A95D1F7842B952BA62BB72BAC01BD015C
:10306000746881E30E9411138111F5CD8FEF0E94E6
:103070009F128EEF0E949F12F80181810E949F1281
:1030800001E012E08FEF0E949F1201501109D1F769
:103090008FEFACCF03E010E0C4CE80919E04882374
:1030A00019F0815080939E0480919C0490919D041E
:1030B000009729F0019790939D0480939C04809140
:1030C0002B01897F80932B010895A4E0B0E0EBE60B
:1030D000F8E10C942050FC01208131814281538120
:1030E000CA01B9012496E2E00C943C50FC01208115
:1030F00031814281538164817581868197810895F0
:103100000F931F93FC010083118322833383448335
:103110005583668377831F910F9108959C01480F13
:10312000591FF9012F5F3F4F608324173507C9F7F7
:103130000895CF93DF939C01FB01480F591FE901CC
:103140002F5F3F4F888190813196891B990B2417FF
:10315000350711F0009799F3DF91CF910895A4E01E
:10316000B0E0E5EBF8E10C942050FC019A01AB01D2
:10317000225031094109510987A190A5A1A5B2A505
:103180000297A109B109281739074A075B0700F51B
:10319000A185B2850E94A64F69837A838B839C8325
:1031A00083AD94ADA5ADB6AD29813A814B815C81EB
:1031B000280F391F4A1F5B1F29833A834B835C8387
:1031C00069817A818B819C812496E2E00C943C5049
:1031D00019821A821B821C82F3CF9C01AC01455FCD
:1031E0005F4F80E080FB879587F9F9012F5F3F4FA4
:1031F0009081890F24173507A9F70895FC012181D3
:1032000030E02F5F3F4F85E0220F331F8A95E1F7B3
:1032100090E080E050E040E04230510581F080FBDA
:103220009795879597F9DF01A40FB51F6C91860FCD
:10323000911D4F5F5F4F4217530770F3089543E0AE
:1032400050E0F7CFCF93DF93DC01ED91FC91119724
:10325000309771F0CF01EC01288101962032A8F05F
:103260002A33C9F79F012E5F3F4F8217930719F04A
:103270008FEF9FEF07C020812033D1F78D939C9370
:1032800090E080E0DF91CF9108958091FF0590E07C
:10329000F9CF0F931F93CF93DF93EC018B01892B11
:1032A00061F489E090E030E020E0F8013183208390
:1032B000DF91CF911F910F910895E881F9813097A7
:1032C00081F38081882369F32A813B8185819681FE
:1032D0002817390731F781810E94611280FDE1CF03
:1032E0002881398190E080E0E0CF0F931F93CF9346
:1032F000DF93EA01890145EB51E00E94F5489C010A
:103300008F3F910579F070F00230110590F0382769
:10331000232732273983288382E0DF91CF911F91C1
:103320000F910895009729F0012B19F0888381E00F
:10333000F4CF80E0F2CFA6E0B0E0E1EAF9E10C944E
:103340001E508D839E83AD81BE810D911C91F8012D
:1033500021918F01822F90E0222331F065EB71E003
:103360000E941F49009799F09C0150E040E029839A
:103370003A834B835C83AD81BE810D931C9369813D
:103380007A818B819C812696E4E00C943A502FEF51
:103390003FEFA90129833A834B835C83F0CFA6E0FA
:1033A000B0E0E5EDF9E10C941E5010E000E08D83F3
:1033B0009E83ED81FE8181919191FE83ED83009743
:1033C00029F4C8012696E4E00C943A509C0150E0A0
:1033D00040E029833A834B835C83CA01B9010E9490
:1033E0003649462F572FC80180FB9795879597F947
:1033F0008A011127080F191F00FB1795079517F968
:10340000452F5527040F151F8D819E81D0CF9B011D
:10341000FC01460F571FD9012F5F3F4F8C918193BD
:1034200024173507C1F70895B0E0A0E0EAE1FAE11A
:103430000C941650EC018B81811108C0F12CE12C09
:10344000C701CDB7DEB7ECE00C9432506E0147E413
:10345000C40ED11C5E0153E4A50EB11CF501208100
:1034600031814281538101E010E0B60189810E94DF
:1034700080127C01892B59F51B82F5010081118195
:10348000228133818BA59CA5ADA5BEA58BA89CA848
:10349000ADA8BEA8B901A801481959096A097B0954
:1034A0004A015B0188169906AA06BB0638F66A81AE
:1034B000623021F6A9019801280F391F4A1F5B1FAE
:1034C00001E010E0B60189810E948012B9CFEE249C
:1034D000E394F12CB5CFB0E0A0E0E1E7FAE10C9481
:1034E00018505C016A017B01EC01CD5BDF4F8881E4
:1034F0009981AA81BB8130E020E08C159D05AE0545
:10350000BF05F1F0C5010E94141A9C01892BC1F47A
:10351000B501695B7F4F01E010E0A7019601F5015D
:1035200081810E946F129C01892B31F021E030E0F3
:10353000CC24CA94DC2C7601C882D982EA82FB8230
:10354000C901CDB7DEB7EAE00C943450AEE0B0E08C
:10355000ECEAFAE10C94105089879A870D831E8358
:103560002F8338874A015B0122E0821A9108A10863
:10357000B108E985FA8587A190A5A1A5B2A5029712
:10358000A109B10988169906AA06BB0618F0812C74
:10359000912C540189829A82AB82BC8275016401AC
:1035A000412C512C320129843A84FFE32F0E311C27
:1035B00011E0F10180819181A281B381B701A6015F
:1035C0003CE076956795579547953A95D1F7480F22
:1035D000591F6A1F7B1F89859A850E946B1A892B48
:1035E00009F07AC0D701C60123E0B695A795979553
:1035F00087952A95D1F79170960127703327F12F7F
:1036000001C0FF0F2A95EAF72F2FA985BA85979653
:103610004D915D916D917C919A974250510961094C
:1036200071094B875C876D877E87E985FA85E80F8E
:10363000F91FE95BFF4F30813223BFEFCB1ADB0A62
:10364000EB0AFB0A4B855C856D857E85220FC416CF
:10365000D506E606F70630F0C12CD12C760180E0C5
:1036600092E020E0311122C05FEF451A550A650A49
:10367000750A4D815E816F81788544165506660610
:103680007706D9F469817A818B819C816E5F7F4F47
:103690008F4F9F4F69837A838B839C8369817A8163
:1036A0008B819C812E96E2E10C942C50C982DA82A7
:1036B000EB82FC82412C512C32018C149D04AE040F
:1036C000BF0491F02111B1CF0196811572E09707E7
:1036D00008F06FCF21E0A9CF8FEF9FEFDC01898346
:1036E0009A83AB83BC83DACF19821A821B821C8235
:1036F000D5CFB0E0A0E0EFE7FBE10C9410506C01F7
:103700004801590117014250510961097109FC0131
:10371000FF962A013B018CE0769467945794479476
:103720008A95D1F780819181A281B381480E591E7B
:103730006A1E7B1EDB01CA0123E0B695A79597950B
:1037400087952A95D1F7917047705527C1E001C040
:10375000CC0F4A95EAF7D1E0A201B3018C012FEF1B
:10376000421A520A620A720AC6010E946B1A009734
:1037700039F5A601400F511FFA01E95BFF4F608147
:10378000762F7C2321E030E009F420E02215330578
:10379000F1F0495B5F4F6C27FA016083F601D38338
:1037A000F1E08F1A9108A108B10861F0CC0F09F778
:1037B0000F5F1F4FC1E0011522E01207D1F6CCCFF9
:1037C00081E090E0CDB7DEB7E2E10C942C5082E0CE
:1037D00090E0F8CFA7E0B0E0E0EFFBE10C941050F0
:1037E000FC016A017B0122E0C216D104E104F1046C
:1037F000D8F0808191819E838D83DC0197964D91D5
:103800005D916D917C919A97C416D506E606F706F0
:1038100058F48C91833009F4F3C058F4813009F4E2
:1038200073C0823009F4C8C061E070E080E090E0CD
:1038300086C08430C9F73284438454846584768496
:1038400007851089B189BF83232D342D452D562D31
:10385000672D702F812F9B2FA0E025800E948B5019
:1038600041F04681578160857185452B462B472B5A
:1038700011F42110D9CF46815781608571854601A9
:103880005701841A950AA60AB70AAD81BE81199616
:103890000D90BC91A02DBA83A983B2E02B12DBC09E
:1038A000232D342D452D562D672D702F812F9F816F
:1038B000AFEF0E946D5009E00E944950722F632FB4
:1038C000942F852FE981FA819F0150E040E07983B0
:1038D0006A839B838C8369817A818B819C810E941E
:1038E000414F281539054A055B0508F49DCF82161E
:1038F0009306A406B50609F4EEC0C701B6016F5FD2
:103900007F4F8F4F9F4F1BC08601169507950C0D5B
:103910001D1DC801892F99278695ED81FE8143A938
:1039200054A965A976A9480F591F611D711DCF01C2
:103930000E946B1A892B39F06FEF7FEFCB0127962E
:10394000E2E10C942C505801FFEFAF1ABF0AF801C6
:10395000F1708D819E81E80FF91FE95BFF4F1081A7
:10396000C501892F99278695AD81BE81D3964D914A
:103970005D916D917C91D697480F591F611D711D06
:10398000CD010E946B1A892BB9F6B1E0BB22ED8103
:10399000FE81EA0DFB1DE95BFF4F8081782F612FCF
:1039A000C0FE08C054E0769567955A95E1F790E01F
:1039B00080E0C5CF7F70FBCF77276F2D5E2D4D2D1B
:1039C000ED81FE8183A994A9A5A9B6A9480F591F25
:1039D0006A1F7B1FCF010E946B1A892B09F0ACCFA5
:1039E000CC0CDD1CE894C0F8F1E0DF228D819E81D3
:1039F0008C0D9D1D895B9F4FDC016D917C91D7CF14
:103A0000ED81FE8183A994A9A5A9B6A9B701A60154
:103A100027E076956795579547952A95D1F7480FF2
:103A2000591F6A1F7B1FCF010E946B1A892B09F057
:103A300083CF8D819E81895B9F4FCC0CDD1CCC0C8C
:103A4000DD1CFCEFCF22F1E0DF228C0D9D1D0E94DA
:103A500065189F7074CF23E022120AC0828993896F
:103A6000A489B58988169906AA06BB0608F445CF2D
:103A700086899789A08DB18D892B8A2B8B2B59F53F
:103A8000ED81FE8183A994A9A5A9B6A9B701A601D4
:103A900037E076956795579547953A95D1F7480F52
:103AA000591F6A1F7B1FCF010E946B1A892B09F0D7
:103AB00043CF8D819E81895B9F4FCC0CDD1CCC0C4C
:103AC000DD1CFCEFCF22F1E0DF228C0D9D1D0E945A
:103AD00065189F7734CF6FEF7FEF8FEF9FE72FCF82
:103AE000B0E0A0E0E6E7FDE10C941250EC016A01C1
:103AF0007B0108811981D8018C9140E050E060E29F
:103B000070E0843021F440E050E060E070E1C416E1
:103B1000D506E606F70638F082E090E0CDB7DEB7CE
:103B2000E0E10C942E50B701A6014F71552766278E
:103B30007727452B462B472B79F7CEA2DFA2E8A6A5
:103B4000F9A68E809F80A884B98481149104A10471
:103B5000B10409F056C0833008F046C0F8018781EF
:103B60009085B0E0A0E0B701A601E5E07695679505
:103B700057954795EA95D1F7481759076A077B0784
:103B800058F6F80187A990ADA1ADB2AD8EA79FA759
:103B9000A8ABB9AB8AA69BA6ACA6BDA64EA55FA551
:103BA00068A979A9411551056105710509F4B4CFDA
:103BB000D701C60129E0B695A795979587952A95CF
:103BC000D1F7840F951FA61FB71F8EA79FA7A8AB7D
:103BD000B9AB095B1F4FF1E0DF22C00ED11EDBAA9B
:103BE000CAAA90E080E09ACFF80187A990ADA1AD74
:103BF000B2AD1D820097A105B10509F4AFCF4C010C
:103C00005D01D80119964D905C90712C612C39E0C2
:103C1000440C551C661C771C3A95D1F7B501A401DC
:103C2000C414D504E604F70440F4C8010E94AF1898
:103C30006EA77FA788AB99ABADCFCE010E94EA1BE0
:103C40004B015C01BFEF8B169B06AB06BB06B9F0C0
:103C5000E2E08E169104A104B10408F45DCFF801EE
:103C600087A190A5A1A5B2A588169906AA06BB06AC
:103C700008F052CFC418D508E608F708CFCF81E086
:103C800090E04CCFEF92FF920F931F93CF93DF936F
:103C90008C01FC011382ED5BFF4F8FEF9FEFDC0186
:103CA00080839183A283B383C8010E946B1AEC01C5
:103CB000892BC1F5F801EB5BFD4F80819181853542
:103CC0009A4A99F5780127E4E20EF11C4BE050E0A6
:103CD0006BE474E0C7010E949918892B49F1F70140
:103CE00080818B3E19F0885E823028F543E050E0F9
:103CF00067E574E0C80183589F4F0E949918892B8B
:103D000059F045E050E06BE574E0C80187569F4FDD
:103D10000E949918892B79F4CE01CDB7DEB7E6E081
:103D20000C943850C4E0D0E0F7CFC3E0D0E0F4CF3B
:103D3000C1E0D0E0F1CFC2E0D0E0EECFA6E0B0E04D
:103D4000E4EAFEE10C9410505C016A017B01280159
:103D5000390122E0C216D104E104F10408F400C1E3
:103D6000FC0187A190A5A1A5B2A5C816D906EA06AF
:103D7000FB0638F48081823009F492C038F4813037
:103D800071F022E030E03E832D837DC0835082308D
:103D900008F4A7C042E050E05E834D8374C08A01FE
:103DA00016950795040F151FC801892F9927869529
:103DB000D501D3964D915D916D917C91D697480F29
:103DC000591F611D711DC5010E946B1A8D839E8351
:103DD000ED81FE81EF2B09F056C01501F7E42F0E9F
:103DE000311C48012FEF821A920A1170F101E00F85
:103DF000F11F842DA70196012170332744275527F1
:103E000029833A834B835C83C0FE07C080818F7017
:103E100040E1449E90011124822B808381E0D501F2
:103E200013968C931397D3964D915D916D917C91E0
:103E3000D697C401892F99278695480F591F611D70
:103E4000711DC5010E946B1A8D839E83ED81FE81D9
:103E5000EF2BC9F4F1E09F22F101E80DF91D298152
:103E60003A814B815C81232B242B252B91F054E04C
:103E700076946794579447945A95D1F7408281E09D
:103E8000D50113968C938D819E812696E2E10C9448
:103E90002C508081807F352D3F70432E482AEECFF5
:103EA00077276F2D5E2D4D2D83A994A9A5A9B6A9BD
:103EB000480F591F6A1F7B1FC5010E946B1A8D8313
:103EC0009E832D813E81232BF1F6F601EE0FFF1F1D
:103ED000EE7FF170EA0DFB1DE95BFF4F118300835C
:103EE000CECF83A994A9A5A9B6A927E07695679511
:103EF000579547952A95D1F7480F591F6A1F7B1F81
:103F0000C5010E946B1A8D839E832D813E81232BD8
:103F100009F0B9CFCC0CDD1CCC0CDD1C3CEFC3226E
:103F200031E0D322C501895B9F4FC80ED91ED50150
:103F30008C91843079F0C6010E946518BFE07B2225
:103F4000DC01CB0188279927AA27B07F482A592A64
:103F50006A2A7B2AF60140825182628273828FCF65
:103F6000E2E0F0E0FE83ED838ECFB0E0A0E0EBEB8B
:103F7000FFE10C941250EC016A017B01B02EA12EDE
:103F8000922E832E2A013B0182E0480E511C611CB7
:103F9000711C8FEFC81AD80AE80AF80A8E899F891F
:103FA000A88DB98D0097A105B10539F490E080E0A6
:103FB000CDB7DEB7E0E10C942E5081309105A1051C
:103FC000B105F1F093018201081B190B2A0B3B0B81
:103FD000B701A601481B590B6A0B7B0B888199819D
:103FE0000E949E1E009721F78E899F89A88DB98D0A
:103FF0000197A109B1098E8B9F8BA88FB98FCECF66
:104000000B2D1A2D292D382DE3CFA6E0B0E0EBE0E3
:10401000F0E20C9412506C0149835A836B837C83C9
:10402000DC010D90BC91A02DBE83AD8389819A8166
:10403000AB81BC81892B8A2B8B2BE9F4AD81BE81AE
:104040001F964D905D906D907C9052974114510455
:104050006104710459F097968D919D910D90BC91DA
:10406000A02D481659066A067B06A0F1412C512C5A
:10407000320143942FC049815A816B817C81C601F2
:104080000E94EA1B4B015C01B2E08B169104A10473
:10409000B10450F4812C912C54018394C501B401D6
:1040A0002696E0E10C942E50EFEF8E169E06AE069B
:1040B000BE0609F4A3C1ED81FE8187A190A5A1A54B
:1040C000B2A588169906AA06BB0640F349805A8015
:1040D0006B807C80ED81FE8183899489A589B68976
:1040E000892B8A2B8B2B21F4812C912C5401D6CF38
:1040F000AD81BE818C91843009F0C8C001E010E030
:1041000020E030E0B301A201CD010E94A61A4B01CC
:104110005C01DC01CB010197A109B1098E3F9F4FE2
:10412000AF4FBF4F08F0BACFEE24E394F12C01E07B
:1041300010E020E030E0B501A4018D819E810E9455
:10414000791B9C018230910509F4A4CF019709F4F1
:1041500055C189819A81AB81BC81892B8A2B8B2B9C
:1041600041F482E0D60115968C93232B09F092CF6F
:1041700063C0F60185818230C1F4D301C20101968A
:10418000A11DB11D88159905AA05BB0571F386818E
:104190009781A085B185481A590A6A0A7B0A428A22
:1041A000538A648A758A83E08583F60186899789B4
:1041B000A08DB18D49815A816B817C814F5F5F4FAA
:1041C0006F4F7F4F481559056A057B0591F400979D
:1041D000A105B10549F00196A11DB11DF601868B1F
:1041E000978BA08FB18FC1CF82E090E0A0E0B0E0CC
:1041F000F5CF892B8A2B8B2B49F481E090E0A0E04E
:10420000B0E0F601868B978BA08FB18F950184016A
:1042100049815A816B817C81C6010E94B51F9C0136
:10422000892B09F0E7C081E090E0A0E0B0E0F60162
:10423000868B978BA08FB18FAD81BE811F968D929B
:104240009D92AD92BC925297FD0183899489A58974
:10425000B68947A150A561A572A5425051096109CF
:104260007109481759076A077B0738F00197A109B8
:10427000B109838B948BA58BB68BAD81BE811496CF
:104280008C911497816014968C9308CF89819A81C0
:10429000AB81BC81481659066A067B0609F047C007
:1042A000530142019FEF891A990AA90AB90AED81BF
:1042B000FE8187A190A5A1A5B2A588169906AA0698
:1042C000BB0628F022E0822E912CA12CB12CB50146
:1042D000A401C6010E94EA1B462F572FBC014130A2
:1042E00051056105710509F4D5CE4F3FFFEF5F071A
:1042F0006F077F0709F482C0452B462B472B09F433
:1043000052C0ED81FE8187859089A189B289823072
:104310009105A105B10558F047A150A561A572A569
:1043200084179507A607B70710F42C013D01530128
:104330004201FFEF8F1A9F0AAF0ABF0AED81FE818B
:1043400087A190A5A1A5B2A588169906AA06BB06C5
:1043500060F0F2E04F1651046104710408F4C4CE19
:1043600092E0892E912CA12CB12CB501A401C6019B
:104370000E94EA1B462F572FBC01411551056105CC
:104380007105B9F0413051056105710509F482CE1E
:104390004F3F5F4F6F4F7F4F89F184149504A60400
:1043A000B70439F6A1CE81149104A104B10409F433
:1043B000BECF0FEF1FEF9801B501A4018D819E8143
:1043C0000E949E1E9C01892BA9F489819A81AB8150
:1043D000BC810097A105B10509F42ECF9501840198
:1043E000AC01BD018D819E810E949E1E9C01892B86
:1043F00009F422CF2130310509F04CCE88248A946B
:10440000982C54014BCEAAE0B0E0E9E0F2E20C9423
:1044100010508D839E834B01AD81BE81AD90BC90C9
:10442000119796964D905D906D907C909997B0E223
:104430004B0E511C611C711CF5018081843009F404
:1044400053C080E090E0A0E2B0E0481659066A064A
:104450007B0640F0AD81BE819E961D921D921D92FD
:104460001C92D197ED81FE8186A597A5A0A9B1A93F
:104470000097A105B105A9F1B301A201517066270A
:104480007727452B462B472B09F0E3C00196A11D4A
:10449000B11D86A797A7A0ABB1AB42A553A564A554
:1044A00075A5D501411551056105710511F51796E1
:1044B0008D919C91B0E0A0E0B301A20135E076952A
:1044C0006795579547953A95D1F7481759076A0761
:1044D0007B0708F4BEC0ED81FE8116A617A610AAC0
:1044E00011AA84E090E02BC080E090E0A0E0B0E171
:1044F000ACCF19968D919C910197B0E0A0E073012B
:10450000620129E0F694E794D794C7942A95D1F7ED
:104510008C219D21AE21BF21892B8A2B8B2B09F069
:1045200098C08D819E810E94EA1B6B017C01B2E0E4
:10453000CB16D104E104F10430F482E090E02A9635
:10454000E2E10C942C50EFEFCE16DE06EE06FE06EE
:1045500019F481E090E0F3CFF50187A190A5A1A522
:10456000B2A5C816D906EA06FB0608F45FC0811496
:10457000910409F4B0CFAD81BE819A964D915D91C1
:104580006D917C919D97CD010E9405206B017C016E
:1045900087E090E0C114D104E104F10481F2B1E0BC
:1045A000CB16D104E104F10441F2EFEFCE16DE06A2
:1045B000EE06FE0671F2C5010E94141A4C01892B09
:1045C00041F6B701A601C5010E94AF1869837A833D
:1045D0008B839C83F501ED5BFF4F89819A81AB81D1
:1045E000BC8180839183A283B383150197E4290E54
:1045F000311C40E052E070E060E0C1010E948E1882
:10460000F5018185928588169906C8F1D50119961C
:104610008D919C918816990609F09BCFAD81BE8142
:1046200015968C911597846015968C93ED81FE817B
:10463000C2A6D3A6E4A6F5A6B701A601C5010E94AD
:10464000AF18AD81BE819E966D937D938D939C93A3
:10465000D197ED81FE8146A257A260A671A6F7E42C
:10466000AF0EB11C81E058224A0C5B1CAD81BE81AB
:10467000D3965C924E92D29790E080E060CF01E0BA
:1046800010E029813A814B815C81280D391D411D43
:10469000511DB10181810E948012892B09F0B6CF92
:1046A000AFEF8A1A9A0AACCFB0E0A0E0EAE5F3E2F5
:1046B0000C9418508C01FC0180819181FC01C5840F
:1046C000D684F80146A557A560A971A90E946B1A66
:1046D000EC01892B09F099C0F80162A973A9FB01CB
:1046E0008081853809F08FC040E250E0C6010E9409
:1046F000071AF601E180F12CFFEFEF1AFF0A25E01F
:10470000EE0CFF1C2A95E1F7C70180569109813014
:10471000924008F078C070E060E0C8010E94032277
:10472000EC018430910509F46EC0892B09F06DC04D
:10473000F80146A557A560A971A9808191810E94C1
:104740006B1AEC01892B09F060C0F80162A973A90A
:10475000FB018081803C09F056C040E250E0C60178
:1047600080960E94071AF60183A190E08C966FE074
:1047700070E00E942D4F95E0660F771F9A95E1F744
:10478000E616F70608F43FC080E4A82EB12C70E0CE
:1047900060E0C8010E940322EC018430910599F188
:1047A000892B99F5F80146A557A560A971A98081C3
:1047B00091810E946B1AEC01892B39F5F80162A9ED
:1047C00073A9FB018081813CF1F4F0EEAF16B104D6
:1047D00038F440E250E0C6018A0D9B1D0E94071A82
:1047E00020E2A20EB11CAE14BF0488F281EEA8161E
:1047F000B10458F4C6010E94FE18F60122813381EB
:104800008217930711F0C2E0D0E0CE01CDB7DEB73A
:10481000EAE00C9434500F931F93CF93DF93EC0195
:10482000FB018081918199838883828D938DA48DF2
:10483000B58D8E839F83A887B987068D178D20A19C
:1048400031A10D8300270A871B872C873D871E8691
:104850001F86188A198A1E8A1F8A188E198E42A1ED
:1048600053A164A175A1FE01E05CFF4F4083518319
:1048700062837383CE010E94701D9C01892B21F4F9
:10488000CE010E9454239C01C901DF91CF911F9159
:104890000F910895B0E0A0E0E0E5F4E20C9412502E
:1048A000EC016B01E880F98088248A9455245A949D
:1048B00004E010E0BDE04B2E89E2682E82E0782E05
:1048C0005E0180E4A80EB11C4EA55FA568A979A978
:1048D000411551056105710521F401151105C1F05E
:1048E000B4C0C7010E946B1A8C01892B09F0ADC0BE
:1048F000EAA9FBA99080992009F4C8C0D7018C913E
:10490000843059F5C114D10459F0B3E89B1294C016
:1049100010E000E0C801CDB7DEB7E0E10C942E5006
:10492000E5E89E1289C08EA19FA1A8A5B9A5FE01A8
:10493000E05CFF4F80839183A283B383CE010E940A
:1049400054238C01892B09F080C0D7011D96ED916D
:10495000FC9184818F738C83DDCF23852F732C830F
:10496000B5EE9B1609F479C08EE2981609F475C06D
:1049700081E090E0322F3F71383009F080E08C15F3
:104980009D0509F06AC02F3009F06EC096FE62C026
:104990008584E89496F84EA15FA168A579A5D50114
:1049A0004D935D936D937C9313978585881155C0C6
:1049B000828D938D892B09F050C0D7011B964D91A4
:1049C0005C9120812F7B2150330B429EC001439E7E
:1049D000900D11240CE112E021E030E0D8016D913E
:1049E0008D016E0F7F2F711DDB016D917C91211563
:1049F0003105B1F18034910580F59C01220F331F00
:104A0000240F351FD9016D937C939B01019660168D
:104A1000710621F7608166FF0CC0232B51F08034B2
:104A20009105D8F4880F991F840F951FFC011182FE
:104A3000108255245A94590C60E070E0CE010E9417
:104A400003228C01892B09F43FCF1EA61FA618AAAA
:104A500019AA60CF591409F4A8CF55245A94ECCF61
:104A60006F3F7F4FA1F2F9CF511006C0CF010E94D6
:104A7000ED18881509F44CCFC05CDF4F8FEF9FEF26
:104A8000DC0188839983AA83BB8344CF04E010E0D0
:104A9000DCCFB0E0A0E0EFE4F5E20C9418508C011C
:104AA0007B01DC01CD90DC9040E050E0BA010E9437
:104AB000701DEC01892BF1F4F80146A557A560A9FA
:104AC00071A9C6010E946B1A5C01009751F5D801CB
:104AD000D296ED91FC918081F60190819430B9F4E9
:104AE00087FF19C061E070E0C8010E940322EC0159
:104AF000892B59F0C430D10511F4C7E0D0E0CE01C4
:104B0000CDB7DEB7EAE00C943450E501D5CF853E51
:104B100011F08111E7CF2196CE15DF0521F05E015E
:104B2000E1CFEC01E7CFD0E0C0E0E9CFB0E0A0E01A
:104B3000ECE9F5E20C9419508C01DC01ED91FC914B
:104B4000E584F684C7010E94FE18F70193838283EF
:104B5000C180F801E05CFF4F408151816281738127
:104B6000C8010E94701DEC01D12CBB24B394209786
:104B700051F0CE01239710F082E090E0CDB7DEB780
:104B8000E9E00C943550D8019E964D915D916D9160
:104B90007C91D1978D919C910E946B1AEC01892B8D
:104BA00041F740E250E0B701F80182A993A90E94C1
:104BB000071AD801ED91FC91B382C114D104C9F256
:104BC000B0E2EB0EF11C70E060E0C8010E9403222D
:104BD000EC01E1E0CE1AD108CACFAEE0B0E0E3EFDD
:104BE000F5E20C9410504C01DC010D90BC91A02D0D
:104BF000BE83AD8340E050E0BA010E94701D1C01ED
:104C0000892BB9F4ED81FE818081843009F07EC06A
:104C1000838594850E94CF196C0170E060E0C40127
:104C20000E944A248F839887AF81B885109731F00E
:104C30001D01C1012E96E2E10C942C50AD81BE8184
:104C40001D96ED91FC9183A1803438F724A135A104
:104C5000C216D30611F7E82EF12C00E410E0AF8065
:104C6000B884AA0CBB1C8F8198858E159F0569F4AA
:104C7000AD81BE811B968D919C91A80EB91EF50148
:104C800080819181892B49F6D4CFC8018F719927F2
:104C9000892B11F40E5F1F4FAD81BE811D96ED91E2
:104CA000FC91E00FF11F808191819C0150E040E078
:104CB00029833A834B835C83CA01B9010E94364938
:104CC0002B013C01AD81BE811B968D919C91A80E5C
:104CD000B91EF501808191819C0150E040E0CA013C
:104CE000B9010E94364969837A838B839C83461677
:104CF00057066806790609F090CF0E5F1F4F4F8167
:104D000058854F5F5F4F58874F83A9CF8401005C60
:104D10001F4F8FEF9FEFDC01F80180839183A28307
:104D2000B383CC24CA94FFEFF98394012C5C3F4FEA
:104D30003E872D87D4019E964D915D916D917C911A
:104D4000D1978D819E810E946B1A9C01892B09F05D
:104D5000C4C0F401E2A8F3A8D701DC90DD2009F477
:104D600000C11B969C91892F8F738483B5EEDB164F
:104D700021F093FF0EC08F3079F02FEFF8012083E0
:104D80003FEF31834FEF42835FEF53838FEF898390
:104D90009BC08F3009F0B1C0D401DF968C91DF97B2
:104DA00086FD92C0D6FE9BC0F701C584E894D6F874
:104DB00096968D919D910D90BC91A02DF8018083C8
:104DC0009183A283B383D7011D968C911D978C117B
:104DD000DDCF5A968D919C915B97892B09F0B5C0D8
:104DE000ED81FE81638474848C918F738150990B63
:104DF0004DE0489F9001499F300D112438872F8343
:104E00003CE1432E32E0532E81E090E0D2012D911F
:104E10002D01F701E20FF11DA080B180009709F488
:104E200065C0EF81F885E034F10508F091C050E0ED
:104E300040E0CA01B5010E94364969837A838B83B9
:104E40009C834F8158854F5F5F4F5C874B878F8175
:104E50009885880F991F860D971DDC018D919C9177
:104E60009C0150E040E0CA01B9010E9436496F83BD
:104E7000788789879A8729813A814B815C812617B7
:104E800037074807590709F066C0C5014B855C859F
:104E900058874F83A9E24A16A2E05A0609F0B6CF16
:104EA000F701208126FF0EC0892B61F02F81388504
:104EB000220F331F260D371DD9018D919C91892B0F
:104EC00009F04CC0DA94D98270E060E0C4010E941D
:104ED00003229C01892B09F42DCF1901AACEF98157
:104EE000FD1509F470CF5FEF5983EECF5FEFA51684
:104EF000B50681F2EFEFE983E7CFB981B11106C0C2
:104F0000C7010E94ED188C1509F493CEF40187AD0A
:104F100080FD0AC04BE050E06D857E85C7010E9490
:104F20009918892B09F485CEEFEFD801EC93FFEFA8
:104F30001196FC9311972FEF12962C9312973FEF37
:104F400013963C934FEF4983BFCF9FEF9983BCCF1C
:104F5000AFEFA983B9CFBFEFB983B6CFFFEFF98326
:104F6000B3CF84E0282E312C64CEB0E0A0E0EBEB90
:104F7000F7E20C941650EC018D81833091F44E8150
:104F80005F8168857985CA88DB88EC88FD88C40ED6
:104F9000D51EE61EF71E4C155D056E057F0541F416
:104FA0001D8290E080E0CDB7DEB7ECE00C9432508B
:104FB0004A015B018FEF881A980AA80AB80A95017E
:104FC0008401888199810E949E1E009761F7B50136
:104FD000A401E1CFAFE2B0E0E0EFF7E20C941050B3
:104FE0006B01142FDB011D921C920E9422197C017F
:104FF0008BE090E0F7FC21C0F701EE0FFF1FEE5FA2
:10500000F94F808091808CE090E081149104A9F0A8
:10501000F601918280821E7FD4018C91882389F0D1
:1050200011968C910E94611280FD0BC0112309F42E
:1050300056C282FF54C28AE090E0AF96E2E10C943F
:105040002C50F4011082E1828E2D0E94681280FDA6
:1050500011C4112311F082FDEECF40E050E0BA01FF
:10506000C4010E94421E9C018230910509F085C155
:105070007401F3EFEF1AFDEFFF0A8E010F5F1F4F70
:10508000540123EBA21A2DEFB20A6801C7010E9456
:105090006518D6016D937D938D939D936D01B0E15D
:1050A000EB0EF11CEA14FB0489F77801E0E1EE0E47
:1050B000F11CD8014D915D916D917D918D0123E0A1
:1050C00030E0411551056105710509F44EC1C40177
:1050D0000E94421E9C01029708F047C1F401ED5B5B
:1050E000FF4F40805180628073803F9621303105B0
:1050F00009F0F8C1940129573F4F8191811146C1B0
:10510000E217F307D1F7F401E155FF4F8081918158
:105110008115914009F03AC1F401ED54FF4F8081AF
:10512000893009F033C1C40181579F4F0E9476181E
:1051300059016A017B018C01A301920160E070E0DA
:10514000CB01498A3A8B6B8A5C8B6D8B7E8B8F8B04
:10515000988F60E070E080E090E00E94645029A3A6
:105160003DA349A75DA7362E272E8EA79FA72F3FC9
:105170003F4F4F4F5F4F610571058105910511F05C
:1051800008F004C1C40185569F4F0E946518F401C0
:1051900063A774A785A796A7EB54FF4F8081D4011E
:1051A00012968C93813009F0F1C03197808101E033
:1051B00010E002C0000F111F8A95E2F7F401128778
:1051C00001870115110509F4E1C0C4018D559F4FF8
:1051D0000E9465186B017C01FEEFCF16FFEFDF0622
:1051E000EF06FFE7FF0608F0D1C0DC01CB01029615
:1051F000A11DB11DF40187A390A7A1A7B2A747A63F
:1052000050AA61AA72AAC40181569F4F0E946518D4
:10521000640D751D861D971D698B7A8B8B8B9C8BFE
:10522000F40163AF74AF85AF96AFC40189569F4F49
:105230000E946518460E571E681E791ED401D3962B
:105240004D925D926D927C92D697D801A7019601FE
:105250000E94A64F9B01AC0160E070E0CB01298F5A
:105260003A8F4B8F5C8F6D8F7E8F8F8F98A349897C
:105270005A896B897C899A01AB0160E070E0CB01AF
:10528000298B3A8B4B8B5C8B6D8B7E8B8F8B988FA6
:10529000298D3A8D4B8D5C8D60E070E080E090E070
:1052A000A988BA88CB88DC88E12CF12C00E010E0DA
:1052B0000E946450A9A0BDA0C9A4DDA4E32CF22CD7
:1052C0000EA51FA50E94825011F008F05FC0C40116
:1052D00089559F4F0E946518D401D7966D937D9391
:1052E0008D939C93DA97C12CD12C7601412C512CB3
:1052F0003201C114D104E104F10429F5F4018185DE
:105300009285B0E0A0E0481659066A067B06F0F5E3
:1053100047A950AD61AD72ADC4010E94AF18698B51
:105320007A8B8B8B9C8BAB01BC01440D551D661D8C
:10533000771DC4010E946B1A892B11F5FFEF4F1ADC
:105340005F0A6F0A7F0AF401EC0DFD1DE95BFF4F58
:1053500080818138F1F020E2C20ED11CE11CF11CE9
:1053600031E0D322EE24FF24C4CF0E151F0509F02F
:10537000A0CE2430310551F403C08430910519F4D6
:1053800081E090E05ACE029708F4A8CE8DE090E03C
:1053900054CE8401095B1F4F44E1C40ED11CC801E7
:1053A0008C0D9D1D0E9465186B017C0152E0C51695
:1053B000D104E104F10450F3F40187A190A5A1A563
:1053C000B2A5C816D906EA06FB0600F75401FFE3AA
:1053D000AF0EB11CF401A185B285A7019601225040
:1053E0003109410951090E94A64F698B7A8B8B8B39
:1053F0009C8B83AD94ADA5ADB6AD29893A894B8917
:105400005C89820F931FA41FB51FF50180839183D0
:10541000A283B383F40183A994A9A5A9B6A9B7016E
:10542000A601E7E07695679557954795EA95D1F7F8
:10543000480F591F6A1F7B1FC4010E946B1A892BDA
:1054400009F09ECFC6018F779927880F991F880F83
:10545000991F800F911F0E946518462F572FBC017E
:105460004F3FFFEF5F076F077F0759F02FEFC21A1B
:10547000D20AE20AF20A4C155D056E057F0551F26B
:1054800085CFD40153964D935D936D937C9356973E
:10549000F4014787508B618B728B04E010E0D401DC
:1054A0000C9380910006909101060196909301065D
:1054B0008093000616969C938E9315978FE994E03F
:1054C0001C969C938E931B978FE195E01E969C9360
:1054D0008E931D97F401178A108E118E128E90E014
:1054E00080E0ABCD808191818115924009F04ECF53
:1054F000F401E35AFF4F808191819C0150E040E02C
:10550000298B3A8B4B8B5C8B892B49F4C4018559D1
:105510009F4F0E946518698B7A8B8B8B9C8B498976
:105520005A896B897C89D4019B964D935D936D93C9
:105530007C939E97F401E95AFF4F0081F4010283A6
:105540008FEF800F823008F021CFEC5AFF4F10818F
:10555000812F90E01A969C938E931997009709F4E7
:1055600015CF9C012150310982239323892B09F007
:105570000DCF349620803180F40130862782C1011E
:105580008F709927892B09F001CFE65AFF4F808150
:1055900091816C01F12CE12C892B39F4C4018959DA
:1055A0009F4F0E9465186B017C01F401EB5AFF4F7D
:1055B0000190F081E02D309709F4E8CEA02FB0E003
:1055C00029893A894B895C890E94A64F69A77AA7E5
:1055D0008BA79CA79F0150E040E029A33AA34BA3CF
:1055E0005CA3C10164E0969587956A95E1F7280F61
:1055F000391F411D511DDA01C90149A55AA56BA5E5
:105600007CA5480F591F6A1F7B1F498F5A8F6B8FCC
:105610007C8FC416D506E606F70608F4B7CED70188
:10562000C601841B950BA60BB70B8DA39EA3AFA33E
:10563000B8A7C12ED12CF12CE12CBC01CD01A701C2
:1056400096010E94414F6DA17EA18FA198A56C1576
:105650007D058E059F0508F499CE263F7FEF37071D
:1056600047077FE0570708F091CE03E010E0263FA0
:105670008FEF38074105510550F401E010E0263F57
:105680006FE036074105510510F002E010E06901B6
:105690007A0192E0C90ED11CE11CF11CD40197964D
:1056A000CD92DD92ED92FC929A97F40147A650AA12
:1056B00061AA72AA89A19AA1ABA1BCA1840D951D72
:1056C000A61DB71D83AB94ABA5ABB6AB498D5A8D68
:1056D0006B8D7C8D440D551D661D771D43AF54AFFA
:1056E00065AF76AF0330110509F092C0EF58FF4F58
:1056F00080819181282A392A2114310409F046CE6B
:10570000C4018D589F4F0E946518D401D7966D93A0
:105710007D938D939C93DA9742E0CC0CDD1CEE1CBC
:10572000FF1C4A95D1F72FEFC20E21E0D21EE11CDB
:10573000F11C89E0F694E794D794C7948A95D1F741
:1057400049895A896B897C894C155D056E057F05F1
:1057500008F41CCE8FEF9FEFDC01F401838B948B58
:10576000A58BB68B8787908BA18BB28B80E88483C7
:105770000330110509F093CEE958FF4F80819181E4
:10578000019709F08CCEB301A2014F5F5F4F6F4FBD
:105790007F4FC4010E946B1A892B09F080CED4017F
:1057A00014961C92F401EB5BFD4F8081918185354D
:1057B0009A4A09F074CEC401895B9F4F0E94651814
:1057C000623572458146914409F069CEC401855D18
:1057D0009D4F0E946518623772478144914609F0D7
:1057E0005ECEC401815D9D4F0E946518D401539621
:1057F0006D937D938D939C935697C4018D5C9D4FC3
:105800000E946518F4016787708B818B928B47CE5D
:105810002114310409F4BACD29A53AA54BA55CA5FC
:10582000820F931FA41FB51F87AB90AFA1AFB2AF7C
:105830000230110529F4CC0CDD1CEE1CFF1C73CFCB
:10584000A3E0B0E0A70196010E94A64F698F7A8F6E
:105850008B8F9C8FDC01CB01B695A795979587958B
:10586000F1E0CF22DD24EE24FF24C80ED91EEA1E6B
:10587000FB1E59CF83E090E0E0CBB0E0A0E0E3E492
:10588000FCE20C9410501C014A015B01FC01C08138
:10589000D181F2E08F169104A104B10440F422E01A
:1058A00030E0C901CDB7DEB7E2E10C942C508FA1F6
:1058B00098A5A9A5BAA588169906AA06BB0678F7E1
:1058C0002A013B0175016401B501A401C1010E94D7
:1058D000EA1B4B015C0181149104A104B10439F469
:1058E0008881843009F467C030E020E0DACF81E0BD
:1058F00088169104A104B10491F2EFEF8E169E0672
:10590000AE06BE0609F45AC088818430E1F58B8961
:105910009C89AD89BE894FA158A569A57AA5425039
:1059200051096109710984179507A607B707C0F1E6
:10593000FFEFCF1ADF0AEF0AFF0A8C149D04AE04B2
:10594000BF04B1F08881843089F49701860104197D
:10595000150926093709F12CE12CB301A201CE016A
:105960000E94791B9C01892B09F09BCF24013501F2
:105970008FA198A5A9A5BAA588169906AA06BB065F
:1059800008F4A0CFADCF00E010E09801B701A60168
:10599000CE010E949E1E9C01892B09F4B8CF81CFB5
:1059A0000196A11DB11D8B8B9C8BAD8BBE8B8C8109
:1059B00081608C83BDCFF101158296CF21E030E06C
:1059C00070CF0F931F93CF93DF938C01EB01C4969D
:1059D0000E9465186E837F8388879987C801C8965F
:1059E0000E9476182A873B874C875D876E877F8762
:1059F000888B998BD80191968C9182708D831E8AA9
:105A00001F8A188E198EDF91CF911F910F910895E3
:105A10000F931F93282FFB01628D738D90E080E020
:105A2000233059F40489158930E020E098011127CA
:105A30000027602B712B822B932B1F910F910895C0
:105A4000A7E5B0E0E6E2FDE20C9410508C012B01DA
:105A5000DC010D90BC91A02D2C96BFAFAEAF2C9762
:105A6000FB0180818F3211F08C3581F49201290184
:105A7000D9018C912F5F3F4F8F32C9F38C35B9F329
:105A8000F80116821782108611860DC02C96EEAD95
:105A9000FFAD2C978789908DA18DB28DF8018683FB
:105AA0009783A087B187D80156961D921D921D92AB
:105AB0001C9259972C96EEADFFAD2C9780818430C7
:105AC00009F058C016968D919D910D90BC91A02D16
:105AD000892B8A2B8B2B09F44DC0838D948DA58D3A
