:100000000C946E030C948B030C948B030C948B0355
:100010000C948B030C948B030C948B030C948B0328
:100020000C948B030C948B030C948B030C948B0318
:100030000C948B030C948B030C948B030C948B0308
:100040000C948B030C948B030C948B030C948B03F8
:100050000C94194A0C948B030C948B030C948B0313
:100060000C948B030C948B030C948B030C948B03D8
:100070000C948B030C948B030C948B03610E460D34
:100080007C11D81247145815DF3747168527C52825
:100090000A298536FC291A2A062B202F883488172E
:1000A0006835E3283A33E719651AE31A611BDF1B49
:1000B0005D1CDB1C591DD71D551ED31E511FCF1FA4
:1000C0004D20CB204921C7214522C3224123BF23F4
:1000D0003D24BB243925B7253526B3263227000019
:1000E0000000003E5B4F5B3E3E6B4F6B3E1C3E7C18
:1000F0003E1C183C7E3C181C577D571C1C5E7F5EC6
:100100001C00183C1800FFE7C3E7FF001824180084
:10011000FFE7DBE7FF30483A060E2629792926401B
:100120007F050507407F05253F5A3CE73C5A7F3E47
:100130001C1C08081C1C3E7F14227F22145F5F00D9
:100140005F5F06097F017F006689956A6060606075
:100150006094A2FFA29408047E040810207E201060
:1001600008082A1C08081C2A08081E101010100C69
:100170001E0C1E0C30383E3830060E3E0E060000B7
:1001800000000000005F00000007000700147F145B
:100190007F14242A7F2A12231308646236495620CA
:1001A000500008070300001C2241000041221C00EF
:1001B0002A1C7F1C2A08083E0808008070300008AE
:1001C00008080808000060600020100804023E5182
:1001D00049453E00427F4000724949494621414914
:1001E0004D331814127F1027454545393C4A49497B
:1001F0003141211109073649494936464949291EE5
:1002000000001400000040340000000814224114D3
:1002100014141414004122140802015909063E4125
:100220005D594E7C1211127C7F494949363E41414D
:1002300041227F4141413E7F494949417F090909A6
:10024000013E414151737F0808087F00417F410012
:100250002040413F017F081422417F404040407FC1
:10026000021C027F7F0408107F3E4141413E7F090E
:100270000909063E4151215E7F091929462649494F
:10028000493203017F01033F4040403F1F2040208F
:100290001F3F4038403F631408146303047804038D
:1002A0006159494D43007F4141410204081020003B
:1002B0004141417F040201020440404040400003AC
:1002C00007080020545478407F2844443838444478
:1002D0004428384444287F385454541800087E0970
:1002E0000218A4A49C787F0804047800447D400090
:1002F0002040403D007F1028440000417F40007CAA
:10030000047804787C080404783844444438FC18A1
:1003100024241818242418FC7C0804040848545485
:10032000542404043F44243C4040207C1C204020B2
:100330001C3C4030403C44281028444C9090907C19
:100340004464544C4400083641000000770000002B
:100350004136080002010204023C2623263C1EA16D
:10036000A161123A4040207A3854545559215555CC
:10037000794122545478422155547840205455797B
:10038000400C1E527212395555555939545454590E
:1003900039555454580000457C410002457D4200C7
:1003A00001457C407D1211127DF0282528F07C54F7
:1003B0005545002054547C547C0A097F49324949F0
:1003C00049323A4444443A324A4848303A41412159
:1003D0007A3A42402078009DA0A07D3D4242423DB5
:1003E0003D4040403D3C24FF2424487E4943662B49
:1003F0002FFC2F2BFF0929F620C0887E09032054EB
:100400005479410000447D413048484A32384040E8
:10041000227A007A0A0A727D0D19317D2629292F48
:1004200028262929292630484D4020380808080860
:1004300008080808382F10C8ACBA2F102834FA0062
:10044000007B000008142A142222142A1408AA008F
:100450005500AAAA55AA55AA000000FF00101010C6
:10046000FF00141414FF001010FF00FF1010F01014
:10047000F0141414FC001414F700FF0000FF00FF38
:100480001414F404FC141417101F10101F101F1460
:1004900014141F00101010F0000000001F101010A6
:1004A000101F10101010F010000000FF101010109E
:1004B0001010101010FF10000000FF140000FF00CB
:1004C000FF00001F10170000FC04F414141710178D
:1004D0001414F404F40000FF00F71414141414149A
:1004E00014F700F7141414171410101F101F14140D
:1004F00014F4141010F010F000001F101F00000082
:100500001F14000000FC140000F010F01010FF1089
:10051000FF141414FF141010101F00000000F0103E
:10052000FFFFFFFFFFF0F0F0F0F0FFFFFF00000023
:100530000000FFFF0F0F0F0F0F3844443844FC4AF0
:100540004A4A347E02020606027E027E0263554952
:1005500041633844443C04407E201E2006027E0253
:100560000299A5E7A5991C2A492A1C4C7201724CD4
:10057000304A4D4D303048784830BC625A463D3E96
:10058000494949007E0101017E2A2A2A2A2A444437
:100590005F444440514A444040444A51400000FFB7
:1005A0000103E080FF000008086B6B083612362458
:1005B00036060F090F060000181800000010100082
:1005C0003040FF0101001F01011E00191D1712001C
:1005D0003C3C3C3C00000000006E616E00696E66B1
:1005E0000000407A10F35A00A0724E18090010A5BE
:1005F000D4E80000E87648170000E40B540200003D
:10060000CA9A3B000000E1F50500008096980000C2
:100610000040420F000000A08601000000102700EB
:10062000000000E803000000006400000000000A71
:1006300000000000000100000000002C76D888DCDB
:10064000674F0823DFC1DFAE59E1B1B796E5E3E4B8
:1006500053C63AE651997696E8E6C28426EB898C31
:100660009B62ED407C6FFCEFBC9C9F40F2BAA56F93
:10067000A5F490055A2AF75C936B6CF9676DC11B62
:10068000FCE0E40D47FEF520E6B500D0ED902E032A
:1006900000943577050080841E080000204E0A0073
:1006A0000000C80C333333330F986E12831141EFBF
:1006B0008D2114893BE65516CFFEE6DB18D1844B1D
:1006C000381BF77C1D901DA4BBE424203284725E8D
:1006D000228100C9F124ECA1E53D270011241FBEB1
:1006E000CFEFD0E1DEBFCDBF14E0A0E0B1E0E2E3A8
:1006F000F4EC02C005900D92A430B107D9F718E0D0
:10070000A4E0B4E001C01D92A53FB107E1F70E944B
:10071000BA0B0C9417620C940000469A0895479AFD
:10072000469A8AEF90E020E931E0F9013197F1F73C
:100730000197D9F7469888EC90E020E931E0F9017B
:100740003197F1F70197D9F7469A8AEF90E020E9BF
:1007500031E0F9013197F1F70197D9F7469888EC24
:1007600090E020E931E0F9013197F1F70197D9F7ED
:100770004798089596B192959F7090959170809149
:100780006304882329F4992319F081E080930404F9
:1007900090936304089596B192959695977090956D
:1007A000917080916204882329F4992319F081E0E3
:1007B0008093050490936204089596B1969596955A
:1007C00096959095917080916104882329F49923DE
:1007D00019F081E08093060490936104089590914C
:1007E0005604913009F03CC180910E04882361F4D5
:1007F00080913A04882341F4809152038093B40895
:1008000090930E0490933A0490910E04913069F401
:1008100080913A04882349F4809152038093A6087A
:1008200082E080930E0490933A0480910E0482300B
:1008300071F480913A04882351F48091520380939B
:10084000C00883E080930E0481E080933A04809195
:100850000E04833071F480913A04882351F480911E
:1008600052038093ED0784E080930E0481E080932F
:100870003A0480910E04843071F480913A04882304
:1008800051F4809152038093620785E080930E04B7
:1008900081E080933A0480910E04853071F4809158
:1008A0003A04882351F4809152038093360786E0FE
:1008B00080930E0481E080933A0480910E04863088
:1008C00071F480913A04882351F48091520380930B
:1008D000C90787E080930E0481E080933A048091F9
:1008E0000E04873071F480913A04882351F480918A
:1008F00052038093DF0788E080930E0481E08093A9
:100900003A0480910E04883071F480913A0488236F
:1009100051F4809152038093840889E080930E04FF
:1009200081E080933A0480910E04893071F48091C3
:100930003A04882351F4809152038093B5088AE0E9
:1009400080930E0481E080933A0480910E048A30F3
:1009500039F480913A04882319F481E080933A04B1
:1009600080913A04882309F47BC0809152039091CE
:1009700053038C35910509F073C010923A0481E459
:1009800090E090935303809352038DB79EB74A979C
:100990000FB6F8949EBF0FBE8DBFEDB7FEB7319670
:1009A00080E298E0ADB7BEB712969C938E931197F4
:1009B0008AE090E09383828380E091E09583848352
:1009C0008091B408992787FD9095978386838091BD
:1009D000A608992787FD9095918780878091C00808
:1009E000992787FD9095938782878091ED079927B6
:1009F00087FD90959587848780916207992787FD69
:100A000090959787868780913607992787FD9095DF
:100A1000918B808B8091C907992787FD9095938B47
:100A2000828B8091DF07992787FD9095958B848B2A
:100A300080918408992787FD9095978B868B80916C
:100A4000B508992787FD9095918F808F0E94356119
:100A50008DB79EB74A960FB6F8949EBF0FBE8DBF56
:100A60000895CF92DF92EF92FF920F931F9383E04E
:100A7000809335040E94E8408CE090E06EE670E0E0
:100A80000E94D64080E090E06FEF77E00E94DF4068
:100A900000D085E191E0EDB7FEB7928381830E949B
:100AA000E460589A469A0F900F908EE190E06EE6BF
:100AB00070E00E94D64000D097E2C92E91E0D92E76
:100AC000EDB7FEB7D282C1820E94E4605898469882
:100AD0000F900F908EE190E06EE670E00E94D6409D
:100AE00000D088E3E82E81E0F82EEDB7FEB7F28261
:100AF000E1820E94E460589A469A0F900F908EE12E
:100B000090E06EE670E00E94D64000D009E411E06B
:100B1000EDB7FEB7128301830E94E46058984698AF
:100B20000F900F908EE190E06EE670E00E94D6404C
:100B300000D0EDB7FEB7D282C1820E94E460589A1D
:100B4000469A0F900F908EE190E06EE670E00E9462
:100B5000D64000D0EDB7FEB7F282E1820E94E46099
:100B6000589846980F900F908EE190E06EE670E0F6
:100B70000E94D64000D0EDB7FEB7128301830E94D9
:100B8000E460589A469A0F900F908EE190E06EE6DE
:100B900070E00E94D64000D0EDB7FEB7D282C1828D
:100BA0000E94E460589846980F900F908EE190E074
:100BB0006EE670E00E94D64000D0EDB7FEB7F2823C
:100BC000E1820E94E460589A469A0F900F908EE15D
:100BD00090E06EE670E00E94D64000D0EDB7FEB720
:100BE000128301830E94E460589846980F900F90FA
:100BF0008EE190E06EE670E00E94D64000D0EDB746
:100C0000FEB7D282C1820E94E460589A469A0F9041
:100C10000F908EE190E06EE670E00E94D64000D02A
:100C2000EDB7FEB7F282E1820E94E46058984698E0
:100C30000F900F908EE190E06EE670E00E94D6403B
:100C400000D0EDB7FEB7128301830E94E460589A8A
:100C50000F900F901F910F91FF90EF90DF90CF902A
:100C6000089580910D04882351F48EE68093440307
:100C70008091C607809331048EE690E00BC08130EE
:100C800099F58CE8809344038091C60780933204E1
:100C90008CE890E06CE170E00E94D64080E29DEF2D
:100CA00060E070E00E94DF4082E00E94E84000D0F7
:100CB00000D0EDB7FEB731968AE591E0ADB7BEB78B
:100CC00012969C938E9311978091C607828313820C
:100CD0000E94E46080910D048F5F80930D040F905B
:100CE0000F900F900F900895823041F5609131047C
:100CF0008AE0689FB001112480913204680F711D51
:100D000070932A046093290488E090E00E94F461C3
:100D100010920D048EE68093440380E090E00E94E0
:100D20009F391092310410923204109251041092A3
:100D3000500481E080935603809354040895809179
:100D40000D04882351F48EE6809344038091C607F6
:100D5000809331048EE690E023C0813051F48CE81A
:100D6000809344038091C607809332048CE890E01E
:100D700017C0823051F48AEA809344038091C607F9
:100D8000809333048AEA90E00BC0833099F588ECB5
:100D9000809344038091C6078093340488EC90E0EC
:100DA0006CE170E00E94D64080E29DEF60E070E070
:100DB0000E94DF4082E00E94E84000D000D0EDB702
:100DC000FEB731968AE591E0ADB7BEB712969C9317
:100DD0008E9311978091C607828313820E94E460EC
:100DE00080910D048F5F80930D040F900F900F90F2
:100DF0000F900895843009F042C08091310490E052
:100E000028EE33E0829FB001839F700D929F700D9A
:100E100011248091320424E6829FC0011124680FBE
:100E2000791F80913404680F711D809133042AE08A
:100E3000829FC0011124680F791F70932E04609364
:100E40002D048CE090E00E94F46110920D048EE677
:100E50008093440380E090E00E949F391092310417
:100E60001092320410923304109234041092510400
:100E70001092500481E080935503809354040895A8
:100E800080910404882301F1809107048B3341F49D
:100E90001092040480E090E00E949F3981E0089560
:100EA000863541F41092040480E090E00E949F395E
:100EB00083E00895883641F41092040480E090E0C5
:100EC0000E949F3984E0089580E008950F931F9356
:100ED00086E090E06AE070E00E94D64080EE9FEFEE
:100EE00060E070E00E94DF4084E00E94E84000D0B3
:100EF0008EE591E0EDB7FEB7928381830E94E460B6
:100F00000F900F9083E090E06AE270E04BE351E0D5
:100F100023E030E000EE1FEF0E948A3E8EE390E077
:100F200067E370E00E94D6408FEF9FEF60E070E0D3
:100F30000E94DF4083E00E94E84000D08CE691E010
:100F4000EDB7FEB7928381830E94E4600F900F900B
:100F500087E890E063E670E00E94D6408FEF9FEF55
:100F600060E070E00E94DF4083E00E94E84000D033
:100F700088E791E0EDB7FEB7928381830E94E46039
:100F80000F900F9089E590E06FE870E00E94D640E6
:100F90008FEF9FEF60E070E00E94DF4083E00E94EF
:100FA000E84000D08CE791E0EDB7FEB792838183F3
:100FB0000E94E4600F900F908BE690E06BEB70E086
:100FC0000E94D6408FEF9FEF60E070E00E94DF400C
:100FD00083E00E94E84000D085E891E0EDB7FEB7DD
:100FE000928381830E94E4600F900F901F910F9174
:100FF00008950F931F9384E68093070484E1809300
:10100000080488E790E090930A04809309048CE137
:1010100080930B0483E690E063E170E04AE750E0E0
:101020002EE130E000EE17E00E94533E809107046D
:1010300090E06091080470E06250704040910904B3
:1010400050910A044C5F5F4F20910B0430E02C5FFD
:101050003F4F02970E94533E8091070490E06091B9
:10106000080470E0635070404091090450910A04F4
:101070004A5F5F4F20910B0430E02A5F3F4F039798
:101080000E94533E1F910F9108950F931F936091FB
:1010900008044091090450910A0420910B048091A6
:1010A000070490E070E030E000E010E00E94533E62
:1010B0008091070490E06091080470E061507040F6
:1010C0004091090450910A044E5F5F4F20910B0438
:1010D00030E02E5F3F4F01970E94533E80910704FE
:1010E00090E06091080470E0625070404091090403
:1010F00050910A044C5F5F4F20910B0430E02C5F4D
:101100003F4F02970E94533E8091070490E0609108
:10111000080470E0635070404091090450910A0443
:101120004A5F5F4F20910B0430E02A5F3F4F0397E7
:101130000E94533E1F910F9108950F931F9360914A
:1011400008044091090450910A0420910B048091F5
:10115000070490E070E030E000EE17E00E94533E9C
:101160008091070490E06091080470E06150704045
:101170004091090450910A044E5F5F4F20910B0487
:1011800030E02E5F3F4F01970E94533E809107044D
:1011900090E06091080470E0625070404091090452
:1011A00050910A044C5F5F4F20910B0430E02C5F9C
:1011B0003F4F02970E94533E8091070490E0609158
:1011C000080470E0635070404091090450910A0493
:1011D0004A5F5F4F20910B0430E02A5F3F4F039737
:1011E0000E94533E1F910F9108950F931F93DF9319
:1011F000CF93CDB7DEB7C055D0400FB6F894DEBF61
:101200000FBECDBFA0961FADA09769968EAD9FADC6
:1012100069976B966EAD7FAD6B970E94D6406D96C9
:101220008EAD9FAD6D976F966EAD7FAD6F970E943F
:10123000DF40812F0E94E840FE01ED59FF4F8E01F3
:101240000F5F1F4FC80160E570E0A3964EAD5FAD24
:10125000A3979F010E94666100D000D08CE891E0C6
:10126000EDB7FEB792838183148303830E94E46009
:101270000F900F900F900F90C05BDF4F0FB6F89458
:10128000DEBF0FBECDBFCF91DF911F910F910895AB
:101290004F925F926F927F928F929F92AF92BF9286
:1012A000CF92DF92EF92FF920F931F93DF93CF9332
:1012B000CDB7DEB7A4970FB6F894DEBF0FBECDBF93
:1012C000DE011196E0E7F3E082E101900D9281509A
:1012D000E1F7DE015396EEE5F3E082E101900D9235
:1012E0008150E1F78DB79EB70C970FB6F8949EBF6B
:1012F0000FBE8DBFEDB7FEB7319684E190E0ADB77C
:10130000BEB712969C938E9311979383828380EE3F
:1013100097E0958384831782168284E090E091871A
:1013200080878FE891E0938782870E94F508EDB768
:10133000FEB73C960FB6F894FEBF0FBEEDBF0E94FD
:10134000F90700E010E061E3E62EF12C2E0108948D
:10135000411C511C53E1652E712C6C0E7D1E40E228
:10136000842E4DEF942E33E0A32EB12C23E9C22E10
:1013700021E0D22E8DB79EB70E970FB6F8949EBF80
:101380000FBE8DBFADB7BEB71196F201E00FF11FD2
:1013900080819181EDB7FEB792838183F301E00FE5
:1013A000F11F8081918113969C938E9312971596CD
:1013B0009C928E92149717961C921E9216971996CD
:1013C000BC92AE9218971B96DC92CE921A971D96FD
:1013D000FC92EE921C970E94F5080E5F1F4F089436
:1013E000E11CF11C8DB79EB70E960FB6F8949EBF08
:1013F0000FBE8DBF0231110509F0BCCF84E790E02C
:1014000068EC70E00E94D64080E29DEF60E070E002
:101410000E94DF4083E00E94E8408091450390E015
:101420000E94F96088E990E068EC70E00E94D64084
:1014300080E29DEF60E070E00E94DF4083E00E9468
:10144000E84080E390E00E94F960A4960FB6F8941B
:10145000DEBF0FBECDBFCF91DF911F910F91FF90E7
:10146000EF90DF90CF90BF90AF909F908F907F9044
:101470006F905F904F90089580910C048823A1F4A1
:101480000E94480980E78093070481E6809308045E
:1014900087E190E090930A04809309048EE18093A1
:1014A0000B0481E080930C049091C607953009F4F9
:1014B00094C0963090F49230E1F1933038F499234F
:1014C00009F436C1913009F054C11AC0933009F4BF
:1014D0004CC0943009F04DC164C0983009F4D1C0BB
:1014E000993038F4963009F494C0973009F041C12E
:1014F000ACC0993009F4E1C09A3009F03AC1F9C0A2
:1015000080E78093070481E6809308049093410369
:101510000E949D0880910504882319F0109205040B
:1015200002C180910604882309F423C110920604A5
:101530002CC084E98093070481E68093080490938B
:1015400041030E949D0880910504882331F0109288
:1015500005040E94450881E0FEC0809106048823AE
:1015600009F407C1109206042CC088EB809307048D
:1015700081E680930804909341030E949D08809126
:101580000504882331F0109205040E94450882E08A
:10159000E2C080910604882309F4EBC0109206048F
:1015A0002CC080E78093070481E88093080490931F
:1015B00041030E949D0880910504882331F0109218
:1015C00005040E94450883E0C6C080910604882374
:1015D00009F4CFC0109206042CC084E9809307045C
:1015E00081E880930804909341030E949D088091B4
:1015F0000504882331F0109205040E94450884E018
:10160000AAC080910604882309F4B3C0109206048E
:101610002CC088EB8093070481E8809308049093A2
:1016200041030E949D0880910504882331F01092A7
:1016300005040E94450885E08EC080910604882339
:1016400009F497C0109206042CC080E78093070429
:1016500082EA80930804909341030E949D08809140
:101660000504882331F0109205040E94450886E0A5
:1016700072C080910604882309F47BC0109206048E
:101680002CC084E98093070482EA80930804909335
:1016900041030E949D0880910504882331F0109237
:1016A00005040E94450887E056C0809106048823FF
:1016B00009F45FC0109206042CC088EB80930704E5
:1016C00082EA80930804909341030E949D088091D0
:1016D0000504882331F0109205040E94450888E033
:1016E0003AC080910604882309F443C0109206048E
:1016F0002FC080E78093070483EC809308049093C5
:1017000041030E949D0880910504882331F01092C6
:1017100005040E94450889E01EC0809106048823C4
:1017200041F1109206040E9445081092C6070895E0
:1017300084E98093070483EC8093080410924103AA
:101740000E949D0880910504882341F010920504B1
:101750000E9445088AE08093C60708958091060498
:10176000882339F0109206040E94450881E0809396
:10177000C60708952F923F924F925F926F927F9289
:101780008F929F92AF92BF92CF92DF92EF92FF9291
:101790000F931F93DF93CF93CDB7DEB762970FB64A
:1017A000F894DEBF0FBECDBF559A5D9A249A2C984F
:1017B000509A5898229A2A98239A2B983F9A479899
:1017C0003E9A46983C98449A3B98439A3D98459A4D
:1017D0000A98129809981198549A5C9882E893E0B4
:1017E0009093F2088093F1080E94813880E090E0A5
:1017F0000E949F3980E197E220E931E0F9013197B9
:10180000F1F70197D9F783E00E94CF3A80E49FE196
:101810000197F1F7479884E090E00E94EE61809391
:10182000DD0781E08093C6078093E40780EE9FEF99
:1018300060E070E00E94DF4082E00E94E84082E8C1
:1018400090E060EA70E00E94D64000D086E991E026
:10185000ADB7BEB712969C938E9311970E94E46029
:101860000F900F9082E890E064EB70E00E94D64009
:1018700000D082EA91E0EDB7FEB7928381830E94A7
:10188000E46020E23EE40F900F9040E951E0CA018D
:101890000197F1F721503040D1F72CE037E13A8B36
:1018A000298BB1E0AB2EB12C662477244301ABE445
:1018B0004A2EA2E05A2EF7E82F2EF2E03F2E03C068
:1018C000E5E0AE2EB12C0E94BA030E94CB030E9429
:1018D000DD03DE011196E8E9F3E088E001900D9266
:1018E0008150E1F7DE011996E0E9F3E088E001902C
:1018F0000D928150E1F788E090E00E94EE619093B4
:101900002A0480932904E09135044E2F50E06DB7EE
:101910007EB76E5070400FB6F8947EBF0FBE6DBF9D
:10192000ADB7BEB711962AE030E0EDB7FEB732830F
:1019300021837CEDC72ED12C1396DC92CE92129788
:10194000440F551F7E010894E11CF11C4E0D5F1DD4
:10195000FA012081318115963C932E9314972085AE
:10196000318517963C932E93169702E010E0199656
:101970001C930E93189722EB31E01B963C932E9309
:101980001A971D969C938E931C970E94F5084DB74D
:101990005EB7425F5F4F0FB6F8945EBF0FBE4DBF9C
:1019A0008CE090E00E94EE619093300480932F04CD
:1019B000E09135044E2F50E06DB77EB76E50704009
:1019C0000FB6F8947EBF0FBE6DBFADB7BEB7119610
:1019D0002DEC30E0EDB7FEB7328321831396DC9215
:1019E000CE921297440F551F4E0D5F1DFA012081B4
:1019F000318115963C932E93149720853185179647
:101A00003C932E93169719961C930E93189728EBD8
:101A100031E01B963C932E931A971D969C938E93C0
:101A20001C970E94F5084DB75EB7425F5F4F0FB637
:101A3000F8945EBF0FBE4DBF809105048823C9F0A6
:101A4000809106048823A9F080910404882389F0FA
:101A500010920504109206041092040480910C0464
:101A6000882339F480E090E00E949F3910920C04A2
:101A700043C4F501E531F10508F025CFE25CFF4FE5
:101A8000EE0FFF1F0590F491E02D09942B982A98F2
:101A9000019945C080911604882309F014CF80E095
:101AA00090E00E949F3983E00E94E84087E390E045
:101AB00064E670E00E94D64080EE9FEF60E070E048
:101AC0000E94DF4000D081EC91E0ADB7BEB7129626
:101AD0009C938E9311970E94E4600F900F9083E087
:101AE0000E94E8408AE590E062E870E00E94D640FB
:101AF00080EE9FEF60E070E00E94DF4000D08EEC4F
:101B000091E0EDB7FEB7928381830E94E46081E0AB
:101B100080931604109217040F900F90D4CE109259
:101B20001604C401B3012FE630E040E050E00E940B
:101B3000DF5E2CE030E040E050E00E94255F209323
:101B40004C0430934D0440934E0450934F0486E070
:101B50000E94FE4390E0A0E0B0E0BC01CD0126EF82
:101B600034E040E050E00E94DF5E24EF31E040E0EE
:101B700050E00E94255FC901DA013C014D018091CE
:101B800017048823D9F583E08093350447988FEFB5
:101B900097E00E949F392DB73EB72C5030400FB6CA
:101BA000F8943EBF0FBE2DBFEDB7FEB731968AE069
:101BB00090E0ADB7BEB712969C938E9311978EE6C8
:101BC00090E093838283158214828FEF97E097834E
:101BD000868383E090E09187808787ED91E093870B
:101BE00082870E94F50881E080931704EDB7FEB765
:101BF0003C960FB6F894FEBF0FBEEDBF029B3DC0F2
:101C000083E0809335040E94E8408AE090E06EE62D
:101C100070E00E94D6408FEF97E06FEF77E00E9470
:101C2000DF4000D087ED91E0ADB7BEB712969C9330
:101C30008E9311970E94E46010921704109248044A
:101C40001092490410924A0410924B0410924404DA
:101C50001092450410924604109247048091DD07CB
:101C60000F900F90813011F4479A03C0882309F434
:101C7000479810923704AA24BB2480910504882336
:101C800009F421CE80910604882309F41CCE8091AA
:101C90000404882309F417CE109205041092060458
:101CA0001092040480910C04882309F00CCE80E08B
:101CB00090E00E949F3910920C0422E0A22EB12CD9
:101CC00002CE80B1A82EBB24B694A794B694A79454
:101CD000A094B094B1E0AB22BB24C401B3012FE6C1
:101CE00030E040E050E00E94DF5E2CE030E040E079
:101CF00050E00E94255F20934C0430934D044093A4
:101D00004E0450934F0486E00E94FE4390E0A0E012
:101D1000B0E0BC01CD0126EF34E040E050E00E948D
:101D2000DF5E24EF31E040E050E00E94255FC90112
:101D3000DA013C014D01029B11C080913D048823D2
:101D400069F40E94310580914C0490914D04909368
:101D50003F0480933E0481E080933D04029903C0D8
:101D600010923D04589880914C0490914D04A0919C
:101D70004E04B0914F04E989FA897F0100E010E038
:101D80008E159F05A007B10708F4F0C0855D974147
:101D9000A040B04008F0EAC080914404909145040E
:101DA000A0914604B09147040097A105B10509F040
:101DB000DDC0109248041092490410924A04109217
:101DC0004B0481E090E0A0E0B0E080934404909365
:101DD0004504A0934604B093470481E08093350402
:101DE0002B9A2A988093360410924D03469A80EEDF
:101DF00097E00E949F3980E090E060EE77E00E94DB
:101E0000DF4088E00E94E8408CE890E06AEA70E0F9
:101E10000E94D64080914E0390E00E94F96080E0DD
:101E200090E060E070E00E94DF4084E00E94E840C3
:101E300084E990E066EB70E00E94D6408EE290E08C
:101E40000E94F96080E090E060E070E00E94DF4076
:101E500084E00E94E84080E990E062EB70E00E943C
:101E6000D6408EE290E00E94F96080E090E060E071
:101E700070E00E94DF4084E00E94E84088E990E042
:101E800062EB70E00E94D6408EE290E00E94F96022
:101E900080EE97E060EE77E00E94DF4084E00E94F1
:101EA000E84080E990E06CEB70E00E94D6408EE262
:101EB00090E00E94F96080EE97E060EE77E00E948B
:101EC000DF4084E00E94E84088E990E06CEB70E03D
:101ED0000E94D6408EE290E00E94F96080E090E09F
:101EE00060EE77E00E94DF4083E00E94E84086E4F5
:101EF00090E060E570E00E94D64000D089EE91E06D
:101F0000ADB7BEB712969C938E9311970E94E46072
:101F10000F900F9084E00E94E84085E590E068E72C
:101F200070E00E94D64000D000D084EF91E0EDB781
:101F3000FEB7928381838091180490911904948351
:101F400083830E94E46088EF91E0ADB7BEB712963C
:101F50009C938E93119780911A0490911B04149670
:101F60009C938E9313970E94E46038C08091440440
:101F700090914504A0914604B09147040197A105B2
:101F8000B10581F584E00E94E84085E590E068E7CE
:101F900070E00E94D64000D000D084EF91E0EDB711
:101FA000FEB79283818380911804909119049483E1
:101FB00083830E94E46088EF91E0ADB7BEB71296CC
:101FC0009C938E93119780911A0490911B04149600
:101FD0009C938E9313970E94E460469A0F900F9003
:101FE0000F900F9080914C0490914D04A0914E045D
:101FF000B0914F048E159F05A007B10730F0855DA5
:102000009741A040B04008F4F2C0809148049091FC
:102010004904A0914A04B0914B040097A105B10571
:1020200009F0E5C00E948F0381E090E0A0E0B0E0FD
:102030008093480490934904A0934A04B0934B04BE
:1020400010924404109245041092460410924704E2
:1020500082E08093350480E098EF0E949F392B98AE
:102060002A9A1092360481E080934D030E948F03D8
:1020700080E090E060E078EF0E94DF4088E00E941E
:10208000E8408CE890E06CEA70E00E94D6408091D5
:102090004F0390E00E94F96080E090E060E070E023
:1020A0000E94DF4084E00E94E84084E990E062EC16
:1020B00070E00E94D6408EE290E00E94F96080E0DD
:1020C00090E060E070E00E94DF4084E00E94E84021
:1020D00080E990E065EC70E00E94D6408EE290E0EE
:1020E0000E94F96080E090E060E070E00E94DF40D4
:1020F00084E00E94E84088E990E065EC70E00E948E
:10210000D6408EE290E00E94F96080E098EF60E0B7
:1021100078EF0E94DF4083E00E94E84082E990E08F
:1021200060EC70E00E94D6408EE290E00E94F96080
:1021300080E098EF60E078EF0E94DF4083E00E944B
:10214000E8408CE990E060EC70E00E94D6408EE2BE
:1021500090E00E94F96080E090E060E078EF0E94FB
:10216000DF4083E00E94E84082E390E060E570E0B9
:102170000E94D64000D083E092E0ADB7BEB7129681
:102180009C938E9311970E94E4600F900F9085E5C9
:1021900090E068E770E00E94D64084E00E94E8404A
:1021A00000D000D084EF91E0EDB7FEB79283818339
:1021B0008091180490911904948383830E94E460B1
:1021C00088EF91E0ADB7BEB712969C938E931197AE
:1021D00080911A0490911B0414969C938E931397EC
:1021E0000E94E4600F900F900F900F906CCB809145
:1021F000480490914904A0914A04B0914B0401977E
:10220000A105B10509F05FCB809137048F5F809302
:1022100037040E948F0380E090E060E078EF0E9436
:10222000DF4085E590E068E770E00E94D64084E0FA
:102230000E94E84000D000D084EF91E0EDB7FEB7F7
:1022400092838183809118049091190494838383ED
:102250000E94E46088EF91E0ADB7BEB712969C9300
:102260008E93119780911A0490911B0414969C935D
:102270008E9313970E94E460809137040F900F9023
:102280000F900F9003E012E080FF19C080E098EFFC
:1022900060E078EF0E94DF4083E00E94E84082E344
:1022A00090E060E570E00E94D64000D0EDB7FEB748
:1022B000128301830E94E4600F900F9004CB109270
:1022C000370480E090E060E078EF0E94DF4083E038
:1022D0000E94E84082E390E060E570E00E94D64012
:1022E00000D0ADB7BEB712961C930E9311970E9403
:1022F000E4600F900F90E7CA109235040E943C0AE8
:10230000809141038A3008F000C180910404882341
:1023100009F4FBC080914403893C08F0F6C0109298
:10232000040420913F03309140032230310568F0CE
:1023300080910C04823048F0C9016AE070E00E948C
:10234000FE5E7093400360933F038091410390E0F1
:1023500020913F0330914003F9018E9F90018F9FA0
:10236000300D9E9F300D11243093130420931204DE
:102370008091100490911104820F931F9093110487
:102380008093100482E080930C048091440390E0D9
:102390006CE170E00E94D64080E29DEF60E070E06A
:1023A0000E94DF4082E00E94E8408AE290E00E94C2
:1023B000F96040914403425E40934403209110042D
:1023C0003091110480911404909115042817390755
:1023D00031F480913F0390914003019751F0235EC7
:1023E000374081F580913F0390914003019709F0B8
:1023F0008CC089EC90E090930A048093090480E2F9
:1024000080930B0410921104109210041092130484
:10241000109212048EE68093440388EE93E090932A
:10242000400380933F0311E010930C0480E090E0A0
:102430000E949F391093C6070E94660783E0A82E6A
:10244000B12C66C0493C08F460C01092110410928F
:10245000100410921304109212048EE68093440329
:1024600088EE93E09093400380933F0381E0809354
:102470000C048EE690E06CE170E00E94D64080E0B3
:1024800090E060E070E00E94DF4082E00E94E8405F
:102490008AE290E00E94F9608CE890E06CE170E0E4
:1024A0000E94D64080E090E060E070E00E94DF4053
:1024B00082E00E94E8408AE290E00E94F9608AEAA5
:1024C00090E06CE170E00E94D64080E090E060E037
:1024D00070E00E94DF4082E00E94E8408AE290E0E3
:1024E0000E94F96088EC90E06CE170E00E94D640B8
:1024F00080E090E060E070E00E94DF4082E00E94B7
:10250000E8408AE290E00E94F96002E0A02EB12C3F
:10251000809141038A3009F0D6C980910404882350
:1025200009F4D1C9409144034F3608F4CCC9109244
:10253000040480913F03909140039C0113E0220F1B
:10254000331F1A95E1F7880F991F280F391F209321
:102550003F03309340038091100490911104B9011E
:102560000E94FE5E20913F0330914003629FC001B4
:10257000639F900D729F900D11249093110480938E
:102580001004842F8E518093440390E06CE170E03E
:102590000E94D64080E090E060E070E00E94DF4062
:1025A00082E00E94E8408AE290E00E94F9608BC9D4
:1025B0001091E407123009F462C0133020F4113096
:1025C00009F081C907C0133009F4DBC0143009F0E9
:1025D0007AC91AC18BE38093070482E380930804CD
:1025E00089EC90E090930A04809309048EE1809333
:1025F0000B0480915004882321F40E949D081093BD
:10260000500480910504882331F0109205040E9443
:10261000450884E009C080910604882349F010929F
:1026200006040E94450882E08093E407109250045B
:1026300080910404882309F446C91092040481E0BF
:102640008093E4071092500480E090E00E949F394C
:102650000E9445080E94480980E78093070481E6AC
:102660008093080487E190E090930A048093090422
:102670008EE180930B04A4E0AA2EB12C24C984E837
:10268000809307048EE58093080489E390E090939B
:102690000A04809309048EE180930B048091500416
:1026A000882329F40E949D0881E080935004809142
:1026B0000504882331F0109205040E94450881E04A
:1026C00009C080910604882349F0109206040E94F4
:1026D000450883E08093E40710925004809104043D
:1026E000882309F4F0C81092040481E08093E40781
:1026F0001092500480E090E00E949F398091DD07A5
:102700008130E1F48AE090E06EE670E00E94D6400D
:102710008FE198EF60E070E00E94DF4083E00E946C
:10272000E84000D081E192E0ADB7BEB712969C932D
:102730008E9311970E94E4600F900F908091DD07B7
:10274000882309F0BDC88AE090E06EE670E00E9440
:10275000D6408FE198EF60E070E00E94DF4083E0B8
:102760000E94E84000D083E292E0EDB7FEB792838A
:1027700081830E94E460F5E0AF2EB12C0F900F90A2
:10278000A2C886E5809307048AE88093080483E959
:1027900090E090930A04809309048EE180930B04E7
:1027A00080915004882329F40E949D0881E0809341
:1027B000500480910504882331F0109205040E9492
:1027C000450882E009C080910604882349F01092F0
:1027D00006040E94450884E08093E40710925004A8
:1027E00080910404882309F46EC81092040481E0E7
:1027F0008093E4071092500480E090E00E949F399B
:10280000E6E0AE2EB12C5FC888E68093070487EB24
:10281000809308048FE690E090930A048093090463
:102820008EE180930B0480915004882329F40E9448
:102830009D0881E08093500480910504882331F045
:10284000109205040E94450883E009C080910604A7
:10285000882349F0109206040E94450881E0809385
:10286000E4071092500480910404882309F42BC8D3
:102870001092040481E08093E4071092500480E0F9
:1028800090E00E949F3977E0A72EB12C1CC8809160
:102890005004882339F481E0809350041092150489
:1028A000109214040E943C0A809141038A3008F07F
:1028B00059C080910404882309F454C080914403D2
:1028C000893C08F04FC01092040420913F033091DE
:1028D00040032230310568F080910C04823048F0CA
:1028E000C9016AE070E00E94FE5E7093400360934D
:1028F0003F038091410390E020913F0330914003DA
:10290000A901849F9001859F300D949F300D112463
:1029100030931304209312048091140490911504B1
:10292000820F931F909315048093140482E0809388
:102930000C048091440390E06CE170E00E94D6406A
:1029400080E29DEF60E070E00E94DF4082E00E9444
:10295000E8408AE290E00E94F96080914403825E40
:1029600080934403809141038A3009F04AC08091EA
:102970000404882309F445C0409144034F3608F409
:1029800040C01092040480913F03909140039C0149
:1029900063E0220F331F6A95E1F7880F991F280F14
:1029A000391F20933F03309340038091140490918A
:1029B0001504B9010E94FE5E20913F03309140034F
:1029C000629FC001639F900D729F900D11249093A0
:1029D000150480931404842F8E518093440390E057
:1029E0006CE170E00E94D64080E090E060E070E032
:1029F0000E94DF4082E00E94E8408AE290E00E946C
:102A0000F96080913F0390914003019711F00C947D
:102A1000630C10920504109206041092040481E0E5
:102A20008093C607109211041092100410921304A0
:102A3000109212048EE68093440388EE93E0909304
:102A4000400380933F0310920C04109248041092AC
:102A5000490410924A0410924B04109250048DE2E3
:102A600090E06EE670E00E94D64080E090E00E9428
:102A70009F3980EE9FEF60E070E00E94DF4083E0CE
:102A80000E94E84000D085E392E0ADB7BEB7129651
:102A90009C938E9311970E94E4600F900F9080E0BA
:102AA00090E00E949F3992E0A92EB12C0C94630C07
:102AB00080915004882309F06DC081E08093500418
:102AC00088E790E06AE070E00E94D64080EE9FEFD9
:102AD00060E070E00E94DF4084E00E94E84000D0A7
:102AE00088E791E0EDB7FEB7928381830E94E460AE
:102AF0000F900F9088E290E060EA70E00E94D6406C
:102B00008FEF97E060E070E00E94DF4083E00E947A
:102B1000E84000D084E492E0ADB7BEB712969C9333
:102B20008E9311970E94E4600F900F9080EF90E0D9
:102B300060EA70E00E94D6408FEF97E060E070E0BE
:102B40000E94DF4083E00E94E84000D088E492E0E9
:102B5000EDB7FEB7928381830E94E4600F900F90DF
:102B60008CE890E060EA70E00E94D6408FEF97E03A
:102B700060E070E00E94DF4083E00E94E84000D007
:102B8000ADB7BEB712965C924E9211970E94E46068
:102B90000F900F90469A809106048823F9F01092C6
:102BA000060481E08093DD078AE090E06EE670E045
:102BB0000E94D6408FE198EF60E070E00E94DF4015
:102BC00083E00E94E84000D081E192E0EDB7FEB7DB
:102BD000928381830E94E4600F900F90809105049E
:102BE000882301F1109205041092DD078AE090E03D
:102BF0006EE670E00E94D6408FE198EF60E070E0F2
:102C00000E94DF4083E00E94E84000D083E292E02F
:102C1000ADB7BEB712969C938E9311970E94E46055
:102C20000F900F9080910404882311F40C94630C8E
:102C30001092040483E0809335048FEF97E00E94A4
:102C40009F3983E00E94E8408AE090E06EE670E001
:102C50000E94D64080E090E06FEF77E00E94DF4076
:102C600000D087ED91E0EDB7FEB7928381830E949B
:102C7000E4600F900F906091DD0784E090E070E0D9
:102C80000E94F46181E0A82EB12C0C94630C809119
:102C90005104882309F06FC081E08093510487E5D7
:102CA00090E06AE070E00E94D64080EE9FEF60E026
:102CB00070E00E94DF4084E00E94E84000D085E898
:102CC00091E0ADB7BEB712969C938E9311970E9478
:102CD000E4600F900F9086E890E060E470E00E945E
:102CE000D6408FEF9FEF60E070E00E94DF4083E00E
:102CF0000E94E84000D08EE492E0EDB7FEB79283E8
:102D000081830E94E4600F900F9087E490E06CE66E
:102D100070E00E94D6408FEF9FEF60E070E00E946D
:102D2000DF4083E00E94E84000D082E592E0ADB74A
:102D3000BEB712969C938E9311970E94E4600F90F9
:102D40000F9083E290E068E970E00E94D6408FEF38
:102D50009FEF60E070E00E94DF4083E00E94E84067
:102D600000D02DE532E0EDB7FEB7328321830E941B
:102D7000E4600F900F9080915003823009F456C0A8
:102D8000833009F48CC0813011F00C94630C8CE713
:102D9000809307048BE38093080487E490E090938A
:102DA0000A04809309040E949D08809105048823E9
:102DB00031F0109205040E94450883E009C080911B
:102DC0000604882339F0109206040E94450882E028
:102DD0008093500380910404882311F40C94630CB5
:102DE0001092040480E090E00E949F3910925104F8
:102DF00081E08093500310923A04809156048F5FD3
:102E00008093560480915A0390915B03039760E18D
:102E100070E045E150E02CE130E000EE17E00E9468
:102E2000533E01E1A02EB12C0C94630C8BE38093F4
:102E3000070487E68093080489EC90E090930A04E5
:102E4000809309040E949D0880910504882331F035
:102E5000109205040E94450881E009C08091060493
:102E6000882339F0109206040E94450883E080937D
:102E7000500380910404882311F40C94630C109285
:102E8000040480E090E00E949F391092510481E098
:102E90008093500319E0A12EB12C0C94630C88E1AF
:102EA0008093070483E9809308048EE091E0909377
:102EB0000A04809309040E949D08809105048823D8
:102EC00031F0109205040E94450882E009C080910B
:102ED0000604882339F0109206040E94450881E018
:102EE0008093500380910404882311F40C94630CA4
:102EF0001092040480E090E00E949F3910925104E7
:102F000081E080935003B3E1AB2EB12C0C94630CA1
:102F100080915104882309F045C284E190E064E186
:102F200070E00E94D6408FEF97E060E070E00E9472
:102F3000DF4083E00E94E84000D08CE692E0ADB72D
:102F4000BEB712969C938E9311970E94E4600F90E7
:102F50000F908EE690E06CE270E042ED50E023E0EE
:102F600030E000EE17E00E948A3E86E390E06CE3DA
:102F700070E00E94D64080E29DEF60E070E00E9429
:102F8000DF4083E00E94E84081E490E00E94F96025
:102F90008EE590E06CE370E00E94D64080E29DEF09
:102FA00060E070E00E94DF4083E00E94E84082E43D
:102FB00090E00E94F96086E890E06CE370E00E9487
:102FC000D64080E29DEF60E070E00E94DF4083E049
:102FD0000E94E84083E490E00E94F9608EEA90E06D
:102FE0006CE370E00E94D64080E29DEF60E070E00C
:102FF0000E94DF4083E00E94E84084E490E00E9469
:10300000F96086ED90E06CE370E00E94D64080E2CB
:103010009DEF60E070E00E94DF4083E00E94E840A6
:1030200085E490E00E94F9608EEF90E06CE370E040
:103030000E94D64080E29DEF60E070E00E94DF4099
:1030400083E00E94E84086E490E00E94F9608AE410
:1030500090E06AE570E00E94D64080E29DEF60E07B
:1030600070E00E94DF4083E00E94E84087E490E047
:103070000E94F96082E790E06AE570E00E94D64025
:1030800080E29DEF60E070E00E94DF4083E00E94FC
:10309000E84088E490E00E94F9608AE990E06AE5FF
:1030A00070E00E94D64080E29DEF60E070E00E94F8
:1030B000DF4083E00E94E84089E490E00E94F960EC
:1030C00082EC90E06AE570E00E94D64080E29DEFDD
:1030D00060E070E00E94DF4083E00E94E8408AE404
:1030E00090E00E94F9608AEE90E06AE570E00E944C
:1030F000D64080E29DEF60E070E00E94DF4083E018
:103100000E94E8408BE490E00E94F96086E390E042
:1031100068E770E00E94D64080E29DEF60E070E0DA
:103120000E94DF4083E00E94E8408CE490E00E942F
:10313000F9608EE590E068E770E00E94D64080E29A
:103140009DEF60E070E00E94DF4083E00E94E84075
:103150008DE490E00E94F96086E890E068E770E016
:103160000E94D64080E29DEF60E070E00E94DF4068
:1031700083E00E94E8408EE490E00E94F9608EEACD
:1031800090E068E770E00E94D64080E29DEF60E04A
:1031900070E00E94DF4083E00E94E8408FE490E00E
:1031A0000E94F96086ED90E068E770E00E94D640EA
:1031B00080E29DEF60E070E00E94DF4083E00E94CB
:1031C000E84080E590E00E94F9608EEF90E068E7CB
:1031D00070E00E94D64080E29DEF60E070E00E94C7
:1031E000DF4083E00E94E84081E590E00E94F960C2
:1031F0008AE490E066E970E00E94D64080E29DEFAC
:1032000060E070E00E94DF4083E00E94E84082E5D9
:1032100090E00E94F96082E790E066E970E00E9429
:10322000D64080E29DEF60E070E00E94DF4083E0E6
:103230000E94E84083E590E00E94F9608AE990E00E
:1032400066E970E00E94D64080E29DEF60E070E0A9
:103250000E94DF4083E00E94E84084E590E00E9405
:10326000F96082EC90E066E970E00E94D64080E26E
:103270009DEF60E070E00E94DF4083E00E94E84044
:1032800085E590E00E94F9608AEE90E066E970E0E2
:103290000E94D64080E29DEF60E070E00E94DF4037
:1032A00083E00E94E84086E590E00E94F96086E3B2
:1032B00090E064EB70E00E94D64080E29DEF60E019
:1032C00070E00E94DF4083E00E94E84087E590E0E4
:1032D0000E94F9608EE590E064EB70E00E94D640B9
:1032E00080E29DEF60E070E00E94DF4083E00E949A
:1032F000E84088E590E00E94F96086E890E064EBA1
:1033000070E00E94D64080E29DEF60E070E00E9495
:10331000DF4083E00E94E84089E590E00E94F96088
:103320008EEA90E064EB70E00E94D64080E29DEF70
:1033300060E070E00E94DF4083E00E94E8408AE5A0
:1033400090E00E94F96086ED90E064EB70E00E94EE
:10335000D64080E098EF60E070E00E94DF4083E0BC
:103360000E94E8408091450390E00E94F9608EEF52
:1033700090E064EB70E00E94D64080EE97E060E061
:1033800070E00E94DF4083E00E94E84000D0EDB78B
:10339000FEB7528241820E94E46081E08093510432
:1033A0000F900F90E0915203F0915303E154F040DD
:1033B000EC31F10510F00C94630CED5AFF4F2091A5
:1033C0005004EE0FFF1F0590F491E02D099481E366
:1033D0008093070488E38093080489E190E0909348
:1033E0000A04809309048CE180930B04222329F4BE
:1033F0000E949D0881E080935004809105048823F9
:1034000039F0109205040E9445088CE590E00AC04E
:1034100080910604882361F0109206040E944508FA
:1034200082E490E0909353038093520310925004EF
:1034300080910404882311F40C94630C109204040A
:1034400080915A0390915B03039760E170E045E13E
:1034500050E02CE130E000E010E00E94533E80910B
:103460005A0390915B0364E170E00E94D6408FE1C3
:1034700098EF60E070E00E94DF4083E00E94E84047
:1034800081E490E00E94F96020915A0330915B033F
:10349000C901449690935B0380935A0382539140F1
:1034A00060F4C901419660E170E045E150E02CE133
:1034B00030E000EE17E00E94533E1092500410924C
:1034C0003A040E94EF030C94630C89E5809307048F
:1034D00088E38093080489E190E090930A04809344
:1034E00009048CE180930B04222329F40E949D0897
:1034F00082E08093500480910504882339F0109273
:1035000005040E94450881E490E00AC08091060409
:10351000882361F0109206040E94450883E490E03D
:1035200090935303809352031092500480910404AB
:10353000882311F40C94630C1092040480915A03B4
:1035400090915B03039760E170E045E150E02CE16E
:1035500030E000E010E00E94533E80915A039091C9
:103560005B0364E170E00E94D6408FE198EF60E079
:1035700070E00E94DF4083E00E94E84082E490E037
:103580000E94F96020915A0330915B03C90144966F
:1035900090935B0380935A038253914060F4C90176
:1035A000419660E170E045E150E02CE130E000EE52
:1035B00017E00E94533E1092500410923A040E9469
:1035C000EF030C94630C81E88093070488E38093F5
:1035D000080489E190E090930A04809309048CE147
:1035E00080930B04222329F40E949D0881E080939C
:1035F000500480910504882339F0109205040E943C
:10360000450882E490E00AC080910604882361F0B6
:10361000109206040E94450884E490E090935303BE
:10362000809352031092500480910404882311F473
:103630000C94630C1092040480915A0390915B03E4
:10364000039760E170E045E150E02CE130E000E0FC
:1036500010E00E94533E80915A0390915B0364E115
:1036600070E00E94D6408FE198EF60E070E00E9429
:10367000DF4083E00E94E84083E490E00E94F9602C
:1036800020915A0330915B03C901449690935B03E8
:1036900080935A038253914060F4C901419660E1DE
:1036A00070E045E150E02CE130E000EE17E00E94D0
:1036B000533E1092500410923A040E94EF030C946F
:1036C000630C89EA8093070488E38093080489E106
:1036D00090E090930A04809309048CE180930B049A
:1036E000222329F40E949D0881E080935004809158
:1036F0000504882339F0109205040E94450883E4EC
:1037000090E00AC080910604882361F010920604BC
:103710000E94450885E490E0909353038093520300
:103720001092500480910404882311F40C94630CCB
:103730001092040480915A0390915B03039760E117
:1037400070E045E150E02CE130E000E010E00E9444
:10375000533E80915A0390915B0364E170E00E94B4
:10376000D6408FE198EF60E070E00E94DF4083E098
:103770000E94E84084E490E00E94F96020915A039E
:1037800030915B03C901449690935B0380935A0385
:103790008253914060F4C901419660E170E045E1D7
:1037A00050E02CE130E000EE17E00E94533E109212
:1037B000500410923A040E94EF030C94630C81EDC4
:1037C0008093070488E38093080489E190E0909354
:1037D0000A04809309048CE180930B04222329F4CA
:1037E0000E949D0881E08093500480910504882305
:1037F00039F0109205040E94450884E490E00AC064
:1038000080910604882361F0109206040E94450806
:1038100086E490E0909353038093520310925004F7
:1038200080910404882311F40C94630C1092040416
:1038300080915A0390915B03039760E170E045E14A
:1038400050E02CE130E000E010E00E94533E809117
:103850005A0390915B0364E170E00E94D6408FE1CF
:1038600098EF60E070E00E94DF4083E00E94E84053
:1038700085E490E00E94F96020915A0330915B0347
:10388000C901449690935B0380935A0382539140FD
:1038900060F4C901419660E170E045E150E02CE13F
:1038A00030E000EE17E00E94533E10925004109258
:1038B0003A040E94EF030C94630C89EF8093070491
:1038C00088E38093080489E190E090930A04809350
:1038D00009048CE180930B04222329F40E949D08A3
:1038E00081E08093500480910504882339F0109280
:1038F00005040E94450885E490E00AC08091060412
:10390000882361F0109206040E94450887E490E045
:1039100090935303809352031092500480910404B7
:10392000882311F40C94630C1092040480915A03C0
:1039300090915B03039760E170E045E150E02CE17A
:1039400030E000E010E00E94533E80915A039091D5
:103950005B0364E170E00E94D6408FE198EF60E085
:1039600070E00E94DF4083E00E94E84086E490E03F
:103970000E94F96020915A0330915B03C90144967B
:1039800090935B0380935A038253914060F4C90182
:10399000419660E170E045E150E02CE130E000EE5E
:1039A00017E00E94533E1092500410923A040E9475
:1039B000EF030C94630C85E48093070486E5809301
:1039C000080489E190E090930A04809309048CE153
:1039D00080930B04222329F40E949D0881E08093A8
:1039E000500480910504882339F0109205040E9448
:1039F000450886E490E00AC080910604882361F0BF
:103A0000109206040E94450888E490E090935303C6
:103A1000809352031092500480910404882311F47F
:103A20000C94630C1092040480915A0390915B03F0
:103A3000039760E170E045E150E02CE130E000E008
:103A400010E00E94533E80915A0390915B0364E121
:103A500070E00E94D6408FE198EF60E070E00E9435
:103A6000DF4083E00E94E84087E490E00E94F96034
:103A700020915A0330915B03C901449690935B03F4
:103A800080935A038253914060F4C901419660E1EA
:103A900070E045E150E02CE130E000EE17E00E94DC
:103AA000533E1092500410923A040E94EF030C947B
:103AB000630C8DE68093070486E58093080489E112
:103AC00090E090930A04809309048CE180930B04A6
:103AD000222329F40E949D0881E080935004809164
:103AE0000504882339F0109205040E94450887E4F4
:103AF00090E00AC080910604882361F010920604C9
:103B00000E94450889E490E0909353038093520308
:103B10001092500480910404882311F40C94630CD7
:103B20001092040480915A0390915B03039760E123
:103B300070E045E150E02CE130E000E010E00E9450
:103B4000533E80915A0390915B0364E170E00E94C0
:103B5000D6408FE198EF60E070E00E94DF4083E0A4
:103B60000E94E84088E490E00E94F96020915A03A6
:103B700030915B03C901449690935B0380935A0391
:103B80008253914060F4C901419660E170E045E1E3
:103B900050E02CE130E000EE17E00E94533E10921E
:103BA000500410923A040E94EF030C94630C85E9D0
:103BB0008093070486E58093080489E190E0909360
:103BC0000A04809309048CE180930B04222329F4D6
:103BD0000E949D0881E08093500480910504882311
:103BE00039F0109205040E94450888E490E00AC06C
:103BF00080910604882361F0109206040E94450813
:103C00008AE490E0909353038093520310925004FF
:103C100080910404882311F40C94630C1092040422
:103C200080915A0390915B03039760E170E045E156
:103C300050E02CE130E000E010E00E94533E809123
:103C40005A0390915B0364E170E00E94D6408FE1DB
:103C500098EF60E070E00E94DF4083E00E94E8405F
:103C600089E490E00E94F96020915A0330915B034F
:103C7000C901449690935B0380935A038253914009
:103C800060F4C901419660E170E045E150E02CE14B
:103C900030E000EE17E00E94533E10925004109264
:103CA0003A040E94EF030C94630C8DEB809307049D
:103CB00086E58093080489E190E090930A0480935C
:103CC00009048CE180930B04222329F40E949D08AF
:103CD00081E08093500480910504882339F010928C
:103CE00005040E94450889E490E00AC0809106041A
:103CF000882361F0109206040E9445088BE490E04E
:103D000090935303809352031092500480910404C3
:103D1000882311F40C94630C1092040480915A03CC
:103D200090915B03039760E170E045E150E02CE186
:103D300030E000E010E00E94533E80915A039091E1
:103D40005B0364E170E00E94D6408FE198EF60E091
:103D500070E00E94DF4083E00E94E8408AE490E047
:103D60000E94F96020915A0330915B03C901449687
:103D700090935B0380935A038253914060F4C9018E
:103D8000419660E170E045E150E02CE130E000EE6A
:103D900017E00E94533E1092500410923A040E9481
:103DA000EF030C94630C85EE8093070486E5809303
:103DB000080489E190E090930A04809309048CE15F
:103DC00080930B04222329F40E949D0881E08093B4
:103DD000500480910504882339F0109205040E9454
:103DE00045088AE490E00AC080910604882361F0C7
:103DF000109206040E9445088CE490E090935303CF
:103E0000809352031092500480910404882311F48B
:103E10000C94630C1092040480915A0390915B03FC
:103E2000039760E170E045E150E02CE130E000E014
:103E300010E00E94533E80915A0390915B0364E12D
:103E400070E00E94D6408FE198EF60E070E00E9441
:103E5000DF4083E00E94E8408BE490E00E94F9603C
:103E600020915A0330915B03C901449690935B0300
:103E700080935A038253914060F4C901419660E1F6
:103E800070E045E150E02CE130E000EE17E00E94E8
:103E9000533E1092500410923A040E94EF030C9487
:103EA000630C81E38093070484E78093080489E12D
:103EB00090E090930A04809309048CE180930B04B2
:103EC000222329F40E949D0881E080935004809170
:103ED0000504882339F0109205040E9445088BE4FC
:103EE00090E00AC080910604882361F010920604D5
:103EF0000E9445088DE490E0909353038093520311
:103F00001092500480910404882311F40C94630CE3
:103F10001092040480915A0390915B03039760E12F
:103F200070E045E150E02CE130E000E010E00E945C
:103F3000533E80915A0390915B0364E170E00E94CC
:103F4000D6408FE198EF60E070E00E94DF4083E0B0
:103F50000E94E8408CE490E00E94F96020915A03AE
:103F600030915B03C901449690935B0380935A039D
:103F70008253914060F4C901419660E170E045E1EF
:103F800050E02CE130E000EE17E00E94533E10922A
:103F9000500410923A040E94EF030C94630C89E5DC
:103FA0008093070484E78093080489E190E090936C
:103FB0000A04809309048CE180930B04222329F4E2
:103FC0000E949D0881E0809350048091050488231D
:103FD00039F0109205040E9445088CE490E00AC074
:103FE00080910604882361F0109206040E9445081F
:103FF0008EE490E090935303809352031092500408
:1040000080910404882311F40C94630C109204042E
:1040100080915A0390915B03039760E170E045E162
:1040200050E02CE130E000E010E00E94533E80912F
:104030005A0390915B0364E170E00E94D6408FE1E7
:1040400098EF60E070E00E94DF4083E00E94E8406B
:104050008DE490E00E94F96020915A0330915B0357
:10406000C901449690935B0380935A038253914015
:1040700060F4C901419660E170E045E150E02CE157
:1040800030E000EE17E00E94533E10925004109270
:104090003A040E94EF030C94630C81E880930704B8
:1040A00084E78093080489E190E090930A04809368
:1040B00009048CE180930B04222329F40E949D08BB
:1040C00081E08093500480910504882339F0109298
:1040D00005040E9445088DE490E00AC08091060422
:1040E000882361F0109206040E9445088FE490E056
:1040F00090935303809352031092500480910404D0
:10410000882311F40C94630C1092040480915A03D8
:1041100090915B03039760E170E045E150E02CE192
:1041200030E000E010E00E94533E80915A039091ED
:104130005B0364E170E00E94D6408FE198EF60E09D
:1041400070E00E94DF4083E00E94E8408EE490E04F
:104150000E94F96020915A0330915B03C901449693
:1041600090935B0380935A038253914060F4C9019A
:10417000419660E170E045E150E02CE130E000EE76
:1041800017E00E94533E1092500410923A040E948D
:10419000EF030C94630C89EA8093070484E780930F
:1041A000080489E190E090930A04809309048CE16B
:1041B00080930B04222329F40E949D0881E08093C0
:1041C000500480910504882339F0109205040E9460
:1041D00045088EE490E00AC080910604882361F0CF
:1041E000109206040E94450880E590E090935303E6
:1041F000809352031092500480910404882311F498
:104200000C94630C1092040480915A0390915B0308
:10421000039760E170E045E150E02CE130E000E020
:1042200010E00E94533E80915A0390915B0364E139
:1042300070E00E94D6408FE198EF60E070E00E944D
:10424000DF4083E00E94E8408FE490E00E94F96044
:1042500020915A0330915B03C901449690935B030C
:1042600080935A038253914060F4C901419660E102
:1042700070E045E150E02CE130E000EE17E00E94F4
:10428000533E1092500410923A040E94EF030C9493
:10429000630C81ED8093070484E78093080489E12F
:1042A00090E090930A04809309048CE180930B04BE
:1042B000222329F40E949D0881E08093500480917C
:1042C0000504882339F0109205040E9445088FE404
:1042D00090E00AC080910604882361F010920604E1
:1042E0000E94450881E590E0909353038093520328
:1042F0001092500480910404882311F40C94630CF0
:104300001092040480915A0390915B03039760E13B
:1043100070E045E150E02CE130E000E010E00E9468
:10432000533E80915A0390915B0364E170E00E94D8
:10433000D6408FE198EF60E070E00E94DF4083E0BC
:104340000E94E84080E590E00E94F96020915A03C5
:1043500030915B03C901449690935B0380935A03A9
:104360008253914060F4C901419660E170E045E1FB
:1043700050E02CE130E000EE17E00E94533E109236
:10438000500410923A040E94EF030C94630C89EFDE
:104390008093070484E78093080489E190E0909378
:1043A0000A04809309048CE180930B04222329F4EE
:1043B0000E949D0881E08093500480910504882329
:1043C00039F0109205040E94450880E590E00AC08B
:1043D00080910604882361F0109206040E9445082B
:1043E00082E590E09093530380935203109250041F
:1043F00080910404882311F40C94630C109204043B
:1044000080915A0390915B03039760E170E045E16E
:1044100050E02CE130E000E010E00E94533E80913B
:104420005A0390915B0364E170E00E94D6408FE1F3
:1044300098EF60E070E00E94DF4083E00E94E84077
:1044400081E590E00E94F96020915A0330915B036E
:10445000C901449690935B0380935A038253914021
:1044600060F4C901419660E170E045E150E02CE163
:1044700030E000EE17E00E94533E1092500410927C
:104480003A040E94EF030C94630C85E480930704C4
:1044900082E98093080489E190E090930A04809374
:1044A00009048CE180930B04222329F40E949D08C7
:1044B00082E08093500480910504882339F01092A3
:1044C00005040E94450881E590E00AC08091060439
:1044D000882361F0109206040E94450883E590E06D
:1044E00090935303809352031092500480910404DC
:1044F000882311F40C94630C1092040480915A03E5
:1045000090915B03039760E170E045E150E02CE19E
:1045100030E000E010E00E94533E80915A039091F9
:104520005B0364E170E00E94D6408FE198EF60E0A9
:1045300070E00E94DF4083E00E94E84082E590E066
:104540000E94F96020915A0330915B03C90144969F
:1045500090935B0380935A038253914060F4C901A6
:10456000419660E170E045E150E02CE130E000EE82
:1045700017E00E94533E1092500410923A040E9499
:10458000EF030C94630C8DE68093070482E980931B
:10459000080489E190E090930A04809309048CE177
:1045A00080930B04222329F40E949D0881E08093CC
:1045B000500480910504882339F0109205040E946C
:1045C000450882E590E00AC080910604882361F0E6
:1045D000109206040E94450884E590E090935303EE
:1045E000809352031092500480910404882311F4A4
:1045F0000C94630C1092040480915A0390915B0315
:10460000039760E170E045E150E02CE130E000E02C
:1046100010E00E94533E80915A0390915B0364E145
:1046200070E00E94D6408FE198EF60E070E00E9459
:10463000DF4083E00E94E84083E590E00E94F9605B
:1046400020915A0330915B03C901449690935B0318
:1046500080935A038253914060F4C901419660E10E
:1046600070E045E150E02CE130E000EE17E00E9400
:10467000533E1092500410923A040E94EF030C949F
:10468000630C85E98093070482E98093080489E13B
:1046900090E090930A04809309048CE180930B04CA
:1046A000222329F40E949D0881E080935004809188
:1046B0000504882339F0109205040E94450883E51B
:1046C00090E00AC080910604882361F010920604ED
:1046D0000E94450885E590E0909353038093520330
:1046E0001092500480910404882311F40C94630CFC
:1046F0001092040480915A0390915B03039760E148
:1047000070E045E150E02CE130E000E010E00E9474
:10471000533E80915A0390915B0364E170E00E94E4
:10472000D6408FE198EF60E070E00E94DF4083E0C8
:104730000E94E84084E590E00E94F96020915A03CD
:1047400030915B03C901449690935B0380935A03B5
:104750008253914060F4C901419660E170E045E107
:1047600050E02CE130E000EE17E00E94533E109242
:10477000500410923A040E94EF030C94630C8DEBEA
:104780008093070482E98093080489E190E0909384
:104790000A04809309048CE180930B04222329F4FA
:1047A0000E949D0881E08093500480910504882335
:1047B00039F0109205040E94450884E590E00AC093
:1047C00080910604882361F0109206040E94450837
:1047D00086E590E090935303809352031092500427
:1047E00080910404882311F40C94630C1092040447
:1047F00080915A0390915B03039760E170E045E17B
:1048000050E02CE130E000E010E00E94533E809147
:104810005A0390915B0364E170E00E94D6408FE1FF
:1048200098EF60E070E00E94DF4083E00E94E84083
:1048300085E590E00E94F96020915A0330915B0376
:10484000C901449690935B0380935A03825391402D
:1048500060F4C901419660E170E045E150E02CE16F
:1048600030E000EE17E00E94533E10925004109288
:104870003A040E94EF030C94630C85EE80930704C6
:1048800082E98093080489E190E090930A04809380
:1048900009048CE180930B04222329F40E949D08D3
:1048A00081E08093500480910504882339F01092B0
:1048B00005040E94450885E590E00AC08091060441
:1048C000882361F0109206040E94450887E590E075
:1048D00090935303809352031092500480910404E8
:1048E000882311F40C94630C1092040480915A03F1
:1048F00090915B03039760E170E045E150E02CE1AB
:1049000030E000E010E00E94533E80915A03909105
:104910005B0364E170E00E94D6408FE198EF60E0B5
:1049200070E00E94DF4083E00E94E84086E590E06E
:104930000E94F96020915A0330915B03C9014496AB
:1049400090935B0380935A038253914060F4C901B2
:10495000419660E170E045E150E02CE130E000EE8E
:1049600017E00E94533E1092500410923A040E94A5
:10497000EF030C94630C81E38093070480EB809336
:10498000080489E190E090930A04809309048CE183
:1049900080930B04222329F40E949D0881E08093D8
:1049A000500480910504882339F0109205040E9478
:1049B000450886E590E00AC080910604882361F0EE
:1049C000109206040E94450888E590E090935303F6
:1049D000809352031092500480910404882311F4B0
:1049E0000C94630C1092040480915A0390915B0321
:1049F000039760E170E045E150E02CE130E000E039
:104A000010E00E94533E80915A0390915B0364E151
:104A100070E00E94D6408FE198EF60E070E00E9465
:104A2000DF4083E00E94E84087E590E00E94F96063
:104A300020915A0330915B03C901449690935B0324
:104A400080935A038253914060F4C901419660E11A
:104A500070E045E150E02CE130E000EE17E00E940C
:104A6000533E1092500410923A040E94EF030C94AB
:104A7000630C89E58093070480EB8093080489E147
:104A800090E090930A04809309048CE180930B04D6
:104A9000222329F40E949D0881E080935004809194
:104AA0000504882339F0109205040E94450887E523
:104AB00090E00AC080910604882361F010920604F9
:104AC0000E94450889E590E0909353038093520338
:104AD0001092500480910404882311F40C94630C08
:104AE0001092040480915A0390915B03039760E154
:104AF00070E045E150E02CE130E000E010E00E9481
:104B0000533E80915A0390915B0364E170E00E94F0
:104B1000D6408FE198EF60E070E00E94DF4083E0D4
:104B20000E94E84088E590E00E94F96020915A03D5
:104B300030915B03C901449690935B0380935A03C1
:104B40008253914060F4C901419660E170E045E113
:104B500050E02CE130E000EE17E00E94533E10924E
:104B6000500410923A040E94EF030C94630C81E805
:104B70008093070480EB8093080489E190E0909390
:104B80000A04809309048CE180930B04222329F406
:104B90000E949D0881E08093500480910504882341
:104BA00039F0109205040E94450888E590E00AC09B
:104BB00080910604882361F0109206040E94450843
:104BC0008AE590E09093530380935203109250042F
:104BD00080910404882311F40C94630C1092040453
:104BE00080915A0390915B03039760E170E045E187
:104BF00050E02CE130E000E010E00E94533E809154
:104C00005A0390915B0364E170E00E94D6408FE10B
:104C100098EF60E070E00E94DF4083E00E94E8408F
:104C200089E590E00E94F96020915A0330915B037E
:104C3000C901449690935B0380935A038253914039
:104C400060F4C901419660E170E045E150E02CE17B
:104C500030E000EE17E00E94533E10925004109294
:104C60003A040E94EF030C94630C89EA80930704D2
:104C700080EB8093080489E190E090930A0480938C
:104C800009048CE180930B04222329F40E949D08DF
:104C900081E08093500480910504882339F01092BC
:104CA00005040E94450889E590E00AC08091060449
:104CB000882361F0109206040E9445088BE590E07D
:104CC00090935303809352031092500480910404F4
:104CD000882311F40C94630C1092040480915A03FD
:104CE00090915B03039760E170E045E150E02CE1B7
:104CF00030E000E010E00E94533E80915A03909112
:104D00005B0364E170E00E94D6408FE198EF60E0C1
:104D100070E00E94DF4083E00E94E8408AE590E076
:104D20000E94F96020915A0330915B03C9014496B7
:104D300090935B0380935A038253914060F4C901BE
:104D4000419660E170E045E150E02CE130E000EE9A
:104D500017E00E94533E1092500410923A040E94B1
:104D6000EF030C94630C81ED8093070480EB809338
:104D7000080489E190E090930A04809309048CE18F
:104D800080930B04222329F40E949D0881E08093E4
:104D9000500480910504882339F0109205040E9484
:104DA00045088AE590E00AC080910604882361F0F6
:104DB000109206040E9445088CE590E090935303FE
:104DC000809352031092500480910404882311F4BC
:104DD0000C94630C1092040480915A0390915B032D
:104DE0008437910510F40C94630CE0915204E15067
:104DF000E0935204F0E0EE0FFF1FEB5BF74F1182E0
:104E00001082039760E170E045E150E02CE130E072
:104E100000E010E00E94533E80915A0390915B03A2
:104E2000449790935B0380935A0364E170E04FE0F2
:104E300050E025E130E00E946F3A80915A03909152
:104E40005B03039760E170E045E150E02CE130E066
:104E500000EE17E00E94533E1092500410923A0464
:104E60000C94630C89EF8093070480EB8093080413
:104E70008BE290E090930A04809309048CE1809384
:104E80000B04222329F40E949D0881E080935004A2
:104E900080910504882339F0109205040E9445088A
:104EA0008BE590E00AC080910604882361F010929F
:104EB00006040E94450881E490E090935303809398
:104EC00052031092500480910404882311F40C942E
:104ED000630C109204041092500481E080933A0411
:104EE000109251040E94EF0380E090E00E949F39ED
:104EF00080915A0390915B0364E170E00E94D64078
:104F0000E8E0AE2EB12C0C94630C80915104882300
:104F100009F07BC081E0809351048EE190E06AE06B
:104F200070E00E94D64080EE9FEF60E070E00E944B
:104F3000DF4084E00E94E84000D0E2E7F2E0ADB755
:104F4000BEB71296FC93EE9311970E94E4600F9007
:104F50000F9083E090E06AE270E04BE351E023E0E1
:104F600030E000EE1FEF0E948A3E89E590E060E4A9
:104F700070E00E94D6408FEF9FEF60E070E00E94EB
:104F8000DF4083E00E94E84000D0EEE7F2E0ADB7FA
:104F9000BEB71296FC93EE9311970E94E4600F90B7
:104FA0000F908DE790E06CE670E00E94D6408FEFA6
:104FB0009FEF60E070E00E94DF4083E00E94E840E5
:104FC00000D0ADB7BEB712963C922E9211970E94B8
:104FD000E4600F900F9083E790E068E970E00E9432
:104FE000D6408FEF9FEF60E070E00E94DF4083E0EB
:104FF0000E94E84000D02CE832E0EDB7FEB73283E3
:1050000021830E94E4600F900F90809151038230C1
:1050100009F443C0833009F47CC0813011F00C9452
:10502000630C82E5809307048BE3809308048BE98B
:1050300090E090930A048093090480E280930B042B
:105040000E949D0880910504882331F01092050488
:105050000E94450883E009C080910604882339F046
:10506000109206040E94450882E0809351038091CB
:105070000404882311F40C94630C1092040480E05F
:1050800090E00E949F391092510481E08093510377
:105090007BE0A72EB12C0C94630C87E78093070468
:1050A00087E68093080481E590E090930A0480935A
:1050B000090480E280930B040E949D0880910504FE
:1050C000882331F0109205040E94450881E009C050
:1050D00080910604882339F0109206040E94450846
:1050E00083E08093510380910404882311F40C948D
:1050F000630C1092040480E090E00E949F391092AB
:10510000510481E0809351036AE0A62EB12C0C94E7
:10511000630C8CE68093070483E98093080485E69A
:1051200090E090930A048093090480E280930B043A
:105130000E949D0880910504882331F01092050497
:105140000E94450882E009C080910604882339F056
:10515000109206040E94450881E0809351038091DB
:105160000404882311F40C94630C1092040480E06E
:1051700090E00E949F391092510481E08093510386
:105180005DE0A52EB12C0C94630C88E290E068E9F8
:1051900070E00E94D6408FEF9FEF60E070E00E94C9
:1051A000DF4083E00E94E84000D0E2E9F2E0ADB7E2
:1051B000BEB71296FC93EE9311970E94E4600F9095
:1051C0000F900C94630C80915104882311F00C947F
:1051D000630C81E08093510489E190E06AE070E023
:1051E0000E94D6408FEF9FEF60E070E00E94DF40AA
:1051F00084E00E94E84000D0EDE5F2E0ADB7BEB734
:105200001296FC93EE9311970E94E4600F900F901A
:105210000C94630C80915104882309F05FC081E0F5
:105220008093510483E790E06AE070E00E94D640EA
:1052300080EE9FEF60E070E00E94DF4084E00E941B
:10524000E84000D0ADB7BEB712963C922E921197AF
:105250000E94E4600F900F9083E090E06AE270E0BB
:105260004BE351E023E030E000EE1FEF0E948A3E66
:105270008AE590E06AE570E00E94D6408FEF9FEFEC
:1052800060E070E00E94DF4083E00E94E84000D0D0
:105290002EE932E0EDB7FEB7328321830E94E4604D
:1052A0000F900F9082E590E066E970E00E94D64092
:1052B0008FEF9FEF60E070E00E94DF4083E00E948C
:1052C000E84000D0E7EAF2E0ADB7BEB71296FC9333
:1052D000EE9311970E94E4600F900F901091590384
:1052E000113029F0123011F00C94630C42C085E5A6
:1052F000809307048093080487E990E090930A0460
:105300008093090480E280930B04809150048823E9
:1053100021F40E949D081093500480910504882375
:1053200019F01092050406C080910604882349F004
:10533000109206040E94450882E08093590310925F
:10534000500480910404882311F40C94630C10928F
:10535000040480E090E00E949F391092510481E0A3
:10536000809359031092500442E1A42EB12C0C9466
:10537000630C8DE48093070481E98093080489EA33
:1053800090E090930A048093090480E280930B04D8
:1053900080915004882321F40E949D0810935004AA
:1053A00080910504882319F01092050406C08091AD
:1053B0000604882349F0109206040E94450881E003
:1053C000809359031092500480910404882311F4AF
:1053D0000C94630C1092040480E090E00E949F39CA
:1053E0001092510481E0809359031092500438E0E8
:1053F000A32EB12C0C94630C8CE390E068E970E070
:105400000E94D6408FEF9FEF60E070E00E94DF4087
:1054100083E00E94E84000D0ECE8F2E0ADB7BEB710
:105420001296FC93EE9311970E94E4600F900F90F8
:105430000C94630C80915104882309F057C081E0DB
:105440008093510488E190E064E170E00E94D640CE
:1054500080EE9FEF60E070E00E94DF4082E00E94FB
:10546000E84000D0E1EBF2E0ADB7BEB71296FC9396
:10547000EE9311970E94E4600F900F9088E790E000
:1054800060E570E00E94D6408FEF9FEF60E070E033
:105490000E94DF4083E00E94E84000D0E9ECF2E0A7
:1054A000ADB7BEB71296FC93EE9311970E94E460DD
:1054B0000F900F908DE290E062E870E00E94D6407D
:1054C0008FEF9FEF60E070E00E94DF4083E00E947A
:1054D000E84000D0EEECF2E0ADB7BEB71296FC9318
:1054E000EE9311970E94E4600F900F901091540377
:1054F000113029F0123011F00C94630C43C083E793
:10550000809307048BE48093080480E590E09093F7
:105510000A048093090480E280930B048091500474
:10552000882321F40E949D08109350048091050463
:10553000882319F01092050406C080910604882380
:1055400049F0109206040E94450882E080935403BB
:105550001092500480910404882311F40C94630C7D
:105560001092040481E08093540380E090E00E9454
:105570009F3910925104109250042FE0A22EB12CAA
:105580000C94630C88E2809307048DE780930804F1
:1055900080EF90E090930A048093090480E2809366
:1055A0000B0480915004882329F40E949D0881E017
:1055B0008093500480910504882319F0109205040B
:1055C00006C080910604882349F0109206040E94C8
:1055D000450881E0809354031092500480910404A4
:1055E000882311F40C94630C1092040481E08093DE
:1055F000540380E090E00E949F3910925104109271
:1056000050049EE0A92EB12C0C94630C809154049C
:10561000882309F00AC480915104882309F0F3C05B
:1056200089E190E064E170E00E94D64080EE97E06E
:1056300060E070E00E94DF4084E00E94E84000D01B
:10564000ECEDF2E0ADB7BEB71296FC93EE93119776
:105650000E94E4600F900F900E94F90784E790E0A9
:1056600065E670E00E94D64080E29DEF60E070E069
:105670000E94DF4083E00E94E84081E390E00E94C6
:10568000F96088E990E065E670E00E94D64080E22B
:105690009DEF60E070E00E94DF4083E00E94E84000
:1056A00082E390E00E94F9608CEB90E065E670E0A8
:1056B0000E94D64080E29DEF60E070E00E94DF40F3
:1056C00083E00E94E84083E390E00E94F96084E771
:1056D00090E066E870E00E94D64080E29DEF60E0D6
:1056E00070E00E94DF4083E00E94E84084E390E0A5
:1056F0000E94F96088E990E066E870E00E94D64078
:1057000080E29DEF60E070E00E94DF4083E00E9455
:10571000E84085E390E00E94F9608CEB90E066E859
:1057200070E00E94D64080E29DEF60E070E00E9451
:10573000DF4083E00E94E84086E390E00E94F96049
:1057400084E790E067EA70E00E94D64080E29DEF37
:1057500060E070E00E94DF4083E00E94E84087E361
:1057600090E00E94F96088E990E067EA70E00E94AA
:10577000D64080E29DEF60E070E00E94DF4083E071
:105780000E94E84088E390E00E94F9608CEB90E092
:1057900067EA70E00E94D64080E29DEF60E070E032
:1057A0000E94DF4083E00E94E84089E390E00E948D
:1057B000F96084E790E068EC70E00E94D64080E2F7
:1057C0009DEF60E070E00E94DF4083E00E94E840CF
:1057D0008091450390E00E94F96088E990E068ECD0
:1057E00070E00E94D64080E29DEF60E070E00E9491
:1057F000DF4083E00E94E84080E390E00E94F9608F
:1058000081E08093510410915603153009F42EC1A4
:105810001630A8F4123009F466C0133040F4112396
:1058200009F4C3C2113011F00C94630C1DC0133085
:1058300009F49AC0143011F00C94630CD6C01830DF
:1058400009F4D7C1193040F4163009F450C11730AB
:1058500011F00C94630C8CC1193009F40BC21A308E
:1058600011F00C94630C47C280E78093070481E633
:105870008093080487E190E090930A0480930904E0
:105880008EE180930B0480915004882321F40E94C0
:105890009D081093500480910504882341F01092D4
:1058A00005040E94450810925603109250048091FE
:1058B0000604882349F0109206040E94450882E0FD
:1058C000809356031092500480910404882311F4AD
:1058D0000C94630C1092040481E08093C6070E942C
:1058E00031060C94630C84E98093070481E680936D
:1058F000080487E190E090930A04809309048EE104
:1059000080930B0480915004882329F40E949D0801
:1059100081E08093500480910504882349F010921F
:1059200005040E94450881E08093560310925004BC
:1059300080910604882349F0109206040E944508CD
:1059400083E08093560310925004809104048823CE
:1059500011F40C94630C1092040482E08093C60747
:105960000E9431060C94630C88EB8093070481E657
:105970008093080487E190E090930A0480930904DF
:105980008EE180930B0480915004882329F40E94B7
:105990009D0881E08093500480910504882349F09C
:1059A000109205040E94450882E0809356031092ED
:1059B000500480910604882349F0109206040E9446
:1059C000450884E0809356031092500480910404AB
:1059D000882311F40C94630C1092040483E08093E8
:1059E000C6070E9431060C94630C80E7809307047D
:1059F00081E88093080487E190E090930A04809303
:105A000009048EE180930B0480915004882329F4CB
:105A10000E949D0881E080935004809105048823B2
:105A200049F0109205040E94450883E080935603D4
:105A30001092500480910604882349F010920604C5
:105A40000E94450885E0809356031092500480918F
:105A50000404882311F40C94630C1092040484E071
:105A60008093C6070E9431060C94630C84E98093EE
:105A7000070481E88093080487E190E090930A048A
:105A8000809309048EE180930B0480915004882355
:105A900029F40E949D0881E08093500480910504C0
:105AA000882349F0109205040E94450884E0809301
:105AB00056031092500480910604882349F01092F6
:105AC00006040E94450886E0809356031092500415
:105AD00080910404882311F40C94630C1092040444
