:100000000C943D030C945A030C945A030C945A0319
:100010000C945A030C945A030C945A030C945A03EC
:100020000C945A030C945A030C945A030C945A03DC
:100030000C945A030C945A030C945A030C945A03CC
:100040000C945A030C945A030C945A030C945A03BC
:100050000C9490140C945A030C945A030C945A0365
:100060000C945A030C945A030C945A030C945A039C
:100070000C945A030C945A030C945A030000000089
:10008000003E5B4F5B3E3E6B4F6B3E1C3E7C3E1C1E
:10009000183C7E3C181C577D571C1C5E7F5E1C0064
:1000A000183C1800FFE7C3E7FF0018241800FFE71B
:1000B000DBE7FF30483A060E2629792926407F05DE
:1000C0000507407F05253F5A3CE73C5A7F3E1C1CF4
:1000D00008081C1C3E7F14227F22145F5F005F5FB4
:1000E00006097F017F006689956A606060606094A0
:1000F000A2FFA29408047E040810207E20100808A5
:100100002A1C08081C2A08081E101010100C1E0CAF
:100110001E0C30383E3830060E3E0E060000000041
:100120000000005F00000007000700147F147F1428
:10013000242A7F2A1223130864623649562050006D
:1001400008070300001C2241000041221C002A1C59
:100150007F1C2A08083E0808008070300008080844
:100160000808000060600020100804023E51494564
:100170003E00427F400072494949462141494D3382
:100180001814127F1027454545393C4A49493141E9
:10019000211109073649494936464949291E0000B7
:1001A000140000004034000000081422411414140C
:1001B0001414004122140802015909063E415D59F8
:1001C0004E7C1211127C7F494949363E4141412201
:1001D0007F4141413E7F494949417F090909013E2B
:1001E000414151737F0808087F00417F4100204052
:1001F000413F017F081422417F404040407F021C64
:10020000027F7F0408107F3E4141413E7F0909097A
:10021000063E4151215E7F09192946264949493246
:1002200003017F01033F4040403F1F2040201F3F0C
:100230004038403F63140814630304780403615991
:10024000494D43007F4141410204081020004141D3
:10025000417F04020102044040404040000307087F
:100260000020545478407F2844443838444444287B
:10027000384444287F385454541800087E09021822
:10028000A4A49C787F0804047800447D40002040AA
:10029000403D007F1028440000417F40007C0478EE
:1002A00004787C080404783844444438FC18242436
:1002B0001818242418FC7C080404084854545424B6
:1002C00004043F44243C4040207C1C2040201C3C33
:1002D0004030403C44281028444C9090907C44642A
:1002E000544C4400083641000000770000004136BD
:1002F000080002010204023C2623263C1EA1A16143
:10030000123A4040207A3854545559215555794174
:100310002254547842215554784020545579400C49
:100320001E5272123955555559395454545939552C
:100330005454580000457C410002457D420001456F
:100340007C407D1211127DF0282528F07C54554503
:10035000002054547C547C0A097F4932494949326F
:100360003A4444443A324A4848303A4141217A3A80
:1003700042402078009DA0A07D3D4242423D3D404C
:1003800040403D3C24FF2424487E4943662B2FFCFB
:100390002F2BFF0929F620C0887E090320545479A9
:1003A000410000447D413048484A32384040227A7A
:1003B000007A0A0A727D0D19317D2629292F2826F7
:1003C0002929292630484D402038080808080808FF
:1003D0000808382F10C8ACBA2F102834FA00007B58
:1003E000000008142A142222142A1408AA00550016
:1003F000AAAA55AA55AA000000FF00101010FF007D
:10040000141414FF001010FF00FF1010F010F0146F
:100410001414FC001414F700FF0000FF00FF141474
:10042000F404FC141417101F10101F101F141414C0
:100430001F00101010F0000000001F101010101FFF
:1004400010101010F010000000FF1010101010100D
:10045000101010FF10000000FF140000FF00FF004C
:10046000001F10170000FC04F414141710171414C4
:10047000F404F40000FF00F714141414141414F717
:1004800000F7141414171410101F101F141414F470
:10049000141010F010F000001F101F0000001F14B7
:1004A000000000FC140000F010F01010FF10FF140A
:1004B0001414FF141010101F00000000F010FFFFB4
:1004C000FFFFFFF0F0F0F0F0FFFFFF000000000082
:1004D000FFFF0F0F0F0F0F3844443844FC4A4A4ABD
:1004E000347E02020606027E027E026355494163A3
:1004F0003844443C04407E201E2006027E020299BD
:10050000A5E7A5991C2A492A1C4C7201724C304A55
:100510004D4D303048784830BC625A463D3E4949DE
:1005200049007E0101017E2A2A2A2A2A44445F4486
:100530004440514A444040444A51400000FF0103B6
:10054000E080FF000008086B6B0836123624360680
:100550000F090F06000018180000001010003040AE
:10056000FF0101001F01011E00191D1712003C3C74
:100570003C3C00000000006E616E00696E66000089
:10058000407A10F35A00A0724E18090010A5D4E862
:100590000000E87648170000E40B54020000CA9AF5
:1005A0003B000000E1F50500008096980000004047
:1005B000420F000000A0860100000010270000008C
:1005C00000E803000000006400000000000A0000D2
:1005D0000000000100000000002C76D888DC674F86
:1005E0000823DFC1DFAE59E1B1B796E5E3E453C6B6
:1005F0003AE651997696E8E6C28426EB898C9B62AE
:10060000ED407C6FFCEFBC9C9F40F2BAA56FA5F457
:1006100090055A2AF75C936B6CF9676DC11BFCE07F
:10062000E40D47FEF520E6B500D0ED902E030094D2
:100630003577050080841E080000204E0A00000067
:10064000C80C333333330F986E12831141EF8D2171
:1006500014893BE65516CFFEE6DB18D1844B381BD8
:10066000F77C1D901DA4BBE424203284725E22819D
:1006700000C9F124ECA1E53D270011241FBECFEFF6
:10068000D0E1DEBFCDBF11E0A0E0B1E0ECEAF5E3E0
:1006900002C005900D92A43BB107D9F711E0A4EB7D
:1006A000B1E001C01D92A73EB107E1F70E94DD0550
:1006B0000C94D41A0C9400002F923F924F925F92A8
:1006C0006F927F928F929F92AF92BF92CF92DF9262
:1006D000EF92FF920F931F93DF93CF93CDB7DEB7C7
:1006E0003B014C0119012A016D897E898F89988D02
:1006F0006A197B098C099D09621A730A840A950A92
:10070000A40193010E941818E218F30804091509BE
:10071000A80197010E9480182A0D3B1D4C1D5D1DEC
:10072000B901CA01CF91DF911F910F91FF90EF9016
:10073000DF90CF90BF90AF909F908F907F906F9001
:100740005F904F903F902F9008952F923F924F923D
:100750005F926F927F928F929F92AF92BF92CF9251
:10076000DF92EF92FF920F931F93DF93CF93CDB75A
:10077000DEB72C970FB6F894DEBF0FBECDBF9A83BD
:1007800089837C836B835E834D8338872F831A87AD
:10079000098721E0E216F10449F06EE8262E63E7AE
:1007A000362E5EE9852E57EF952E08C04EE9242E91
:1007B00047EF342E3EE8832E33E7932E89859A85C2
:1007C000880F991F22273327281B390B81E0E81651
:1007D000F10419F000E114E802C00AE812E56985A5
:1007E0007A85EB81FC816E0F7F1F4D815E81420F08
:1007F000531F8F819885280F391F89859A85E98134
:10080000FA818E0F9F1F0E94A2094F8058842B816E
:100810003C81420E531E6D807E8089819A81680ED4
:10082000791E1C861B86AA24BB243AC009811A8122
:10083000EB85FC850E0F1F1FEB80FC80EE0EFF1E6C
:10084000CD80DE80CA0CDB1CC801B701A601940173
:100850000E946609C801B201A60191010E946609C1
:10086000CF80D884CA0CDB1CC801B701A601940153
:100870000E942C09C301B701A60191010E942C0915
:100880002B853C852F5F3F4F3C872B878EEF9FEF5B
:10089000A80EB91E0894410851080894610871080F
:1008A000EB85FC8529853A852E173F070CF0BECFD6
:1008B0002C960FB6F894DEBF0FBECDBFCF91DF915F
:1008C0001F910F91FF90EF90DF90CF90BF90AF906E
:1008D0009F908F907F906F905F904F903F902F9060
:1008E00008952F923F924F925F926F927F928F92D4
:1008F0009F92AF92BF92CF92DF92EF92FF920F93AF
:100900001F93DF93CF93CDB7DEB72E970FB6F89432
:10091000DEBF0FBECDBF1C014B0139015801FC8267
:10092000EB826801CC0CDD1CD094C194D108D39427
:10093000465050402A014C0C5D1C4A5F5F4FEE242C
:10094000FF240E94A503C40103968A0D9B1D9E8768
:100950008D871A821982AAEFBFEF6A0E7B1E6C0C7C
:100960007D1C8B819C81AA2797FDA095BA2F8D8332
:100970009E83AF83B887C201AA2797FDA095BA2F9F
:1009800089879A87AB87BC87F3E08F2E912C820CE6
:10099000931C8A0C9B1C36C000D000D089859A8598
:1009A000AB85BC85EDB7FEB781839283A383B48307
:1009B0006D817E818F81988520E030E040E050E0BD
:1009C000E4E6EE2EF12C012D112DAA24BB246501A5
:1009D0000E945C030F900F900F900F909B01AC0151
:1009E000C4016D857E85A90120E030EF0E94660973
:1009F00089819A8101969A838983AD85BE851196F6
:100A0000BE87AD87E981FA81E615F7052CF22E96AF
:100A10000FB6F894DEBF0FBECDBFCF91DF911F910F
:100A20000F91FF90EF90DF90CF90BF90AF909F908D
:100A30008F907F906F905F904F903F902F90089590
:100A40000F931F93DF93CF93CDB7DEB7C055D04040
:100A50000FB6F894DEBF0FBECDBFA0961FADA09716
:100A600069968EAD9FAD69976B966EAD7FAD6B97B6
:100A70000E94FB0F6D968EAD9FAD6D976F966EAD1C
:100A80007FAD6F970E940410812F0E940D10FE0110
:100A9000ED59FF4F8E010F5F1F4FC80160E570E0F9
:100AA000A3964EAD5FADA3979F010E94361A00D06A
:100AB00000D080E091E0EDB7FEB79283818314838C
:100AC00003830E94EC190F900F900F900F90C05B62
:100AD000DF4F0FB6F894DEBF0FBECDBFCF91DF91D1
:100AE0001F910F9108954F925F926F927F928F9214
:100AF0009F92AF92BF92CF92DF92EF92FF920F93AD
:100B00001F93CF93DF934C01EB012901380157016B
:100B10000E94A50381E0A816B10429F40AE812E5B1
:100B20002FEF3FEF04C000E114E820E030E0ADB764
:100B3000BEB71C970FB6F894BEBF0FBEADBFEDB7E2
:100B4000FEB731968FE090E0880E991E860C971CB8
:100B500012969C928E9211972497C60DD71DC201B2
:100B600062E070E00E944B18C60FD71FD383C28388
:100B7000358324831783068381E090E09187808703
:100B8000D386C2860E9420058DB79EB70C960FB6FD
:100B9000F8949EBF0FBE8DBFDF91CF911F910F9133
:100BA000FF90EF90DF90CF90BF90AF909F908F908D
:100BB0007F906F905F904F900895CF92DF92EF9269
:100BC000FF920F931F93DF93CF93CDB7DEB760975C
:100BD0000FB6F894DEBF0FBECDBF559A5D9A249A2A
:100BE0002C98509A5898229A2A98239A2B983F9A90
:100BF00047983E9A46983C98449A3B98439A3D9829
:100C0000459A0A98129809981198549A5C988FE31B
:100C100091E09093E4018093E3010E94B40780E0A7
:100C200090E00E94D20883E00E94020A80E49FE1E3
:100C30000197F1F7479884E090E00E94BE1A8093F4
:100C4000C70180EE9FEF62E870E10E94041082E02D
:100C50000E940D1040916101509162012091630149
:100C60003091640180E090E060E070E000E010E02E
:100C70000E94AF0D82E890E064EB70E00E94FB0FF1
:100C800000D083E091E0EDB7FEB7928381830E94AC
:100C9000EC19DE011196E5E5F1E088E001900D9296
:100CA0008150E1F7DE011996EDE4F1E088E0019072
:100CB0000D928150E1F70F900F9088E090E00E9434
:100CC000BE1A9093B5018093B401E091BC014E2F00
:100CD00050E02DB73EB72E5030400FB6F8943EBFCF
:100CE0000FBE2DBFADB7BEB711962AE030E0EDB70D
:100CF000FEB7328321836CEDE62EF12C1396FC9225
:100D0000EE921297440F551F8E010F5F1F4F400F39
:100D1000511FFA012081318115963C932E9314972F
:100D20002085318517963C932E93169721E030E06D
:100D300019963C932E93189723E131E01B963C9330
:100D40002E931A971D969C938E931C970E942005B4
:100D50002DB73EB7225F3F4F0FB6F8943EBF0FBE90
:100D60002DBF8CE090E00E94BE1A9093BB0180934F
:100D7000BA01E091BC014E2F50E0EDB7FEB73E97AF
:100D80000FB6F894FEBF0FBEEDBFADB7BEB711965C
:100D90002DEC30E0328321831396FC92EE92129771
:100DA000440F551F400F511FFA01208131811596C4
:100DB0003C932E9314972085318517963C932E9360
:100DC000169722E030E019963C932E9318972CE169
:100DD00031E01B963C932E931A971D969C938E930D
:100DE0001C970E9420052DB73EB7225F3F4F0FB6DC
:100DF000F8943EBF0FBE2DBF8AE090E06AE070E03D
:100E000046E950E028E230E002E010E0EE24FF2462
:100E1000F5E2CF2EF1E0DF2E0E9473058AE090E02C
:100E20006CE370E046E950E028E230E0E1E0EE2ECD
:100E3000F12CB2E3CB2EB1E0DB2E0E947305CC2463
:100E4000DD248AE090E06EE670E046E950E028E2BA
:100E500030E002E010E076010E9471040894C11CA9
:100E6000D11C34E6C316D10461F7FFCF8FEF8AB9E6
:100E70005F9A8AB184618AB9089584B1806B84B91C
:100E8000269880E58CBD8DB581608DBD5A9A0895F8
:100E90008EBD0DB407FEFDCF08959BB19B7E9BB91F
:100EA0008EBD0DB407FEFDCF5A9A08955C9A5A98EC
:100EB0008EBD0DB407FEFDCF5A9A0895BF92CF9212
:100EC000DF92EF92FF920F931F93F82E192FB62EF9
:100ED000C72EE42E052FD22E8AE20E944D07812FC5
:100EE0000E9456078F2D0E945607802F0E9456079A
:100EF0008E2D0E9456078BE20E944D078C2D0E947A
:100F000056078B2D0E9456078D2D0E9456078D2D5A
:100F10000E9456078CE20E944D071F910F91FF908F
:100F2000EF90DF90CF90BF9008955F9A80ED97E0AB
:100F300020E931E0F9013197F1F70197D9F75F988E
:100F400080ED97E020E931E0F9013197F1F7019761
:100F5000D9F75F9A80ED97E020E931E0F901319708
:100F6000F1F70197D9F708958FEF8AB95F9A8AB19F
:100F700084618AB90E943D0781E00E944D0780E1AB
:100F800097E220E931E0F9013197F1F70197D9F7BC
:100F90008BEC0E944D0789E30E9456078CE20E9469
:100FA000560780E00E94560784E30E94560782E0BD
:100FB0000E9456078FEC0E944D0780E00E94560762
:100FC00081EC0E94560780E30E94560788EE0E943B
:100FD0004D0785E80E94560780E00E94560788E783
:100FE0000E9456078AEE0E944D0780E00E94560735
:100FF00080E00E9456078DEE0E944D0784E60E9415
:10100000560783E00E94560782E10E94560781E856
:101010000E94560787EF0E944D0780E20E94560704
:1010200080EC0E944D0783E20E94560781EC0E94EB
:101030004D0780E10E94560785EC0E944D078EE324
:101040000E94560788E20E94560787EC0E944D07CF
:1010500086E80E94560786E30E944D0788E40E94B6
:1010600056078AE30E944D0785E00E94560781EBF0
:101070000E944D0780E00E94560788E10E945607B3
:1010800086EB0E944D0788E00E94560782E80E9486
:10109000560787E20E94560782EF0E944D0780E0C4
:1010A0000E94560786E20E944D0781E00E94560783
:1010B00080EE0E944D078FE00E94560781E30E9458
:1010C00056078BE20E9456078CE00E9456078EE07E
:1010D0000E94560788E00E9456078EE40E94560739
:1010E00081EF0E94560787E30E94560787E00E941F
:1010F000560780E10E94560783E00E9456078EE063
:101100000E94560789E00E94560780E00E94560719
:1011100081EE0E944D0780E00E9456078EE00E94FB
:10112000560784E10E94560783E00E94560781E13A
:101130000E94560787E00E94560781E30E945607E7
:1011400081EC0E94560788E40E94560788E00E94BE
:1011500056078FE00E9456078CE00E94560781E3F5
:101160000E94560786E30E9456078FE00E945607AA
:1011700081E10E944D0780EB94E020E931E0F90124
:101180003197F1F70197D9F789E20E944D07089549
:101190001F93182F892F0E945607812F0E945607F0
:1011A0001F910895EF92FF920F931F93CF93DF93B8
:1011B0007C0140915D0150915E0120915F01309171
:1011C0006001415050402150304080E090E060E0AC
:1011D00070E00E945E0700E010E00DC0C7010E94B1
:1011E000C808219680915F0190916001C817D907C6
:1011F000A8F30F5F1F4F80915D0190915E0108176A
:10120000190718F4C0E0D0E0EDCFDF91CF911F9126
:101210000F91FF90EF900895CF93DF93FC019B0116
:10122000EA0180915D0190915E01E817F90788F469
:1012300080915F01909160016817790750F4CF01A8
:101240003196AF012F5F3F4F0E945E07CE010E9493
:10125000C808DF91CF9108950F931F93CF93DF9329
:10126000DC01EA01890180915D0190915E01A8177E
:10127000B90738F580915F0190916001681779078F
:1012800000F5FB01319720915F0130916001CF01A2
:10129000840F951F8217930730F0C0915F01D091A2
:1012A0006001C61BD70BEC0FFD1FCD01AD019F01E7
:1012B0000E945E0704C0C8010E94C80821972097B9
:1012C000D1F7DF91CF911F910F9108950F931F9345
:1012D000CF93DF93FC01DB01EA01890180915D017D
:1012E00090915E01E817F90740F580915F019091B8
:1012F00060016817790708F5AF014150504020910F
:101300005D0130915E01CA018C0F9D1F821793070A
:1013100030F0C0915D01D0915E01CE1BDF0B4C0F10
:101320005D1FCF01BD019D010E945E0704C0C80181
:101330000E94C80821972097D1F7DF91CF911F9184
:101340000F910895CF92DF92EF92FF920F931F9328
:10135000CF93DF93DC017A01E901680180915D019F
:1013600090915E01A817B90708F043C080915F0112
:101370009091600168177907E0F5AD014150504048
:1013800020915D0130915E01CA018E0D9F1D821773
:10139000930730F0E0905D01F0905E01EA1AFB0ADD
:1013A000FB01319720915F0130916001CF018C0FDB
:1013B0009D1F8217930730F0C0915F01D0916001AB
:1013C000C61BD70B4E0D5F1DEC0FFD1FCD019F01FE
:1013D0000E945E078E0108C0C6010E94C8082197BE
:1013E0002097D1F7015010400115110511F0E701C8
:1013F000F7CFDF91CF911F910F91FF90EF90DF908A
:10140000CF9008951F93182F86E30E944D07137005
:10141000113049F0113028F0123039F0133001F555
:1014200010C088E403C088E20DC088E80E94560717
:1014300080EF90E090935E0180935D0180E491E005
:101440000BC088EE0E94560780E491E090935E0105
:1014500080935D0180EF90E09093600180935F0145
:101460001F9108952F923F924F925F926F927F92B9
:101470008F929F92AF92BF92CF92DF92EF92FF92A4
:101480000F931F93DF93CF9300D000D000D0CDB740
:10149000DEB72C013B018A013E832D8331E0232EF0
:1014A000312C241A350ACA01880F991F22273327A5
:1014B000281B390B3A832983BA01660D771DC201B7
:1014C0004D815E810E940C09B301601B710BC2014A
:1014D0004D815E810E940C09C801840D951DB301E8
:1014E0004D815E810E940C09C201801B910BB301EA
:1014F0004D815E810E940C09480181E090E09C834F
:101500008B83AA24BB245FC037FC0AC008948108DF
:101510009108E981FA813296FA83E9832E0E3F1E03
:101520000894A11CB11C2B813C812E5F3F4F3C8352
:101530002B83220E331E6501C40CD51C8401060DBD
:10154000171DC601B8014D815E810E940C09720110
:10155000EA18FB08C701B8014D815E810E940C09A1
:10156000830108191909C601B8014D815E810E94E5
:101570000C09C701B8014D815E810E940C0964010C
:10158000C40CD51C8501060D171DC601B8014D817F
:101590005E810E940C097201E818F908C701B801C0
:1015A0004D815E810E940C0983010A191B09C60145
:1015B000B8014D815E810E940C09C701B8014D81BF
:1015C0005E810E940C09A814B9040CF49DCF2696E4
:1015D0000FB6F894DEBF0FBECDBFCF91DF911F9144
:1015E0000F91FF90EF90DF90CF90BF90AF909F90C2
:1015F0008F907F906F905F904F903F902F900895C5
:101600002F923F924F925F926F927F928F929F9212
:10161000AF92BF92CF92DF92EF92FF920F931F9300
:10162000DF93CF93CDB7DEB760970FB6F894DEBFE8
:101630000FBECDBF5C016B0171E0E72EF12CE41A07
:10164000F50ACA01880F991F66277727681B790B4F
:101650007C836B83160108942108310825010894C6
:101660004108510836010894611C711C4501089419
:10167000811C911C588B4F8781E090E09E838D8365
:101680001A82198230E0F901E470F070F887EF8374
:10169000B901627070707A876987C901887090702B
:1016A0009C878B87F901E170F070FE87ED877CC025
:1016B000F7FC0EC02F85388921503040388B2F879A
:1016C0006B817C816E5F7F4F7C836B83E60EF71EA0
:1016D00089819A8101969A838983ED81FE81329670
:1016E000FE83ED83EE0EFF1E2F813885232B81F0C4
:1016F0006F8578896C0D7D1DC401A8010E940C09BD
:101700008F8598898A0D9B1DB301A8010E940C0941
:1017100069857A85672B89F0B6018F859889681B62
:10172000790BC401A8010E940C098F8598898A0D44
:101730009B1DB101A8010E940C09EB85FC85EF2BD4
:1017400089F0C5012F853889821B930BB301A8014D
:101750000E940C096F8578896C0D7D1DC201A8015E
:101760000E940C096D857E85672B91F0C501EF8580
:10177000F8898E1B9F0BB101A8010E940C09B601CC
:101780002F853889621B730BC201A8010E940C09C6
:101790000894210831080894410851080894611CF4
:1017A000711C0894811C911C69817A818F859889AC
:1017B000681779070CF47CCF60960FB6F894DEBFFB
:1017C0000FBECDBFCF91DF911F910F91FF90EF9092
:1017D000DF90CF90BF90AF909F908F907F906F9051
:1017E0005F904F903F902F900895FA01AB014150C8
:1017F00050404E0F5F1F0E942C0908952F923F9278
:101800004F925F926F927F928F929F92AF92BF9210
:10181000CF92DF92EF92FF920F931F93DF93CF93BC
:10182000CDB7DEB72A970FB6F894DEBF0FBECDBF97
:101830002C017C836B83370161E0E62EF12CE41AE6
:10184000F50ACA01880F991F66277727681B790B4D
:101850007A8369838B809C80089481089108B3E027
:10186000AB2EB12CA00EB11E5A874987A1E02A2EBB
:10187000312CCC24DD2430E0C901817090709E832E
:101880008D830F5F1F4FF901E270F070F887EF83CF
:101890005DC0F7FC0EC029853A85215030403A875B
:1018A000298769817A816E5F7F4F7A836983E60E2B
:1018B000F71E0894C11CD11C82E090E0280E391E4E
:1018C000E20CF31CED81FE81EF2BD1F06B817C816A
:1018D00029853A85621B730BA901440F551F400FE0
:1018E000511FC601840D951D93010E94F50B89853A
:1018F0009A85840D951DB401A50193010E94F50BF5
:101900006F817885672BD9F06B817C8189859A8579
:10191000681B790BAC01440F551F400F511FC201CA
:101920008C199D0993010E94F50BC201E985FA8586
:101930008E1B9F0BB401A50193010E94F50B089427
:101940008108910822E030E0A20EB31E69857A85F5
:10195000C616D7060CF49DCF2A960FB6F894DEBFB4
:101960000FBECDBFCF91DF911F910F91FF90EF90F0
:10197000DF90CF90BF90AF909F908F907F906F90AF
:101980005F904F903F902F900895AF92BF92CF926B
:10199000DF92EF92FF920F931F936C015B018A011C
:1019A0007901641B750B440F551F4F5F5F4F0E94F9
:1019B0002C09C601B501A80123E000E010E00E9457
:1019C000FE0B1F910F91FF90EF90DF90CF90BF9093
:1019D000AF900895FA01AC01415050404E0F5F1F87
:1019E0000E94660908952F923F924F925F926F92E4
:1019F0007F928F929F92AF92BF92CF92DF92EF929F
:101A0000FF920F931F93CF93DF937C016B015A01D9
:101A1000A901180144245524261B370B37FF03C0A6
:101A2000309521953F4FC5018E199F0997FF03C03F
:101A3000909581959F4F821793074CF4A1E04A2E11
:101A4000512CCA01A5015C01C70176016C01AE14DD
:101A5000BF0434F4CA01A6016C01C70175015C0121
:101A600035016E187F088A010C191D0917FF03C084
:101A7000109501951F4FC416D50624F088248A942A
:101A8000982C03C0F1E08F2E912CC30162E070E02E
:101A90000E944B18EB0116C04114510419F0C60105
:101AA000B70102C0C701B601A1010E940C09C01B09
:101AB000D10BD7FF04C0C80CD91CC60DD71D089484
:101AC000E11CF11CAE14BF043CF7DF91CF911F91D4
:101AD0000F91FF90EF90DF90CF90BF90AF909F90CD
:101AE0008F907F906F905F904F903F902F900895D0
:101AF0008F929F92AF92BF92CF92DF92EF92FF921E
:101B00000F931F937C016B015A01490198010E94B8
:101B1000EA0CB60161507040680D791DC701A5013E
:101B200098010E94EA0CC701B601A40198010E9425
:101B3000F50B0894E108F108C7018A0D9B1DB60159
:101B4000A40198010E94F50B1F910F91FF90EF9057
:101B5000DF90CF90BF90AF909F908F900895AF92FD
:101B6000BF92CF92DF92EF92FF920F931F93CF938A
:101B7000DF935B017A016901EC01E80EF91E07C0F1
:101B8000CE01B501A60198010E94F50B2196CE1554
:101B9000DF05B4F3DF91CF911F910F91FF90EF908C
:101BA000DF90CF90BF90AF9008952F923F924F92C9
:101BB0005F926F927F928F929F92AF92BF92CF92DD
:101BC000DF92EF92FF920F931F93DF93CF9300D09A
:101BD00000D0CDB7DEB71C013B016A013A832983EF
:101BE0004801C801820D931D9C838B83000F111F38
:101BF000109501951F4F2801440E551EA201970113
:101C00000E94EA0CA980BA80A60CB71C0894A1080F
:101C1000B1088B819C81B501A20197010E94EA0C59
:101C2000680C791CE981FA810E0F1F1FC101B301F5
:101C3000A80197010E94F50BC20CD31C0894C1089F
:101C4000D108C601B301A80197010E94F50B8B8151
:101C50009C81B301A40121E087010E94000BC818F8
:101C6000D908C601B301A40122E00E94000BA81804
:101C7000B908C601B501A40124E00E94000B8B81C4
:101C80009C81B501A40128E00E94000B0F900F90E9
:101C90000F900F90CF91DF911F910F91FF90EF90D8
:101CA000DF90CF90BF90AF909F908F907F906F907C
:101CB0005F904F903F902F9008952F923F924F92B8
:101CC0005F926F927F928F929F92AF92BF92CF92CC
:101CD000DF92EF92FF920F931F93CF93DF935C01FC
:101CE0002B011A01690148013701E801C80FD91F0A
:101CF0007801EE0CFF1CF094E194F108F394A70135
:101D0000420D531DCE0183010E94AF0D480C591C9A
:101D10000894C108D108CE0CDF1C0894A108B108B2
:101D2000A20CB31CC50188199909B201A40121E0D4
:101D3000860173010E94FE0BCE01B201A40122E0D4
:101D40000E94FE0BDF91CF911F910F91FF90EF90BA
:101D5000DF90CF90BF90AF909F908F907F906F90CB
:101D60005F904F903F902F9008952F923F924F9207
:101D70005F926F927F928F929F92BF92CF92DF92EB
:101D8000EF92FF920F931F93DF93CF93CDB7DEB700
:101D900028970FB6F894DEBF0FBECDBF9A83898314
:101DA0007C836B835E834D83390118012701C90150
:101DB000079668E070E00E944B188B01EE24FF2428
:101DC000CC24DD2431C08F81988587709070892B59
:101DD00011F0BB0C0EC0EF81F88583E0F595E79517
:101DE0008A95E1F7EC0DFD1D2D813E81E20FF31F79
:101DF000B490B7FE0AC089819A81AF81B8858A0FF5
:101E00009B1FB401A2010E940C09EF81F885319655
:101E1000F887EF832F81388526153705A4F20894BB
:101E2000E11CF11CC00ED11EE214F3043CF4188630
:101E30001F828B809C808E0C9F1CECCF28960FB647
:101E4000F894DEBF0FBECDBFCF91DF911F910F91F0
:101E5000FF90EF90DF90CF90BF909F908F907F90FA
:101E60006F905F904F903F902F9008952F923F92E8
:101E70004F925F926F927F928F929F92BF92CF927A
:101E8000DF92EF92FF920F931F93DF93CF93CDB723
:101E9000DEB728970FB6F894DEBF0FBECDBF9A838A
:101EA00089837C836B835E834D833901180127010D
:101EB000C901079668E070E00E944B188B01EE2480
:101EC000FF24CC24DD2431C08F81988587709070E9
:101ED000892B11F0B6940EC0EF81F88593E0F5954B
:101EE000E7959A95E1F7EC0DFD1D2D813E81E20FFE
:101EF000F31FB490B0FE0AC089819A81AF81B88582
:101F00008A0F9B1FB401A2010E940C09EF81F88582
:101F10003196F887EF832F81388526153705A4F28F
:101F20000894E11CF11CC00ED11EE214F3043CF431
:101F300018861F828B809C808E0C9F1CECCF28966D
:101F40000FB6F894DEBF0FBECDBFCF91DF911F91CA
:101F50000F91FF90EF90DF90CF90BF909F908F9068
:101F60007F906F905F904F903F902F900895809159
:101F7000DC019091DD019093D7018093D60180918F
:101F8000CA019091CB019093D5018093D40108951B
:101F90008091DC019091DD019093D1018093D0017B
:101FA0008091CA019091CB019093D9018093D8017F
:101FB00008958091DC019091DD019093D30180938D
:101FC000D2018091CA019091CB019093E00180935E
:101FD000DF0108958091DC019091DD019093CD01A6
:101FE0008093CC018091CA019091CB019093CF0155
:101FF0008093CE0108959093DD018093DC0170936E
:10200000CB016093CA0108959093DB018093DA01BC
:102010007093C9016093C8010895893028F488231A
:1020200009F481E08093DE0108952F923F924F9250
:102030005F926F927F928F929F92AF92BF92CF9258
:10204000DF92EF92FF920F931F93DF93CF93CDB761
:10205000DEB728970FB6F894DEBF0FBECDBF1B01C9
:102060003C832B831E830D835E2C98878F83809106
:102070005D0190915E012F8138852817390708F09E
:1020800083C080915F01909160016817790708F023
:102090007BC06E2C7724C301880F991F860D971D76
:1020A000880F991F820F931F181619060CF06CC029
:1020B000C30153E0880F991F5A95E1F7820D931DD4
:1020C000181619060CF060C085E0489F50011124D5
:1020D0008CE790E0A80EB91E49011A829A819530CA
:1020E00011F4442402C0F501449061017101198288
:1020F00040FE12C0F1E05F1631F48F819885B70180
:102100004B815C8117C0C401B601452D50E0252DDF
:1021100030E00B811C8119C02D813E818B819C8117
:1021200028173907A1F091E0591639F48F81988565
:10213000B701A9010E940C090AC0C401B601452DCE
:1021400050E0252D30E00D811E810E94A209E98119
:10215000EF5FE983C60CD71C0894E11CF11CE83042
:1021600011F04694C5CFFA81FF5FFA83860C971C65
:102170002F8138852F5F3F4F38872F830894A11C0C
:10218000B11CF63009F0AACF28960FB6F894DEBF3E
:102190000FBECDBFCF91DF911F910F91FF90EF90B8
:1021A000DF90CF90BF90AF909F908F907F906F9077
:1021B0005F904F903F902F900895EF920F931F9351
:1021C000482F8A30B9F42091CA013091CB01809117
:1021D000DE0190E0E3E0880F991FEA95E1F7820FB6
:1021E000931F9093CB018093CA011092DD0110924E
:1021F000DC0126C08D3021F18091DC019091DD0160
:102200006091CA017091CB012091DA013091DB011C
:102210000091C8011091C901E090DE010E941510E3
:102220004091DC015091DD018091DE0126E0829F2A
:10223000C0011124840F951F9093DD018093DC0170
:102240001F910F91EF9008953F924F925F926F927E
:102250007F928F929F92AF92BF92CF92DF92EF9236
:10226000FF920F931F9385EA91E09093E40180938E
:10227000E30164E0E62EF12CF092DD01E092DC0156
:10228000F092CB01E092CA0100E41FE1C80101977E
:10229000F1F780EE97E09093DB018093DA011092E2
:1022A000C9011092C801C8010197F1F752E0D52E7B
:1022B000D092DE01C8010197F1F700D085E691E0E8
:1022C000EDB7FEB7928381830E94EC19C801019794
:1022D000F1F780E098EF9093DB018093DA011092A0
:1022E000C9011092C801C8010197F1F7D092DE012F
:1022F000C8010197F1F78DE691E0EDB7FEB7928343
:1023000081830E94EC19C8010197F1F7F092DD0179
:10231000E092DC0148E2642E712C7092CB01609255
:10232000CA01C8010197F1F78FEF97E09093DB01A5
:102330008093DA011092C9011092C801C801019777
:10234000F1F734E0C32EC092DE01C8010197F1F726
:102350000F900F9086E50E94DD10C8010197F1F7FC
:102360008091CA019091CB0106969093CB01809306
:10237000CA0123E0D22ED092DE01C8010197F1F705
:102380009EE7A92E91E0B92EC5010E94011AC8014D
:102390000197F1F78091CA019091CB010C9690932F
:1023A000CB018093CA018091DC019091DD01909373
:1023B000D7018093D6018091CA019091CB0190936F
:1023C000D5018093D40100D082E891E0EDB7FEB74B
:1023D000928381830E94EC19C8010197F1F7F09272
:1023E000DD01E092DC0188E7882E912C9092CB01F0
:1023F0008092CA01C8010197F1F7C092DE01C801BD
:102400000197F1F70F900F9086E50E94DD10C8014B
:102410000197F1F78091CA019091CB0106969093B4
:10242000CB018093CA01D092DE01C8010197F1F778
:1024300089E891E00E94011AC8010197F1F78091A3
:10244000DC019091DD019093D1018093D0018091C6
:10245000CA019091CB019093D9018093D801B5E046
:102460003B2E3092DE0100D0A1E94A2EA1E05A2E87
:10247000EDB7FEB7528241820E94EC19C801019764
:10248000F1F7F4EAEF2EF12CF092DD01E092DC019D
:102490007092CB016092CA01C8010197F1F780EEFA
:1024A0009FEF9093DB018093DA011092C9011092A3
:1024B000C801C8010197F1F7C092DE01C801019778
:1024C000F1F70F900F9089E40E94DD10C801019789
:1024D000F1F78091CA019091CB0106969093CB01C0
:1024E0008093CA01D092DE01C8010197F1F700D0B4
:1024F000EDB7FEB7B282A1820E94EC19C801019724
:10250000F1F7F092DD01E092DC018091CA01909137
:10251000CB0184969093CB018093CA018091DC011A
:102520009091DD019093D3018093D2018091CA01F3
:102530009091CB019093E0018093DF01D092DE0176
:1025400087E991E0EDB7FEB7928381830E94EC1991
:10255000C8010197F1F7F092DD01E092DC01909261
:10256000CB018092CA01C8010197F1F7C092DE0148
:10257000C8010197F1F70F900F9089E40E94DD10D8
:10258000C8010197F1F78091CA019091CB0106969D
:102590009093CB018093CA01D092DE01C8010197CC
:1025A000F1F700D08EE991E0EDB7FEB79283818319
:1025B0000E94EC19C8010197F1F7F092DD01E09259
:1025C000DC018091DC019091DD019093CD0180933D
:1025D000CC018091CA019091CB019093CF0180935F
:1025E000CE018091CA019091CB01C0969093CB010E
:1025F0008093CA013092DE01EDB7FEB7528241826C
:102600000E94EC1920E23EE40F900F9040E951E067
:10261000CA010197F1F721503040D1F71F910F9176
:10262000FF90EF90DF90CF90BF90AF909F908F90F2
:102630007F906F905F904F903F9008950E94DD10C3
:1026400081E090E0089521E030E002C0220F331FC6
:102650008A95E2F7226220937C0084EC80937A00D2
:1026600080917A0086FDFCCF80917900089584EAFC
:102670008093BC008091BC0087FFFCCF089584E963
:102680008093BC0008958093BB0084E88093BC00D5
:102690008091BC0087FFFCCF08958091B900887FAE
:1026A000089584EC8093BC008091BC0087FFFCCF30
:1026B0008091BB00089584E88093BC008091BC00A9
:1026C00087FFFCCF8091BB0008951092C50087E67C
:1026D0008093C40086E08093C20088E98093C100A3
:1026E00008951F93182F8A3019F48DE00E947113FA
:1026F0008091C00085FFFCCF1093C6001F91089504
:102700001F93182F82958F708A3010F4805D01C05E
:10271000895A0E947113812F90E08F709070212F41
:102720002F700A971CF4822F805D02C0822F895A75
:102730000E9471131F9108951F93182F892F0E94D3
:102740008013812F0E9480131F910895EF92FF92B2
:102750000F931F937B018C01C801AA27BB270E94FE
:102760009C13C7010E949C131F910F91FF90EF9043
:102770000895CF92DF92FF920F931F93CF93DF9331
:102780006C01C0E1D7E240E000E010E0C601BE010C
:102790000E943718F62E662329F4442319F4C13019
:1027A000D10529F48F2D805D0E94711341E0CE0187
:1027B0006AE070E00E9437180F5F1F4F0530110567
:1027C00071F08F2D90E09C012C9FC0012D9F900DEA
:1027D0003C9F900D1124C81AD90AEB01D7CFDF9185
:1027E000CF911F910F91FF90DF90CF9008954F925E
:1027F0005F926F927F928F929F92AF92BF92CF9291
:10280000DF92EF92FF920F931F93CF93DF935B01C1
:102810006C01E12C9AECF92E9AE9092F9BE3192F10
:102820004424C0E0D0E0C601B501A80197010E9490
:102830005E18922E222341F4442031F481E0E81600
:10284000F1040105110531F4892D805D0E94711399
:1028500044244394C801B7012AE030E040E050E04E
:102860000E945E18822E732E642E552E2196CA3039
:10287000D105A9F0692D70E080E090E0A8019701F2
:102880000E941818A61AB70AC80AD90A282D372D87
:10289000462D552DC901DA017C018D01C4CFDF9190
:1028A000CF911F910F91FF90EF90DF90CF90BF904D
:1028B000AF909F908F907F906F905F904F90089512
:1028C000CF93DF93EC0103C021960E94711388819E
:1028D0008823D1F7DF91CF910895CF93DF93EC0157
:1028E000FE0121968491882319F00E947113F8CF7C
:1028F000DF91CF9108959FB7789407C083B7816027
:1029000083BF889583B78E7F83BF8091C00087FF88
:10291000F5CF9FBF8091C6008D3009F48AE00895FD
:102920001895A1E1B0E0E7E9F4E10C949B183C01B3
:102930007F876E876A01FC0117821682838181FD81
:1029400003C06FEF7FEF6FC39E012F5F3F4F398B47
:10295000288BF3012381EE85FF8523FD859123FFDD
:102960008191FF87EE87882309F45AC3853251F499
:10297000EE85FF8523FD859123FF8191FF87EE87FB
:10298000853229F490E0B3010E94C019E2CF982F5C
:1029900010E0882499241032B0F49B3269F09C3204
:1029A00028F4903251F0933271F40BC09D3239F01B
:1029B000903349F4116028C01260146025C018607B
:1029C00023C0106121C017FD2AC0892F80538A308F
:1029D00078F416FF06C0FAE09F9E902C1124980E02
:1029E00013C03AE0839E802C1124880E10620CC024
:1029F0009E3221F416FD14C3106406C09C3611F4F7
:102A0000106802C0983659F4EE85FF8523FD959134
:102A100023FF9191FF87EE87992309F0BCCF892F7F
:102A20008554833020F4812F8061905E07C0892F08
:102A30008556833008F09FC1812F8F7E86FD02C0AE
:102A400076E0972E6FE3F62EF822953619F4F0E42F
:102A5000FF2A07C0963619F420E8F22A02C0911026
:102A60009A94F7FE0AC03BE3391518F45CE3B52EDF
:102A700002C0B92CB39427E009C047E0491520F4FF
:102A8000BB2447E0942EF7CF292DBB24C601049622
:102A90009D878C87F6016081718182819381AE016F
:102AA0004F5F5F4F0B2D0E94D2186C010981202EC1
:102AB000332400FF04C003FD02C01DE209C0F1FE83
:102AC00002C01BE205C0F2FC02C010E001C010E22F
:102AD000C1018C709070892BB9F1112311F483E03E
:102AE00001C084E0881510F088240AC0881AF3FC1D
:102AF00007C080E290E0B3010E94C0198A94C9F730
:102B0000112329F0812F90E0B3010E94C01923FE08
:102B100003C007E715E00EC00BE715E00BC0E1149A
:102B2000F10409F0805290E0B3010E94C0190F5FD8
:102B30001F4F05C0EF2CFF24F0E1EF22FF24F80126
:102B40008491882361F714C1F7FE12C0BC0C24FEE7
:102B500004C08A81813309F4BA941B141CF0BB248D
:102B6000B3942DC0F8E0FB1550F538E0B32E27C024
:102B7000F6FC25C0892D90E08C159D054CF02CEFBE
:102B8000C2162FEFD20624F030E8F32A01C09A943F
:102B9000992049F0E2E0F0E0EC0FFD1FE90DF11D96
:102BA00080818033A1F3F7FE0AC0B92CB394892D3C
:102BB00090E0C816D90614F0992401C09C18F7FCBF
:102BC00003C025E030E009C01C141D041CF021E006
:102BD00030E003C096012F5F3F4F112311F02F5FAC
:102BE0003F4F992029F0892D90E00196280F391F39
:102BF000882D90E02817390714F0882401C0821A24
:102C00004F2C5524C20189709070892B39F008C06F
:102C100080E290E0B3010E94C0198A948820C1F735
:102C2000112329F0812F90E0B3010E94C01943FEC7
:102C300007C008C080E390E0B3010E94C0198A94E5
:102C40008820C1F7F7FE46C08601D7FE02C000E02B
:102C500010E076010894E11CF11CE01AF10A41E051
:102C600050E04C0F5D1FE40EF51E26014B18510875
:102C7000892D90E0AA24BB24A81AB90A5FEF0F3F60
:102C8000150729F48EE290E0B3010E94C019C01626
:102C9000D10634F0401651061CF4F701808101C0C2
:102CA00080E3015010400894E11CF11C0A151B053B
:102CB0002CF090E0B3010E94C019E0CF0C151D0567
:102CC00039F49A81963318F4953311F424FE81E394
:102CD00090E04BC08A81813309F00F7E90E0B30110
:102CE0000E94C0199920A1F08EE290E0B3010E94E9
:102CF000C01912E0E1E0F0E0EC0FFD1FE10FF11D63
:102D00001F5F808190E0B3010E94C0199A9491F7EF
:102D100044FC03C085E690E002C085E490E0B30186
:102D20000E94C019D7FC05C0C114D10441F404FFAE
:102D300006C0D094C194D108D3948DE201C08BE237
:102D400090E0B3010E94C01980E305C08F5F26EFB9
:102D50003FEFC20ED31E3AE0C316D104BCF790E099
:102D6000B3010E94C019C601C096B3010E94C019E8
:102D7000CC84DD8452C1933631F0933799F093358A
:102D800009F059C023C0F601808189835E0108944F
:102D9000A11CB11C22E030E0C20ED31E21E0E22EC5
:102DA000F12C12C0F601A080B18016FD03C06FEFB8
:102DB0007FEF02C0692D70E022E030E0C20ED31E2A
:102DC000C5010E94B5197C011F7713C0F601A080D0
:102DD000B18016FD03C06FEF7FEF02C0692D70E078
:102DE00022E030E0C20ED31EC5010E94AA197C0168
:102DF000106813FF07C01BC080E290E0B3010E947F
:102E0000C0198A94882D90E0E816F906A8F30FC03F
:102E1000F50117FD859117FF81915F0190E0B301E6
:102E20000E94C01981108A940894E108F108E11405
:102E3000F10471F7F2C0943611F0993689F517FF55
:102E400008C0F601208131814281538184E090E005
:102E50000AC0F601808191819C01442737FD40958D
:102E6000542F82E090E0C80ED91E9FE6F92EF12281
:102E700057FF09C050954095309521953F4F4F4FD2
:102E80005F4F90E8F92ACA01B901AE014F5F5F4F69
:102E90002AE030E00E94601AE82EE889EE1A41C06C
:102EA000953721F41F7E2AE030E01CC0197F9F3641
:102EB00061F0903720F4983509F0B2C00FC0903718
:102EC00039F0983709F0ACC004C028E030E00AC0FF
:102ED000106114FD146020E130E004C014FD1660A0
:102EE00020E132E017FF08C0F60160817181828124
:102EF000938144E050E008C0F60180819181BC01DB
:102F000080E090E042E050E0C40ED51EAE014F5F7D
:102F10005F4F0E94601AE82E5889E51A8FE7F82E55
:102F2000F122F6FE0BC08EEFF822E91438F4F4FE1D
:102F300007C0F2FC05C09FEEF92202C01E2D01C0A1
:102F4000192DF4FE0DC0FE01EE0DF11D80818033C0
:102F500019F4E9EEFE2208C01F5FF2FE05C003C0AF
:102F60008F2D867809F01F5F0F2DF3FC14C0F0FE43
:102F70000FC0181510F09E2C0BC09E2C980C911AA7
:102F8000182D06C080E290E0B3010E94C0191F5FB7
:102F90001815C0F304C0181510F4811A01C0882454
:102FA00004FF0FC080E390E0B3010E94C01902FF4C
:102FB0001DC001FD03C088E790E00EC088E590E0E9
:102FC0000BC0802F867891F001FF02C08BE201C018
:102FD00080E2F7FC8DE290E0B3010E94C01906C0C8
:102FE00080E390E0B3010E94C0199A94E914C0F301
:102FF000EA94E1E0F0E0EC0FFD1FEE0DF11D8081A1
:1030000090E0B3010E94C019EE2091F706C080E263
:1030100090E0B3010E94C0198A948820C1F799CC2E
:10302000F30166817781CB016196E2E10C94B718D8
:10303000629FD001739FF001829FE00DF11D649F9C
:10304000E00DF11D929FF00D839FF00D749FF00D28
:10305000659FF00D9927729FB00DE11DF91F639FC9
:10306000B00DE11DF91FBD01CF0111240895AA1B68
:10307000BB1B51E107C0AA1FBB1FA617B70710F063
:10308000A61BB70B881F991F5A95A9F78095909595
:10309000BC01CD01089597FB092E07260AD077FDC4
:1030A00004D0E5DF06D000201AF4709561957F4FBB
:1030B0000895F6F7909581959F4F0895A1E21A2EF5
:1030C000AA1BBB1BFD010DC0AA1FBB1FEE1FFF1FCC
:1030D000A217B307E407F50720F0A21BB30BE40B1C
:1030E000F50B661F771F881F991F1A9469F7609563
:1030F0007095809590959B01AC01BD01CF0108951D
:1031000097FB092E05260ED057FD04D0D7DF0AD035
:10311000001C38F450954095309521953F4F4F4F06
:103120005F4F0895F6F790958095709561957F4F64
:103130008F4F9F4F08952F923F924F925F926F92C1
:103140007F928F929F92AF92BF92CF92DF92EF9237
:10315000FF920F931F93CF93DF93CDB7DEB7CA1BB8
:10316000DB0B0FB6F894DEBF0FBECDBF09942A88E3
:10317000398848885F846E847D848C849B84AA848B
:10318000B984C884DF80EE80FD800C811B81AA8118
:10319000B981CE0FD11D0FB6F894DEBF0FBECDBFE3
:1031A000ED010895283008F027E03327DA01990F60
:1031B000311D87FD916000966105710539F432601B
:1031C0002E5F3D9330E32A95E1F708959F3F30F05D
:1031D00080387105610509F03C5F3C5F3D9391309B
:1031E00008F08068911DDF93CF931F930F93FF9298
:1031F000EF92192F987F9695E92F96959695E90F5E
:10320000FF27E752FA4F99273327EE24FF24A7011F
:10321000E70105900894079428F4360FE71EF81E7E
:10322000491F511D660F771F881F991F0694A1F72C
:103230000590079428F4E70EF81E491F561FC11D7C
:10324000770F881F991F661F0694A1F705900794B2
:1032500028F4F80E491F561FC71FD11D880F991F4C
:10326000661F771F0694A1F70590079420F4490F75
:10327000561FC71FD81F990F661F771F881F0694F8
:10328000A9F784911095177041F0D695C795579579
:103290004795F794E7941A95C1F7EFE7F5E068943E
:1032A0001590159135916591959105907FE27395F3
:1032B000E118F10A430B560BC90BD009C0F7E10C1A
:1032C000F11E431F561FC91FD01D7EF4703311F429
:1032D0008A95E6CFE894015030F0080F0AF40027F1
:1032E000021708F4202F2395022F7A3328F079E370
:1032F0007D932A95E9F710C07D932A9589F6069467
:1033000097956795379517951794E118F10A430B30
:10331000560BC90BD00998F023957E9173957A339B
:1033200008F070E37C932013B8F77E9170617D9371
:1033300030F0839571E37D9370E32A95E1F71124D2
:10334000EF90FF900F911F91CF91DF91992787FD0B
:1033500090950895FC010590615070400110D8F7D8
:10336000809590958E0F9F1F0895FC0161507040CD
:1033700001900110D8F7809590958E0F9F1F0895AA
:103380000F931F93CF93DF938C01EB018B8181FF10
:103390001BC082FF0DC02E813F818C819D8128172B
:1033A000390764F4E881F9810193F983E88306C061
:1033B000E885F985802F0995892B31F48E819F81CD
:1033C00001969F838E8302C00FEF1FEFC801DF912C
:1033D000CF911F910F910895A0E0B0E0E2EFF9E1E5
:1033E0000C94AB18FE013596619171918091E301C7
:1033F0009091E401AF010E9491142096E2E00C94B8
:10340000C7180F931F93CF93DF938C01E091E301D3
:10341000F091E401838181FF21C0C0E0D0E00DC0C4
:10342000E091E301F091E40120853185BF01F901CC
:103430000995892B11F0CFEFDFEFF80181918F0112
:10344000882371F7E091E301F091E4012085318553
:103450008AE0BF01F9010995892B11F0CFEFDFEF69
:10346000CE01DF91CF911F910F910895AEE0B0E0B2
:10347000ECE3FAE10C94A9188C0177FF02C060E03C
:1034800070E8615070407E836D831A83098386E003
:103490008C83CE010196BA01A9010E9491142D815D
:1034A0003E8137FD09C0EF81F8852E173F070CF4E8
:1034B000F901E00FF11F10822E96E4E00C94C5187C
:1034C000FA01AA27283051F1203181F1E8946F9355
:1034D0006E7F6E5F7F4F8F4F9F4FAF4FB1E03ED0FB
:1034E000B4E03CD0670F781F891F9A1FA11D680F99
:1034F000791F8A1F911DA11D6A0F711D811D911DCC
:10350000A11D20D009F468943F912AE0269F112440
:103510003019305D3193DEF6CF010895462F4770A4
:10352000405D4193B3E00FD0C9F7F6CF462F4F70FF
:10353000405D4A3318F0495D31FD4052419302D05D
:10354000A9F7EACFB4E0A695979587957795679503
:10355000BA95C9F700976105710508959B01AC0103
:103560000A2E06945795479537952795BA95C9F72A
:10357000620F731F841F951FA01D0895A8E1B0E07E
:1035800042E050E00C94C61ADC01CB01FC01F99931
:10359000FECF06C0F2BDE1BDF89A319600B40D929F
:0C35A00041505040B8F70895F894FFCF58
:1035AC0025730052554147205363687765697A202B
:1035BC004147004B5725642025640A004A61687214
:1035CC003A25640A0048616C6C6F204C756361731A
:1035DC002000576173206D65696E73743F20000085
:1035EC00000002000000001E13000000000000E0BC
:1035FC000700F8FF07FF070000000000004001F083
:10360C00004001F0006D6F6465202D2000636F6E2B
:10361C007374616E7420766F6C746167650073658A
:10362C00740030302E3030760061637475616C0A32
:10363C000030302E30300030302E3030610061637D
:10364C007475616C0000000002000000001E130085
:04365C00000000006A
:00000001FF
