:100000000C9473060C9490060C9490060C94900635
:100010000C9490060C9490060C9490060C94900608
:100020000C9490060C9490060C9490060C949006F8
:100030000C9490060C9490060C9490060C949006E8
:100040000C941D0A0C9490060C9490060C94900647
:100050000C94A1110C9490060C9490060C949006AC
:100060000C9490060C9490060C9490060C949006B8
:100070000C9490060C9490060C9490066E616E00A1
:10008000696E660000407A10F35A00A0724E18099B
:100090000010A5D4E80000E87648170000E40B54EF
:1000A000020000CA9A3B000000E1F50500008096BE
:1000B0009800000040420F000000A08601000000F0
:1000C000102700000000E8030000000064000000AA
:1000D00000000A00000000000100000000002C7673
:1000E000D888DC674F0823DFC1DFAE59E1B1B7968E
:1000F000E5E3E453C63AE651997696E8E6C28426EB
:10010000EB898C9B62ED407C6FFCEFBC9C9F40F2C6
:10011000BAA56FA5F490055A2AF75C936B6CF96742
:100120006DC11BFCE0E40D47FEF520E6B500D0ED07
:10013000902E0300943577050080841E080000206F
:100140004E0A000000C80C333333330F986E12830D
:100150001141EF8D2114893BE65516CFFEE6DB18E1
:10016000D1844B381BF77C1D901DA4BBE4242032A6
:1001700084725E228100C9F124ECA1E53D2763640D
:10018000696E6F70737578585B00550141011540B9
:100190001500000050550522020202222022000014
:1001A0000020220A55054101155015000018505530
:1001B0000D0088808008080000000880880A050477
:1001C0004141515000000016505507220202022002
:1001D000200000000A20A20A4505414151501000AC
:1001E000801550D50D8080808080000800800A80B6
:1001F000A80A4501454140501000000000F00702E8
:1002000002222020202200000000A00205055551F6
:1002100040411500180000D001000008008080084F
:1002200000080000A0000000000000000000160010
:1002300000700000000000000000000A0000200024
:100240000000000000000080150000100000000009
:100250000000000080AA0AA00A00000000000000C0
:100260000060FF1FF0070000000000000000A0BABF
:100270001BA0020000000000000000C0FD1FD00114
:100280000000000000000000A0AE0EA00000000072
:100290000000000000E0FF1F7000000000000000F0
:1002A0000000A0BB1B20000000000000000000C0F8
:1002B000FF1F1000000000000000000000E0FFFF32
:1002C00001F8FFFF07080000040C00000C0CF80701
:1002D0000C0CCF3C0C8CC7780C6C04880D6C008027
:1002E0000DCC00C00C0C10000C0C10000C0C1000FD
:1002F0000C0C20000C0C20000C0C60000C0CE0011D
:100300000C0C18060CFC0FFC0FFC07F80F0CC000BF
:100310000C0CC0000C0C00000C08000004F8FFFFDF
:1003200007E0FFFF010000000000000000000000E7
:100330000000C0000000E0010000E0010000F00348
:100340000000F003000038070000380700001C0E12
:1003500000001C0E00000E1C00000E1C00000738E0
:1003600000000738008003700080037000C001E0C7
:1003700000C001E000E000C001E000C001700080AA
:10038000037000800338000007380000071C0000DD
:100390000E1C00000E1EA9441EFEFFFF1FFEFFFFE5
:1003A0001FFCFFFF0F0000000000FE1F00000120E7
:1003B000008000400040E0800020A00101103C07C8
:1003C0000208240D040427050802250D1002250546
:1003D000100225CD118225E5100225AD1182B495BC
:1003E000100205DC10820148100201421082012136
:1003F0001002812010020110100441100808830827
:100400000410060C02209C020140F0810080004094
:10041000000001200000FE1F00000000000000009E
:1004200000003E5B4F5B3E3E6B4F6B3E1C3E7C3E96
:100430001C183C7E3C181C577D571C1C5E7F5E1CA4
:1004400000183C1800FFE7C3E7FF0018241800FF5E
:10045000E7DBE7FF30483A060E2629792926407F58
:10046000050507407F05253F5A3CE73C5A7F3E1C67
:100470001C08081C1C3E7F14227F22145F5F005F53
:100480005F06097F017F006689956A606060606031
:1004900094A2FFA29408047E040810207E20100875
:1004A000082A1C08081C2A08081E101010100C1E10
:1004B0000C1E0C30383E3830060E3E0E0600000092
:1004C000000000005F00000007000700147F147F99
:1004D00014242A7F2A1223130864623649562050B6
:1004E0000008070300001C2241000041221C002AD2
:1004F0001C7F1C2A08083E0808008070300008088D
:10050000080808000060600020100804023E5149FD
:10051000453E00427F400072494949462141494DCC
:10052000331814127F1027454545393C4A49493153
:1005300041211109073649494936464949291E00D2
:10054000001400000040340000000814224114147C
:10055000141414004122140802015909063E415D99
:10056000594E7C1211127C7F494949363E41414126
:10057000227F4141413E7F494949417F09090901A3
:100580003E414151737F0808087F00417F410020B0
:1005900040413F017F081422417F404040407F029C
:1005A0001C027F7F0408107F3E4141413E7F0909C4
:1005B00009063E4151215E7F0919294626494949CC
:1005C0003203017F01033F4040403F1F2040201F76
:1005D0003F4038403F631408146303047804036108
:1005E00059494D43007F4141410204081020004118
:1005F00041417F04020102044040404040000307A3
:10060000080020545478407F2844443838444444F7
:1006100028384444287F385454541800087E09026E
:1006200018A4A49C787F0804047800447D4000202E
:1006300040403D007F1028440000417F40007C0482
:100640007804787C080404783844444438FC18243E
:10065000241818242418FC7C080404084854545412
:100660002404043F44243C4040207C1C2040201CA7
:100670003C4030403C44281028444C9090907C44AE
:1006800064544C44000836410000007700000041EB
:1006900036080002010204023C2623263C1EA1A1CA
:1006A00061123A4040207A385454555921555579B1
:1006B0004122545478422155547840205455794071
:1006C0000C1E5272123955555559395454545939D2
:1006D000555454580000457C410002457D420001BC
:1006E000457C407D1211127DF0282528F07C545560
:1006F00045002054547C547C0A097F4932494949B9
:10070000323A4444443A324A4848303A4141217AE4
:100710003A42402078009DA0A07D3D4242423D3DAE
:100720004040403D3C24FF2424487E4943662B2F13
:10073000FC2F2BFF0929F620C0887E090320545482
:1007400079410000447D413048484A3238404022D7
:100750007A007A0A0A727D0D19317D2629292F28FF
:10076000262929292630484D40203808080808083D
:10077000080808382F10C8ACBA2F102834FA000027
:100780007B000008142A142222142A1408AA0055F7
:1007900000AAAA55AA55AA000000FF00101010FFD9
:1007A00000141414FF001010FF00FF1010F010F0E0
:1007B000141414FC001414F700FF0000FF00FF14D1
:1007C00014F404FC141417101F10101F101F14141D
:1007D000141F00101010F0000000001F1010101067
:1007E0001F10101010F010000000FF10101010105B
:1007F00010101010FF10000000FF140000FF00FF99
:1008000000001F10170000FC04F414141710171434
:1008100014F404F40000FF00F71414141414141456
:10082000F700F7141414171410101F101F141414C9
:10083000F4141010F010F000001F101F0000001F33
:1008400014000000FC140000F010F01010FF10FF66
:10085000141414FF141010101F00000000F010FFFB
:10086000FFFFFFFFF0F0F0F0F0FFFFFF00000000DF
:1008700000FFFF0F0F0F0F0F3844443844FC4A4A63
:100880004A347E02020606027E027E026355494118
:10089000633844443C04407E201E2006027E02024F
:1008A00099A5E7A5991C2A492A1C4C7201724C3063
:1008B0004A4D4D303048784830BC625A463D3E493A
:1008C0004949007E0101017E2A2A2A2A2A44445FDE
:1008D000444440514A444040444A51400000FF01D2
:1008E00003E080FF000008086B6B083612362436E0
:1008F000060F090F06000018180000001010003045
:1009000040FF0101001F01011E00191D1712003CCC
:100910003C3C3C00000000007D1D0100632C001EDB
:100920009601A01E5A01001F0806101F0606201F70
:100930000806301F0806401F0606511F0700591FF2
:10094000521F5B1F541F5D1F561F5F1F601F08064D
:10095000701F0E00BA1FBB1FC81FC91FCA1FCB1FA5
:10096000DA1FDB1FF81FF91FEA1FEB1FFA1FFB1F1F
:10097000801F0806901F0806A01F0806B01F04006D
:10098000B81FB91FB21FBC1FCC1F0100C31FD01F4F
:100990000206E01F0206E51F0100EC1FF21F010026
:1009A000FC1F4E2101003221702110028421010020
:1009B0008321D0241A05302C2F04602C0201672CCF
:1009C0000601752C0201802C6401002D260841FFD0
:1009D0001A03000061001A03E0001703F800070380
:1009E000FF000100780100013001320106013901E8
:1009F00010014A012E017901060180014D004302D8
:100A000081018201820184018401860187018701BD
:100A100089018A018B018B018D018E018F0190016B
:100A20009101910193019401F601960197019801BA
:100A300098013D029B019C019D0120029F01A001A4
:100A4000A001A201A201A401A401A601A701A7017E
:100A5000A901AA01AB01AC01AC01AE01AF01AF012C
:100A6000B101B201B301B301B501B501B701B801DC
:100A7000B801BA01BB01BC01BC01BE01F701C00154
:100A8000C101C201C301C401C501C401C701C8013C
:100A9000C701CA01CB01CA01CD011001DD0101006E
:100AA0008E01DE011201F3010300F101F401F401F2
:100AB000F8012801220212013A020900652C3B02CA
:100AC0003B023D02662C3F024002410241024602C7
:100AD0000A015302400081018601550289018A0101
:100AE00058028F015A0290015C025D025E025F02B1
:100AF0009301610262029401640265026602670268
:100B0000970196016A02622C6C026D026E029C01D2
:100B1000700271029D01730274029F0176027702D6
:100B2000780279027A027B027C02642C7E027F02C8
:100B3000A60181028202A90184028502860287023F
:100B4000AE014402B101B20145028D028E028F0254
:100B500090029102B7017B030300FD03FE03FF0334
:100B6000AC0304008603880389038A03B1031103DD
:100B7000C2030200A303A303C4030803CC030300BE
:100B80008C038E038F03D8031801F2030A00F903C4
:100B9000F303F403F503F603F703F703F903FA038A
:100BA000FA033004200350041007600422018A0471
:100BB0003601C1040E01CF040100C004D004440179
:100BC000610526040000C700FC00E900E200E40023
:100BD000E000E500E700EA00EB00E800EF00EE00CF
:100BE000EC00C400C500C900E600C600F400F60031
:100BF000F200FB00F900FF00D600DC00A200A30019
:100C0000A500A7209201E100ED00F300FA00F10039
:100C1000D100AA00BA00BF001023AC00BD00BC0088
:100C2000A100AB00BB009125922593250225242528
:100C300061256225562555256325512557255D25B6
:100C40005C255B251025142534252C251C25002525
:100C50003C255E255F255A25542569256625602596
:100C600050256C2567256825642565255925582557
:100C7000522553256B256A2518250C2588258425A2
:100C80008C2590258025B103DF009303C003A303C7
:100C9000C303B500C403A6039803A903B4031E222B
:100CA000C603B50329226122B100652264222023F4
:100CB0002123F7004822B0001922B7001A227F2012
:100CC000B200A025A00081168F169416AC16BA1695
:100CD00019177617DF48F748FF48014903490549C6
:100CE000074909490C4911241FBECFEFD0E1DEBFEF
:100CF000CDBF14E0A0E0B1E0E4E6FDEA02C005905B
:100D00000D92AA3DB107D9F726E0AAEDB4E001C0E3
:100D10001D92A637B207E1F70E9417490C94B0560E
:100D20000C94000088E10E94A21183E28093B0003D
:100D300081E08093B10008952F923F924F925F928D
:100D40006F927F928F929F92AF92BF92CF92DF92DB
:100D5000EF92FF920F931F93CF93DF935C0163E0B9
:100D600070E00E948A4E8091210190912201680FCB
:100D7000791F7093E5046093E4042FEF81EE94E013
:100D8000215080409040E1F700C0000083E00E94C5
:100D9000B2118C01892B51F02DE1209FC001219FC0
:100DA000900D11241C012AEA220E311C84E00E94BD
:100DB000B2118091E4048093B4008FEF93EC29E0AA
:100DC000815090402040E1F700C000009FE0C92E14
:100DD000D12C28EE422E23E0522E612C712C8AE079
:100DE000882E912CC0E0D0E084E00E94B2117C01FA
:100DF000009761F02D969C01A0E8BCE00E94ED4EAA
:100E0000A30192010E94C04EC20FD31F81E0881A35
:100E1000910851F7CE016AE070E00E948A4ECB0142
:100E200001968A159B0548F48091E4049091E504AD
:100E300001969093E5048093E404CB010197A816F2
:100E4000B90648F48091E4049091E50401979093E9
:100E5000E5048093E4048091E4048093B4009FEF60
:100E600023EC89E0915020408040E1F700C0000071
:100E700080911C01882319F180B11F928F9380917A
:100E8000E5048F938091E4048F937F936F933F9257
:100E90002F92FF92EF921F930F9385EC91E09F9317
:100EA0008F9381EA92E09F938F930E9499518DB71F
:100EB0009EB740960FB6F8949EBF0FBE8DBF91E0CF
:100EC000C91AD10809F08BCF83E00E94B2110097B4
:100ED00051F04DE1489F9001499F300D1124C90107
:100EE00086559F4F02C080E090E01092E50410927A
:100EF000E4041092B400DF91CF911F910F91FF9005
:100F0000EF90DF90CF90BF90AF909F908F907F90A9
:100F10006F905F904F903F902F9008951F93CF93C5
:100F2000DF93CDB7DEB7C055D1090FB6F894DEBF59
:100F30000FBECDBF6F961FAD6F976A966EAD7FAD3A
:100F40006A9768968EAD9FAD68970E941E116E9647
:100F50006EAD7FAD6E976C968EAD9FAD6C970E9417
:100F60002711812F0E9430119E012E593F4FA296CA
:100F70004EAD5FADA29760E570E0CE0101960E9494
:100F8000EA516EE071E0CE0101960E946F51C05BA4
:100F9000DF4F0FB6F894DEBF0FBECDBFDF91CF910C
:100FA0001F9108952F923F924F925F926F927F927E
:100FB0008F929F92AF92BF92CF92DF92EF92FF9269
:100FC0000F931F93CF93DF93CDB7DEB72A970FB65A
:100FD000F894DEBF0FBECDBF2C013B015A87498775
:100FE00059016801EA94EF2859F04EE8242E43E7AE
:100FF000342E8EE997EF9A83898300E114E80AC0C2
:101000003EE9232E37EF332E2EE833E73A83298348
:101010000AE812E5C601880F991F9501281B390BB4
:1010200049855A85481B590BB601660D771DC601C7
:10103000840D951D0E949B0E00E010E0C3018A0DF7
:101040009B1D9C838B83950189859A85281B390B71
:101050003E832D83840D951D98878F83C016D106FE
:10106000B4F17801E60CF71C5201A00EB11E2981E3
:101070003A8149855A85B701C5010E945E0E6B8190
:101080007C81601B710B910149855A85C5010E94C5
:101090005E0E8D809E8029853A85820E931E298161
:1010A0003A81A401B701C5010E94210E9101A4015A
:1010B000B7018F819885801B910B0E94210E0F5FD5
:1010C0001F4F89859A8502979A878987C7CF2A9665
:1010D0000FB6F894DEBF0FBECDBFDF91CF911F9149
:1010E0000F91FF90EF90DF90CF90BF90AF909F90C7
:1010F0008F907F906F905F904F903F902F900895CA
:101100004F925F926F927F928F929F92AF92BF9217
:10111000CF92DF92EF92FF920F931F93CF93DF93C3
:101120005C014B012901E8010E94D207EA94EF28F3
:1011300029F42AE832E58FEF9FEF04C020E134E87C
:1011400080E090E0DF92CF921F9241E04F933F9377
:101150002F939F938F938C0E9D1E920157FE02C07A
:101160002F5F3F4F35952795280D391D24503109A4
:101170003F932F93CA0DDB1D2F96DF93CF930E94D1
:101180008E078DB79EB70C960FB6F8949EBF0FBE14
:101190008DBFDF91CF911F910F91FF90EF90DF9066
:1011A000CF90BF90AF909F908F907F906F905F9007
:1011B0004F9008953F924F925F926F927F928F92DD
:1011C0009F92AF92BF92CF92DF92EF92FF920F93D6
:1011D0001F93CF93DF935C012B01322ED32F480155
:1011E00024E0E216F10440F4F701EE0FFF1FE6558C
:1011F000FE4F6080718004C09DE2692E93E0792EDD
:10120000740103E010E0232D3D2FB201C5010E94BF
:10121000D207832D9D2F97FD0196EC01D595C7959B
:101220002F97C40DD51D81E090E021E08216910436
:1012300011F080E090E0EE24FF24E81AF90A0EE1B4
:1012400010E02EE130E0A301BE01C5010A960E9424
:10125000910F8A94892829F020E134E880E090E019
:1012600004C02AE832E58FEF9FEFDF92CF921F9202
:1012700041E04F933F932F939F938F93DF93CF93AF
:101280008DE2A80EB11CBF92AF920E948E078DB75F
:101290009EB70C960FB6F8949EBF0FBE8DBFDF9120
:1012A000CF911F910F91FF90EF90DF90CF90BF9063
:1012B000AF909F908F907F906F905F904F903F90F6
:1012C00008954F925F926F927F92AF92BF92CF92AA
:1012D000DF92EF92FF920F931F93CF93DF93CDB7DF
:1012E000DEB729013A019B01AC01241935094609F1
:1012F000570989899A89AB89BC89BC01CD016A19D2
:101300007B098C099D090E947A4EA8019701241936
:101310003509460957090E94C04ECA01B9016A0D34
:101320007B1D8C1D9D1DDF91CF911F910F91FF9013
:10133000EF90DF90CF90BF90AF907F906F905F90D5
:101340004F9008952F923F924F925F926F927F92AB
:101350008F929F92AF92BF92CF92DF92EF92FF92C5
:101360000F931F93CF93DF935C016B01E90127017A
:101370001801220C331C4A018218930886E0881A4F
:101380009108E12CF12CC5010E94D2079401D201F1
:101390000E94E54E24E630E040E050E00E94C04E5E
:1013A0002901812C912CC219D309269783E0C80EFC
:1013B000D11CC00ED11EA00EB11E83E0A80EB11C20
:1013C0008C169D066CF4B601680D791D20E030EF97
:1013D000A201C5010E945E0E8FEF881A980AF0CF15
:1013E000DF91CF911F910F91FF90EF90DF90CF9001
:1013F000BF90AF909F908F907F906F905F904F9035
:101400003F902F900895EF92FF920F931F930E94A9
:10141000BF0DEE24EA94FE2C07E110E024E630E054
:101420004AE851E065E070E08AED90E00E94910F9B
:101430001F910F91FF90EF9008951F920F920FB69A
:101440000F9211242F933F934F935F936F937F934A
:101450008F939F93AF93BF93EF93FF9380916A060F
:1014600090916B06019690936B0680936A060E949A
:101470000712FF91EF91BF91AF919F918F917F9153
:101480006F915F914F913F912F910F900FBE0F90F1
:101490001F9018952F923F924F925F926F927F927A
:1014A0008F929F92AF92BF92CF92DF92EF92FF9274
:1014B0000F931F93CF93DF93CDB7DEB7C65CD240B7
:1014C0000FB6F894DEBF0FBECDBF41E069ED72E00C
:1014D000CE0101960E9499308C011F938F938CEB63
:1014E00091E09F938F9384EE92E09F938F930E945D
:1014F00099510F900F900F900F900F900F90012B1C
:1015000009F0D0C0C12CD12C5E0181ECA81A8DEF5E
:10151000B80A8E0101571D4F7E0199E4E91A9DEF2B
:10152000F90A89EF282E82E0382E9CEB492E91E0B3
:10153000592E26E0622E23E0722EAE014F5F5F4FE0
:1015400060E570E0C5010E94F445892B09F49FC055
:10155000F5018081882389F3833279F31F930F93F8
:10156000FF92EF923F922F92BF92AF920E94D15181
:101570004C019F928F931F930F93FF92EF925F9274
:101580004F927F926F920E9499510FB6F894DEBFEE
:101590000FBECDBF92E08916910409F086C06BE1C1
:1015A00073E0C7010E941051892B49F4C8010E94C1
:1015B000F54F9093E0048093DF046894C0F860E2F4
:1015C00073E0C7010E941051892B49F4C8010E94A1
:1015D000F54F9093DC048093DB046894C1F865E2D6
:1015E00073E0C7010E941051892B49F4C8010E9481
:1015F000F65090936906809368066894C2F86AE290
:1016000073E0C7010E941051892B39F4C8010E9470
:10161000F54F909322018093210165E373E0C701A8
:101620000E941051892B29F4C8010E94F54F809324
:10163000E3046BE373E0C7010E941051892B29F486
:10164000C8010E94F54F80931C0161E473E0C7015B
:101650000E941051892B49F4C8010E94F54F9093C4
:10166000200180931F016894C3F869E473E0C70107
:101670000E941051892B09F060CFC8010E94F54FDC
:1016800090931E0180931D016894C4F856CFCE013B
:1016900001960E948F3DEFE1CE16D10449F480E01F
:1016A00090E008C08FEF9FEF05C08EEF9FEF02C064
:1016B0008DEF9FEFCA53DD4F0FB6F894DEBF0FBE1C
:1016C000CDBFDF91CF911F910F91FF90EF90DF90F1
:1016D000CF90BF90AF909F908F907F906F905F90D2
:1016E0004F903F902F9008958F929F92AF92BF920C
:1016F000CF92DF92EF92FF920F931F93CF93DF93DE
:10170000CDB7DEB7C059D2400FB6F894DEBF0FBEDA
:10171000CDBF7C01D62EC72EB42EA52E922E832EA1
:101720001F921F9202EB11E01F930F9381E593E04C
:101730009F938F930E94995142E3B701CE01019686
:101740000E9499307C01FF928F931F930F9389E63B
:1017500093E09F938F930E9499510FB6F894DEBF48
:101760000FBECDBFEF2809F063C08F929F92AF925A
:10177000BF92CF92DF928091E0048F938091DF043B
:101780008F938091DC048F938091DB048F93809101
:1017900069068F93809168068F9381E893E09F9309
:1017A0008F937E0191ECE91A9DEFF90AFF92EF9277
:1017B0000E94AF51F70101900020E9F73197AF0186
:1017C0004E195F099E0121573D4FB701CE01019689
:1017D0000E949C391F921F921F930F9384E993E0FC
:1017E0009F938F930E949951CE0101960E944C3C89
:1017F0001F921F921F930F938CEA93E09F938F93F6
:101800000E949951CE0101960E948F3D1F921F9216
:101810001F930F9384EC93E09F938F930E949951B1
:101820000FB6F894DEBF0FBECDBF80E090E002C0DF
:101830008FEF9FEFC057DD4F0FB6F894DEBF0FBE9E
:10184000CDBFDF91CF911F910F91FF90EF90DF906F
:10185000CF90BF90AF909F908F9008958FEF8AB9EF
:101860005F9A8AB184618AB9089584B1806B84B922
:10187000269880E58CBD8DB581608DBD5A9A0895FE
:101880008EBD0DB407FEFDCF08959BB19B7E9BB925
:101890000E94400C5A9A08955C9A5A980E94400CF3
:1018A0005A9A0895DF92EF92FF920F931F93CF936E
:1018B000DF93E82ED92ED62F172F042FF52EC22F07
:1018C0008AE20E94450C8D2D0E944C0C8E2D0E94A8
:1018D0004C0C8F2D0E944C0C802F0E944C0C8BE2E4
:1018E0000E94450C812F0E944C0C8D2F0E944C0CA5
:1018F0008C2F0E944C0C8C2F0E944C0C8CE2DF91A0
:10190000CF911F910F91FF90EF90DF900C94450CB9
:101910005F9A2FEF83EC99E0215080409040E1F7EF
:1019200000C000005F982FEF83EC99E021508040C9
:101930009040E1F700C000005F9A2FEF83EC99E040
:10194000215080409040E1F700C0000008950E94BF
:101950002E0C0E94350C81E00E94450C2FEF83ED88
:1019600090E3215080409040E1F700C000008BECF4
:101970000E94450C89E30E944C0C8CE20E944C0CA6
:1019800080E00E944C0C84E30E944C0C82E00E9498
:101990004C0C8FEC0E94450C80E00E944C0C81ECBA
:1019A0000E944C0C80E30E944C0C88EE0E94450C77
:1019B00085E80E944C0C80E00E944C0C88E70E9455
:1019C0004C0C8AEE0E94450C80E00E944C0C80E09A
:1019D0000E944C0C8DEE0E94450C84E60E944C0C3B
:1019E00083E00E944C0C82E10E944C0C81E80E9432
:1019F0004C0C87EF0E94450C80E20E944C0C80EC5E
:101A00000E94450C83E20E944C0C81EC0E94450C24
:101A100080E10E944C0C85EC0E94450C8EE30E94F4
:101A20004C0C88E20E944C0C87EC0E94450C86E826
:101A30000E944C0C86E30E94450C88E40E944C0CEA
:101A40008AE30E94450C85E00E944C0C81EB0E94C9
:101A5000450C80E00E944C0C88E10E944C0C86EB07
:101A60000E94450C88E00E944C0C82E80E944C0CBD
:101A700087E20E944C0C82EF0E94450C80E00E949D
:101A80004C0C86E20E94450C81E00E944C0C80EEDA
:101A90000E94450C8FE00E944C0C81E30E944C0C8C
:101AA0008BE20E944C0C8CE00E944C0C8EE00E9459
:101AB0004C0C88E00E944C0C8EE40E944C0C81EF90
:101AC0000E944C0C87E30E944C0C87E00E944C0C57
:101AD00080E10E944C0C83E00E944C0C8EE00E943E
:101AE0004C0C89E00E944C0C80E00E944C0C81EE72
:101AF0000E94450C80E00E944C0C8EE00E944C0C31
:101B000084E10E944C0C83E00E944C0C81E10E9415
:101B10004C0C87E00E944C0C81E30E944C0C81EC41
:101B20000E944C0C88E40E944C0C88E00E944C0CF3
:101B30008FE00E944C0C8CE00E944C0C81E30E94D0
:101B40004C0C86E30E944C0C8FE00E944C0C81E10F
:101B50000E94450C2FEF8BED95E021508040904086
:101B6000E1F700C0000089E20C94450CCF93C82F28
:101B7000892F0E944C0C8C2FCF910C944C0CEF921F
:101B8000FF920F931F93CF93DF93182F092F20916C
:101B90009F013091A0014091A1015091A2012150DB
:101BA00031094150510970E060E090E080E00E940E
:101BB000520CD0E0C0E08091A1019091A201C81721
:101BC000D907B8F0DF91CF911F910F91FF90EF905F
:101BD0000895812F902F0E94B60D8FEFE81AF80A12
:101BE00080919F019091A001E816F90690F321964B
:101BF000E2CFF12CE12CF4CFCF93DF93FC01D42F73
:101C0000C52F8091A1019091A201E817F907B0F4C6
:101C100080919F019091A0016817790778F49B014A
:101C20002F5F3F4FAF014F5F5F4FCF010E94520CBC
:101C30008D2F9C2FDF91CF910C94B60DDF91CF911A
:101C400008950F931F93CF93DF93FC01EA01122FA6
:101C5000032F8091A1019091A201E817F90718F5CF
:101C600080919F019091A00168177907E0F420917D
:101C70009F013091A001CA010197860F971F82171B
:101C8000930730F0C0919F01D091A001C61BD70BE4
:101C90009B01215031092C0F3D1FAF01CF010E9444
:101CA000520C209729F4DF91CF911F910F91089545
:101CB000812F902F0E94B60D2197F3CF0F931F9382
:101CC000CF93DF93FC01EA01122F032F8091A10132
:101CD0009091A201E817F90718F580919F01909162
:101CE000A00168177907E0F42091A1013091A201C9
:101CF000CA0101978E0F9F1F8217930730F0C09182
:101D0000A101D091A201CE1BDF0BAF0141505109BF
:101D10004C0F5D1F9B01CF010E94520C209729F4AC
:101D2000DF91CF911F910F910895812F902F0E94E5
:101D3000B60D2197F3CFCF92DF92EF92FF920F93E0
:101D40001F93CF93DF93FC017A01E9018091A101F8
:101D50009091A201E817F907C0F580919F01909139
:101D6000A0016817790788F52091A1013091A2019F
:101D7000CA0101978E0F9F1F8217930730F0E090E2
:101D8000A101F090A201EE1AFF0A20919F0130916B
:101D9000A001CE010197860F971F8217930730F09D
:101DA000C0919F01D091A001C61BD70B9B01215070
:101DB00031092C0F3D1FAF01415051094E0D5F1DE0
:101DC000CF010E94520C2097A1F4DF91CF911F9177
:101DD0000F91FF90EF90DF90CF900895C8010E947F
:101DE000B60D81E0C81AD108C114D104B9F7219702
:101DF000EACF6701F9CFCF93C82F86E30E94450C45
:101E0000C370C23089F0C33001F188E4C13069F495
:101E100088E20E944C0C80E491E09093A2018093B0
:101E2000A10180EF90E00BC088E80E944C0C80EF8D
:101E300090E09093A2018093A10180E491E09093BF
:101E4000A00180939F01CF91089588EEE2CF460FC5
:101E5000571F415051090C94210E480F591F4150F2
:101E600051090C945E0EAF92BF92CF92DF92EF9227
:101E7000FF920F931F93CF93DF93EC017B015A01E5
:101E8000690198010E942D0FB7016C0D7D1D6150F5
:101E900071099801A501CE010E942D0F9801A6019C
:101EA000B701CE010E94270FCE018A0D9B1D98011C
:101EB000A601B7010197DF91CF911F910F91FF907C
:101EC000EF90DF90CF90BF90AF900C94270FAF9220
:101ED000BF92CF92DF92EF92FF920F931F93CF9317
:101EE000DF93D62EC72EB22EA32EEC017C01E40E7A
:101EF000F51ECE15DF055CF0DF91CF911F910F919C
:101F0000FF90EF90DF90CF90BF90AF900895980131
:101F10004B2D5A2D6D2D7C2DCE010E94270F219621
:101F2000E8CF2F923F924F925F926F927F928F9263
:101F30009F92AF92BF92CF92DF92EF92FF920F9358
:101F40001F93CF93DF9300D000D000D00F92CDB776
:101F5000DEB72C013B015A01690109831A83ED8226
:101F60002F2CC901079697FD07969C0193E03595A4
:101F700027959A95E1F73C832B83F12CE12C312CAA
:101F800010E000E029813A81021713070CF448C0E1
:101F900027960FB6F894DEBF0FBECDBFDF91CF916D
:101FA0001F910F91FF90EF90DF90CF90BF90AF9077
:101FB0009F908F907F906F905F904F903F902F9069
:101FC00008958E819F81877099273694892B61F4BB
:101FD000EE81FF8183E0F595E7958A95E1F7EE0DB7
:101FE000FF1DEA0DFB1D349030FE09C04D81522DBE
:101FF000B4018E819F81840D951D0E94FC0D8E8100
:102000009F8101969F838E832E813F812C153D05F4
:10201000C4F20F5F1F4F8B819C81E80EF91EB2CF77
:102020001F821E824301800E911EEECF8091FD041F
:102030009091FE049093F5048093F4048091FB0446
:102040009091FC049093F3048093F204089580919E
:10205000FD049091FE049093F1048093F00480912C
:10206000FB049091FC049093EF048093EE04089598
:102070008091FD049091FE049093ED048093EC0414
:102080008091FB049091FC049093EB048093EA040C
:1020900008958091FD049091FE049093E90480934B
:1020A000E8048091FB049091FC049093E7048093F2
:1020B000E60408952F923F924F925F926F927F9223
:1020C0008F929F92AF92BF92CF92DF92EF92FF9248
:1020D0000F931F93CF93DF93CDB7DEB72B970FB638
:1020E000F894DEBF0FBECDBF6B01190109831A83BF
:1020F0008A879B878091A1019091A2012A853B85C7
:102100002817390708F069C080919F019091A001BC
:102110006817790708F061C0C90136E0E39E800DB9
:10212000911D1124181619060CF057C08E2D90E041
:102130009D838C83E8E0EE9EC0011124860F971FDB
:10214000181619060CF049C0F5E04F9FA0011124A4
:102150009A01235E3B4F3F832E836A847B841B82DC
:10216000CB010896998788875C804D809B81F12CF4
:10217000953019F0EE81FF81F49056014601F0FE92
:1021800045C0F1E0A1018101EF124EC0B501C301CC
:102190000E94FC0DF6948C819D81880E991E9FEF04
:1021A000A91AB90AE885F985EA15FB0541F7FB810B
:1021B000FF5FFB832A853B858C819D81280F391F1A
:1021C0003B872A879FEF691A790AEE81FF81319652
:1021D000FF83EE83FB81F63049F62B960FB6F89419
:1021E000DEBF0FBECDBFDF91CF911F910F91FF904A
:1021F000EF90DF90CF90BF90AF909F908F907F90A7
:102200006F905F904F903F902F90089529813A8171
:102210002215330509F4BECF31E009811A81E3129A
:1022200003C049815A81B2CF252D342D452D542D1F
:10223000B4018A859B850E949B0EACCF9093FE04CF
:102240008093FD047093FC046093FB0408959093C5
:10225000FA048093F9047093F8046093F7040895E6
:10226000893028F4811101C081E08093F60408953B
:10227000EF920F931F93482F8A30C1F48091F60498
:102280002091FB043091FC0448E0849FC00111249C
:10229000820F931F9093FC048093FB041092FE0422
:1022A0001092FD041F910F91EF9008958D30D1F39E
:1022B000E090F6040091F7041091F8042091F904DD
:1022C0003091FA046091FB047091FC048091FD044C
:1022D0009091FE040E945A102091F6048091FD0412
:1022E0009091FE0436E0239F800D911D1124909360
:1022F000FE048093FD04D6CF0E94381181E090E067
:1023000008951092C50083E38093C40086E0809313
:10231000C20088E98093C1000895CF93C82F8A3006
:1023200019F48DE00E948D118091C00085FFFCCFD3
:10233000C093C600CF9108950E948D1181E090E076
:102340000895189580937E00EAE7F0E08081876029
:102350008083ACE7B0E08C9180648C938081806C4A
:102360008083089590917C00907F90937C00909161
:102370007C008770892B80937C0080917A00806438
:1023800080937A0080917A0086FDFCCF20917800BE
:1023900030917900C9010895811103C00E94D613BC
:1023A000089581E00895811103C00E9427130895C4
:1023B00081E008950F931F93E82FCB01BA01A90183
:1023C0009801E11105C00E94D9131F910F91089542
:1023D00084E090E0FACF0F931F93E82FCB01BA016E
:1023E000A9019801E11105C00E9489141F910F9164
:1023F000089584E090E0FACF982F862FBA019111CA
:1024000003C00E945915089584E090E008950E9449
:10241000B81708958EBD0DB407FEFDCF8EB5089593
:102420002C9A8FEF0E940A1208950F931F93CF9357
:10243000DF938C01EB0184E1809302058FEF0E9412
:102440000A128F3F39F4809102058111F7CF90E095
:1024500080E01CC08E3FD9F7F8018FEF8EBD0DB420
:1024600007FEFDCF9EB590838EBD0DB407FEFDCF58
:102470009EB5918322973296209781F78FEF0E9425
:102480000A128FEF0E940A1281E090E0DF91CF9153
:102490001F910F910895F89482E390E090930105C5
:1024A0008093000578948FEF0E940A12F89420918F
:1024B00000053091010578948F3F11F0232B99F797
:1024C00021E030E08F3F11F030E020E0C9010895B5
:1024D000CF93DF932C988FEF0E940A120E944B1229
:1024E000EC01892B31F40E941012CE01DF91CF91C3
:1024F0000895C1E0D0E0F9CFFF920F931F93CF93DF
:10250000DF93C82FD42F152F062FF72E87FF09C072
:1025100040E050E0BA0187E30E947C12823048F527
:10252000CF77CC3059F58C2F80640E940A128F2D02
:102530000E940A12802F0E940A12812F0E940A1202
:102540008D2F0E940A1285E9CC2321F087E8C8303C
:1025500009F081E00E940A12CC3019F48FEF0E943A
:102560000A12CAE08FEF0E940A1287FF02C0C15010
:10257000C9F7CDB7DEB7E5E00C94964F0E94101274
:102580000E946812892B79F68FEFF3CF1F93CF93B8
:10259000DF93182FD92FC62F1F928BEF8F9386EDC5
:1025A00091E09F938F938AEA94E09F938F930E9488
:1025B00099510E944B129C010F900F900F900F9019
:1025C0000F900F90892BF1F18C2F0E940A1221E0BD
:1025D00030E0CD3FB9F1E12FFD2FCF019E5F20818B
:1025E0002EBD0DB407FEFDCF21812EBD0DB407FE1B
:1025F000FDCF3296E817F90791F78FEF0E940A1284
:102600008FEF0E940A128FEF0E940A12C82F81E0FA
:102610008F9385E08F9386ED91E09F938F938AEA65
:1026200094E09F938F930E949951CF7181E00F9016
:102630000F900F900F900F900F90C53009F080E031
:10264000282F30E0C901DF91CF911F910895A4E0B8
:10265000B0E0EDE2F3E10C94774F8AE0809302055D
:10266000809102058111FCCF8091A30181FF06C0FA
:102670008091A3012496E8E00C94934F8DB583607C
:102680008DBD1AE08FEF0E940A121150D9F740E079
:1026900050E0BA0180E00E947C12082F813009F0DE
:1026A00071C084E6809302054AEA51E060E070E080
:1026B00088E00E947C12813009F041C08E010F5FDA
:1026C0001F4F6E0185E0C80ED11C78018FEF0E946C
:1026D0000A12F70181937F01EC15FD05B9F78B8193
:1026E000813009F04FC08C818A3A09F04BC080914B
:1026F0000205882349F040E050E060E070E489EA98
:102700000E947C128111F3CF809102058823D1F1C0
:1027100040E050E0BA018AE30E947C12811132C08D
:102720008FEF0E940A12F80181938F01EC15FD05CD
:10273000B9F7898114E086FF26C01CE024C040E080
:1027400050E0BA0189EA0E947C1211E0823010F454
:1027500012E009EA80910205882341F040E050E050
:10276000BA01802F0E947C128111F4CF8091020562
:10277000882341F040E052E060E070E080E10E9498
:102780007C12811110E01093FF040E94101211239B
:1027900009F46ECF8091A3018E7F8093A3018DB544
:1027A0008C7F8DBD8DB581608DBD62CF8091A30181
:1027B0000895B0E0A0E0EFEDF3E10C94724F8C01CE
:1027C0004A015B01E901772473947F9289E98F9331
:1027D00034EFC32E31E0D32EDF92CF924AEAE42EBB
:1027E00044E0F42EFF92EF920E9499510F900F90C7
:1027F0000F900F900F900F9084E0209709F481C004
:102800008091A30180FD83C07F928CE98F93DF923A
:10281000CF92FF92EF920E9499518091FF040F9006
:102820000F900F900F900F900F9083FD07C029E03D
:10283000880C991CAA1CBB1C2A95D1F791E1F92E92
:10284000C130D10511F082E1F82E81E08F9381EA49
:102850008F9384EF91E09F938F938AEA94E09F9304
:102860008F930E949951B501A4018F2D0E947C1273
:102870000F900F900F900F900F900F90811127C025
:1028800060E072E0C8010E941512892B19F01E5FEA
:102890002197B1F781E08F9387EA8F9384EF91E0DE
:1028A0009F938F938AEA94E09F938F930E9499510C
:1028B0000F900F900F900F900F900F9082E1F812F1
:1028C00006C040E050E0BA018CE00E947C120E94F9
:1028D000101281E08F938BEA8F9384EF91E09F93A6
:1028E0008F938AEA94E09F938F930E94995181E09D
:1028F0000F900F900F900F900F900F90CD2B09F429
:1029000080E090E0CDB7DEB7EDE00C948E4F83E031
:10291000F8CFB0E0A0E0EFE8F4E10C94724F8C0146
:102920004A015B01E901772473947F928FEB8F93C7
:1029300095EEC92E91E0D92EDF92CF922AEAE22EAF
:1029400024E0F22EFF92EF920E9499510F900F9087
:102950000F900F900F900F9084E0209709F467C0BC
:102960008091A30180FDA1C08091A30182FD9FC041
:102970007F9284EC8F93DF92CF92FF92EF920E942E
:1029800099518091FF040F900F900F900F900F902E
:102990000F9083FD07C089E0880C991CAA1CBB1C02
:1029A0008A95D1F781E0C130D10509F046C08F93F7
:1029B00089EC8F9385EE91E09F938F938AEA94E060
:1029C0009F938F930E949951B501A40188E10E94C1
:1029D0007C120F900F900F900F900F900F9081111D
:1029E00061C06EEFC8010E94C6129C0191E0232BCA
:1029F00009F090E0C92F80E0D82F0E94101281E0EA
:102A00008F938BED8F9385EE91E09F938F938AEA5E
:102A100094E09F938F930E94995181E00F900F90C3
:102A20000F900F900F900F90CD2B09F480E090E065
:102A3000CDB7DEB7EDE00C948E4F8F9380ED8F9382
:102A400085EE91E09F938F938AEA94E09F938F9312
:102A50000E9499518091FF0486700F900F900F9003
:102A60000F900F900F9031F0AE0170E060E087E9B9
:102A70000E947C12B501A40189E10E947C1281119F
:102A8000BCCF6CEFC8010E94C612892B19F01E5FE3
:102A90002197B9F76DEF90E080E00E94C612892B74
:102AA00009F0ABCFC1E0D0E0A8CF83E0C0CF82E097
:102AB000BECFA0E1B0E0EFE5F5E10C94774FE82F51
:102AC0008B018091A30180FD50C2EA3350F4E233C0
:102AD00058F4E33009F492C080F4EE23B1F0E13011
:102AE000E9F004E010E008C1E353E73008F0FEC06D
:102AF000F0E0ED59F94F0C94DF4EE73091F78091FB
:102B0000A30181608093A301F5C00E9468129C011B
:102B100091E0232B09F4DCC190E0DAC140E050E001
:102B2000BA0189E00E947C12882319F001E010E0CC
:102B300036C060E170E0CE0101960E941512892B2B
:102B4000A9F39981929596959695937029856A85B2
:102B50008885913039F530E0322F2227260F311D3C
:102B600090E0B0E0A0E0DC0199278827882799272A
:102B7000AF73BB270196A11DB11D820F931FA11D2D
:102B8000B11D2AE0880F991FAA1FBB1F2A95D1F7F4
:102B9000F80180839183A283B38310E000E00E9458
:102BA0001012AAC02295269526952370F4E08F9FD7
:102BB000C0011124820F911D01964F8150E0542FC6
:102BC0004427550F550F44275C70840F951FB0E0C4
:102BD000A0E02E812F703B85331F3327331F230F37
:102BE0002E5F660F6670260F2950330B04C0880FC6
:102BF000991FAA1FBB1F2A95D2F7CACFF090FF04D6
:102C000040E050E0BA01F2FE21C08DE80E947C1243
:102C100081118CCF8FEF0E940A1260E170E0CE012B
:102C200001960E941512892B09F480CF60E3F62EDD
:102C30008FEF0E940A12FA94F110FACF2B85229599
:102C40002F7080E190E0A0E0B0E0D0CF89E00E945A
:102C50007C1281116BCF60E170E0CE0101960E9481
:102C60001512892B09F462CF8B8590E02C85F1FE3B
:102C700019C0880F991F8E779927221F2227221F9C
:102C80002F5F820F911D2E85229526952695237004
:102C90002150330B02C0880F991F2A95E2F7B0E04C
:102CA000A0E076CFF8E02F9FA001112448715527AE
:102CB000229526952770240F352F311D2F5F3F4F0A
:102CC00095958795959587958F7199270196289F5A
:102CD000A001299F500D389F500D112470E060E035
:102CE000F801408351836283738357CF8091FF043F
:102CF000FB01808310E000E0C8016096E8E00C94DE
:102D0000934F40E050E0BA0189E00E947C1260E1FC
:102D100070E081110BCFC8010E941512F8CE40E07F
:102D200050E0BA018AE0F1CF40E050E0BA018AE316
:102D30000E947C128111FACE7801F4E0EF0EF11CB2
:102D400068010F5F1F4F8FEF0E940A12F601808308
:102D5000E016F106A9F721CF40E050E0BA018DE876
:102D60000E947C128111E2CE8FEF0E940A1260E471
:102D700070E0D1CFFB014381548165817681A9E068
:102D8000440F551F661F771FAA95D1F78181928145
:102D900001979170B0E0A0E0482B592B6A2B7B2B58
:102DA000808190E0B0E0A0E02CE1880F991FAA1F7D
:102DB000BB1F2A95D1F7842B952BA62BB72BAC01E3
:102DC000BD01706880E30E947C128111AFCE84E661
:102DD000809302058FEF0E940A128F3F29F48091A1
:102DE00002058111F7CFA2CE8E3F09F09FCEF801E8
:102DF000E780F084C180D280CE0CDF1CEC14FD048F
:102E000089F4F8018181928102E012E0081B190B1C
:102E10000115110509F4C3CE8FEF0E940A1201506B
:102E20001109F6CF8FEF0E940A12F70181937F01FB
:102E3000E5CFFB01438154816581768139E0440F00
:102E4000551F661F771F3A95D1F7818192810197AF
:102E50009170B0E0A0E0482B592B6A2B7B2B80812E
:102E600090E0B0E0A0E0ECE1880F991FAA1FBB1F23
:102E7000EA95D1F7842B952BA62BB72BAC01BD017E
:102E8000706881E30E947C12811150CE8FEF0E9406
:102E90000A128EEF0E940A12F801E780F084C180C6
:102EA000D280CE0CDF1CEC14FD04A9F4F801818162
:102EB000928102E012E0081B190B8FEF011511053A
:102EC00081F40E940A128F7191E0853009F424CEBA
:102ED000092F10E064CEF70181917F010E940A1250
:102EE000E2CF0E940A1201501109E7CFFB01408195
:102EF00050E070E060E08CE1440F551F661F771FC3
:102F00008A95D1F7828190E0B0E0A0E0482B592B60
:102F10006A2B7B2B83819481A581B68129E0880F60
:102F2000991FAA1FBB1F2A95D1F7842B952BA62B7F
:102F3000B72BAC01BD01746881E30E947C12811142
:102F4000F5CD8FEF0E940A128EEF0E940A12F8014F
:102F500081810E940A1201E012E08FEF0E940A12A2
:102F600001501109D1F78FEFACCF03E010E0C4CED0
:102F700080910205882319F0815080930205809189
:102F8000000590910105009729F0019790930105A4
:102F9000809300058091A301897F8093A301089508
:102FA000A4E0B0E0E6EDF7E10C947D4FFC01208158
:102FB000318142815381CA01B9012496E2E00C9427
:102FC000994FFC0120813181428153816481758157
:102FD0008681978108950F931F93FC0100831183CD
:102FE0002283338344835583668377831F910F91B4
:102FF00008959C01480F591FF9012F5F3F4F6083CF
:1030000024173507C9F70895CF93DF939C01FB017F
:10301000480F591FE9012F5F3F4F888190813196FA
:10302000891B990B2417350711F0009799F3DF914D
:10303000CF910895A4E0B0E0E0E2F8E10C947D4F78
:10304000FC019A01AB01225031094109510987A1C4
:1030500090A5A1A5B2A50297A109B1092817390722
:103060004A075B0700F5A185B2850E94034F69837B
:103070007A838B839C8383AD94ADA5ADB6AD298156
:103080003A814B815C81280F391F4A1F5B1F2983BE
:103090003A834B835C8369817A818B819C812496FE
:1030A000E2E00C94994F19821A821B821C82F3CFA2
:1030B0009C01AC01455F5F4F80E080FB879587F9FD
:1030C000F9012F5F3F4F9081890F24173507A9F72A
:1030D0000895FC01218130E02F5F3F4F85E0220FF2
:1030E000331F8A95E1F790E080E050E040E0423005
:1030F000510581F080FB9795879597F9DF01A40F23
:10310000B51F6C91860F911D4F5F5F4F421753079C
:1031100070F3089543E050E0F7CFCF93DF93DC01E5
:10312000ED91FC911197309771F0CF01EC0128815E
:1031300001962032A8F02A33C9F79F012E5F3F4F36
:103140008217930719F08FEF9FEF07C0208120337C
:10315000D1F78D939C9390E080E0DF91CF9108951B
:103160008091630690E0F9CF0F931F93CF93DF9385
:10317000EC018B01892B61F489E090E030E020E0E4
:10318000F80131832083DF91CF911F910F91089532
:10319000E881F981309781F38081882369F32A815E
:1031A0003B81858196812817390731F781810E94FB
:1031B000CC1180FDE1CF2881398190E080E0E0CF23
:1031C0000F931F93CF93DF93EA01890145EB51E001
:1031D0000E9460489C018F3F910579F070F00230A9
:1031E000110590F03827232732273983288382E07E
:1031F000DF91CF911F910F910895009729F0012B36
:1032000019F0888381E0F4CF80E0F2CFA6E0B0E04F
:10321000ECE0F9E10C947B4F8D839E83AD81BE8100
:103220000D911C91F80121918F01822F90E02223B2
:1032300031F065EB71E00E948A48009799F09C019B
:1032400050E040E029833A834B835C83AD81BE81AB
:103250000D931C9369817A818B819C812696E4E091
:103260000C94974F2FEF3FEFA90129833A834B83AB
:103270005C83F0CFA6E0B0E0E0E4F9E10C947B4F92
:1032800010E000E08D839E83ED81FE81819191911C
:10329000FE83ED83009729F4C8012696E4E00C94A0
:1032A000974F9C0150E040E029833A834B835C8335
:1032B000CA01B9010E94A148462F572FC80180FBBF
:1032C0009795879597F98A011127080F191F00FB19
:1032D0001795079517F9452F5527040F151F8D8151
:1032E0009E81D0CF9B01FC01460F571FD9012F5F54
:1032F0003F4F8C91819324173507C1F70895B0E0B3
:10330000A0E0E5E8F9E10C94734FEC018B818111A9
:1033100008C0F12CE12CC701CDB7DEB7ECE00C946E
:103320008F4F6E0147E4C40ED11C5E0153E4A50E1D
:10333000B11CF501208131814281538101E010E00F
:10334000B60189810E94EB117C01892B59F51B8202
:10335000F50100811181228133818BA59CA5ADA54A
:10336000BEA58BA89CA8ADA8BEA8B901A801481904
:1033700059096A097B094A015B0188169906AA0660
:10338000BB0638F66A81623021F6A9019801280F40
:10339000391F4A1F5B1F01E010E0B60189810E94BE
:1033A000EB11B9CFEE24E394F12CB5CFB0E0A0E05F
:1033B000ECEDF9E10C94754F5C016A017B01EC01C5
:1033C000CD5BDF4F88819981AA81BB8130E020E00D
:1033D0008C159D05AE05BF05F1F0C5010E947F1952
:1033E0009C01892BC1F4B501695B7F4F01E010E0BE
:1033F000A7019601F50181810E94DA119C01892BB8
:1034000031F021E030E0CC24CA94DC2C7601C88273
:10341000D982EA82FB82C901CDB7DEB7EAE00C941B
:10342000914FAEE0B0E0E7E1FAE10C946D4F89878F
:103430009A870D831E832F8338874A015B0122E020
:10344000821A9108A108B108E985FA8587A190A59B
:10345000A1A5B2A50297A109B10988169906AA06E5
:10346000BB0618F0812C912C540189829A82AB8280
:10347000BC8275016401412C512C320129843A84AB
:10348000FFE32F0E311C11E0F10180819181A281B7
:10349000B381B701A6013CE07695679557954795AE
:1034A0003A95D1F7480F591F6A1F7B1F89859A8566
:1034B0000E94D619892B09F07AC0D701C60123E0F2
:1034C000B695A795979587952A95D1F7917096010E
:1034D00027703327F12F01C0FF0F2A95EAF72F2F0E
:1034E000A985BA8597964D915D916D917C919A973A
:1034F00042505109610971094B875C876D877E874E
:10350000E985FA85E80FF91FE95BFF4F3081322327
:10351000BFEFCB1ADB0AEB0AFB0A4B855C856D8596
:103520007E85220FC416D506E606F70630F0C12CBC
:10353000D12C760180E092E020E0311122C05FEFD3
:10354000451A550A650A750A4D815E816F81788535
:103550004416550666067706D9F469817A818B810F
:103560009C816E5F7F4F8F4F9F4F69837A838B83E0
:103570009C8369817A818B819C812E96E2E10C94F7
:10358000894FC982DA82EB82FC82412C512C3201B4
:103590008C149D04AE04BF0491F02111B1CF0196AB
:1035A000811572E0970708F06FCF21E0A9CF8FEF68
:1035B0009FEFDC0189839A83AB83BC83DACF1982C6
:1035C0001A821B821C82D5CFB0E0A0E0EAEEFAE1BD
:1035D0000C946D4F6C01480159011701425051097B
:1035E00061097109FC01FF962A013B018CE0769488
:1035F0006794579447948A95D1F780819181A281ED
:10360000B381480E591E6A1E7B1EDB01CA0123E0EE
:10361000B695A795979587952A95D1F7917047709C
:103620005527C1E001C0CC0F4A95EAF7D1E0A201CD
:10363000B3018C012FEF421A520A620A720AC601C4
:103640000E94D619009739F5A601400F511FFA01C3
:10365000E95BFF4F6081762F7C2321E030E009F4A5
:1036600020E022153305F1F0495B5F4F6C27FA012A
:103670006083F601D383F1E08F1A9108A108B108A5
:1036800061F0CC0F09F70F5F1F4FC1E0011522E079
:103690001207D1F6CCCF81E090E0CDB7DEB7E2E102
:1036A0000C94894F82E090E0F8CFA7E0B0E0EBE522
:1036B000FBE10C946D4FFC016A017B0122E0C21614
:1036C000D104E104F104D8F0808191819E838D833F
:1036D000DC0197964D915D916D917C919A97C416FE
:1036E000D506E606F70658F48C91833009F4F3C04A
:1036F00058F4813009F473C0823009F4C8C061E025
:1037000070E080E090E086C08430C9F73284438462
:1037100054846584768407851089B189BF83232DFD
:10372000342D452D562D672D702F812F9B2FA0E016
:1037300025800E94E94F41F046815781608571855F
:10374000452B462B472B11F42110D9CF46815781A9
:103750006085718546015701841A950AA60AB70A41
:10376000AD81BE8119960D90BC91A02DBA83A9831D
:10377000B2E02B12DBC0232D342D452D562D672DA5
:10378000702F812F9F81AFEF0E94CB4F09E00E94E5
:10379000A64F722F632F942F852FE981FA819F0105
:1037A00050E040E079836A839B838C8369817A81CE
:1037B0008B819C810E949E4E281539054A055B0528
:1037C00008F49DCF82169306A406B50609F4EEC050
:1037D000C701B6016F5F7F4F8F4F9F4F1BC08601A0
:1037E000169507950C0D1D1DC801892F99278695E3
:1037F000ED81FE8143A954A965A976A9480F591FF7
:10380000611D711DCF010E94D619892B39F06FEF10
:103810007FEFCB012796E2E10C94894F5801FFEF2F
:10382000AF1ABF0AF801F1708D819E81E80FF91F70
:10383000E95BFF4F1081C501892F99278695AD81DE
:10384000BE81D3964D915D916D917C91D697480F35
:10385000591F611D711DCD010E94D619892BB9F622
:10386000B1E0BB22ED81FE81EA0DFB1DE95BFF4F5C
:103870008081782F612FC0FE08C054E0769567954F
:103880005A95E1F790E080E0C5CF7F70FBCF7727B6
:103890006F2D5E2D4D2DED81FE8183A994A9A5A9E3
:1038A000B6A9480F591F6A1F7B1FCF010E94D61966
:1038B000892B09F0ACCFCC0CDD1CE894C0F8F1E00A
:1038C000DF228D819E818C0D9D1D895B9F4FDC01C8
:1038D0006D917C91D7CFED81FE8183A994A9A5A993
:1038E000B6A9B701A60127E0769567955795479544
:1038F0002A95D1F7480F591F6A1F7B1FCF010E94DD
:10390000D619892B09F083CF8D819E81895B9F4FCA
:10391000CC0CDD1CCC0CDD1CFCEFCF22F1E0DF2257
:103920008C0D9D1D0E94D0179F7074CF23E0221232
:103930000AC082899389A489B58988169906AA063E
:10394000BB0608F445CF86899789A08DB18D892B58
:103950008A2B8B2B59F5ED81FE8183A994A9A5A90A
:10396000B6A9B701A60137E07695679557954795B3
:103970003A95D1F7480F591F6A1F7B1FCF010E944C
:10398000D619892B09F043CF8D819E81895B9F4F8A
:10399000CC0CDD1CCC0CDD1CFCEFCF22F1E0DF22D7
:1039A0008C0D9D1D0E94D0179F7734CF6FEF7FEF56
:1039B0008FEF9FE72FCFB0E0A0E0E1EEFCE10C94A9
:1039C0006F4FEC016A017B0108811981D8018C914C
:1039D00040E050E060E270E0843021F440E050E0EC
:1039E00060E070E1C416D506E606F70638F082E01E
:1039F00090E0CDB7DEB7E0E10C948B4FB701A601A4
:103A00004F71552766277727452B462B472B79F78C
:103A1000CEA2DFA2E8A6F9A68E809F80A884B984F2
:103A200081149104A104B10409F056C0833008F058
:103A300046C0F80187819085B0E0A0E0B701A601FB
:103A4000E5E07695679557954795EA95D1F748173C
:103A500059076A077B0758F6F80187A990ADA1AD11
:103A6000B2AD8EA79FA7A8ABB9AB8AA69BA6ACA602
:103A7000BDA64EA55FA568A979A9411551056105A7
:103A8000710509F4B4CFD701C60129E0B695A79511
:103A9000979587952A95D1F7840F951FA61FB71F75
:103AA0008EA79FA7A8ABB9AB095B1F4FF1E0DF2240
:103AB000C00ED11EDBAACAAA90E080E09ACFF8011E
:103AC00087A990ADA1ADB2AD1D820097A105B1054A
:103AD00009F4AFCF4C015D01D80119964D905C906F
:103AE000712C612C39E0440C551C661C771C3A95EE
:103AF000D1F7B501A401C414D504E604F70440F4D9
:103B0000C8010E941A186EA77FA788AB99ABADCFEA
:103B1000CE010E94551B4B015C01BFEF8B169B062B
:103B2000AB06BB06B9F0E2E08E169104A104B10425
:103B300008F45DCFF80187A190A5A1A5B2A58816CC
:103B40009906AA06BB0608F052CFC418D508E608A5
:103B5000F708CFCF81E090E04CCFEF92FF920F9328
:103B60001F93CF93DF938C01FC011382ED5BFF4F1A
:103B70008FEF9FEFDC0180839183A283B383C80121
:103B80000E94D619EC01892BC1F5F801EB5BFD4FC2
:103B90008081918185359A4A99F5780127E4E20E72
:103BA000F11C4BE050E064EB74E0C7010E94041884
:103BB000892B49F1F70180818B3E19F0885E8230B4
:103BC00028F543E050E060EC74E0C80183589F4F53
:103BD0000E940418892B59F045E050E064EC74E031
:103BE000C80187569F4F0E940418892B79F4CE0193
:103BF000CDB7DEB7E6E00C94954FC4E0D0E0F7CF48
:103C0000C3E0D0E0F4CFC1E0D0E0F1CFC2E0D0E03B
:103C1000EECFA6E0B0E0EFE0FEE10C946D4F5C016A
:103C20006A017B012801390122E0C216D104E104B6
:103C3000F10408F400C1FC0187A190A5A1A5B2A5DB
:103C4000C816D906EA06FB0638F48081823009F4EA
:103C500092C038F4813071F022E030E03E832D8351
:103C60007DC08350823008F4A7C042E050E05E83FC
:103C70004D8374C08A0116950795040F151FC8015E
:103C8000892F99278695D501D3964D915D916D9198
:103C90007C91D697480F591F611D711DC5010E9467
:103CA000D6198D839E83ED81FE81EF2B09F056C0DE
:103CB0001501F7E42F0E311C48012FEF821A920AEA
:103CC0001170F101E00FF11F842DA7019601217001
:103CD00033274427552729833A834B835C83C0FECF
:103CE00007C080818F7040E1449E90011124822B97
:103CF000808381E0D50113968C931397D3964D91D1
:103D00005D916D917C91D697C401892F99278695F5
:103D1000480F591F611D711DC5010E94D6198D8361
:103D20009E83ED81FE81EF2BC9F4F1E09F22F1012A
:103D3000E80DF91D29813A814B815C81232B242BCD
:103D4000252B91F054E076946794579447945A95B4
:103D5000D1F7408281E0D50113968C938D819E81AD
:103D60002696E2E10C94894F8081807F352D3F704B
:103D7000432E482AEECF77276F2D5E2D4D2D83A938
:103D800094A9A5A9B6A9480F591F6A1F7B1FC50191
:103D90000E94D6198D839E832D813E81232BF1F6BF
:103DA000F601EE0FFF1FEE7FF170EA0DFB1DE95BE0
:103DB000FF4F11830083CECF83A994A9A5A9B6A9EB
:103DC00027E076956795579547952A95D1F7480F3F
:103DD000591F6A1F7B1FC5010E94D6198D839E83C0
:103DE0002D813E81232B09F0B9CFCC0CDD1CCC0CEE
:103DF000DD1C3CEFC32231E0D322C501895B9F4F1C
:103E0000C80ED91ED5018C91843079F0C6010E946C
:103E1000D017BFE07B22DC01CB0188279927AA2796
:103E2000B07F482A592A6A2A7B2AF60140825182A9
:103E3000628273828FCFE2E0F0E0FE83ED838ECF6B
:103E4000B0E0A0E0E6E2FFE10C946F4FEC016A0104
:103E50007B01B02EA12E922E832E2A013B0182E0FF
:103E6000480E511C611C711C8FEFC81AD80AE80A51
:103E7000F80A8E899F89A88DB98D0097A105B10593
:103E800039F490E080E0CDB7DEB7E0E10C948B4FE1
:103E900081309105A105B105F1F093018201081B64
:103EA000190B2A0B3B0BB701A601481B590B6A0BD8
:103EB0007B0B888199810E94091E009721F78E89CA
:103EC0009F89A88DB98D0197A109B1098E8B9F8B10
:103ED000A88FB98FCECF0B2D1A2D292D382DE3CFDA
:103EE000A6E0B0E0E6E7FFE10C946F4F6C01498378
:103EF0005A836B837C83DC010D90BC91A02DBE8323
:103F0000AD8389819A81AB81BC81892B8A2B8B2BD4
:103F1000E9F4AD81BE811F964D905D906D907C90CF
:103F20005297411451046104710459F097968D9190
:103F30009D910D90BC91A02D481659066A067B06EE
:103F4000A0F1412C512C320143942FC049815A8158
:103F50006B817C81C6010E94551B4B015C01B2E064
:103F60008B169104A104B10450F4812C912C5401BE
:103F70008394C501B4012696E0E10C948B4FEFEFDA
:103F80008E169E06AE06BE0609F4A3C1ED81FE8123
:103F900087A190A5A1A5B2A588169906AA06BB0679
:103FA00040F349805A806B807C80ED81FE8183895B
:103FB0009489A589B689892B8A2B8B2B21F4812C96
:103FC000912C5401D6CFAD81BE818C91843009F003
:103FD000C8C001E010E020E030E0B301A201CD0153
:103FE0000E94111A4B015C01DC01CB010197A10970
:103FF000B1098E3F9F4FAF4FBF4F08F0BACFEE24AD
:10400000E394F12C01E010E020E030E0B501A401E0
:104010008D819E810E94E41A9C018230910509F4F1
:10402000A4CF019709F455C189819A81AB81BC81E4
:10403000892B8A2B8B2B41F482E0D60115968C9329
:10404000232B09F092CF63C0F60185818230C1F441
:10405000D301C2010196A11DB11D88159905AA05BC
:10406000BB0571F386819781A085B185481A590AED
:104070006A0A7B0A428A538A648A758A83E0858346
:10408000F60186899789A08DB18D49815A816B810E
:104090007C814F5F5F4F6F4F7F4F481559056A0511
:1040A0007B0591F40097A105B10549F00196A11D8A
:1040B000B11DF601868B978BA08FB18FC1CF82E0A7
:1040C00090E0A0E0B0E0F5CF892B8A2B8B2B49F450
:1040D00081E090E0A0E0B0E0F601868B978BA08FA6
:1040E000B18F9501840149815A816B817C81C60120
:1040F0000E94201F9C01892B09F0E7C081E090E01D
:10410000A0E0B0E0F601868B978BA08FB18FAD81D8
:10411000BE811F968D929D92AD92BC925297FD01E9
:1041200083899489A589B68947A150A561A572A5FF
:104130004250510961097109481759076A077B07FD
:1041400038F00197A109B109838B948BA58BB68BAD
:10415000AD81BE8114968C911497816014968C93D6
:1041600008CF89819A81AB81BC81481659066A06BD
:104170007B0609F047C0530142019FEF891A990A53
:10418000A90AB90AED81FE8187A190A5A1A5B2A5D2
:1041900088169906AA06BB0628F022E0822E912CEA
:1041A000A12CB12CB501A401C6010E94551B462FBC
:1041B000572FBC01413051056105710509F4D5CE79
:1041C0004F3FFFEF5F076F077F0709F482C0452B62
:1041D000462B472B09F452C0ED81FE8187859089DB
:1041E000A189B28982309105A105B10558F047A196
:1041F00050A561A572A584179507A607B70710F407
:104200002C013D0153014201FFEF8F1A9F0AAF0AB3
:10421000BF0AED81FE8187A190A5A1A5B2A5881650
:104220009906AA06BB0660F0F2E04F16510461043D
:10423000710408F4C4CE92E0892E912CA12CB12CEB
:10424000B501A401C6010E94551B462F572FBC0182
:104250004115510561057105B9F041305105610500
:10426000710509F482CE4F3F5F4F6F4F7F4F89F149
:1042700084149504A604B70439F6A1CE81149104E0
:10428000A104B10409F4BECF0FEF1FEF9801B501EF
:10429000A4018D819E810E94091E9C01892BA9F495
:1042A00089819A81AB81BC810097A105B10509F490
:1042B0002ECF95018401AC01BD018D819E810E94AC
:1042C000091E9C01892B09F422CF2130310509F008
:1042D0004CCE88248A94982C54014BCEAAE0B0E0AE
:1042E000E4E7F1E20C946D4F8D839E834B01AD8129
:1042F000BE81AD90BC90119796964D905D906D905B
:104300007C909997B0E24B0E511C611C711CF50119
:104310008081843009F453C080E090E0A0E2B0E0F6
:10432000481659066A067B0640F0AD81BE819E960E
:104330001D921D921D921C92D197ED81FE8186A542
:1043400097A5A0A9B1A90097A105B105A9F1B3014D
:10435000A201517066277727452B462B472B09F082
:10436000E3C00196A11DB11D86A797A7A0ABB1AB75
:1043700042A553A564A575A5D50141155105610553
:10438000710511F517968D919C91B0E0A0E0B301F5
:10439000A20135E076956795579547953A95D1F7FF
:1043A000481759076A077B0708F4BEC0ED81FE81F4
:1043B00016A617A610AA11AA84E090E02BC080E0F0
:1043C00090E0A0E0B0E1ACCF19968D919C9101975F
:1043D000B0E0A0E07301620129E0F694E794D7947D
:1043E000C7942A95D1F78C219D21AE21BF21892B1D
:1043F0008A2B8B2B09F098C08D819E810E94551BC2
:104400006B017C01B2E0CB16D104E104F10430F47D
:1044100082E090E02A96E2E10C94894FEFEFCE160D
:10442000DE06EE06FE0619F481E090E0F3CFF5011A
:1044300087A190A5A1A5B2A5C816D906EA06FB06D4
:1044400008F45FC08114910409F4B0CFAD81BE813E
:104450009A964D915D916D917C919D97CD010E94B1
:10446000701F6B017C0187E090E0C114D104E1046E
:10447000F10481F2B1E0CB16D104E104F10441F280
:10448000EFEFCE16DE06EE06FE0671F2C5010E94C3
:104490007F194C01892B41F6B701A601C5010E9485
:1044A0001A1869837A838B839C83F501ED5BFF4F38
:1044B00089819A81AB81BC8180839183A283B383FC
:1044C000150197E4290E311C40E052E070E060E0F5
:1044D000C1010E94F917F501818592858816990618
:1044E000C8F1D50119968D919C918816990609F00D
:1044F0009BCFAD81BE8115968C91159784601596E2
:104500008C93ED81FE81C2A6D3A6E4A6F5A6B701E1
:10451000A601C5010E941A18AD81BE819E966D93B9
:104520007D938D939C93D197ED81FE8146A257A2F6
:1045300060A671A6F7E4AF0EB11C81E058224A0CC8
:104540005B1CAD81BE81D3965C924E92D29790E077
:1045500080E060CF01E010E029813A814B815C81ED
:10456000280D391D411D511DB10181810E94EB11A2
:10457000892B09F0B6CFAFEF8A1A9A0AACCFB0E018
:10458000A0E0E5ECF2E20C94754F8C01FC01808117
:104590009181FC01C584D684F80146A557A560A980
:1045A00071A90E94D619EC01892B09F099C0F80174
:1045B00062A973A9FB018081853809F08FC040E2B0
:1045C00050E0C6010E947219F601E180F12CFFEF64
:1045D000EF1AFF0A25E0EE0CFF1C2A95E1F7C70150
:1045E000805691098130924008F078C070E060E018
:1045F000C8010E946E21EC018430910509F46EC05F
:10460000892B09F06DC0F80146A557A560A971A9CD
:10461000808191810E94D619EC01892B09F060C03C
:10462000F80162A973A9FB018081803C09F056C0A2
:1046300040E250E0C60180960E947219F60183A103
:1046400090E08C966FE070E00E948A4E95E0660FD5
:10465000771F9A95E1F7E616F70608F43FC080E465
:10466000A82EB12C70E060E0C8010E946E21EC0120
:104670008430910599F1892B99F5F80146A557A544
:1046800060A971A9808191810E94D619EC01892BC2
:1046900039F5F80162A973A9FB018081813CF1F42D
:1046A000F0EEAF16B10438F440E250E0C6018A0DD6
:1046B0009B1D0E94721920E2A20EB11CAE14BF0411
:1046C00088F281EEA816B10458F4C6010E94691858
:1046D000F601228133818217930711F0C2E0D0E006
:1046E000CE01CDB7DEB7EAE00C94914F0F931F9344
:1046F000CF93DF93EC01FB018081918199838883C3
:10470000828D938DA48DB58D8E839F83A887B98765
:10471000068D178D20A131A10D8300270A871B87E5
:104720002C873D871E861F86188A198A1E8A1F8A33
:10473000188E198E42A153A164A175A1FE01E05CFF
:10474000FF4F4083518362837383CE010E94DB1C41
:104750009C01892B21F4CE010E94BF229C01C9013A
:10476000DF91CF911F910F910895B0E0A0E0EBEBA6
:10477000F3E20C946F4FEC016B01E880F980882420
:104780008A9455245A9404E010E0BDE04B2E81EA4F
:10479000682E82E0782E5E0180E4A80EB11C4EA542
:1047A0005FA568A979A9411551056105710521F435
:1047B00001151105C1F0B4C0C7010E94D6198C01C2
:1047C000892B09F0ADC0EAA9FBA99080992009F4D2
:1047D000C8C0D7018C91843059F5C114D10459F067
:1047E000B3E89B1294C010E000E0C801CDB7DEB77B
:1047F000E0E10C948B4FE5E89E1289C08EA19FA149
:10480000A8A5B9A5FE01E05CFF4F80839183A28338
:10481000B383CE010E94BF228C01892B09F080C096
:10482000D7011D96ED91FC9184818F738C83DDCF30
:1048300023852F732C83B5EE9B1609F479C08EE285
:10484000981609F475C081E090E0322F3F7138303E
:1048500009F080E08C159D0509F06AC02F3009F041
:104860006EC096FE62C08584E89496F84EA15FA162
:1048700068A579A5D5014D935D936D937C931397AE
:104880008585881155C0828D938D892B09F050C084
:10489000D7011B964D915C9120812F7B2150330BCA
:1048A000429EC001439E900D112404E912E021E0D4
:1048B00030E0D8016D918D016E0F7F2F711DDB01EE
:1048C0006D917C9121153105B1F18034910580F510
:1048D0009C01220F331F240F351FD9016D937C9348
:1048E0009B0101966016710621F7608166FF0CC07E
:1048F000232B51F080349105D8F4880F991F840F31
:10490000951FFC011182108255245A94590C60E0C5
:1049100070E0CE010E946E218C01892B09F43FCFFB
:104920001EA61FA618AA19AA60CF591409F4A8CF69
:1049300055245A94ECCF6F3F7F4FA1F2F9CF51101D
:1049400006C0CF010E945818881509F44CCFC05CEE
:10495000DF4F8FEF9FEFDC0188839983AA83BB83AE
:1049600044CF04E010E0DCCFB0E0A0E0EAEBF4E2FA
:104970000C94754F8C017B01DC01CD90DC9040E004
:1049800050E0BA010E94DB1CEC01892BF1F4F80124
:1049900046A557A560A971A9C6010E94D6195C0158
:1049A000009751F5D801D296ED91FC918081F601E6
:1049B00090819430B9F487FF19C061E070E0C801BC
:1049C0000E946E21EC01892B59F0C430D10511F4FD
:1049D000C7E0D0E0CE01CDB7DEB7EAE00C94914F4E
:1049E000E501D5CF853E11F08111E7CF2196CE1597
:1049F000DF0521F05E01E1CFEC01E7CFD0E0C0E0C0
:104A0000E9CFB0E0A0E0E7E0F5E20C94764F8C014E
:104A1000DC01ED91FC91E584F684C7010E946918E0
:104A2000F70193838283C180F801E05CFF4F4081EE
:104A3000518162817381C8010E94DB1CEC01D12C81
:104A4000BB24B394209751F0CE01239710F082E05D
:104A500090E0CDB7DEB7E9E00C94924FD8019E9676
:104A60004D915D916D917C91D1978D919C910E941A
:104A7000D619EC01892B41F740E250E0B701F8016B
:104A800082A993A90E947219D801ED91FC91B38279
:104A9000C114D104C9F2B0E2EB0EF11C70E060E089
:104AA000C8010E946E21EC01E1E0CE1AD108CACF04
:104AB000AEE0B0E0EEE5F5E20C946D4F4C01DC01A8
:104AC0000D90BC91A02DBE83AD8340E050E0BA01B3
:104AD0000E94DB1C1C01892BB9F4ED81FE818081D1
:104AE000843009F07EC0838594850E943A196C0158
:104AF00070E060E0C4010E94B5238F839887AF8186
:104B0000B885109731F01D01C1012E96E2E10C9499
:104B1000894FAD81BE811D96ED91FC9183A18034BA
:104B200038F724A135A1C216D30611F7E82EF12CCF
:104B300000E410E0AF80B884AA0CBB1C8F8198857C
:104B40008E159F0569F4AD81BE811B968D919C9158
:104B5000A80EB91EF50180819181892B49F6D4CF29
:104B6000C8018F719927892B11F40E5F1F4FAD81FA
:104B7000BE811D96ED91FC91E00FF11F8081918126
:104B80009C0150E040E029833A834B835C83CA0157
:104B9000B9010E94A1482B013C01AD81BE811B9649
:104BA0008D919C91A80EB91EF501808191819C0187
:104BB00050E040E0CA01B9010E94A14869837A83AC
:104BC0008B839C83461657066806790609F090CFBA
:104BD0000E5F1F4F4F8158854F5F5F4F58874F8340
:104BE000A9CF8401005C1F4F8FEF9FEFDC01F8011C
:104BF00080839183A283B383CC24CA94FFEFF9838B
:104C000094012C5C3F4F3E872D87D4019E964D9199
:104C10005D916D917C91D1978D819E810E94D61975
:104C20009C01892B09F0C4C0F401E2A8F3A8D701C4
:104C3000DC90DD2009F400C11B969C91892F8F73B5
:104C40008483B5EEDB1621F093FF0EC08F3079F030
:104C50002FEFF80120833FEF31834FEF42835FEF67
:104C600053838FEF89839BC08F3009F0B1C0D4018B
:104C7000DF968C91DF9786FD92C0D6FE9BC0F70130
:104C8000C584E894D6F896968D919D910D90BC912F
:104C9000A02DF80180839183A283B383D7011D9651
:104CA0008C911D978C11DDCF5A968D919C915B97BD
:104CB000892B09F0B5C0ED81FE81638474848C91E9
:104CC0008F738150990B4DE0489F9001499F300DA3
:104CD000112438872F8334E9432E32E0532E81E0AC
:104CE00090E0D2012D912D01F701E20FF11DA0807E
:104CF000B180009709F465C0EF81F885E034F105D3
:104D000008F091C050E040E0CA01B5010E94A148FE
:104D100069837A838B839C834F8158854F5F5F4F74
:104D20005C874B878F819885880F991F860D971D0B
:104D3000DC018D919C919C0150E040E0CA01B901D9
:104D40000E94A1486F83788789879A8729813A8151
:104D50004B815C81261737074807590709F066C061
:104D6000C5014B855C8558874F83A1EA4A16A2E0AE
:104D70005A0609F0B6CFF701208126FF0EC0892B15
:104D800061F02F813885220F331F260D371DD90181
:104D90008D919C91892B09F04CC0DA94D98270E0F6
:104DA00060E0C4010E946E219C01892B09F42DCF83
:104DB0001901AACEF981FD1509F470CF5FEF59836F
:104DC000EECF5FEFA516B50681F2EFEFE983E7CFEF
:104DD000B981B11106C0C7010E9458188C1509F499
:104DE00093CEF40187AD80FD0AC04BE050E06D85A5
:104DF0007E85C7010E940418892B09F485CEEFEF48
:104E0000D801EC93FFEF1196FC9311972FEF1296B8
:104E10002C9312973FEF13963C934FEF4983BFCFEC
:104E20009FEF9983BCCFAFEFA983B9CFBFEFB98311
:104E3000B6CFFFEFF983B3CF84E0282E312C64CEB8
:104E4000B0E0A0E0E6E2F7E20C94734FEC018D8154
:104E5000833091F44E815F8168857985CA88DB88CB
:104E6000EC88FD88C40ED51EE61EF71E4C155D05A8
:104E70006E057F0541F41D8290E080E0CDB7DEB77E
:104E8000ECE00C948F4F4A015B018FEF881A980A6F
:104E9000A80AB80A95018401888199810E94091E97
:104EA000009761F7B501A401E1CFAFE2B0E0EBE517
:104EB000F7E20C946D4F6B01142FDB011D921C92D5
:104EC0000E948D187C018BE090E0F7FC21C0F70177
:104ED000EE0FFF1FEA59F94F808091808CE090E03F
:104EE00081149104A9F0F601918280821E7FD40181
:104EF0008C91882389F011968C910E94CC1180FDB1
:104F00000BC0112309F456C282FF54C28AE090E01C
:104F1000AF96E2E10C94894FF4011082E1828E2D6C
:104F20000E94D31180FD11C4112311F082FDEECF38
:104F300040E050E0BA01C4010E94AD1D9C018230E6
:104F4000910509F085C17401F3EFEF1AFDEFFF0A37
:104F50008E010F5F1F4F540123EBA21A2DEFB20AEF
:104F60006801C7010E94D017D6016D937D938D9380
:104F70009D936D01B0E1EB0EF11CEA14FB0489F77F
:104F80007801E0E1EE0EF11CD8014D915D916D913B
:104F90007D918D0123E030E04115510561057105DA
:104FA00009F44EC1C4010E94AD1D9C01029708F096
:104FB00047C1F401ED5BFF4F4080518062807380F8
:104FC0003F962130310509F0F8C1940129573F4F30
:104FD0008191811146C1E217F307D1F7F401E15540
:104FE000FF4F808191818115914009F03AC1F40110
:104FF000ED54FF4F8081893009F033C1C4018157DE
:105000009F4F0E94E11759016A017B018C01A301A6
:10501000920160E070E0CB01498A3A8B6B8A5C8B2D
:105020006D8B7E8B8F8B988F60E070E080E090E0DE
:105030000E94C24F29A33DA349A75DA7362E272E64
:105040008EA79FA72F3F3F4F4F4F5F4F61057105C1
:105050008105910511F008F004C1C40185569F4FE8
:105060000E94D017F40163A774A785A796A7EB54F5
:10507000FF4F8081D40112968C93813009F0F1C0EA
:105080003197808101E010E002C0000F111F8A9566
:10509000E2F7F401128701870115110509F4E1C057
:1050A000C4018D559F4F0E94D0176B017C01FEEF0C
:1050B000CF16FFEFDF06EF06FFE7FF0608F0D1C0CF
:1050C000DC01CB010296A11DB11DF40187A390A7BD
:1050D000A1A7B2A747A650AA61AA72AAC401815685
:1050E0009F4F0E94D017640D751D861D971D698BFB
:1050F0007A8B8B8B9C8BF40163AF74AF85AF96AFCB
:10510000C40189569F4F0E94D017460E571E681E35
:10511000791ED401D3964D925D926D927C92D69772
:10512000D801A70196010E94034F9B01AC0160E0EA
:1051300070E0CB01298F3A8F4B8F5C8F6D8F7E8F04
:105140008F8F98A349895A896B897C899A01AB0111
:1051500060E070E0CB01298B3A8B4B8B5C8B6D8BC5
:105160007E8B8F8B988F298D3A8D4B8D5C8D60E077
:1051700070E080E090E0A988BA88CB88DC88E12CD8
:10518000F12C00E010E00E94C24FA9A0BDA0C9A46C
:10519000DDA4E32CF22C0EA51FA50E94E04F11F018
:1051A00008F05FC0C40189559F4F0E94D017D401F9
:1051B000D7966D937D938D939C93DA97C12CD12CC8
:1051C0007601412C512C3201C114D104E104F104C7
:1051D00029F5F40181859285B0E0A0E048165906D2
:1051E0006A067B06F0F547A950AD61AD72ADC4010A
:1051F0000E941A18698B7A8B8B8B9C8BAB01BC013C
:10520000440D551D661D771DC4010E94D619892BBA
:1052100011F5FFEF4F1A5F0A6F0A7F0AF401EC0DD8
:10522000FD1DE95BFF4F80818138F1F020E2C20E65
:10523000D11CE11CF11C31E0D322EE24FF24C4CFA9
:105240000E151F0509F0A0CE2430310551F403C01E
:105250008430910519F481E090E05ACE029708F469
:10526000A8CE8DE090E054CE8401095B1F4F44E14D
:10527000C40ED11CC8018C0D9D1D0E94D0176B015E
:105280007C0152E0C516D104E104F10450F3F401AD
:1052900087A190A5A1A5B2A5C816D906EA06FB0666
:1052A00000F75401FFE3AF0EB11CF401A185B285F4
:1052B000A701960122503109410951090E94034F6B
:1052C000698B7A8B8B8B9C8B83AD94ADA5ADB6AD82
:1052D00029893A894B895C89820F931FA41FB51FC6
:1052E000F50180839183A283B383F40183A994A9F8
:1052F000A5A9B6A9B701A601E7E0769567955795E8
:105300004795EA95D1F7480F591F6A1F7B1FC401C3
:105310000E94D619892B09F09ECFC6018F77992755
:10532000880F991F880F991F800F911F0E94D01717
:10533000462F572FBC014F3FFFEF5F076F077F07D7
:1053400059F02FEFC21AD20AE20AF20A4C155D0593
:105350006E057F0551F285CFD40153964D935D9331
:105360006D937C935697F4014787508B618B728BBA
:1053700004E010E0D4010C938091640690916506DE
:105380000196909365068093640616969C938E937F
:10539000159783E095E01C969C938E931B9783E86A
:1053A00095E01E969C938E931D97F401178A108E9C
:1053B000118E128E90E080E0ABCD808191818115BD
:1053C000924009F04ECFF401E35AFF4F8081918162
:1053D0009C0150E040E0298B3A8B4B8B5C8B892BF6
:1053E00049F4C40185599F4F0E94D017698B7A8B6D
:1053F0008B8B9C8B49895A896B897C89D4019B96BC
:105400004D935D936D937C939E97F401E95AFF4F02
:105410000081F40102838FEF800F823008F021CFEA
:10542000EC5AFF4F1081812F90E01A969C938E9337
:105430001997009709F415CF9C0121503109822357
:105440009323892B09F00DCF349620803180F4010D
:1054500030862782C1018F709927892B09F001CFEF
:10546000E65AFF4F808191816C01F12CE12C892B50
:1054700039F4C40189599F4F0E94D0176B017C01F8
:10548000F401EB5AFF4F0190F081E02D309709F4C1
:10549000E8CEA02FB0E029893A894B895C890E9427
:1054A000034F69A77AA78BA79CA79F0150E040E014
:1054B00029A33AA34BA35CA3C10164E09695879509
:1054C0006A95E1F7280F391F411D511DDA01C90105
:1054D00049A55AA56BA57CA5480F591F6A1F7B1FBC
:1054E000498F5A8F6B8F7C8FC416D506E606F70658
:1054F00008F4B7CED701C601841B950BA60BB70BDA
:105500008DA39EA3AFA3B8A7C12ED12CF12CE12C63
:10551000BC01CD01A70196010E949E4E6DA17EA106
:105520008FA198A56C157D058E059F0508F499CE71
:10553000263F7FEF370747077FE0570708F091CEF8
:1055400003E010E0263F8FEF38074105510550F486
:1055500001E010E0263F6FE036074105510510F0ED
:1055600002E010E069017A0192E0C90ED11CE11C51
:10557000F11CD4019796CD92DD92ED92FC929A9710
:10558000F40147A650AA61AA72AA89A19AA1ABA167
:10559000BCA1840D951DA61DB71D83AB94ABA5AB17
:1055A000B6AB498D5A8D6B8D7C8D440D551D661D96
:1055B000771D43AF54AF65AF76AF0330110509F0E7
:1055C00092C0EF58FF4F80819181282A392A2114F7
:1055D000310409F046CEC4018D589F4F0E94D01768
:1055E000D401D7966D937D938D939C93DA9742E087
:1055F000CC0CDD1CEE1CFF1C4A95D1F72FEFC20E20
:1056000021E0D21EE11CF11C89E0F694E794D794C6
:10561000C7948A95D1F749895A896B897C894C1539
:105620005D056E057F0508F41CCE8FEF9FEFDC0152
:10563000F401838B948BA58BB68B8787908BA18B82
:10564000B28B80E884830330110509F093CEE958CA
:10565000FF4F80819181019709F08CCEB301A201A7
:105660004F5F5F4F6F4F7F4FC4010E94D619892B48
:1056700009F080CED40114961C92F401EB5BFD4F2F
:105680008081918185359A4A09F074CEC401895B85
:105690009F4F0E94D017623572458146914409F0B0
:1056A00069CEC401855D9D4F0E94D0176237724755
:1056B0008144914609F05ECEC401815D9D4F0E94F8
:1056C000D017D40153966D937D938D939C935697E9
:1056D000C4018D5C9D4F0E94D017F4016787708BC9
:1056E000818B928B47CE2114310409F4BACD29A5C0
:1056F0003AA54BA55CA5820F931FA41FB51F87ABCE
:1057000090AFA1AFB2AF0230110529F4CC0CDD1C73
:10571000EE1CFF1C73CFA3E0B0E0A70196010E942E
:10572000034F698F7A8F8B8F9C8FDC01CB01B695ED
:10573000A79597958795F1E0CF22DD24EE24FF24ED
:10574000C80ED91EEA1EFB1E59CF83E090E0E0CBC5
:10575000B0E0A0E0EEEAFBE20C946D4F1C014A01C0
:105760005B01FC01C081D181F2E08F169104A1049C
:10577000B10440F422E030E0C901CDB7DEB7E2E188
:105780000C94894F8FA198A5A9A5BAA5881699064A
:10579000AA06BB0678F72A013B0175016401B50131
:1057A000A401C1010E94551B4B015C0181149104AD
:1057B000A104B10439F48881843009F467C030E071
:1057C00020E0DACF81E088169104A104B10491F2BF
:1057D000EFEF8E169E06AE06BE0609F45AC088810B
:1057E0008430E1F58B899C89AD89BE894FA158A58C
:1057F00069A57AA542505109610971098417950775
:10580000A607B707C0F1FFEFCF1ADF0AEF0AFF0ABA
:105810008C149D04AE04BF04B1F08881843089F4F7
:10582000970186010419150926093709F12CE12C85
:10583000B301A201CE010E94E41A9C01892B09F058
:105840009BCF240135018FA198A5A9A5BAA58816DB
:105850009906AA06BB0608F4A0CFADCF00E010E081
:105860009801B701A601CE010E94091E9C01892B57
:1058700009F4B8CF81CF0196A11DB11D8B8B9C8BF4
:10588000AD8BBE8B8C8181608C83BDCFF101158285
:1058900096CF21E030E070CF0F931F93CF93DF932B
:1058A0008C01EB01C4960E94D0176E837F8388879A
:1058B0009987C801C8960E94E1172A873B874C87C1
:1058C0005D876E877F87888B998BD80191968C91A5
:1058D00082708D831E8A1F8A188E198EDF91CF9158
:1058E0001F910F9108950F931F93282FFB01628D35
:1058F000738D90E080E0233059F40489158930E0FD
:1059000020E0980111270027602B712B822B932B0D
:105910001F910F910895A7E5B0E0E1E9FCE20C9436
:105920006D4F8C012B01DC010D90BC91A02D2C96AC
:10593000BFAFAEAF2C97FB0180818F3211F08C3559
:1059400081F492012901D9018C912F5F3F4F8F3251
:10595000C9F38C35B9F3F8011682178210861186C7
:105960000DC02C96EEADFFAD2C978789908DA18D43
:10597000B28DF80186839783A087B187D8015696A8
:105980001D921D921D921C9259972C96EEADFFAD63
:105990002C978081843009F058C016968D919D9186
:1059A0000D90BC91A02D892B8A2B8B2B09F44DC017
:1059B000838D948DA58DB68DF801828F938FA48FE2
:1059C000B58F2C96EEADFFAD2C97878D90A1A1A140
:1059D000B2A1F801868F978FA0A3B1A32C96EEAD4C
:1059E000FFAD2C9783A194A1A5A1B6A1F80182A334
:1059F00093A3A4A3B5A3B801CE0101960E94762378
:105A00009C01892B09F08BC02C96AEADBFAD2C97B5
:105A10001D96ED90FC90C701C8960E94D01729965C
:105A20006CAF7DAF8EAF9FAF29979B01AC01F801A2
:105A3000628733878487558716861786108A118A6E
:105A4000D70191968C9182708583F201808180329A
:105A500008F45BC098012C5C3F4F62963FAF2EAFBD
:105A600062972C968EAD9FAD2C97895B9F4F649665
:105A70009FAF8EAF6497D801A05CBF4F6696BFAF53
:105A8000AEAF66975A824982D801ED91FC9163844A
:105A90007484F12CE12CCE0101960E940619462F48
:105AA000572FBC014F3FBFEF5B076B077B0751F1DF
:105AB00041155105E1E06E07710558F0F701EE0F51
:105AC000FF1FE60DF71D9183808397012F5F3F4FE6
:105AD00079014032510508F48BC04F325105B9F1BC
