:100000000C945D070C947C070C947C070C947C0783
:100010000C947C070C947C070C947C070C947C0754
:100020000C947C070C947C070C947C070C947C0744
:100030000C947C070C947C070C947C070C947C0734
:100040000C94400A0C947C070C947C070C947C075D
:100050000C94F80A0C94290B0C947C070C947C07E4
:100060000C947C070C947C070C947C070C947C0704
:100070000C947C070C947C070C947C070C947C07F4
:100080000C947C070C947C070C947C0772633D25D0
:10009000752046525F25530A004F4B004449534B8D
:1000A0005F45525200494E545F455252004E4F54E4
:1000B0005F5245414459004E4F5F46494C45004E02
:1000C0004F5F5041544800494E56414C49445F4EA1
:1000D000414D450044454E49454400455849535417
:1000E00000494E56414C49445F4F424A45435400F3
:1000F00057524954455F50524F544543544544006C
:10010000494E56414C49445F4452495645004E4F72
:10011000545F454E41424C4544004E4F5F46494C6A
:10012000455F53595354454D004D4B46535F414233
:100130004F525445440054494D454F5554004C4F7F
:10014000434B4544004E4F545F454E4F5547485F23
:10015000434F524500544F4F5F4D414E595F4F50F2
:10016000454E5F46494C455300002025303258002B
:100170002530386C583A005B4469736B20636F6EAE
:10018000746F726C735D0A206469203C7064233E56
:10019000202D20496E697469616C697A65206469F3
:1001A000736B0A206464205B3C7064233E203C73C4
:1001B0006563743E5D202D2044756D702061207351
:1001C000656372746F720A206473203C7064233E0E
:1001D000202D2053686F77206469736B20737461DE
:1001E0007475730A20646373203C7064233E202D71
:1001F00020696F63746C284354524C5F53594E43CB
:10020000290A5B42756666657220636F6E74726F51
:100210006C735D0A206264203C6F66733E202D2063
:1002200044756D7020776F726B696E6720627566BA
:100230006665720A206265203C6F66733E205B3CF7
:10024000646174613E5D202E2E2E202D2045646950
:100250007420776F726B696E67206275666665726F
:100260000A206272203C7064233E203C73656374F4
:100270003E205B3C6E756D3E5D202D2052656164B5
:10028000206469736B20696E746F20776F726B697D
:100290006E67206275666665720A206277203C7020
:1002A00064233E203C736563743E205B3C6E756D39
:1002B0003E5D202D20577269746520776F726B69DF
:1002C0006E672062756666657220696E746F206461
:1002D00069736B0A206266203C76616C3E202D209B
:1002E00046696C6C20776F726B696E672062756609
:1002F0006665720A20626C203C6C656E3E202D2083
:1003000053657420726561642F7772697465206C1F
:10031000656E67746820666F722066722F6677203C
:10032000636F6D6D616E640A5B46696C65737973AA
:1003300074656D20636F6E74726F6C735D0A2066F6
:1003400069203C6C64233E205B3C6D6F756E743E8F
:100350005D202D20466F72636520696E6974696146
:100360006C697A65642074686520766F6C756D655C
:100370000A206673205B3C706174683E5D202D200E
:1003800053686F7720766F6C756D65207374617438
:1003900075730A20666C205B3C706174683E5D205A
:1003A0002D2053686F772061206469726563746FD4
:1003B00072790A20666F203C6D6F64653E203C6652
:1003C000696C653E202D204F70656E206120666946
:1003D0006C650A206663202D20436C6F7365207462
:1003E00068652066696C650A206665203C6F6673E7
:1003F0003E202D204D6F766520667020696E206E40
:100400006F726D616C207365656B0A206668203CB5
:1004100066737A3E203C6F70743E202D20416C6CD8
:100420006F63617465206120636F6E746967756FB7
:10043000757320626C6F636B20746F207468652025
:1004400066696C650A206664203C6C656E3E202DF2
:10045000205265616420616E642064756D70207443
:1004600068652066696C650A206672203C6C656E62
:100470003E202D2052656164207468652066696C99
:10048000650A206677203C6C656E3E203C76616C88
:100490003E202D20577269746520746F2074686542
:1004A0002066696C650A20666E203C6F7267206E5C
:1004B000616D653E203C6E6577206E616D653E2006
:1004C0002D2052656E616D6520616E206F626A65D8
:1004D00063740A206675203C6F626A206E616D65E8
:1004E0003E202D20556E6C696E6B20616E206F6210
:1004F0006A6563740A206676202D205472756E63D7
:10050000617465207468652066696C65206174207B
:1005100063757272656E742066700A20666B203C8B
:10052000646972206E616D653E202D2043726561A5
:1005300074652061206469726563746F72790A2042
:100540006661203C617472723E203C6D61736B3E4B
:10055000203C6F626A656374206E616D653E202D7C
:10056000204368616E6765206F626A65637420610D
:1005700074747269627574650A206674203C7965CA
:1005800061723E203C6D6F6E74683E203C64617900
:100590003E203C686F75723E203C6D696E3E203C8B
:1005A0007365633E203C6F626A656374206E616DA3
:1005B000653E202D204368616E67652074696D6516
:1005C0007374616D70206F6620616E206F626A6562
:1005D00063740A206678203C7372632066696C65D8
:1005E0003E203C6473742066696C653E202D204378
:1005F0006F707920612066696C650A206667203C0F
:10060000706174683E202D204368616E67652063C9
:10061000757272656E74206469726563746F727945
:100620000A20666A203C706174683E202D20436871
:10063000616E67652063757272656E74206472699D
:1006400076650A206671202D2053686F77206375C8
:100650007272656E74206469726563746F72790A70
:1006600020666D203C6C64233E205B3C66732074E6
:100670007970653E205B3C61752073697A653E2028
:100680005B3C616C69676E3E205B3C4E206661742A
:10069000733E205B3C4E20726F6F743E5D5D5D5D0E
:1006A0005D202D204372656174652046415420769B
:1006B0006F6C756D650A5B4D69736320636F6D6D5B
:1006C000616E64735D0A2070203C77617666696CA8
:1006D000653E202D20506C617920524946462D57A9
:1006E0004156452066696C650A2074205B3C79653B
:1006F00061723E203C6D6F6E74683E203C6D64619B
:10070000793E203C686F75723E203C6D696E3E20DC
:100710003C7365633E5D202D205365742F53686FD5
:10072000772063757272656E742074696D650A0A4C
:100730000025752F25752F257520253032753A2512
:100740003032753A253032750A0025730A000A25C1
:100750006C7520627974657320636F7069656420BD
:10076000617420256C752062797465732F736563DD
:100770002E0A000A436F7079696E672E2E2E000ACA
:100780004372656174696E672022257322004F7081
:10079000656E696E67202225732200256C752062C4
:1007A00079746573207772697474656E2061742042
:1007B000256C752062797465732F7365632E0A004A
:1007C000256C75206279746573207265616420619F
:1007D0007420256C752062797465732F7365632EA0
:1007E0000A0066707472203D20256C7528307825CB
:1007F0006C58290A002C202531306C754B69422039
:10080000667265650A002534752046696C65287333
:10081000292C2531306C7520627974657320746FD2
:1008200074616C0A25347520446972287329002587
:100830006325632563256325632025752F253032C5
:10084000752F2530327520253032753A25303275B6
:100850002025396C75202025730A000D257520662A
:10086000696C65732C20256C752062797465732E14
:100870000A257520666F6C646572732E0A256C7587
:10088000204B4220746F74616C206469736B207319
:10089000706163652E0A256C75204B42206176617C
:1008A000696C61626C652E0A002E2E2E00566F6CEC
:1008B000756D6520532F4E20697320253034582DD7
:1008C000253034580A004E6F20766F6C756D6520A8
:1008D0006C6162656C0A00566F6C756D65206E61A7
:1008E0006D652069732025730A0046415420747990
:1008F0007065203D2025730A42797465732F436C1F
:100900007573746572203D20256C750A4E756D6295
:100910006572206F662046415473203D2025750A7C
:10092000526F6F742044495220656E74726965730A
:10093000203D2025750A536563746F72732F4641FD
:1009400054203D20256C750A4E756D626572206FCE
:100950006620636C757374657273203D20256C7519
:100960000A566F6C756D6520737461727420286C03
:10097000626129203D20256C750A4641542073741C
:1009800061727420286C626129203D20256C750AF3
:1009900044495220737461727420286C62612C6324
:1009A0006C7573746F7229203D20256C750A446143
:1009B000746120737461727420286C626129203D17
:1009C00020256C750A0A0025753A00522F57206CB5
:1009D000656E677468203D2025750A0072633D25A9
:1009E000750A0072633D25750A003F3F3F0A0025E6
:1009F00030345820253032582D0072633D25640A6A
:100A000000532F4E3A2025730A004D6F64656C3AEF
:100A10002025730A005344205374617475733A0A95
:100A2000004F43523A0A004349443A0A00435344B0
:100A30003A0A004361726420747970653A20257522
:100A40000A00457261736520626C6F636B3A202502
:100A50006C7520736563746F72730A0044726976F3
:100A6000652073697A653A20256C75207365637417
:100A70006F72730A0072633D25640A0053656374E4
:100A80006F723A256C750A0072633D25640A005244
:100A90005443206973206E6F7420617661696C61C4
:100AA000626C652E0A0043757272656E74207469FB
:100AB0006D653A2025752F25752F25752025303237
:100AC000753A253032753A253032750A004D4D435E
:100AD000203D3D3E2025750A004C464E3D25532CB9
:100AE0002043503D25750A00456E61626C656400C7
:100AF0000A4661744673204D6F64756C65205465B9
:100B00007374204D6F6E69746F720A007D1D010051
:100B1000632C001E9601A01E5A01001F0806101F1C
:100B20000606201F0806301F0806401F0606511F34
:100B30000700591F521F5B1F541F5D1F561F5F1F69
:100B4000601F0806701F0E00BA1FBB1FC81FC91FF9
:100B5000CA1FCB1FDA1FDB1FF81FF91FEA1FEB1F8D
:100B6000FA1FFB1F801F0806901F0806A01F08061B
:100B7000B01F0400B81FB91FB21FBC1FCC1F01005B
:100B8000C31FD01F0206E01F0206E51F0100EC1F75
:100B9000F21F0100FC1F4E210100322170211002C2
:100BA000842101008321D0241A05302C2F04602CCD
:100BB0000201672C0601752C0201802C6401002DB6
:100BC000260841FF1A03000061001A03E000170322
:100BD000F8000703FF000100780100013001320135
:100BE0000601390110014A012E0179010601800137
:100BF0004D0043028101820182018401840186014A
:100C00008701870189018A018B018B018D018E018A
:100C10008F0190019101910193019401F6019601D8
:100C20009701980198013D029B019C019D012002C2
:100C30009F01A001A001A201A201A401A401A6019B
:100C4000A701A701A901AA01AB01AC01AC01AE014A
:100C5000AF01AF01B101B201B301B301B501B501FB
:100C6000B701B801B801BA01BB01BC01BC01BE01AA
:100C7000F701C001C101C201C301C401C501C40122
:100C8000C701C801C701CA01CB01CA01CD011001CA
:100C9000DD0101008E01DE011201F3010300F1010B
:100CA000F401F401F8012801220212013A020900BC
:100CB000652C3B023B023D02662C3F024002410292
:100CC000410246020A015302400081018601550299
:100CD00089018A0158028F015A0290015C025D026B
:100CE0005E025F0293016102620294016402650286
:100CF00066026702970196016A02622C6C026D021D
:100D00006E029C01700271029D01730274029F01C8
:100D100076027702780279027A027B027C02642CE6
:100D20007E027F02A60181028202A901840285025D
:100D300086028702AE014402B101B20145028D0272
:100D40008E028F0290029102B7017B030300FD0324
:100D5000FE03FF03AC0304008603880389038A03B0
:100D6000B1031103C2030200A303A303C4030803D6
:100D7000CC0303008C038E038F03D8031801F20306
:100D80000A00F903F303F403F503F603F703F7038B
:100D9000F903FA03FA033004200350041007600437
:100DA00022018A043601C1040E01CF040100C004EF
:100DB000D0044401610526040000C700FC00E900DE
:100DC000E200E400E000E500E700EA00EB00E800F4
:100DD000EF00EE00EC00C400C500C900E600C6004C
:100DE000F400F600F200FB00F900FF00D600DC0082
:100DF000A200A300A500A7209201E100ED00F300EE
:100E0000FA00F100D100AA00BA00BF001023AC0024
:100E1000BD00BC00A100AB00BB009125922593252D
:100E20000225242561256225562555256325512552
:100E300057255D255C255B251025142534252C259B
:100E40001C2500253C255E255F255A25542569254E
:100E50006625602550256C25672568256425652550
:100E600059255825522553256B256A2518250C250B
:100E7000882584258C2590258025B103DF009303E8
:100E8000C003A303C303B500C403A6039803A903C7
:100E9000B4031E22C603B50329226122B1006522D4
:100EA000642220232123F7004822B0001922B70032
:100EB0001A227F20B200A025A00011241FBECFEF70
:100EC000D0E4DEBFCDBF11E0A0E0B1E0E8E1F6EB99
:100ED00000E00BBF02C007900D92AE3DB107D9F7FD
:100EE00021E2AEEDB1E001C01D92A834B207E1F7F6
:100EF0000E94814C0C94E35A0C9400008A3019F43F
:100F00008DE001D08AE0FF93EF93E091DE01F09154
:100F1000DF01309709F00995EF91FF910895FC01E9
:100F20008591803011F0EADFFBCF0895FF27E0E2E2
:100F300030E247FF0CC0419597FF09C0EDE2609594
:100F4000709580959095611D711D811D911D27FFE4
:100F500002C0219530E350E2AA27660F771F881F51
:100F6000991FAA1FA41710F0A41B63955A95A9F7FF
:100F7000AA3008F0A95FA05DAF93F39561157105E4
:100F80008105910541F7ED3211F4EF93F395F217D6
:100F900018F43F93F395FBCF8F91B0DFFA95E1F70B
:100FA0000895E991F9918591803021F0853219F009
:100FB000A5DFF9CF089520E0E89455915532C1F3AB
:100FC000503311F4689455915A3348F4505390F3C8
:100FD000220F022E220F220F200D250FF4CF0EF428
:100FE000219589919991533619F3533729F1533546
:100FF00059F1BC0188279927E8945C3621F489913E
:10100000999168945591543639F446EF7EF077FF04
:101010000DC08FEF9FEF0AC055374AE039F05835C1
:1010200040E121F0523642E009F00895FF93EF933A
:101030007DDFEF91FF91B7CFFF93EF93FC0181919B
:101040008030B9F35BDFFBCFFF93EF9368DFF1CF25
:10105000DF93CF93CDB7DEB72596A3DFCF91DF9196
:101060000895F70181937F010895DF93CF93CDB762
:10107000DEB72596E091DE01F091DF01EF93FF935B
:10108000E1E3F8E0E093DE01F093DF01FF92EF92FD
:10109000E990F99086DFF7011082EF90FF90FF91C1
:1010A000EF91E093DE01F093DF01CF91DF9108959E
:1010B0000B01DC01ED91FD912227332744275527B1
:1010C000E8949AE001C0319660816032E1F3A8F1C2
:1010D0006D3211F46894F7CF6A3378F5603368F1B4
:1010E00071F498E031966081613248F1623611F412
:1010F00092E003C0683719F490E131966081613263
:10110000F0F0613608F060526053B8F06A3018F0C1
:1011100067506A3090F0691780F481E2771B08F419
:10112000790F769557954795379527958A95B9F70D
:10113000260F381F481F581FE0CF80E001C081E014
:101140004EF466272095309540955095261F361F02
:10115000461F561FFE93EE93D0012D933D934D9362
:101160005D93112408959C0150E040E089E990E0EE
:101170004217530789F49F938F933F932F938CE8E3
:1011800090E09F938F930E9428080F900F900F90EC
:101190000F900F900F900895FC016491662359F30E
:1011A0000196FC013197E491E111FACF4F5F5F4F57
:1011B000DFCFB0E0A0E0EFEDF8E00C943E5AF82E5F
:1011C000092F122F7F936F935F934F9380E791E0E6
:1011D0009F938F930E942808CF2DD02F7E01E10E80
:1011E000F11C0F900F900F900F900F900F908E01A9
:1011F0008AE6C82E81E0D82E0E151F0571F480E214
:101200000E947E07CE15DF05B1F48AE00E947E07BA
:10121000CDB7DEB7E8E00C945A5AF80181918F01FE
:101220001F928F93DF92CF920E9428080F900F9009
:101230000F900F90E1CF899190EE980F9F3500F3BA
:101240008EE2DECFAF92BF92DF92EF92FF920F93CA
:101250001F93CF93DF93CDB7DEB7C454D1090FB638
:10126000F894DEBF0FBECDBF63E57CE08E010F5F5B
:101270001F4FC8010E94F73F9C01E02ED12E03E5CD
:101280001CE08FE2F82E21153105A9F1C901CC5BD4
:10129000DF4F0FB6F894DEBF0FBECDBFDF91CF9109
:1012A0001F910F91FF90EF90DF90BF90AF90089546
:1012B0008091F70184FF2DC08091E3019091E401BA
:1012C00001969093E4018093E301F80101900020DE
:1012D000E9F7CF019F01215031095901F901F0824D
:1012E00065E072E00E94DC5A0E9422099C01F5012F
:1012F0001082892B59F66BEE71E08E2D9D2D0E9488
:1013000097409C01892B11F6809105028111D0CF65
:10131000BDCF8091E5019091E60101969093E601A1
:101320008093E5018091E7019091E801A091E901A6
:10133000B091EA014091EB015091EC016091ED0117
:101340007091EE01840F951FA61FB71F8093E701D0
:101350009093E801A093E901B093EA01CCCFEF921A
:10136000FF920F931F93CF93DF938C01D0E0C0E0E7
:101370000E94AD0A8D30C1F0883031F42097C1F35E
:1013800021970E94D10AF4CF803290F3C737D1055C
:101390007CF77E019FEFE91AF90AC00FD11F8883FD
:1013A0000E947E07E701E4CFC00FD11F18828AE0B8
:1013B0000E947E07CDB7DEB7E6E00C945C5AACE045
:1013C000B0E0E5EEF9E00C94425A8091E201882306
:1013D00009F451C0CE0101960E94CD118B8190E09D
:1013E000B0E0A0E025E1880F991FAA1FBB1F2A9536
:1013F000D1F72C81A22B4E8150E070E060E03BE001
:10140000440F551F661F771F3A95D1F7842B952BF4
:10141000A62BB72B4F8150E070E060E0E5E0440F71
:10142000551F661F771FEA95D1F7842B952BA62BA6
:10143000B72B28852695822B49815A814C5B5740D2
:1014400070E060E0F9E1440F551F661F771FFA95C1
:10145000D1F78C019D01042B152B262B372B0987E7
:101460001A872B873C8769857A858B859C852C9686
:10147000E4E00C945E5A19861A861B861C86F3CF0C
:101480001F920F920FB60F9211240BB60F922F934B
:101490003F934F935F936F937F938F939F93AF93FC
:1014A000BF93EF93FF938091E0019091E10101964A
:1014B0009093E1018093E0010E94A10BFF91EF91D5
:1014C000BF91AF919F918F917F916F915F914F915C
:1014D0003F912F910F900BBE0F900FBE0F901F905A
:1014E0001895A4E0B0E0E7E7FAE00C94445A698369
:1014F0007A838B839C83E1ECF0E01082E3E5FCE1EE
:10150000158214821382128211821082E9E9FCE1B1
:1015100015821482138212821182108260EA75E2AF
:1015200086E290E029813A814B815C810E9480595A
:10153000822F8170815036952795820F8093C40049
:1015400088E9E1ECF0E080832496E2E00C94605AB4
:101550008091571C9091581C08958091571C909130
:10156000581C892BD1F32091551C3091561C3327E0
:10157000F901ED5AF34E8681F8944091571C509131
:10158000581C415051095093581C4093571C789453
:101590002F5F3F4F2F7333273093561C2093551CDA
:1015A000089520919D1C30919E1C20343105C8F770
:1015B0002091991C30919A1C3327F901E756F34E7C
:1015C0008683F89480919D1C90919E1C0196909327
:1015D0009E1C80939D1C88EB8093C10078942F5FA4
:1015E0003F4F2F73332730939A1C2093991C0895F3
:1015F0002F932FB72F932BB72F938F939F93EF9307
:10160000FF932091C6008091571C9091581C803404
:10161000B0F48F5F90E09093581C8093571C80919A
:10162000531C9091541C9927FC01ED5AF34E2683CC
:1016300001968F7399279093541C8093531CFF91AC
:10164000EF919F918F912F912BBF2F912FBF2F91B2
:1016500018951F921FB61F9211242F932BB72F930B
:101660003F938F939F93EF93FF9320919D1C309115
:101670009E1C21110FC088E98093C100FF91EF915A
:101680009F918F913F912F912BBF2F911F901FBE44
:101690001F9018952150822F90E090939E1C80936C
:1016A0009D1C80919B1C90919C1C9927FC01E756E6
:1016B000F34E36813093C60001968F73992790932D
:1016C0009C1C80939B1C2111D9CFD5CF813019F45C
:1016D0000E949B0D089581E00895813019F40E94C5
:1016E000D80C089581E008950F931F93E82FCB0144
:1016F000BA01A9019801E13029F40E949E0D1F91C1
:101700000F91089584E090E0FACF0F931F93E82F94
:10171000CB01BA01A9019801E13029F40E94F00D32
:101720001F910F91089584E090E0FACF982F862FB3
:10173000BA01913019F40E94580E089584E090E0A7
:1017400008950E94B91008951092CA008AB1877C4A
:101750008AB98BB1877C8BB92C9A08958093CE007F
:101760008091C80087FFFCCF8091CE0008955D9ADC
:101770008FEF0E94AE0B08950F931F93CF93DF93CB
:10178000EC018B0184E18093E21C8FEF0E94AE0B91
:101790008F3F39F48091E21C8111F7CF90E080E017
:1017A00039C08E3FD9F78FEF8093CE008091C8006B
:1017B00085FFFCCF8FEF8093CE00C8013C2F2D2FEB
:1017C0004FEF5091C80055FFFCCFE32FF22F20912F
:1017D000CE0021934093CE00019782309105F9F419
:1017E00003501109C00FD11F8091C80087FFFCCFA3
:1017F0008091CE0089838091C80087FFFCCF8091C3
:10180000CE008A838FEF0E94AE0B8FEF0E94AE0B4B
:1018100081E090E0DF91CF911F910F9108953E2FCD
:101820002F2FCFCFF89482E390E09093E11C809328
:10183000E01C78948FEF0E94AE0BF8942091E01C8E
:101840003091E11C78948F3F11F0232B99F721E020
:1018500030E08F3F11F030E020E0C9010895CF93D0
:10186000DF935D988FEF0E94AE0B0E94120CEC018B
:10187000892B31F40E94B70BCE01DF91CF910895EF
:10188000C1E0D0E0F9CFFF920F931F93CF93DF9386
:10189000C82FD42F152F062FF72E87FF09C040E041
:1018A00050E0BA0187E30E94430C823048F5CF77BD
:1018B000CC3059F58C2F80640E94AE0B8F2D0E9486
:1018C000AE0B802F0E94AE0B812F0E94AE0B8D2F8E
:1018D0000E94AE0B85E9CC2321F087E8C83009F0DF
:1018E00081E00E94AE0BCC3019F48FEF0E94AE0B5A
:1018F000CAE08FEF0E94AE0B87FF02C0C150C9F74C
:10190000CDB7DEB7E5E00C945D5A0E94B70B0E949C
:101910002F0C892B79F68FEFF3CF1F93CF93DF93A3
:10192000EC01162F0E94120C9C01892BE1F1812FF2
:101930000E94AE0B21E030E01D3FA9F18881809329
:10194000CE008091C80085FFFCCFFE0132968981D0
:101950008093CE00DE5F8091C80085FFFCCF809130
:10196000CE0081918093CE00EC17FD07A1F7809106
:10197000C80087FFFCCF8091CE008091C80087FF10
:10198000FCCF8091CE008FEF0E94AE0B8FEF0E94B4
:10199000AE0B8FEF0E94AE0B8F7191E0853009F096
:1019A00090E0292F30E0C901DF91CF911F91089578
:1019B000A4E0B0E0EEEDFCE00C943E5A0E94A40BD3
:1019C0008AE08093E21C8091E21C8111FCCF80911F
:1019D000000181FF06C0809100012496E8E00C948C
:1019E0005A5A2C98249A82E08093E21C8091E21C3F
:1019F0008111FCCF8BB188628BB98AB188638AB9B7
:101A000080EC8093CA0088E18093C9008093CC0069
:101A10001AE08FEF0E94AE0B1150D9F740E050E072
:101A2000BA0180E00E94430C082F813009F071C098
:101A300084E68093E21C4AEA51E060E070E088E0CE
:101A40000E94430C813009F041C08E010F5F1F4F8F
:101A50006E0185E0C80ED11C78018FEF0E94AE0B9D
:101A6000F70181937F01EC15FD05B9F78B8181307A
:101A700009F04FC08C818A3A09F04BC08091E21C7A
:101A8000882349F040E050E060E070E489EA0E9479
:101A9000430C8111F3CF8091E21C8823D1F140E007
:101AA00050E0BA018AE30E94430C811132C08FEFEB
:101AB0000E94AE0BF80181938F01EC15FD05B9F77B
:101AC000898114E086FF26C01CE024C040E050E07D
:101AD000BA0189EA0E94430C11E0823010F412E04E
:101AE00009EA8091E21C882341F040E050E0BA010D
:101AF000802F0E94430C8111F4CF8091E21C882337
:101B000041F040E052E060E070E080E10E94430C70
:101B1000811110E01093DF1C0E94B70B112341F0DC
:101B2000809100018E7F809300011092CC0053CFF2
:101B30000E94A40B50CF809100010895A3E0B0E073
:101B4000E4EAFDE00C94425A8C012A833B832A810B
:101B50003B8184E0232BD1F18091000180FD3EC0C8
:101B60008091DF1C83FD07C089E0440F551F661F6D
:101B7000771F8A95D1F78A819B81019761F591E161
:101B8000998389810E94430C811118C060E072E042
:101B9000C8010E94BC0B892B41F01E5F8A819B818A
:101BA00001979B838A83892B89F79981923131F43C
:101BB00040E050E0BA018CE00E94430C0E94B70B59
:101BC00081E02A813B81232B09F480E090E0239679
:101BD000E4E00C945E5A22E12983D3CF83E0F6CF70
:101BE000B0E0A0E0E6EFFDE00C943E5A8C016A0103
:101BF0007B01E90184E0209779F18091000180FD6B
:101C000053C08091000182FD51C08091DF1C83FD93
:101C100007C099E0CC0CDD1CEE1CFF1C9A95D1F797
:101C2000C130D105F9F4B701A60188E10E94430C47
:101C3000811137C06EEFC8010E948D0C9C0191E0AC
:101C4000232B09F090E0C92F80E0D82F0E94B70B1A
:101C500081E0CD2B09F480E090E0CDB7DEB7E8E07D
:101C60000C945A5A867031F0AE0170E060E087E95A
:101C70000E94430CB701A60189E10E94430C811127
:101C8000E5CF6CEFC8010E948D0C892B19F01E5F07
:101C90002197B9F76DEF90E080E00E948D0C892BC1
:101CA000A9F6C1E0D0E0D2CF83E0D6CF82E0D4CF96
:101CB000A0E1B0E0EEE5FEE00C943E5AE82F8B0187
:101CC0008091000180FD52C2EA3350F4E23358F4AF
:101CD000E33009F494C080F4EE23C1F0E130F9F070
:101CE00004E010E00AC1E353E73008F000C1F0E07F
:101CF000E450F54A0C94C159E73091F70E94A40BC7
:101D000080910001816080930001F5C00E942F0C3A
:101D10009C0191E0232B09F4DCC190E0DAC140E0A2
:101D200050E0BA0189E00E94430C882319F001E0D9
:101D300010E036C060E170E0CE0101960E94BC0B5D
:101D4000892BA9F3998192959695969593702985FB
:101D50006A858885913039F530E0322F2227260FA9
:101D6000311D90E0B0E0A0E0DC01992788278827AA
:101D70009927AF73BB270196A11DB11D820F931F39
:101D8000A11DB11D2AE0880F991FAA1FBB1F2A950C
:101D9000D1F7F80180839183A283B38310E000E040
:101DA0000E94B70BAAC02295269526952370F4E0D1
:101DB0008F9FC0011124820F911D01964F8150E029
:101DC000542F4427550F550F44275C70840F951FDF
:101DD000B0E0A0E02E812F703B85331F3327331FE7
:101DE000230F2E5F660F6670260F2950330B04C039
:101DF000880F991FAA1FBB1F2A95D2F7CACFF09050
:101E0000DF1C40E050E0BA01F2FE21C08DE80E94E4
:101E1000430C81118CCF8FEF0E94AE0B60E170E01C
:101E2000CE0101960E94BC0B892B09F480CF60E3A0
:101E3000F62E8FEF0E94AE0BFA94F110FACF2B859D
:101E400022952F7080E190E0A0E0B0E0D0CF89E053
:101E50000E94430C81116BCF60E170E0CE010196CE
:101E60000E94BC0B892B09F462CF8B8590E02C85F6
:101E7000F1FE19C0880F991F8E779927221F2227FC
:101E8000221F2F5F820F911D2E8522952695269564
:101E900023702150330B02C0880F991F2A95E2F757
:101EA000B0E0A0E076CFF8E02F9FA00111244871A8
:101EB0005527229526952770240F352F311D2F5F2A
:101EC0003F4F95958795959587958F7199270196A1
:101ED000289FA001299F500D389F500D112470E0BC
:101EE00060E0F801408351836283738357CF809110
:101EF000DF1CFB01808310E000E0C8016096E8E091
:101F00000C945A5A40E050E0BA0189E00E94430C18
:101F100060E170E081110BCFC8010E94BC0BF8CECC
:101F200040E050E0BA018AE0F1CF40E050E0BA0171
:101F30008AE30E94430C8111FACE7801F4E0EF0E9F
:101F4000F11C68010F5F1F4F8FEF0E94AE0BF6016F
:101F50008083E016F106A9F721CF40E050E0BA01F6
:101F60008DE80E94430C8111E2CE8FEF0E94AE0BF0
:101F700060E470E0D1CFFB014381548165817681BB
:101F8000A9E0440F551F661F771FAA95D1F78181DD
:101F9000928101979170B0E0A0E0482B592B6A2BF9
:101FA0007B2B808190E0B0E0A0E02CE1880F991FAE
:101FB000AA1FBB1F2A95D1F7842B952BA62BB72BD5
:101FC000AC01BD01706880E30E94430C8111AFCE6B
:101FD00084E68093E21C8FEF0E94AE0B8F3F29F4C2
:101FE0008091E21C8111F7CFA2CE8E3F09F09FCEE7
:101FF000F801E780F084C180D280CE0CDF1CEC14A5
:10200000FD0489F4F8018181928102E012E0081B4D
:10201000190B0115110509F4C3CE8FEF0E94AE0B09
:1020200001501109F6CF8FEF0E94AE0BF70181939B
:102030007F01E5CFFB01438154816581768139E0E1
:10204000440F551F661F771F3A95D1F78181928102
:1020500001979170B0E0A0E0482B592B6A2B7B2BA5
:10206000808190E0B0E0A0E0ECE1880F991FAA1F0A
:10207000BB1FEA95D1F7842B952BA62BB72BAC0170
:10208000BD01706881E30E94430C811150CE8FEF37
:102090000E94AE0B8EEF0E94AE0BF801E780F08439
:1020A000C180D280CE0CDF1CEC14FD04A9F4F80131
:1020B0008181928102E012E0081B190B8FEF01155C
:1020C000110581F40E94AE0B8F7191E0853009F407
:1020D00024CE092F10E064CEF70181917F010E9488
:1020E000AE0BE2CF0E94AE0B01501109E7CFFB010E
:1020F000408150E070E060E08CE1440F551F661FA6
:10210000771F8A95D1F7828190E0B0E0A0E0482B5C
:10211000592B6A2B7B2B83819481A581B68129E081
:10212000880F991FAA1FBB1F2A95D1F7842B952BC7
:10213000A62BB72BAC01BD01746881E30E94430C50
:102140008111F5CD8FEF0E94AE0B8EEF0E94AE0B8A
:10215000F80181810E94AE0B01E012E08FEF0E9436
:10216000AE0B01501109D1F78FEFACCF03E010E0B7
:10217000C4CE8091E21C882319F081508093E21C28
:102180008091E01C9091E11C009729F001979093B9
:10219000E11C8093E01C809100011A9B07C08460C1
:1021A0001B9906C08D7F8093000108958B7FF8CF27
:1021B0008360F9CF83B183B183B183B1089520984F
:1021C0000E94DA1021980E94DA10209A0E94DA10F8
:1021D000219A0E94DA100895209A0E94DA1021981C
:1021E0000E94DA1020980E94DA1008950F931F932E
:1021F000CF93DF93082FC8E0D0E010E8812F802331
:10220000F9F020980E94DA1021980E94DA10219AA1
:102210000E94DA101695219789F720980E94DA100B
:102220002198C3B10E94DA10219A0E94DA108C2FF3
:102230008095817090E0DF91CF911F910F9108956B
:10224000209AE0CFAF92BF92DF92EF92FF920F936E
:102250001F93CF93DF93182FF62EEA01022FD32E70
:102260009AE0A92EB12C0E94DF10812F0E94F61057
:10227000892BC1F481E0A81AB108A9F70E94EC10DB
:1022800081E090E0CD2B11F090E080E0DF91CF91E4
:102290001F910F91FF90EF90DF90BF90AF90089546
:1022A000209825C08F2D0E94F610892B39F30E94AB
:1022B000DF10812F81600E94F610892BF9F2E02E49
:1022C000FD2C219701E010E0000F111F2198189BB1
:1022D00002C00F5F1F4F0E94DA10219A0E94DA108D
:1022E0000F3F110589F380F32097D1F2209A0E94C5
:1022F000DA1021980E94DA10219A20980E94DA10B0
:10230000F70101937F012097E1F6B8CFB0E0A0E09C
:10231000ECE8F1E10C943E5AE82EF62EEA01890130
:102320008AE0C82ED12C0E94DF108E2D0E94F6105C
:10233000892B89F481E0C81AD108A9F70E94EC1012
:1023400081E090E0CD2B11F090E080E0CDB7DEB7DA
:10235000E8E00C945A5A8F2D0E94F610892B71F3E5
:10236000F80180810F5F1F4F0E94F610892B31F317
:102370002197B1F7E3CF4115510519F00E942211C1
:10238000089580E090E008954115510519F00E94EC
:102390008611089580E090E00895A8E0B0E0E3EDB4
:1023A000F1E10C94425A8C019E012F5F3F4F47E0B0
:1023B00050E070E060E080ED0E942211009709F487
:1023C00042C08981982F929597702AE08F70929FD2
:1023D000800D1124F80187838A81982F92959F7030
:1023E0008F70929F800D112486838B81382F3295B8
:1023F0003370982F9F70329F900D112495838770B2
:1024000084838D81982F929593708F70929F800D09
:10241000112483838E8184FB992790F98F70929F7A
:10242000800D112482833F81832F8F7090E0805331
:10243000984F32953F70329F800D911D11249183EA
:10244000808381E090E02896E4E00C945E5AA8E056
:10245000B0E0EDE2F2E10C94445AFC0187812AE0FD
:10246000622F0E9460598295807F890F89838681BF
:102470000E9460598295807F890F8A8385810E949E
:1024800060598295807F890F8B83848187708C83CC
:1024900083810E9460598295807F890F8D8382811C
:1024A0000E9460598295807F890F8E8380819181FF
:1024B000805D97406AE070E00E946C596295607F91
:1024C000680F6F839E012F5F3F4F47E050E070E041
:1024D00060E080ED0E9486112896E2E00C94605A3C
:1024E000A8E0B0E0E6E7F2E10C94405A84B18C7FBA
:1024F00084B985B18C7F85B98E010F5F1F4F98011C
:1025000048E050E070E060E080ED0E942211780128
:10251000009729F1888585FF20C088E0F801119295
:102520008A95E9F708E010E0970148E050E0B8012B
:102530008DE00E94C411085F1F4F00341105A1F700
:1025400081E08D838E8388E08F83970148E050E09F
:1025500070E060E08DE00E94C41181E090E0289678
:10256000E6E00C945C5AA4E0B0E0E9EBF2E10C94F4
:10257000445AFC012081318142815381CA01B90151
:102580002496E2E00C94605AFC0120813181428162
:102590005381648175818681978108950F931F937C
:1025A000FC01008311832283338344835583668334
:1025B00077831F910F9108959C01480F591FF901CE
:1025C0002F5F3F4F608324173507C9F70895CF93D6
:1025D000DF939C01FB01480F591FE9012F5F3F4F1B
:1025E000888190813196891B990B2417350711F04A
:1025F000009799F3DF91CF910895A4E0B0E0E3E074
:10260000F3E10C94445AFC019A01AB0122503109C8
:102610004109510987A190A5A1A5B2A50297A109D9
:10262000B109281739074A075B0700F5A185B2856C
:102630000E94CA5969837A838B839C8383AD94AD4E
:10264000A5ADB6AD29813A814B815C81280F391F38
:102650004A1F5B1F29833A834B835C8369817A819C
:102660008B819C812496E2E00C94605A19821A8234
:102670001B821C82F3CF0F931F93FB01022F132F9A
:102680009A01138F028FDC018C91833029F4890128
:1026900022273327048B158B1F910F9108959C01DE
:1026A000AC01455F5F4F80E080FB879587F9F901BA
:1026B0002F5F3F4F9081890F24173507A9F70895A1
:1026C000FC01218130E02F5F3F4F85E0220F331F57
:1026D0008A95E1F790E080E050E040E0423051051B
:1026E00081F080FB9795879597F9DF01A40FB51FBF
:1026F0006C91860F911D4F5F5F4F4217530770F328
:10270000089543E050E0F7CFCF93DF93DC01ED91E4
:10271000FC911197309771F0CF01EC01288101965F
:102720002032A8F02A33C9F79F012E5F3F4F82174E
:10273000930719F08FEF9FEF07C020812033D1F767
:102740008D939C9390E080E0DF91CF9108958091EC
:10275000432190E0F9CF0F931F93CF93DF93EC01C8
:102760008B01892B61F489E090E030E020E0F801F2
:1027700031832083DF91CF911F910F910895E881DC
:10278000F981309781F38081882369F32A813B8125
:10279000858196812817390731F781810E94660B60
:1027A00080FDE1CF2881398190E080E0E0CF0F9378
:1027B0001F93CF93DF93EA01890145EB51E00E941B
:1027C000CA4B9C018F3F910579F070F002301105E2
:1027D00090F03827232732273983288382E0DF913E
:1027E000CF911F910F910895009729F0012B19F0B7
:1027F000888381E0F4CF80E0F2CFA6E0B0E0E3E0B0
:10280000F4E10C94345A8C016D837E83DC018D904D
:102810009C901197ED81FE81128E9E968D919D91D7
:102820000D90BC91A02D892B8A2B8B2B09F44BC0CA
:10283000D4018C91843009F09FC01D96CD90DC901E
:10284000B12CA12C40E4E42EF12C10E000E0512C3E
:10285000412C88248A94912CD60193968C918A15C8
:102860001B0409F0A0F54114510409F080C10115C1
:10287000110509F47CC1ED81FE81E00FF11F128E7C
:10288000ED81FE811586D60114968C91848784FD96
:102890006AC0C601C8960E94C412ED81FE812083E1
:1028A0003183428353836483758386839783D60100
:1028B0001C968D919C911D97938782871E968D9172
:1028C0009C91918780872696E2E10C94505AB0E65D
:1028D000EB16B2E0FB0608F04AC1C7018F719927D9
:1028E000892B19F4E2E0EE0EF11CF601EE0DFF1D4E
:1028F00080819181F2E0EF0EF11C2FEFA21AB20A53
:102900004114510429F49C01385D2115384048F1E7
:10291000A801465E5F4F6D817E81640F751F712C2B
:10292000612CA20133272227B0E0A0E0282B392B0D
:102930004A2B5B2B29833A834B835C839401201BB6
:10294000310BAB0169817A818B819C810E94D71305
:10295000282F30E0882309F40AC1020F131F80E0FA
:1029600090E02C0179CF20E030E040E050E060E0E2
:1029700070E080E090E091CFF801E05CFF4F808153
:102980009181A281B3818F3F9F4FAF4FBF4F09F01D
:10299000A6C0F80102A913A9F80190E080E030E098
:1029A00020E07EE22F5F3F4F6191462F50E0603282
:1029B000C1F04530510509F445EE2930310551F497
:1029C0008C30910538F4AD81BE81A80FB91F1D96DA
:1029D0007C930196AD81BE81A80FB91F1D964C93C3
:1029E00001962B303105F1F6ED81FE81E80FF91FDC
:1029F0001586AD81BE815A962C915A9721118DC0B2
:102A0000892B09F476C0FD013D9658E090E080E006
:102A10004191442309F473C0242F042E000C330B7E
:102A20004E3209F4A2C0B901615471096A317105CD
:102A300038F4D8011C964C91452311F0205E3F4F8D
:102A400024870196E5CFC114D10429F49C01385D97
:102A50002115384048F1A701465E5F4F6D817E81A8
:102A6000640F751F1601512C412CA1013327222719
:102A7000B0E0A0E0282B392B4A2B5B2B29833A832B
:102A80004B835C8393012E193F09AB0169817A81E5
:102A90008B819C810E94D713282F30E0882399F0E6
:102AA000E20EF31E80E090E032E0A30EB11C6C0158
:102AB000D4011B96ED91FC91EA0DFB1D8081918163
:102AC000009709F69701CD2811F030E020E02D8025
:102AD0003E80220D331DD9015A961C925ACFB12C3B
:102AE000A12CD12CC12CF12CE12C66246A94712CE0
:102AF000DFCF8FE3ED81FE81828F81E090E02D803A
:102B00003E80820D931DDC015A961C92F80184854B
:102B1000811103C0D1011D961C92F8018385AD81FE
:102B2000BE811C968C93C8014C960E94B312698397
:102B30007A838B839C834B015C01C12CD12C760161
:102B4000ED81FE81608391828283B382148215823B
:102B500016821782D80156968D919C91579793872C
:102B6000828758968D919C91ACCE50E169CF8FE3CE
:102B7000ED81FE81828F01E010E07DCEA6E0B0E025
:102B8000E4ECF5E10C94425A8D839E83AD81BE81C5
:102B90000D911C91F80121918F01822F90E0222349
:102BA00031F065EB71E00E94F44B009799F09C01C5
:102BB00050E040E029833A834B835C83AD81BE8142
:102BC0000D931C9369817A818B819C812696E4E028
:102BD0000C945E5A2FEF3FEFA90129833A834B8370
:102BE0005C83F0CFA6E0B0E0E8EFF5E10C94425A48
:102BF00010E000E08D839E83ED81FE8181919191B3
:102C0000FE83ED83009729F4C8012696E4E00C9436
:102C10005E5A9C0150E040E029833A834B835C83F9
:102C2000CA01B9010E940B4C462F572FC80180FBE7
:102C30009795879597F98A011127080F191F00FBAF
:102C40001795079517F9452F5527040F151F8D81E7
:102C50009E81D0CF9B01FC01460F571FD9012F5FEA
:102C60003F4F8C91819324173507C1F70895B0E049
:102C7000A0E0EDE3F6E10C943A5AEC018B8181116E
:102C800008C0F12CE12CC701CDB7DEB7ECE00C9405
:102C9000565A6E0147E4C40ED11C5E0153E4A50EE2
:102CA000B11CF501208131814281538101E010E0A6
:102CB000B60189810E94850B7C01892B59F51B8205
:102CC000F50100811181228133818BA59CA5ADA5E1
:102CD000BEA58BA89CA8ADA8BEA8B901A80148199B
:102CE00059096A097B094A015B0188169906AA06F7
:102CF000BB0638F66A81623021F6A9019801280FD7
:102D0000391F4A1F5B1F01E010E0B60189810E9454
:102D1000850BB9CFEE24E394F12CB5CFB0E0A0E061
:102D2000E4E9F6E10C943C5A5C016A017B01EC0198
:102D3000CD5BDF4F88819981AA81BB8130E020E0A3
:102D40008C159D05AE05BF05F1F0C5010E94371633
:102D50009C01892BC1F4B501695B7F4F01E010E054
:102D6000A7019601F50181810E94740B9C01892BBA
:102D700031F021E030E0CC24CA94DC2C7601C8820A
:102D8000D982EA82FB82C901CDB7DEB7EAE00C94B2
:102D9000585AAEE0B0E0EFECF6E10C94345A898773
:102DA0009A870D831E832F8338874A015B0122E0B7
:102DB000821A9108A108B108E985FA8587A190A532
:102DC000A1A5B2A50297A109B10988169906AA067C
:102DD000BB0618F0812C912C540189829A82AB8217
:102DE000BC8275016401412C512C320129843A8442
:102DF000FFE32F0E311C11E0F10180819181A2814E
:102E0000B381B701A6013CE0769567955795479544
:102E10003A95D1F7480F591F6A1F7B1F89859A85FC
:102E20000E948E16892B09F07AC0D701C60123E0D3
:102E3000B695A795979587952A95D1F791709601A4
:102E400027703327F12F01C0FF0F2A95EAF72F2FA4
:102E5000A985BA8597964D915D916D917C919A97D0
:102E600042505109610971094B875C876D877E87E4
:102E7000E985FA85E80FF91FE95BFF4F30813223BE
:102E8000BFEFCB1ADB0AEB0AFB0A4B855C856D852D
:102E90007E85220FC416D506E606F70630F0C12C53
:102EA000D12C760180E092E020E0311122C05FEF6A
:102EB000451A550A650A750A4D815E816F817885CC
:102EC0004416550666067706D9F469817A818B81A6
:102ED0009C816E5F7F4F8F4F9F4F69837A838B8377
:102EE0009C8369817A818B819C812E96E2E10C948E
:102EF000505AC982DA82EB82FC82412C512C320179
:102F00008C149D04AE04BF0491F02111B1CF019641
:102F1000811572E0970708F06FCF21E0A9CF8FEFFE
:102F20009FEFDC0189839A83AB83BC83DACF19825C
:102F30001A821B821C82D5CFB0E0A0E0E2EAF7E162
:102F40000C94345A6C01480159011701425051093F
:102F500061097109FC01FF962A013B018CE076941E
:102F60006794579447948A95D1F780819181A28183
:102F7000B381480E591E6A1E7B1EDB01CA0123E085
:102F8000B695A795979587952A95D1F79170477033
:102F90005527C1E001C0CC0F4A95EAF7D1E0A20164
:102FA000B3018C012FEF421A520A620A720AC6015B
:102FB0000E948E16009739F5A601400F511FFA01A5
:102FC000E95BFF4F6081762F7C2321E030E009F43C
:102FD00020E022153305F1F0495B5F4F6C27FA01C1
:102FE0006083F601D383F1E08F1A9108A108B1083C
:102FF00061F0CC0F09F70F5F1F4FC1E0011522E010
:103000001207D1F6CCCF81E090E0CDB7DEB7E2E198
:103010000C94505A82E090E0F8CFA7E0B0E0E3E1F2
:10302000F8E10C94345AFC016A017B0122E0C216DB
:10303000D104E104F104D8F0808191819E838D83D5
:10304000DC0197964D915D916D917C919A97C41694
:10305000D506E606F70658F48C91833009F4F3C0E0
:1030600058F4813009F473C0823009F4C8C061E0BB
:1030700070E080E090E086C08430C9F732844384F9
:1030800054846584768407851089B189BF83232D94
:10309000342D452D562D672D702F812F9B2FA0E0AD
:1030A00025800E94AF5A41F0468157816085718525
:1030B000452B462B472B11F42110D9CF4681578140
:1030C0006085718546015701841A950AA60AB70AD8
:1030D000AD81BE8119960D90BC91A02DBA83A983B4
:1030E000B2E02B12DBC0232D342D452D562D672D3C
:1030F000702F812F9F81AFEF0E94915A09E00E94AB
:103100006D5A722F632F942F852FE981FA819F01C9
:1031100050E040E079836A839B838C8369817A8164
:103120008B819C810E948059281539054A055B05D1
:1031300008F49DCF82169306A406B50609F4EEC0E6
:10314000C701B6016F5F7F4F8F4F9F4F1BC0860136
:10315000169507950C0D1D1DC801892F9927869579
:10316000ED81FE8143A954A965A976A9480F591F8D
:10317000611D711DCF010E948E16892B39F06FEFF2
:103180007FEFCB012796E2E10C94505A5801FFEFF4
:10319000AF1ABF0AF801F1708D819E81E80FF91F07
:1031A000E95BFF4F1081C501892F99278695AD8175
:1031B000BE81D3964D915D916D917C91D697480FCC
:1031C000591F611D711DCD010E948E16892BB9F604
:1031D000B1E0BB22ED81FE81EA0DFB1DE95BFF4FF3
:1031E0008081782F612FC0FE08C054E076956795E6
:1031F0005A95E1F790E080E0C5CF7F70FBCF77274D
:103200006F2D5E2D4D2DED81FE8183A994A9A5A979
:10321000B6A9480F591F6A1F7B1FCF010E948E1647
:10322000892B09F0ACCFCC0CDD1CE894C0F8F1E0A0
:10323000DF228D819E818C0D9D1D895B9F4FDC015E
:103240006D917C91D7CFED81FE8183A994A9A5A929
:10325000B6A9B701A60127E07695679557954795DA
:103260002A95D1F7480F591F6A1F7B1FCF010E9473
:103270008E16892B09F083CF8D819E81895B9F4FAC
:10328000CC0CDD1CCC0CDD1CFCEFCF22F1E0DF22EE
:103290008C0D9D1D0E94B3129F7074CF23E02212EB
:1032A0000AC082899389A489B58988169906AA06D5
:1032B000BB0608F445CF86899789A08DB18D892BEF
:1032C0008A2B8B2B59F5ED81FE8183A994A9A5A9A1
:1032D000B6A9B701A60137E076956795579547954A
:1032E0003A95D1F7480F591F6A1F7B1FCF010E94E3
:1032F0008E16892B09F043CF8D819E81895B9F4F6C
:10330000CC0CDD1CCC0CDD1CFCEFCF22F1E0DF226D
:103310008C0D9D1D0E94B3129F7734CF6FEF7FEF0E
:103320008FEF9FE72FCFB0E0A0E0E9E9F9E10C943F
:10333000365AEC016A017B0108811981D8018C9110
:1033400040E050E060E270E0843021F440E050E082
:1033500060E070E1C416D506E606F70638F082E0B4
:1033600090E0CDB7DEB7E0E10C94525AB701A60168
:103370004F71552766277727452B462B472B79F723
:10338000CEA2DFA2E8A6F9A68E809F80A884B98489
:1033900081149104A104B10409F056C0833008F0EF
:1033A00046C0F80187819085B0E0A0E0B701A60192
:1033B000E5E07695679557954795EA95D1F74817D3
:1033C00059076A077B0758F6F80187A990ADA1ADA8
:1033D000B2AD8EA79FA7A8ABB9AB8AA69BA6ACA699
:1033E000BDA64EA55FA568A979A94115510561053E
:1033F000710509F4B4CFD701C60129E0B695A795A8
:10340000979587952A95D1F7840F951FA61FB71F0B
:103410008EA79FA7A8ABB9AB095B1F4FF1E0DF22D6
:10342000C00ED11EDBAACAAA90E080E09ACFF801B4
:1034300087A990ADA1ADB2AD1D820097A105B105E0
:1034400009F4AFCF4C015D01D80119964D905C9005
:10345000712C612C39E0440C551C661C771C3A9584
:10346000D1F7B501A401C414D504E604F70440F46F
:10347000C8010E94FD126EA77FA788AB99ABADCFA4
:10348000CE010E940D184B015C01BFEF8B169B060D
:10349000AB06BB06B9F0E2E08E169104A104B104BC
:1034A00008F45DCFF80187A190A5A1A5B2A5881663
:1034B0009906AA06BB0608F052CFC418D508E6083C
:1034C000F708CFCF81E090E04CCFEF92FF920F93BF
:1034D0001F93CF93DF938C01FC011382ED5BFF4FB1
:1034E0008FEF9FEFDC0180839183A283B383C801B8
:1034F0000E948E16EC01892BC1F5F801EB5BFD4FA4
:103500008081918185359A4A99F5780127E4E20E08
:10351000F11C4BE050E062EC71E0C7010E94E71241
:10352000892B49F1F70180818B3E19F0885E82304A
:1035300028F543E050E06EEB71E0C80183589F4FDF
:103540000E94E712892B59F045E050E066EB71E0EC
:10355000C80187569F4F0E94E712892B79F4CE014C
:10356000CDB7DEB7E6E00C945C5AC4E0D0E0F7CF0C
:10357000C3E0D0E0F4CFC1E0D0E0F1CFC2E0D0E0D2
:10358000EECFA6E0B0E0E7ECFAE10C94345A5C012F
:103590006A017B012801390122E0C216D104E1044D
:1035A000F10408F400C1FC0187A190A5A1A5B2A572
:1035B000C816D906EA06FB0638F48081823009F481
:1035C00092C038F4813071F022E030E03E832D83E8
:1035D0007DC08350823008F4A7C042E050E05E8393
:1035E0004D8374C08A0116950795040F151FC801F5
:1035F000892F99278695D501D3964D915D916D912F
:103600007C91D697480F591F611D711DC5010E94FD
:103610008E168D839E83ED81FE81EF2B09F056C0BF
:103620001501F7E42F0E311C48012FEF821A920A80
:103630001170F101E00FF11F842DA7019601217097
:1036400033274427552729833A834B835C83C0FE65
:1036500007C080818F7040E1449E90011124822B2D
:10366000808381E0D50113968C931397D3964D9167
:103670005D916D917C91D697C401892F992786958C
:10368000480F591F611D711DC5010E948E168D8343
:103690009E83ED81FE81EF2BC9F4F1E09F22F101C1
:1036A000E80DF91D29813A814B815C81232B242B64
:1036B000252B91F054E076946794579447945A954B
:1036C000D1F7408281E0D50113968C938D819E8144
:1036D0002696E2E10C94505A8081807F352D3F7010
:1036E000432E482AEECF77276F2D5E2D4D2D83A9CF
:1036F00094A9A5A9B6A9480F591F6A1F7B1FC50128
:103700000E948E168D839E832D813E81232BF1F6A0
:10371000F601EE0FFF1FEE7FF170EA0DFB1DE95B76
:10372000FF4F11830083CECF83A994A9A5A9B6A981
:1037300027E076956795579547952A95D1F7480FD5
:10374000591F6A1F7B1FC5010E948E168D839E83A1
:103750002D813E81232B09F0B9CFCC0CDD1CCC0C84
:10376000DD1C3CEFC32231E0D322C501895B9F4FB2
:10377000C80ED91ED5018C91843079F0C6010E9403
:10378000B312BFE07B22DC01CB0188279927AA274F
:10379000B07F482A592A6A2A7B2AF6014082518240
:1037A000628273828FCFE2E0F0E0FE83ED838ECF02
:1037B000B0E0A0E0EEEDFBE10C94365AEC016A01BA
:1037C0007B01B02EA12E922E832E2A013B0182E096
:1037D000480E511C611C711C8FEFC81AD80AE80AE8
:1037E000F80A8E899F89A88DB98D0097A105B1052A
:1037F00039F490E080E0CDB7DEB7E0E10C94525AA6
:1038000081309105A105B105F1F093018201081BFA
:10381000190B2A0B3B0BB701A601481B590B6A0B6E
:103820007B0B888199810E94C11A009721F78E89AC
:103830009F89A88DB98D0197A109B1098E8B9F8BA6
:10384000A88FB98FCECF0B2D1A2D292D382DE3CF70
:10385000A6E0B0E0EEE2FCE10C94365A6C0149833C
:103860005A836B837C83DC010D90BC91A02DBE83B9
:10387000AD8389819A81AB81BC81892B8A2B8B2B6B
:10388000E9F4AD81BE811F964D905D906D907C9066
:103890005297411451046104710459F097968D9127
:1038A0009D910D90BC91A02D481659066A067B0685
:1038B000A0F1412C512C320143942FC049815A81EF
:1038C0006B817C81C6010E940D184B015C01B2E046
:1038D0008B169104A104B10450F4812C912C540155
:1038E0008394C501B4012696E0E10C94525AEFEF9F
:1038F0008E169E06AE06BE0609F4A3C1ED81FE81BA
:1039000087A190A5A1A5B2A588169906AA06BB060F
:1039100040F349805A806B807C80ED81FE818389F1
:103920009489A589B689892B8A2B8B2B21F4812C2C
:10393000912C5401D6CFAD81BE818C91843009F099
:10394000C8C001E010E020E030E0B301A201CD01E9
:103950000E94C9164B015C01DC01CB010197A10952
:10396000B1098E3F9F4FAF4FBF4F08F0BACFEE2443
:10397000E394F12C01E010E020E030E0B501A40177
:103980008D819E810E949C179C018230910509F4D3
:10399000A4CF019709F455C189819A81AB81BC817B
:1039A000892B8A2B8B2B41F482E0D60115968C93C0
:1039B000232B09F092CF63C0F60185818230C1F4D8
:1039C000D301C2010196A11DB11D88159905AA0553
:1039D000BB0571F386819781A085B185481A590A84
:1039E0006A0A7B0A428A538A648A758A83E08583DD
:1039F000F60186899789A08DB18D49815A816B81A5
:103A00007C814F5F5F4F6F4F7F4F481559056A05A7
:103A10007B0591F40097A105B10549F00196A11D20
:103A2000B11DF601868B978BA08FB18FC1CF82E03D
:103A300090E0A0E0B0E0F5CF892B8A2B8B2B49F4E6
:103A400081E090E0A0E0B0E0F601868B978BA08F3C
:103A5000B18F9501840149815A816B817C81C601B6
:103A60000E94D81B9C01892B09F0E7C081E090E0FF
:103A7000A0E0B0E0F601868B978BA08FB18FAD816F
:103A8000BE811F968D929D92AD92BC925297FD0180
:103A900083899489A589B68947A150A561A572A596
:103AA0004250510961097109481759076A077B0794
:103AB00038F00197A109B109838B948BA58BB68B44
:103AC000AD81BE8114968C911497816014968C936D
:103AD00008CF89819A81AB81BC81481659066A0654
:103AE0007B0609F047C0530142019FEF891A990AEA
:103AF000A90AB90AED81FE8187A190A5A1A5B2A569
:103B000088169906AA06BB0628F022E0822E912C80
:103B1000A12CB12CB501A401C6010E940D18462F9D
:103B2000572FBC01413051056105710509F4D5CE0F
:103B30004F3FFFEF5F076F077F0709F482C0452BF8
:103B4000462B472B09F452C0ED81FE818785908971
:103B5000A189B28982309105A105B10558F047A12C
:103B600050A561A572A584179507A607B70710F49D
:103B70002C013D0153014201FFEF8F1A9F0AAF0A4A
:103B8000BF0AED81FE8187A190A5A1A5B2A58816E7
:103B90009906AA06BB0660F0F2E04F1651046104D4
:103BA000710408F4C4CE92E0892E912CA12CB12C82
:103BB000B501A401C6010E940D18462F572FBC0164
:103BC0004115510561057105B9F041305105610597
:103BD000710509F482CE4F3F5F4F6F4F7F4F89F1E0
:103BE00084149504A604B70439F6A1CE8114910477
:103BF000A104B10409F4BECF0FEF1FEF9801B50186
:103C0000A4018D819E810E94C11A9C01892BA9F477
:103C100089819A81AB81BC810097A105B10509F426
:103C20002ECF95018401AC01BD018D819E810E9442
:103C3000C11A9C01892B09F422CF2130310509F0EA
:103C40004CCE88248A94982C54014BCEA6E0B0E048
:103C5000ECE2FEE10C94345A1C014A015B0128019C
:103C60003901DC010D90BC91A02DBE83AD83B2E083
:103C70008B169104A104B10438F422E030E0C901AC
:103C80002696E2E10C94505AED81FE8187A190A521
:103C9000A1A5B2A588169906AA06BB0670F741141D
:103CA00051046104710419F589829A82AB82BC8245
:103CB00075016401B501A401C1010E940D184B01F9
:103CC0005C0181149104A104B10439F5AD81BE8178
:103CD0008C91843049F4411451046104710409F059
:103CE0009AC0D10115961C9230E020E0C8CFAD817A
:103CF000BE818C91843021F4F10185818230A1F262
:103D00000FEF1FEF9801B301A2018D819E810E94E8
:103D1000C11A9C01892B41F2B2CFB1E08B169104FC
:103D2000A104B10409F4A9CFEFEF8E169E06AE06EA
:103D3000BE0619F421E030E0A2CFAD81BE818C91A6
:103D4000843009F047C0ED81FE814389548965893B
:103D5000768987A190A5A1A5B2A50297A109B1096D
:103D6000481759076A077B0708F442C09701860184
:103D70000F5F1F4F2F4F3F4F081519052A053B05B1
:103D8000E1F0ED81FE818081843099F489819A810E
:103D9000AB81BC81081B190B2A0B3B0BF12CE12CCE
:103DA000AC01BD01CF010E949C179C01892B09F039
:103DB00066CF89829A82AB82BC82ED81FE8187A127
:103DC00090A5A1A5B2A588169906AA06BB0608F477
:103DD0006FCF7CCF00E010E09801B701A6018D8184
:103DE0009E810E94C11A9C01892B09F4ACCF47CF58
:103DF0004F5F5F4F6F4F7F4FAD81BE8153964D93A5
:103E00005D936D937C93569714968C911497816073
:103E100014968C93ABCFF101858181112EC08680E1
:103E20009780A084B18484149504A604B70429F46F
:103E300082E0D10115968C9357CFB501A401C10141
:103E40000E940D18462F572FBC01423051056105C5
:103E5000710508F412CF4F3FFFEF5F076F077F0731
:103E600009F468CF8FEF881A980AA80AB80A84164E
:103E70009506A606B706B9F237CF833009F034CFDE
:103E800086819781A085B185481659066A067B060A
:103E900008F42ACF4289538964897589840F951F54
:103EA000A61FB71F84159505A605B70508F41CCFF6
:103EB000BFCFB0E0A0E0EFE5FFE10C943A5AEC018F
:103EC0008D81833091F44E815F8168857985CA88C0
:103ED000DB88EC88FD88C40ED51EE61EF71E4C1547
:103EE0005D056E057F0541F41D8290E080E0CDB751
:103EF000DEB7ECE00C94565A4A015B018FEF881A4A
:103F0000980AA80AB80A95018401888199810E94BB
:103F1000C11A009761F7B501A401E1CFB0E0A0E0BC
:103F2000E4E9FFE10C943A5AEC015A016B010E945A
:103F300037167C0181E0E114F10429F5A501B601F1
:103F4000CE010E94FD124B015C01FE01ED5BFF4FB3
:103F500080829182A282B3826E0187E4C80ED11C56
:103F600040E052E070E060E0C6010E94DC1289850A
:103F70009A85E816F90668F081E029853A852E15BC
:103F80003F0509F480E090E0CDB7DEB7ECE00C949B
:103F9000565A01E010E0A50194012E0D3F1D411D70
:103FA000511DB60189810E94850B892B29F78FEF5E
:103FB000E81AF80ADCCF4F925F926F927F92AF922D
:103FC000BF92CF92DF92EF92FF920F931F93CF9306
:103FD000DF93EC015B01088119814EA05FA068A40A
:103FE00079A420E2420E511C611C711CD8018C91F5
:103FF000843009F44AC080E090E0A0E2B0E04816C6
:1040000059066A067B0620F01EA61FA618AA19AA42
:104010008EA59FA5A8A9B9A90097A105B10591F101
:10402000B301A201517066277727452B462B472BFA
:1040300009F0AEC00196A11DB11D8EA79FA7A8AB28
:10404000B9AB4AA55BA56CA57DA5411551056105D8
:10405000710501F5F80187819085B0E0A0E0B3011A
:10406000A20135E076956795579547953A95D1F732
:10407000481759076A077B0708F48AC01EA61FA6BF
:1040800018AA19AA84E090E02BC080E090E0A0E09C
:10409000B0E1B5CFD80119968D919C910197B0E010
:1040A000A0E07301620129E0F694E794D794C794E5
:1040B0002A95D1F78C219D21AE21BF21892B8A2BF6
:1040C0008B2B09F065C0CE010E940D186B017C019D
:1040D000B2E0CB16D104E104F10488F482E090E070
:1040E000DF91CF911F910F91FF90EF90DF90CF90D4
:1040F000BF90AF907F906F905F904F900895EFEFDB
:10410000CE16DE06EE06FE0619F481E090E0E8CF5A
:10411000F80187A190A5A1A5B2A5C816D906EA06FF
:10412000FB0648F1AB2809F4A9CF4AA55BA56CA50D
:104130007DA5CE010E94281C6B017C0187E090E0E8
:10414000C114D104E104F10459F2F1E0CF16D10415
:10415000E104F10419F22FEFC216D206E206F206CC
:10416000A1F2B701A601C8010E948E1F892B69F632
:104170008D8184608D83CAA6DBA6ECA6FDA6B7015F
:10418000A601C8010E94FD126EA77FA788AB99AB5C
:104190004EA25FA268A679A6C801895B9F4FA1E0E5
:1041A0005A22840D951D9BAB8AAB90E080E098CF9E
:1041B000B0E0A0E0EEEDF0E20C943C5A8C01FC0182
:1041C00080819181FC01C584D684F80146A557A55C
:1041D00060A971A90E948E16EC01892B09F09BC081
:1041E000F80162A973A9FB018081853809F091C0AB
:1041F00040E250E0C6010E942A16F601E180F12C4F
:10420000FFEFEF1AFF0A25E0EE0CFF1C2A95E1F7FD
:10421000C701805691098130924008F07AC070E061
:1042200060E0C8010E94DB1FEC018430910509F4B5
:1042300070C0892B09F06FC0F80146A557A560A989
:1042400071A9808191810E948E16EC01892B09F061
:1042500062C0F80162A973A9FB018081803C09F06A
:1042600058C040E250E0C60180960E942A16F6012E
:1042700083A190E08C966FE070E00E946C5995E00D
:10428000660F771F9A95E1F7E616F70608F441C026
:1042900080E4A82EB12C70E060E0C8010E94DB1F12
:1042A000EC0184309105A9F1892BA9F5F80146A507
:1042B00057A560A971A9808191810E948E16EC0199
:1042C000892B49F5F80162A973A9FB018081813C22
:1042D00001F5F0E6AF16F2E0BF0638F440E250E038
:1042E000C6018A0D9B1D0E942A1620E2A20EB11C57
:1042F000AE14BF0480F281E6A81682E0B80658F436
:10430000C6010E946013F601228133818217930750
:1043100011F0C2E0D0E0CE01CDB7DEB7EAE00C94F8
:10432000585A0F931F93CF93DF93EC01FB018081C9
:10433000918199838883828D938DA48DB58D8E8391
:104340009F83A887B987068D178D20A131A10D8382
:1043500000270A871B872C873D871E861F86188AA1
:10436000198A1E8A1F8A188E198E42A153A164A130
:1043700075A1FE01E05CFF4F40835183628373832C
:10438000CE010E9493199C01892B21F4CE010E9439
:10439000D8209C01C901DF91CF911F910F91089501
:1043A000B0E0A0E0E6EDF1E20C94365AEC016B01CE
:1043B000E880F98088248A9455245A9404E010E017
:1043C000BDE04B2E8AEA682E81E0782E5E0180E403
:1043D000A80EB11C4EA55FA568A979A94115510584
:1043E0006105710521F401151105C1F0B6C0C701C1
:1043F0000E948E168C01892B09F0AFC0EAA9FBA997
:104400009080992009F4CAC0D7018C91843059F565
:10441000C114D10459F0B3E89B1296C010E000E03B
:10442000C801CDB7DEB7E0E10C94525AE5E89E1220
:104430008BC08EA19FA1A8A5B9A5FE01E05CFF4F8E
:1044400080839183A283B383CE010E94D8208C0104
:10445000892B09F082C0D7011D96ED91FC918481D2
:104460008F738C83DDCF23852F732C83B5EE9B1642
:1044700009F47BC08EE2981609F477C081E090E0E1
:10448000322F3F71383009F080E08C159D0509F01E
:104490006CC02F3009F070C096FE64C08584E8942B
:1044A00096F84EA15FA168A579A5D5014D935D93BE
:1044B0006D937C9313978585881157C0828D938D5A
:1044C000892B09F052C0D7011B964D915C91208138
:1044D0002F7B2150330B429EC001439E900D11242F
:1044E0000DE911E021E030E0D8016D918D016E0FF2
:1044F0007F2F711DDB016D917C9121153105C1F17B
:104500008F3F910509F088F59C01220F331F240F7E
:10451000351FD9016D937C939B010196601671063E
:1045200019F7608166FF0DC0232B59F08F3F91056D
:1045300009F0D8F4880F991F840F951FFC01118290
:10454000108255245A94590C60E070E0CE010E940C
:10455000DB1F8C01892B09F43DCF1EA61FA618AACC
:1045600019AA5ECF591409F4A6CF55245A94ECCF5A
:104570006F3F7F4F99F2F9CF511006C0CF010E94D3
:104580004F13881509F44ACFC05CDF4F8FEF9FEFC0
:10459000DC0188839983AA83BB8342CF04E010E0C7
:1045A000DCCFB0E0A0E0E7EDF2E20C943C5A8C01E5
:1045B0007B01DC01CD90DC9040E050E0BA010E942C
:1045C0009319EC01892BF1F4F80146A557A560A9D0
:1045D00071A9C6010E948E165C01009751F5D801A1
:1045E000D296ED91FC918081F60190819430B9F4DE
:1045F00087FF19C061E070E0C8010E94DB1FEC0179
:10460000892B59F0C430D10511F4C7E0D0E0CE01B8
:10461000CDB7DEB7EAE00C94585AE501D5CF853E18
:1046200011F08111E7CF2196CE15DF0521F05E0153
:10463000E1CFEC01E7CFD0E0C0E0E9CFB0E0A0E00F
:10464000E4E2F3E20C943D5A8C01DC01ED91FC9123
:10465000E584F684C7010E946013F7019383828387
:10466000C180F801E05CFF4F40815181628173811C
:10467000C8010E949319EC01D12CBB24B39420975C
:1046800051F0CE01239710F082E090E0CDB7DEB775
:10469000E9E00C94595AD8019E964D915D916D9127
:1046A0007C91D1978D919C910E948E16EC01892B63
:1046B00041F740E250E0B701F80182A993A90E94B6
:1046C0002A16D801ED91FC91B382C114D104C9F22C
:1046D000B0E2EB0EF11C70E060E0C8010E94DB1F4D
:1046E000EC01E1E0CE1AD108CACFB0E0A0E0EBE7E0
:1046F000F3E20C943C5AEC0108811981CEA0DFA0B2
:10470000E8A4F9A4FC01E05CFF4F40815181628183
:1047100073814F3F8FEF58076807780781F585EE63
:10472000B82EAA24A3944EA55FA568A979A9C801AB
:104730000E948E169C01892BE1F4EAA9FBA9D801FD
:104740008C91843041F580818F778083F801A3823A
:104750008EA19FA1A8A5B9A58C159D05AE05BF0585
:10476000A0F470E060E0CE010E94DB1F9C01892B69
:10477000D1F22430310549F422E030E006C0CE0108
:104780000E9493199C01892B51F2C901CDB7DEB764
:10479000EAE00C94585AB082D9CFAEE0B0E0E3ED35
:1047A000F3E20C94345A4C01DC010D90BC91A02D25
:1047B000BE83AD8340E050E0BA010E9493191C0112
:1047C000892BB9F4ED81FE818081843009F07BC0B2
:1047D000838594850E94F2157C0170E060E0C4013D
:1047E0000E94D0218F839887AF81B885109731F0D0
:1047F0001D01C1012E96E2E10C94505AAD81BE819B
:104800001D96ED91FC9184A195A1E816F90629F772
:10481000C3A0D12C00E410E0AF80B884AA0CBB1C6C
:104820008F8198858C159D0569F4AD81BE811B969D
:104830008D919C91A80EB91EF50180819181892BE3
:1048400061F6D7CFC8018F719927892B11F40E5FBC
:104850001F4FAD81BE811D96ED91FC91E00FF11FC0
:10486000808191819C0150E040E029833A834B8311
:104870005C83CA01B9010E940B4C2B013C01AD8144
:10488000BE811B968D919C91A80EB91EF501808169
:1048900091819C0150E040E0CA01B9010E940B4C9B
:1048A00069837A838B839C8346165706680679064C
:1048B00009F093CF0E5F1F4F4F8158854F5F5F4FB9
:1048C00058874F83A9CF8401005C1F4F8FEF9FEF64
:1048D000DC01F80180839183A283B383CC24CA9442
:1048E000FFEFF98394012C5C3F4F3E872D87D40165
:1048F0009E964D915D916D917C91D1978D819E8118
:104900000E948E169C01892B09F0C5C0F401E2A813
:10491000F3A8D701DC90DD2009F401C11B969C911E
:10492000892F8F738483B5EEDB1621F093FF0EC0C1
:104930008F3079F02FEFF80120833FEF31834FEF75
:1049400042835FEF53838FEF89839CC08F3009F0E0
:10495000B2C0D401DF968C91DF9786FD93C0D6FE5E
:104960009CC0F701C584E894D6F896968D919D91E8
:104970000D90BC91A02DF80180839183A283B38315
:10498000D7011D968C911D978C11DDCF5A968D9174
:104990009C915B97892B09F0B6C0ED81FE81638401
:1049A00074848C918F738150990B4DE0489F9001D6
:1049B000499F300D112438872F833DE9432E31E084
:1049C000532E81E090E0D2012D912D01F701E20FED
:1049D000F11DA080B180009709F466C0EF81F885D1
:1049E000EF3FF10511F008F091C050E040E0CA013E
:1049F000B5010E940B4C69837A838B839C834F8122
:104A000058854F5F5F4F5C874B878F819885880FF4
:104A1000991F860D971DDC018D919C919C0150E0A2
:104A200040E0CA01B9010E940B4C6F8378878987E7
:104A30009A8729813A814B815C812617370748077D
:104A4000590709F066C0C5014B855C8558874F83BF
:104A5000AAEA4A16A1E05A0609F0B5CFF70120816B
:104A600026FF0EC0892B61F02F813885220F331F5E
:104A7000260D371DD9018D919C91892B09F04CC0D1
:104A8000DA94D98270E060E0C4010E94DB1F9C01CF
:104A9000892B09F42CCF1901ACCEF981FD1509F44D
:104AA0006FCF5FEF5983EECF5FEFA516B50681F2AA
:104AB000EFEFE983E7CFB981B11106C0C7010E94CA
:104AC0004F138C1509F495CEF40187AD80FD0AC013
:104AD0004BE050E06D857E85C7010E94E712892B6F
:104AE00009F487CEEFEFD801EC93FFEF1196FC931A
:104AF00011972FEF12962C9312973FEF13963C933A
:104B00004FEF4983BFCF9FEF9983BCCFAFEFA9830E
:104B1000B9CFBFEFB983B6CFFFEFF983B3CF84E04E
:104B2000282E312C66CEA2E5B0E0E9E9F5E20C943E
:104B3000345A4C01DC01DF968C91DF97807A582E35
:104B400006E010E009F021C16D907C90D3011B9626
:104B5000ED91FC91F12CE12C81919191892B09F03F
:104B60001AC1F3018081843009F01BC1C7010E9680
:104B70006FE070E00E946C597B016E5F7F4FC40153
:104B80000E94D1228C01892B09F0FFC09401205C86
:104B90003F4FFFEFEF1AFF0A45E0EE0CFF1C4A956E
:104BA000E1F7F40186A197A1A0A5B1A58E199F09EF
:104BB000A109B109F90180839183A283B383D40150
:104BC00015968C91159782FF8CC08B7F15968C93D0
:104BD000C4010E94591F8C01892B09F0D6C0F40131
:104BE00042A553A564A575A50FEF1FEF9801C40159
:104BF0000E94D81B8C01892B09F0C7C0F401868163
:104C00009781A085B185892B8A2B8B2B09F469C0EC
:104C1000B401CE0101960E9491218C01892B09F0EB
:104C2000B4C0D3011996AD90BC901A97D12CC12C69
:104C300039E0AA0CBB1CCC1CDD1C3A95D1F79501C0
:104C4000A60160E070E080E090E0F401A284B3840B
:104C5000C484D584E684F784008911890E94885A27
:104C600089019A01AB01BC0102871387248735872C
:104C700046875787808B718B1D968D919C91C89626
:104C80000E94CE12D4011A960C911A971B961C9171
:104C90001B971C962C911C971D963C911D971E9658
:104CA0004C911E971F965C911F9750966C91509750
:104CB00051967C91F3018585968588960E94CE1247
:104CC000D3011D96ED91FC91D40115968C918160D4
:104CD00081A3CE0101960E941E238C01892B09F02D
:104CE00054C0F301C384D484E584F68440E450E0E6
:104CF00070E060E0C7010E94DC1285E8D7018C9368
:104D000080EC90968C9380E021E030E040E450E02D
:104D100091EC64E070E06E197F09F701E40FF51F74
:104D2000908311822115310561F0A52DB0E0AA0F05
:104D3000BB1FAC0DBD1D2D913C912115310509F016
:104D4000539422833383AB014E0F5F1F3296DA01F7
:104D5000AF71BB27AB2B31F7E1E0E80FA52DB0E039
:104D6000AA0FBB1FAC0DBD1D0D911C9101151105A6
:104D7000B1F4F70153A28E5F8183C6010E94F21540
:104D8000D70195969C938E939497C801CE5ADF4F86
:104D9000E2E10C94505ABFEFEB1AFB0ADDCE8E2FE6
:104DA000BCCF2401B4E34B0E511C4CE050E0B201E7
:104DB0008E010F5F1F4FC8010E942A168C852E9608
:104DC0000FAF2E972F961FAF2F9760964FAE60971D
:104DD00061965FAE619780FF3EC180E4F40187AFCA
:104DE000A12CB12C6501A3948501D3011B962C90B5
:104DF0001B971C963C904BE050E02E966FAD2E9783
:104E00002F967FAD2F97C2010E942A16F101B6019D
:104E1000A5010630110508F074C0FE01EB5BFF4FE1
:104E200087E090E0AF01302F3F7020E3230F2A335B
:104E300010F027E3230F01972783980164E036954C
:104E400027956A95E1F731970031110508F05FC0A9
:104E5000FA01E80FF91F2EE720836096EFAD609707
:104E60006196FFAD619730E020E02817390739F0EF
:104E7000A191B9016F5F7F4FA03209F04AC060E293
:104E80008830910528F4FA01E80FF91F6081019636
:104E90002F5F3F4FF401E20FF31F63AB2830310562
:104EA00070F3C4010E94CD238C01009709F0CCC09F
:104EB0003FEFA31AB30AC30AD30A84E6A816B104C3
:104EC000C104D10409F090CF07E010E05ECF20E1EB
:104ED00030E0440F551F661F771FDC01A170BB2710
:104EE0004A0F5B1F611D711D9695879560FF06C077
:104EF000B1E24B27B0E15B27B1E06B2721503109CC
:104F000041F781919191009711F78A0186CF89012C
:104F10008ACF9B01AACFEE24E394F12CA9C0F4011F
:104F200046A157A160A571A5C701B5E0880F991FDB
:104F3000BA95E1F7481B590B61097109C4010E9438
:104F400093198C01892B09F020CFC2010E944F13C5
:104F5000282EEFE03E2EFDE0AF2EAAEACA2EA1E0F9
:104F6000DA2EBB24B394D4019E964D915D916D9140
:104F70007C91D197C3010E948E168C01892B09F078
:104F800004CF6E2DD401D296ED91FC91D3011B96E6
:104F90004D915C91258633861486128E138E8E2D4C
:104FA0008150990B9C01A29EC001A39E900D1124DB
:104FB000ADE9B1E06396BFAFAEAF63970F3F1007A7
:104FC00049F09C01220F331F240F351FD9010D9189
:104FD0001C9101966396AEADBFAD63972D9163961C
:104FE000BFAFAEAF63972E0F3F2F311DD9010D9389
:104FF0001C930115110511F40FEF1FEF63962EADF1
:105000003FAD6397C216D306C9F60F3F1F4F49F055
:10501000880F991F840F951FDC018D919C91892B1E
:1050200009F460646083F301B38270E060E0C4015E
:105030000E94DB1F8C01892B09F0A7CEF1E0EF1A4B
:10504000F10809F090CF21C0049709F09ECE8C851D
:10505000D401DF968C938C8581FF5DCFC7010C96C0
:105060006DE070E00E946C597B01BFEFEB1AFB0A08
:10507000B701C4010E94D1228C01892B09F085CE91
:10508000E1E0EE1AF10809F04ACFD4019E964D9165
:105090005D916D917C91D197C3010E948E168C0118
:1050A000892B09F072CE40E250E070E060E0D4015C
:1050B000D2968D919C910E94DC124BE050E0B2019F
:1050C000F40182A993A90E942A16D401D296ED91E7
:1050D000FC91D397DF968C918871848781E0F301EE
:1050E000838353CEAFE2B0E0E8E7F8E20C94345AA1
:1050F0006B01142FDB011D921C920E9484137C0112
:105100008BE090E0F7FC21C0F701EE0FFF1FEA5B98
:10511000FE4D808091808CE090E081149104A9F094
:10512000F601918280821E7FD4018C91882389F0C0
:1051300011968C910E94660B80FD0BC0112309F41F
:1051400056C282FF54C28AE090E0AF96E2E10C942E
:10515000505AF4011082E1828E2D0E946D0B80FD69
:1051600011C4112311F082FDEECF40E050E0BA01EE
:10517000C4010E94651A9C018230910509F085C125
:105180007401F3EFEF1AFDEFFF0A8E010F5F1F4F5F
:10519000540123EBA21A2DEFB20A6801C7010E9445
:1051A000B312D6016D937D938D939D936D01B0E104
:1051B000EB0EF11CEA14FB0489F77801E0E1EE0E36
:1051C000F11CD8014D915D916D917D918D0123E090
:1051D00030E0411551056105710509F44EC1C40166
:1051E0000E94651A9C01029708F047C1F401ED5B2B
:1051F000FF4F40805180628073803F96213031059F
:1052000009F0F8C1940129573F4F8191811146C19E
:10521000E217F307D1F7F401E155FF4F8081918147
:105220008115914009F03AC1F401ED54FF4F80819E
:10523000893009F033C1C40181579F4F0E94C412C5
:1052400059016A017B018C01A301920160E070E0C9
:10525000CB01498A3A8B6B8A5C8B6D8B7E8B8F8BF3
:10526000988F60E070E080E090E00E94885A29A367
:105270003DA349A75DA7362E272E8EA79FA72F3FB8
:105280003F4F4F4F5F4F610571058105910511F04B
:1052900008F004C1C40185569F4F0E94B312F40167
:1052A00063A774A785A796A7EB54FF4F8081D4010D
:1052B00012968C93813009F0F1C03197808101E022
:1052C00010E002C0000F111F8A95E2F7F401128767
:1052D00001870115110509F4E1C0C4018D559F4FE7
:1052E0000E94B3126B017C01FEEFCF16FFEFDF06C9
:1052F000EF06FFE7FF0608F0D1C0DC01CB01029604
:10530000A11DB11DF40187A390A7A1A7B2A747A62D
:1053100050AA61AA72AAC40181569F4F0E94B3127B
:10532000640D751D861D971D698B7A8B8B8B9C8BED
:10533000F40163AF74AF85AF96AFC40189569F4F38
:105340000E94B312460E571E681E791ED401D396D2
:105350004D925D926D927C92D697D801A7019601ED
:105360000E94CA599B01AC0160E070E0CB01298F1B
:105370003A8F4B8F5C8F6D8F7E8F8F8F98A349896B
:105380005A896B897C899A01AB0160E070E0CB019E
:10539000298B3A8B4B8B5C8B6D8B7E8B8F8B988F95
:1053A000298D3A8D4B8D5C8D60E070E080E090E05F
:1053B000A988BA88CB88DC88E12CF12C00E010E0C9
:1053C0000E94885AA9A0BDA0C9A4DDA4E32CF22C98
:1053D0000EA51FA50E94A65A11F008F05FC0C401D7
:1053E00089559F4F0E94B312D401D7966D937D9338
:1053F0008D939C93DA97C12CD12C7601412C512CA2
:105400003201C114D104E104F10429F5F4018185CC
:105410009285B0E0A0E0481659066A067B06F0F5D2
:1054200047A950AD61AD72ADC4010E94FD12698BF8
:105430007A8B8B8B9C8BAB01BC01440D551D661D7B
:10544000771DC4010E948E16892B11F5FFEF4F1AAC
:105450005F0A6F0A7F0AF401EC0DFD1DE95BFF4F47
:1054600080818138F1F020E2C20ED11CE11CF11CD8
:1054700031E0D322EE24FF24C4CF0E151F0509F01E
:10548000A0CE2430310551F403C08430910519F4C5
:1054900081E090E05ACE029708F4A8CE8DE090E02B
:1054A00054CE8401095B1F4F44E1C40ED11CC801D6
:1054B0008C0D9D1D0E94B3126B017C0152E0C5163C
:1054C000D104E104F10450F3F40187A190A5A1A552
:1054D000B2A5C816D906EA06FB0600F75401FFE399
:1054E000AF0EB11CF401A185B285A701960122502F
:1054F0003109410951090E94CA59698B7A8B8B8BFA
:105500009C8B83AD94ADA5ADB6AD29893A894B8905
:105510005C89820F931FA41FB51FF50180839183BF
:10552000A283B383F40183A994A9A5A9B6A9B7015D
:10553000A601E7E07695679557954795EA95D1F7E7
:10554000480F591F6A1F7B1FC4010E948E16892BAA
:1055500009F09ECFC6018F779927880F991F880F72
:10556000991F800F911F0E94B312462F572FBC0125
:105570004F3FFFEF5F076F077F0759F02FEFC21A0A
:10558000D20AE20AF20A4C155D056E057F0551F25A
:1055900085CFD40153964D935D936D937C9356972D
:1055A000F4014787508B618B728B04E010E0D401CB
:1055B0000C9380914421909145210196909345212F
:1055C0008093442116969C938E93159783EE9CE1CD
:1055D0001C969C938E931B9783EE9EE11E969C9344
:1055E0008E931D97F401178A108E118E128E90E003
:1055F00080E0ABCD808191818115924009F04ECF42
:10560000F401E35AFF4F808191819C0150E040E01A
:10561000298B3A8B4B8B5C8B892B49F4C4018559C0
:105620009F4F0E94B312698B7A8B8B8B9C8B49891D
:105630005A896B897C89D4019B964D935D936D93B8
:105640007C939E97F401E95AFF4F0081F401028395
:105650008FEF800F823008F021CFEC5AFF4F10817E
:10566000812F90E01A969C938E931997009709F4D6
:1056700015CF9C012150310982239323892B09F0F6
:105680000DCF349620803180F40130862782C1010D
:105690008F709927892B09F001CFE65AFF4F80813F
:1056A00091816C01F12CE12C892B39F4C4018959C9
:1056B0009F4F0E94B3126B017C01F401EB5AFF4F24
:1056C0000190F081E02D309709F4E8CEA02FB0E0F2
:1056D00029893A894B895C890E94CA5969A77AA7A6
:1056E0008BA79CA79F0150E040E029A33AA34BA3BE
:1056F0005CA3C10164E0969587956A95E1F7280F50
:10570000391F411D511DDA01C90149A55AA56BA5D3
:105710007CA5480F591F6A1F7B1F498F5A8F6B8FBB
:105720007C8FC416D506E606F70608F4B7CED70177
:10573000C601841B950BA60BB70B8DA39EA3AFA32D
:10574000B8A7C12ED12CF12CE12CBC01CD01A701B1
:1057500096010E9480596DA17EA18FA198A56C151C
:105760007D058E059F0508F499CE263F7FEF37070C
:1057700047077FE0570708F091CE03E010E0263F8F
:105780008FEF38074105510550F401E010E0263F46
:105790006FE036074105510510F002E010E06901A5
:1057A0007A0192E0C90ED11CE11CF11CD40197963C
:1057B000CD92DD92ED92FC929A97F40147A650AA01
:1057C00061AA72AA89A19AA1ABA1BCA1840D951D61
:1057D000A61DB71D83AB94ABA5ABB6AB498D5A8D57
:1057E0006B8D7C8D440D551D661D771D43AF54AFE9
:1057F00065AF76AF0330110509F092C0EF58FF4F47
:1058000080819181282A392A2114310409F046CE59
:10581000C4018D589F4F0E94B312D401D7966D9347
:105820007D938D939C93DA9742E0CC0CDD1CEE1CAB
:10583000FF1C4A95D1F72FEFC20E21E0D21EE11CCA
:10584000F11C89E0F694E794D794C7948A95D1F730
:1058500049895A896B897C894C155D056E057F05E0
:1058600008F41CCE8FEF9FEFDC01F401838B948B47
:10587000A58BB68B8787908BA18BB28B80E88483B6
:105880000330110509F093CEE958FF4F80819181D3
:10589000019709F08CCEB301A2014F5F5F4F6F4FAC
:1058A0007F4FC4010E948E16892B09F080CED4014F
:1058B00014961C92F401EB5BFD4F8081918185353C
:1058C0009A4A09F074CEC401895B9F4F0E94B312BB
:1058D000623572458146914409F069CEC401855D07
:1058E0009D4F0E94B312623772478144914609F07E
:1058F0005ECEC401815D9D4F0E94B312D4015396C8
:105900006D937D938D939C935697C4018D5C9D4FB1
:105910000E94B312F4016787708B818B928B47CE04
:105920002114310409F4BACD29A53AA54BA55CA5EB
:10593000820F931FA41FB51F87AB90AFA1AFB2AF6B
:105940000230110529F4CC0CDD1CEE1CFF1C73CFBA
:10595000A3E0B0E0A70196010E94CA59698F7A8F2F
:105960008B8F9C8FDC01CB01B695A795979587957A
:10597000F1E0CF22DD24EE24FF24C80ED91EEA1E5A
:10598000FB1E59CF83E090E0E0CB0F931F93CF93A2
:10599000DF938C01EB01C4960E94B3126E837F8368
:1059A00088879987C801C8960E94C4122A873B87B6
:1059B0004C875D876E877F87888B998BD8019196FE
:1059C0008C9182708D831E8A1F8A188E198EDF91AA
:1059D000CF911F910F9108950F931F93282FFB01D3
:1059E000628D738D90E080E0233059F4048915892D
:1059F00030E020E0980111270027602B712B822BCB
:105A0000932B1F910F910895A7E5B0E0EAE0FDE226
:105A10000C94345A8C012B01DC010D90BC91A02D0B
:105A20002C96BFAFAEAF2C97FB0180818F3211F067
:105A30008C3581F492012901D9018C912F5F3F4F60
:105A40008F32C9F38C35B9F3F801168217821086AC
:105A500011860DC02C96EEADFFAD2C978789908DE9
:105A6000A18DB28DF80186839783A087B187D80175
:105A700056961D921D921D921C9259972C96EEAD32
:105A8000FFAD2C978081843009F058C016968D9117
:105A90009D910D90BC91A02D892B8A2B8B2B09F405
:105AA0004DC0838D948DA58DB68DF801828F938F17
:105AB000A48FB58F2C96EEADFFAD2C97878D90A15E
:105AC000A1A1B2A1F801868F978FA0A3B1A32C96B4
:105AD000EEADFFAD2C9783A194A1A5A1B6A1F801CD
